{
  "_format": "hh-sol-artifact-1",
  "contractName": "RunbitCollection",
  "sourceName": "contracts/RunbitCollection.sol",
  "abi": [
    {
      "inputs": [
        {
          "internalType": "address",
          "name": "admin",
          "type": "address"
        }
      ],
      "stateMutability": "nonpayable",
      "type": "constructor"
    },
    {
      "anonymous": false,
      "inputs": [
        {
          "indexed": true,
          "internalType": "uint256",
          "name": "collectionId",
          "type": "uint256"
        },
        {
          "components": [
            {
              "internalType": "uint64",
              "name": "startId",
              "type": "uint64"
            },
            {
              "internalType": "uint64",
              "name": "stock",
              "type": "uint64"
            },
            {
              "internalType": "uint64",
              "name": "sales",
              "type": "uint64"
            },
            {
              "internalType": "uint64",
              "name": "price0",
              "type": "uint64"
            },
            {
              "internalType": "uint112",
              "name": "price1",
              "type": "uint112"
            },
            {
              "internalType": "uint48",
              "name": "adjust1",
              "type": "uint48"
            },
            {
              "internalType": "uint48",
              "name": "adjust2",
              "type": "uint48"
            },
            {
              "internalType": "uint48",
              "name": "adjust3",
              "type": "uint48"
            },
            {
              "internalType": "uint64",
              "name": "baseSpecialty",
              "type": "uint64"
            },
            {
              "internalType": "uint64",
              "name": "baseComfort",
              "type": "uint64"
            },
            {
              "internalType": "uint64",
              "name": "baseAesthetic",
              "type": "uint64"
            },
            {
              "internalType": "uint32",
              "name": "durability",
              "type": "uint32"
            },
            {
              "internalType": "uint16",
              "name": "level",
              "type": "uint16"
            },
            {
              "internalType": "uint16",
              "name": "status",
              "type": "uint16"
            }
          ],
          "indexed": false,
          "internalType": "struct RunbitCollection.CardCollection",
          "name": "cc",
          "type": "tuple"
        }
      ],
      "name": "CardCollectionAdd",
      "type": "event"
    },
    {
      "anonymous": false,
      "inputs": [
        {
          "indexed": true,
          "internalType": "uint256",
          "name": "collectionId",
          "type": "uint256"
        },
        {
          "components": [
            {
              "internalType": "uint64",
              "name": "startId",
              "type": "uint64"
            },
            {
              "internalType": "uint64",
              "name": "stock",
              "type": "uint64"
            },
            {
              "internalType": "uint64",
              "name": "sales",
              "type": "uint64"
            },
            {
              "internalType": "uint32",
              "name": "level",
              "type": "uint32"
            },
            {
              "internalType": "uint16",
              "name": "equipType",
              "type": "uint16"
            },
            {
              "internalType": "uint8",
              "name": "status",
              "type": "uint8"
            },
            {
              "internalType": "uint8",
              "name": "upgradeable",
              "type": "uint8"
            },
            {
              "internalType": "uint32",
              "name": "capacity",
              "type": "uint32"
            },
            {
              "internalType": "uint48",
              "name": "quality",
              "type": "uint48"
            },
            {
              "internalType": "uint64",
              "name": "price0",
              "type": "uint64"
            },
            {
              "internalType": "uint112",
              "name": "price1",
              "type": "uint112"
            }
          ],
          "indexed": false,
          "internalType": "struct RunbitCollection.EquipCollection",
          "name": "cc",
          "type": "tuple"
        }
      ],
      "name": "EquipCollectionAdd",
      "type": "event"
    },
    {
      "anonymous": false,
      "inputs": [
        {
          "indexed": true,
          "internalType": "address",
          "name": "buyer",
          "type": "address"
        },
        {
          "indexed": true,
          "internalType": "uint256",
          "name": "collectionId",
          "type": "uint256"
        },
        {
          "indexed": false,
          "internalType": "uint256",
          "name": "price",
          "type": "uint256"
        }
      ],
      "name": "NFTCardBuy",
      "type": "event"
    },
    {
      "anonymous": false,
      "inputs": [
        {
          "indexed": true,
          "internalType": "address",
          "name": "to",
          "type": "address"
        },
        {
          "indexed": true,
          "internalType": "uint256",
          "name": "tokenId",
          "type": "uint256"
        },
        {
          "indexed": false,
          "internalType": "uint256",
          "name": "collectionId",
          "type": "uint256"
        },
        {
          "indexed": false,
          "internalType": "string",
          "name": "uri",
          "type": "string"
        },
        {
          "components": [
            {
              "internalType": "uint64",
              "name": "specialty",
              "type": "uint64"
            },
            {
              "internalType": "uint64",
              "name": "comfort",
              "type": "uint64"
            },
            {
              "internalType": "uint64",
              "name": "aesthetic",
              "type": "uint64"
            },
            {
              "internalType": "uint32",
              "name": "durability",
              "type": "uint32"
            },
            {
              "internalType": "uint32",
              "name": "level",
              "type": "uint32"
            }
          ],
          "indexed": false,
          "internalType": "struct IRunbitCard.MetaData",
          "name": "meta",
          "type": "tuple"
        }
      ],
      "name": "NFTCardMint",
      "type": "event"
    },
    {
      "anonymous": false,
      "inputs": [
        {
          "indexed": true,
          "internalType": "address",
          "name": "buyer",
          "type": "address"
        },
        {
          "indexed": true,
          "internalType": "uint256",
          "name": "collectionId",
          "type": "uint256"
        },
        {
          "indexed": false,
          "internalType": "uint256",
          "name": "price",
          "type": "uint256"
        }
      ],
      "name": "NFTCardRedeem",
      "type": "event"
    },
    {
      "anonymous": false,
      "inputs": [
        {
          "indexed": true,
          "internalType": "address",
          "name": "buyer",
          "type": "address"
        },
        {
          "indexed": true,
          "internalType": "uint256",
          "name": "collectionId",
          "type": "uint256"
        },
        {
          "indexed": false,
          "internalType": "uint256",
          "name": "price",
          "type": "uint256"
        }
      ],
      "name": "NFTEquipBuy",
      "type": "event"
    },
    {
      "anonymous": false,
      "inputs": [
        {
          "indexed": true,
          "internalType": "address",
          "name": "user",
          "type": "address"
        },
        {
          "indexed": false,
          "internalType": "uint256",
          "name": "collectionId",
          "type": "uint256"
        },
        {
          "indexed": false,
          "internalType": "uint256",
          "name": "equipId1",
          "type": "uint256"
        },
        {
          "indexed": false,
          "internalType": "uint256",
          "name": "equipId2",
          "type": "uint256"
        },
        {
          "indexed": false,
          "internalType": "uint256",
          "name": "fee",
          "type": "uint256"
        }
      ],
      "name": "NFTEquipForge",
      "type": "event"
    },
    {
      "anonymous": false,
      "inputs": [
        {
          "indexed": true,
          "internalType": "address",
          "name": "to",
          "type": "address"
        },
        {
          "indexed": true,
          "internalType": "uint256",
          "name": "tokenId",
          "type": "uint256"
        },
        {
          "indexed": false,
          "internalType": "uint256",
          "name": "collectionId",
          "type": "uint256"
        },
        {
          "indexed": false,
          "internalType": "string",
          "name": "uri",
          "type": "string"
        },
        {
          "components": [
            {
              "internalType": "uint32",
              "name": "equipType",
              "type": "uint32"
            },
            {
              "internalType": "uint32",
              "name": "upgradeable",
              "type": "uint32"
            },
            {
              "internalType": "uint64",
              "name": "level",
              "type": "uint64"
            },
            {
              "internalType": "uint64",
              "name": "capacity",
              "type": "uint64"
            },
            {
              "internalType": "uint64",
              "name": "quality",
              "type": "uint64"
            }
          ],
          "indexed": false,
          "internalType": "struct IRunbitEquip.MetaData",
          "name": "meta",
          "type": "tuple"
        }
      ],
      "name": "NFTEquipMint",
      "type": "event"
    },
    {
      "anonymous": false,
      "inputs": [
        {
          "indexed": true,
          "internalType": "address",
          "name": "buyer",
          "type": "address"
        },
        {
          "indexed": true,
          "internalType": "uint256",
          "name": "collectionId",
          "type": "uint256"
        },
        {
          "indexed": false,
          "internalType": "uint256",
          "name": "price",
          "type": "uint256"
        }
      ],
      "name": "NFTEquipRedeem",
      "type": "event"
    },
    {
      "anonymous": false,
      "inputs": [
        {
          "indexed": true,
          "internalType": "address",
          "name": "to",
          "type": "address"
        },
        {
          "indexed": false,
          "internalType": "address",
          "name": "from",
          "type": "address"
        },
        {
          "indexed": false,
          "internalType": "uint256",
          "name": "amount",
          "type": "uint256"
        }
      ],
      "name": "RefeReward",
      "type": "event"
    },
    {
      "anonymous": false,
      "inputs": [
        {
          "indexed": true,
          "internalType": "bytes32",
          "name": "role",
          "type": "bytes32"
        },
        {
          "indexed": true,
          "internalType": "bytes32",
          "name": "previousAdminRole",
          "type": "bytes32"
        },
        {
          "indexed": true,
          "internalType": "bytes32",
          "name": "newAdminRole",
          "type": "bytes32"
        }
      ],
      "name": "RoleAdminChanged",
      "type": "event"
    },
    {
      "anonymous": false,
      "inputs": [
        {
          "indexed": true,
          "internalType": "bytes32",
          "name": "role",
          "type": "bytes32"
        },
        {
          "indexed": true,
          "internalType": "address",
          "name": "account",
          "type": "address"
        },
        {
          "indexed": true,
          "internalType": "address",
          "name": "sender",
          "type": "address"
        }
      ],
      "name": "RoleGranted",
      "type": "event"
    },
    {
      "anonymous": false,
      "inputs": [
        {
          "indexed": true,
          "internalType": "bytes32",
          "name": "role",
          "type": "bytes32"
        },
        {
          "indexed": true,
          "internalType": "address",
          "name": "account",
          "type": "address"
        },
        {
          "indexed": true,
          "internalType": "address",
          "name": "sender",
          "type": "address"
        }
      ],
      "name": "RoleRevoked",
      "type": "event"
    },
    {
      "inputs": [],
      "name": "DEFAULT_ADMIN_ROLE",
      "outputs": [
        {
          "internalType": "bytes32",
          "name": "",
          "type": "bytes32"
        }
      ],
      "stateMutability": "view",
      "type": "function"
    },
    {
      "inputs": [],
      "name": "MANAGE_ROLE",
      "outputs": [
        {
          "internalType": "bytes32",
          "name": "",
          "type": "bytes32"
        }
      ],
      "stateMutability": "view",
      "type": "function"
    },
    {
      "inputs": [
        {
          "components": [
            {
              "internalType": "uint64",
              "name": "startId",
              "type": "uint64"
            },
            {
              "internalType": "uint64",
              "name": "stock",
              "type": "uint64"
            },
            {
              "internalType": "uint64",
              "name": "sales",
              "type": "uint64"
            },
            {
              "internalType": "uint64",
              "name": "price0",
              "type": "uint64"
            },
            {
              "internalType": "uint112",
              "name": "price1",
              "type": "uint112"
            },
            {
              "internalType": "uint48",
              "name": "adjust1",
              "type": "uint48"
            },
            {
              "internalType": "uint48",
              "name": "adjust2",
              "type": "uint48"
            },
            {
              "internalType": "uint48",
              "name": "adjust3",
              "type": "uint48"
            },
            {
              "internalType": "uint64",
              "name": "baseSpecialty",
              "type": "uint64"
            },
            {
              "internalType": "uint64",
              "name": "baseComfort",
              "type": "uint64"
            },
            {
              "internalType": "uint64",
              "name": "baseAesthetic",
              "type": "uint64"
            },
            {
              "internalType": "uint32",
              "name": "durability",
              "type": "uint32"
            },
            {
              "internalType": "uint16",
              "name": "level",
              "type": "uint16"
            },
            {
              "internalType": "uint16",
              "name": "status",
              "type": "uint16"
            }
          ],
          "internalType": "struct RunbitCollection.CardCollection",
          "name": "colection",
          "type": "tuple"
        }
      ],
      "name": "addCardCollection",
      "outputs": [],
      "stateMutability": "nonpayable",
      "type": "function"
    },
    {
      "inputs": [
        {
          "components": [
            {
              "internalType": "uint64",
              "name": "startId",
              "type": "uint64"
            },
            {
              "internalType": "uint64",
              "name": "stock",
              "type": "uint64"
            },
            {
              "internalType": "uint64",
              "name": "sales",
              "type": "uint64"
            },
            {
              "internalType": "uint32",
              "name": "level",
              "type": "uint32"
            },
            {
              "internalType": "uint16",
              "name": "equipType",
              "type": "uint16"
            },
            {
              "internalType": "uint8",
              "name": "status",
              "type": "uint8"
            },
            {
              "internalType": "uint8",
              "name": "upgradeable",
              "type": "uint8"
            },
            {
              "internalType": "uint32",
              "name": "capacity",
              "type": "uint32"
            },
            {
              "internalType": "uint48",
              "name": "quality",
              "type": "uint48"
            },
            {
              "internalType": "uint64",
              "name": "price0",
              "type": "uint64"
            },
            {
              "internalType": "uint112",
              "name": "price1",
              "type": "uint112"
            }
          ],
          "internalType": "struct RunbitCollection.EquipCollection",
          "name": "ec",
          "type": "tuple"
        }
      ],
      "name": "addEquipCollection",
      "outputs": [],
      "stateMutability": "nonpayable",
      "type": "function"
    },
    {
      "inputs": [
        {
          "internalType": "uint256",
          "name": "collectionId",
          "type": "uint256"
        }
      ],
      "name": "buyCard",
      "outputs": [],
      "stateMutability": "nonpayable",
      "type": "function"
    },
    {
      "inputs": [
        {
          "internalType": "uint256",
          "name": "collectionId",
          "type": "uint256"
        }
      ],
      "name": "buyEquip",
      "outputs": [],
      "stateMutability": "nonpayable",
      "type": "function"
    },
    {
      "inputs": [
        {
          "internalType": "uint256",
          "name": "collectionId",
          "type": "uint256"
        },
        {
          "internalType": "uint256",
          "name": "price0",
          "type": "uint256"
        },
        {
          "internalType": "uint256",
          "name": "price1",
          "type": "uint256"
        },
        {
          "internalType": "uint256",
          "name": "status",
          "type": "uint256"
        }
      ],
      "name": "editCardCollection",
      "outputs": [],
      "stateMutability": "nonpayable",
      "type": "function"
    },
    {
      "inputs": [
        {
          "internalType": "uint256",
          "name": "collectionId",
          "type": "uint256"
        },
        {
          "internalType": "uint256",
          "name": "price0",
          "type": "uint256"
        },
        {
          "internalType": "uint256",
          "name": "price1",
          "type": "uint256"
        },
        {
          "internalType": "uint256",
          "name": "status",
          "type": "uint256"
        }
      ],
      "name": "editEquipCollection",
      "outputs": [],
      "stateMutability": "nonpayable",
      "type": "function"
    },
    {
      "inputs": [
        {
          "internalType": "uint256",
          "name": "equipId1",
          "type": "uint256"
        },
        {
          "internalType": "uint256",
          "name": "equipId2",
          "type": "uint256"
        }
      ],
      "name": "forgeEquip",
      "outputs": [],
      "stateMutability": "nonpayable",
      "type": "function"
    },
    {
      "inputs": [],
      "name": "getCardBaseURI",
      "outputs": [
        {
          "internalType": "string",
          "name": "",
          "type": "string"
        }
      ],
      "stateMutability": "view",
      "type": "function"
    },
    {
      "inputs": [],
      "name": "getCardCollectCount",
      "outputs": [
        {
          "internalType": "uint256",
          "name": "",
          "type": "uint256"
        }
      ],
      "stateMutability": "view",
      "type": "function"
    },
    {
      "inputs": [
        {
          "internalType": "uint256",
          "name": "collectionId",
          "type": "uint256"
        }
      ],
      "name": "getCardCollection",
      "outputs": [
        {
          "components": [
            {
              "internalType": "uint64",
              "name": "startId",
              "type": "uint64"
            },
            {
              "internalType": "uint64",
              "name": "stock",
              "type": "uint64"
            },
            {
              "internalType": "uint64",
              "name": "sales",
              "type": "uint64"
            },
            {
              "internalType": "uint64",
              "name": "price0",
              "type": "uint64"
            },
            {
              "internalType": "uint112",
              "name": "price1",
              "type": "uint112"
            },
            {
              "internalType": "uint48",
              "name": "adjust1",
              "type": "uint48"
            },
            {
              "internalType": "uint48",
              "name": "adjust2",
              "type": "uint48"
            },
            {
              "internalType": "uint48",
              "name": "adjust3",
              "type": "uint48"
            },
            {
              "internalType": "uint64",
              "name": "baseSpecialty",
              "type": "uint64"
            },
            {
              "internalType": "uint64",
              "name": "baseComfort",
              "type": "uint64"
            },
            {
              "internalType": "uint64",
              "name": "baseAesthetic",
              "type": "uint64"
            },
            {
              "internalType": "uint32",
              "name": "durability",
              "type": "uint32"
            },
            {
              "internalType": "uint16",
              "name": "level",
              "type": "uint16"
            },
            {
              "internalType": "uint16",
              "name": "status",
              "type": "uint16"
            }
          ],
          "internalType": "struct RunbitCollection.CardCollection",
          "name": "cc",
          "type": "tuple"
        }
      ],
      "stateMutability": "view",
      "type": "function"
    },
    {
      "inputs": [],
      "name": "getEquipBaseURI",
      "outputs": [
        {
          "internalType": "string",
          "name": "",
          "type": "string"
        }
      ],
      "stateMutability": "view",
      "type": "function"
    },
    {
      "inputs": [],
      "name": "getEquipCollectCount",
      "outputs": [
        {
          "internalType": "uint256",
          "name": "",
          "type": "uint256"
        }
      ],
      "stateMutability": "view",
      "type": "function"
    },
    {
      "inputs": [
        {
          "internalType": "uint256",
          "name": "collectionId",
          "type": "uint256"
        }
      ],
      "name": "getEquipCollection",
      "outputs": [
        {
          "components": [
            {
              "internalType": "uint64",
              "name": "startId",
              "type": "uint64"
            },
            {
              "internalType": "uint64",
              "name": "stock",
              "type": "uint64"
            },
            {
              "internalType": "uint64",
              "name": "sales",
              "type": "uint64"
            },
            {
              "internalType": "uint32",
              "name": "level",
              "type": "uint32"
            },
            {
              "internalType": "uint16",
              "name": "equipType",
              "type": "uint16"
            },
            {
              "internalType": "uint8",
              "name": "status",
              "type": "uint8"
            },
            {
              "internalType": "uint8",
              "name": "upgradeable",
              "type": "uint8"
            },
            {
              "internalType": "uint32",
              "name": "capacity",
              "type": "uint32"
            },
            {
              "internalType": "uint48",
              "name": "quality",
              "type": "uint48"
            },
            {
              "internalType": "uint64",
              "name": "price0",
              "type": "uint64"
            },
            {
              "internalType": "uint112",
              "name": "price1",
              "type": "uint112"
            }
          ],
          "internalType": "struct RunbitCollection.EquipCollection",
          "name": "ec",
          "type": "tuple"
        }
      ],
      "stateMutability": "view",
      "type": "function"
    },
    {
      "inputs": [
        {
          "internalType": "uint256",
          "name": "equipType",
          "type": "uint256"
        },
        {
          "internalType": "uint256",
          "name": "level",
          "type": "uint256"
        }
      ],
      "name": "getForgeFee",
      "outputs": [
        {
          "internalType": "uint256",
          "name": "",
          "type": "uint256"
        }
      ],
      "stateMutability": "view",
      "type": "function"
    },
    {
      "inputs": [
        {
          "internalType": "uint256",
          "name": "equipType",
          "type": "uint256"
        },
        {
          "internalType": "uint256",
          "name": "level",
          "type": "uint256"
        }
      ],
      "name": "getForgeNum",
      "outputs": [
        {
          "internalType": "uint256",
          "name": "",
          "type": "uint256"
        }
      ],
      "stateMutability": "view",
      "type": "function"
    },
    {
      "inputs": [],
      "name": "getRefRate",
      "outputs": [
        {
          "internalType": "uint256",
          "name": "",
          "type": "uint256"
        }
      ],
      "stateMutability": "view",
      "type": "function"
    },
    {
      "inputs": [
        {
          "internalType": "bytes32",
          "name": "role",
          "type": "bytes32"
        }
      ],
      "name": "getRoleAdmin",
      "outputs": [
        {
          "internalType": "bytes32",
          "name": "",
          "type": "bytes32"
        }
      ],
      "stateMutability": "view",
      "type": "function"
    },
    {
      "inputs": [
        {
          "internalType": "bytes32",
          "name": "role",
          "type": "bytes32"
        },
        {
          "internalType": "address",
          "name": "account",
          "type": "address"
        }
      ],
      "name": "grantRole",
      "outputs": [],
      "stateMutability": "nonpayable",
      "type": "function"
    },
    {
      "inputs": [
        {
          "internalType": "bytes32",
          "name": "role",
          "type": "bytes32"
        },
        {
          "internalType": "address",
          "name": "account",
          "type": "address"
        }
      ],
      "name": "hasRole",
      "outputs": [
        {
          "internalType": "bool",
          "name": "",
          "type": "bool"
        }
      ],
      "stateMutability": "view",
      "type": "function"
    },
    {
      "inputs": [
        {
          "internalType": "uint256",
          "name": "collectionId",
          "type": "uint256"
        }
      ],
      "name": "redeemCard",
      "outputs": [],
      "stateMutability": "nonpayable",
      "type": "function"
    },
    {
      "inputs": [
        {
          "internalType": "uint256",
          "name": "collectionId",
          "type": "uint256"
        }
      ],
      "name": "redeemEquip",
      "outputs": [],
      "stateMutability": "nonpayable",
      "type": "function"
    },
    {
      "inputs": [
        {
          "internalType": "bytes32",
          "name": "role",
          "type": "bytes32"
        },
        {
          "internalType": "address",
          "name": "account",
          "type": "address"
        }
      ],
      "name": "renounceRole",
      "outputs": [],
      "stateMutability": "nonpayable",
      "type": "function"
    },
    {
      "inputs": [
        {
          "internalType": "bytes32",
          "name": "role",
          "type": "bytes32"
        },
        {
          "internalType": "address",
          "name": "account",
          "type": "address"
        }
      ],
      "name": "revokeRole",
      "outputs": [],
      "stateMutability": "nonpayable",
      "type": "function"
    },
    {
      "inputs": [
        {
          "internalType": "string",
          "name": "baseURI",
          "type": "string"
        }
      ],
      "name": "setCardBaseURI",
      "outputs": [],
      "stateMutability": "nonpayable",
      "type": "function"
    },
    {
      "inputs": [
        {
          "internalType": "string",
          "name": "baseURI",
          "type": "string"
        }
      ],
      "name": "setEquipBaseURI",
      "outputs": [],
      "stateMutability": "nonpayable",
      "type": "function"
    },
    {
      "inputs": [
        {
          "internalType": "address",
          "name": "_refs",
          "type": "address"
        },
        {
          "internalType": "address",
          "name": "_rand",
          "type": "address"
        }
      ],
      "name": "setFactory",
      "outputs": [],
      "stateMutability": "nonpayable",
      "type": "function"
    },
    {
      "inputs": [
        {
          "internalType": "uint256",
          "name": "equipType",
          "type": "uint256"
        },
        {
          "internalType": "uint256",
          "name": "level",
          "type": "uint256"
        },
        {
          "internalType": "uint256",
          "name": "fee",
          "type": "uint256"
        }
      ],
      "name": "setForgeFee",
      "outputs": [],
      "stateMutability": "nonpayable",
      "type": "function"
    },
    {
      "inputs": [
        {
          "internalType": "address",
          "name": "_card",
          "type": "address"
        },
        {
          "internalType": "address",
          "name": "_equip",
          "type": "address"
        }
      ],
      "name": "setNFTs",
      "outputs": [],
      "stateMutability": "nonpayable",
      "type": "function"
    },
    {
      "inputs": [
        {
          "internalType": "uint256",
          "name": "_rate",
          "type": "uint256"
        }
      ],
      "name": "setRefRate",
      "outputs": [],
      "stateMutability": "nonpayable",
      "type": "function"
    },
    {
      "inputs": [
        {
          "internalType": "address",
          "name": "_rb",
          "type": "address"
        },
        {
          "internalType": "address",
          "name": "_card",
          "type": "address"
        },
        {
          "internalType": "address",
          "name": "_equip",
          "type": "address"
        }
      ],
      "name": "setToken",
      "outputs": [],
      "stateMutability": "nonpayable",
      "type": "function"
    },
    {
      "inputs": [
        {
          "internalType": "bytes4",
          "name": "interfaceId",
          "type": "bytes4"
        }
      ],
      "name": "supportsInterface",
      "outputs": [
        {
          "internalType": "bool",
          "name": "",
          "type": "bool"
        }
      ],
      "stateMutability": "view",
      "type": "function"
    }
  ],
  "bytecode": "0x60806040523480156200001157600080fd5b5060405162005ac538038062005ac5833981016040819052620000349162000115565b6200004160008262000074565b6200006d7fa076a07f65bcd51bcb15a0f01a65bc18f2d922acb81bcfd8af4caf5adb5570918262000074565b5062000147565b6000828152602081815260408083206001600160a01b038516845290915290205460ff1662000111576000828152602081815260408083206001600160a01b03851684529091529020805460ff19166001179055620000d03390565b6001600160a01b0316816001600160a01b0316837f2f8788117e7eff1d82e926ec794901d17c78024a50270940304540a733656f0d60405160405180910390a45b5050565b6000602082840312156200012857600080fd5b81516001600160a01b03811681146200014057600080fd5b9392505050565b61596e80620001576000396000f3fe608060405234801561001057600080fd5b506004361061020b5760003560e01c806391d148541161012a578063c70f5eaa116100bd578063d1872ccb1161008c578063e715757c11610071578063e715757c146106cb578063ea57af46146106de578063ed755dbe146106f157600080fd5b8063d1872ccb146106a5578063d547741f146106b857600080fd5b8063c70f5eaa14610435578063c8cfa39114610448578063cf9811781461045b578063cff550b01461048657600080fd5b8063a1f2fba1116100f9578063a1f2fba1146103ff578063a217fddf14610412578063aa531bb61461041a578063b919ed3c1461042257600080fd5b806391d148541461038d5780639335b73f146103d157806393b8207a146103d9578063992cf122146103ec57600080fd5b80635e825564116101a25780636f36980b116101715780636f36980b14610334578063779af9fc146103475780637f6c7f101461034f57806386d3e93a1461036257600080fd5b80635e825564146102d257806360a4b76a146102e5578063679a1be91461030c5780636c5787d81461031f57600080fd5b806335b6bba3116101de57806335b6bba31461028657806336568abe1461029957806352f33544146102ac57806357492d1f146102bf57600080fd5b806301ffc9a714610210578063248a9ca3146102385780632606ab79146102695780632f2ff15d14610271575b600080fd5b61022361021e3660046149a4565b6108d8565b60405190151581526020015b60405180910390f35b61025b6102463660046149e6565b60009081526020819052604090206001015490565b60405190815260200161022f565b600b5461025b565b61028461027f366004614a21565b610971565b005b6102846102943660046149e6565b61099b565b6102846102a7366004614a21565b6109cb565b6102846102ba366004614a51565b610a83565b6102846102cd366004614af0565b611954565b6102846102e0366004614bbf565b61198a565b61025b7fa076a07f65bcd51bcb15a0f01a65bc18f2d922acb81bcfd8af4caf5adb55709181565b61028461031a3660046149e6565b6119e9565b61032761205e565b60405161022f9190614c5b565b6102846103423660046149e6565b6120f0565b600c5461025b565b61028461035d366004614bbf565b6125aa565b61025b610370366004614a51565b600091825260116020908152604080842092845291905290205490565b61022361039b366004614a21565b60009182526020828152604080842073ffffffffffffffffffffffffffffffffffffffff93909316845291905290205460ff1690565b610327612609565b6102846103e7366004614c6e565b612618565b6102846103fa3660046149e6565b61271b565b61028461040d366004614ca0565b612bed565b61025b600081565b60015461025b565b610284610430366004614ceb565b612c5d565b6102846104433660046149e6565b612ca4565b610284610456366004614db1565b61332d565b61025b610469366004614a51565b6000918252600f6020908152604080842092845291905290205490565b6106986104943660046149e6565b604080516101c081018252600080825260208201819052918101829052606081018290526080810182905260a0810182905260c0810182905260e08101829052610100810182905261012081018290526101408101829052610160810182905261018081018290526101a0810191909152506000908152600d602090815260409182902082516101c081018452815467ffffffffffffffff8082168352680100000000000000008083048216958401959095527001000000000000000000000000000000008083048216968401969096527801000000000000000000000000000000000000000000000000918290048116606084015260018401546dffffffffffffffffffffffffffff811660808501526e010000000000000000000000000000810465ffffffffffff90811660a0860152740100000000000000000000000000000000000000008204811660c08601527a0100000000000000000000000000000000000000000000000000009091041660e0840152600290930154808416610100840152938404831661012083015293830490911661014082015291810463ffffffff166101608301527c0100000000000000000000000000000000000000000000000000000000810461ffff9081166101808401527e01000000000000000000000000000000000000000000000000000000000000909104166101a082015290565b60405161022f9190614e8b565b6102846106b3366004614af0565b61374c565b6102846106c6366004614a21565b613782565b6102846106d9366004614c6e565b6137a7565b6102846106ec366004614fd4565b6138c4565b6108cb6106ff3660046149e6565b6040805161016081018252600080825260208201819052918101829052606081018290526080810182905260a0810182905260c0810182905260e0810182905261010081018290526101208101829052610140810191909152506000908152600e6020908152604091829020825161016081018452815467ffffffffffffffff808216835268010000000000000000820481169483019490945270010000000000000000000000000000000081048416948201949094527801000000000000000000000000000000000000000000000000840463ffffffff90811660608301527c0100000000000000000000000000000000000000000000000000000000850461ffff1660808301527e01000000000000000000000000000000000000000000000000000000000000850460ff90811660a08401527f010000000000000000000000000000000000000000000000000000000000000090950490941660c082015260019091015492831660e0820152640100000000830465ffffffffffff166101008201526a0100000000000000000000830490911661012082015272010000000000000000000000000000000000009091046dffffffffffffffffffffffffffff1661014082015290565b60405161022f91906150d9565b60007fffffffff0000000000000000000000000000000000000000000000000000000082167f7965db0b00000000000000000000000000000000000000000000000000000000148061096b57507f01ffc9a7000000000000000000000000000000000000000000000000000000007fffffffff000000000000000000000000000000000000000000000000000000008316145b92915050565b60008281526020819052604090206001015461098c81613bcc565b6109968383613bd9565b505050565b7fa076a07f65bcd51bcb15a0f01a65bc18f2d922acb81bcfd8af4caf5adb5570916109c581613bcc565b50600155565b73ffffffffffffffffffffffffffffffffffffffff81163314610a75576040517f08c379a000000000000000000000000000000000000000000000000000000000815260206004820152602f60248201527f416363657373436f6e74726f6c3a2063616e206f6e6c792072656e6f756e636560448201527f20726f6c657320666f722073656c66000000000000000000000000000000000060648201526084015b60405180910390fd5b610a7f8282613cc9565b5050565b600480546040517f2cf003c2000000000000000000000000000000000000000000000000000000008152339281019290925260009173ffffffffffffffffffffffffffffffffffffffff90911690632cf003c290602401602060405180830381865afa158015610af7573d6000803e3d6000fd5b505050506040513d601f19601f82011682018060405250810190610b1b91906151dd565b73ffffffffffffffffffffffffffffffffffffffff1603610b98576040517f08c379a000000000000000000000000000000000000000000000000000000000815260206004820152600e60248201527f4e6f7420616374697661746564210000000000000000000000000000000000006044820152606401610a6c565b600a546040517f6352211e00000000000000000000000000000000000000000000000000000000815260048101849052339173ffffffffffffffffffffffffffffffffffffffff1690636352211e90602401602060405180830381865afa158015610c07573d6000803e3d6000fd5b505050506040513d601f19601f82011682018060405250810190610c2b91906151dd565b73ffffffffffffffffffffffffffffffffffffffff1614610ca8576040517f08c379a000000000000000000000000000000000000000000000000000000000815260206004820152600a60248201527f6e6f74206f776e657221000000000000000000000000000000000000000000006044820152606401610a6c565b600a546040517f6352211e00000000000000000000000000000000000000000000000000000000815260048101839052339173ffffffffffffffffffffffffffffffffffffffff1690636352211e90602401602060405180830381865afa158015610d17573d6000803e3d6000fd5b505050506040513d601f19601f82011682018060405250810190610d3b91906151dd565b73ffffffffffffffffffffffffffffffffffffffff1614610db8576040517f08c379a000000000000000000000000000000000000000000000000000000000815260206004820152600a60248201527f6e6f74206f776e657221000000000000000000000000000000000000000000006044820152606401610a6c565b600a546040517faf6a34760000000000000000000000000000000000000000000000000000000081526004810184905260009173ffffffffffffffffffffffffffffffffffffffff169063af6a34769060240160a060405180830381865afa158015610e28573d6000803e3d6000fd5b505050506040513d601f19601f82011682018060405250810190610e4c91906151fa565b600a546040517faf6a34760000000000000000000000000000000000000000000000000000000081526004810185905291925060009173ffffffffffffffffffffffffffffffffffffffff9091169063af6a34769060240160a060405180830381865afa158015610ec1573d6000803e3d6000fd5b505050506040513d601f19601f82011682018060405250810190610ee591906151fa565b9050806040015167ffffffffffffffff16826040015167ffffffffffffffff1614610f6c576040517f08c379a000000000000000000000000000000000000000000000000000000000815260206004820152601360248201527f6c6576656c20697320756e657175616c6c7921000000000000000000000000006044820152606401610a6c565b8051825163ffffffff908116911614610fe1576040517f08c379a000000000000000000000000000000000000000000000000000000000815260206004820152601260248201527f7479706520697320756e657175616c6c792100000000000000000000000000006044820152606401610a6c565b6000826020015163ffffffff1611801561100557506000816020015163ffffffff16115b61106b576040517f08c379a000000000000000000000000000000000000000000000000000000000815260206004820152601060248201527f6e6f74207570677261646561626c6521000000000000000000000000000000006044820152606401610a6c565b815163ffffffff166000908152600f602090815260408083208186015167ffffffffffffffff16845290915290205480611101576040517f08c379a000000000000000000000000000000000000000000000000000000000815260206004820152601060248201527f63616e206e6f74207570677261646521000000000000000000000000000000006044820152606401610a6c565b600654604080517f9c025a1a000000000000000000000000000000000000000000000000000000008152905160009273ffffffffffffffffffffffffffffffffffffffff1691639c025a1a9160048083019260209291908290030181865afa158015611171573d6000803e3d6000fd5b505050506040513d601f19601f820116820180604052508101906111959190615292565b905060006111a383836152da565b855163ffffffff166000908152601060209081526040808320818a015167ffffffffffffffff168452825280832084845290915290205490915083825b85811015611416576000838152600e6020908152604091829020825161016081018452815467ffffffffffffffff80821683526801000000000000000082048116948301859052700100000000000000000000000000000000820481169583018690527801000000000000000000000000000000000000000000000000820463ffffffff90811660608501527c0100000000000000000000000000000000000000000000000000000000830461ffff1660808501527e01000000000000000000000000000000000000000000000000000000000000830460ff90811660a08601527f010000000000000000000000000000000000000000000000000000000000000090930490921660c084015260019093015490811660e0830152640100000000810465ffffffffffff166101008301526a0100000000000000000000810490921661012082015272010000000000000000000000000000000000009091046dffffffffffffffffffffffffffff166101408201529110801561136a575060a08101516004908116145b156113755750611416565b885163ffffffff166000908152601060209081526040808320818d015167ffffffffffffffff1684529091528120906113af60018661531d565b815260208082019290925260409081016000908120548c5163ffffffff168252601084528282208d84015167ffffffffffffffff168352845282822089835290935220819055935061140260018461531d565b9250508061140f90615330565b90506111e0565b5082810361169057865163ffffffff166000908152601060209081526040808320818b015167ffffffffffffffff168452825280832083805290915281205492505b8381101561168e576000838152600e6020908152604091829020825161016081018452815467ffffffffffffffff80821683526801000000000000000082048116948301859052700100000000000000000000000000000000820481169583018690527801000000000000000000000000000000000000000000000000820463ffffffff90811660608501527c0100000000000000000000000000000000000000000000000000000000830461ffff1660808501527e01000000000000000000000000000000000000000000000000000000000000830460ff90811660a08601527f010000000000000000000000000000000000000000000000000000000000000090930490921660c084015260019093015490811660e0830152640100000000810465ffffffffffff166101008301526a0100000000000000000000810490921661012082015272010000000000000000000000000000000000009091046dffffffffffffffffffffffffffff16610140820152911080156115e2575060a08101516004908116145b156115ed575061168e565b885163ffffffff166000908152601060209081526040808320818d015167ffffffffffffffff16845290915281209061162760018661531d565b815260208082019290925260409081016000908120548c5163ffffffff168252601084528282208d84015167ffffffffffffffff168352845282822082805290935220819055935061167a60018461531d565b9250508061168790615330565b9050611458565b505b600081116116fa576040517f08c379a000000000000000000000000000000000000000000000000000000000815260206004820152600e60248201527f6e6f74206176616c6962616c65210000000000000000000000000000000000006044820152606401610a6c565b84811461173357865163ffffffff166000908152600f60209081526040808320818b015167ffffffffffffffff16845290915290208190555b865163ffffffff166000908152601160209081526040808320818b015167ffffffffffffffff168452909152908190205460055491517f79cc679000000000000000000000000000000000000000000000000000000000815233600482015260248101829052909173ffffffffffffffffffffffffffffffffffffffff16906379cc679090604401600060405180830381600087803b1580156117d557600080fd5b505af11580156117e9573d6000803e3d6000fd5b5050600a546040517f42966c68000000000000000000000000000000000000000000000000000000008152600481018e905273ffffffffffffffffffffffffffffffffffffffff90911692506342966c689150602401600060405180830381600087803b15801561185957600080fd5b505af115801561186d573d6000803e3d6000fd5b5050600a546040517f42966c68000000000000000000000000000000000000000000000000000000008152600481018d905273ffffffffffffffffffffffffffffffffffffffff90911692506342966c689150602401600060405180830381600087803b1580156118dd57600080fd5b505af11580156118f1573d6000803e3d6000fd5b505050506118fe83613d80565b60408051848152602081018c90529081018a90526060810182905233907f5e2128178770b8c51392d7fd137ae69821108d2e3e2603df86beed50b1a935169060800160405180910390a250505050505050505050565b7fa076a07f65bcd51bcb15a0f01a65bc18f2d922acb81bcfd8af4caf5adb55709161197e81613bcc565b60026109968382615409565b600061199581613bcc565b506004805473ffffffffffffffffffffffffffffffffffffffff9384167fffffffffffffffffffffffff00000000000000000000000000000000000000009182161790915560068054929093169116179055565b600480546040517f2cf003c2000000000000000000000000000000000000000000000000000000008152339281019290925260009173ffffffffffffffffffffffffffffffffffffffff90911690632cf003c290602401602060405180830381865afa158015611a5d573d6000803e3d6000fd5b505050506040513d601f19601f82011682018060405250810190611a8191906151dd565b73ffffffffffffffffffffffffffffffffffffffff1603611afe576040517f08c379a000000000000000000000000000000000000000000000000000000000815260206004820152600e60248201527f4e6f7420616374697661746564210000000000000000000000000000000000006044820152606401610a6c565b600c548110611b8f576040517f08c379a000000000000000000000000000000000000000000000000000000000815260206004820152602560248201527f5468697320457175697020436f6c6c656374696f6e20646f6573206e6f74206560448201527f78697374210000000000000000000000000000000000000000000000000000006064820152608401610a6c565b6000818152600e6020908152604091829020825161016081018452815467ffffffffffffffff8082168352680100000000000000008204811694830194909452700100000000000000000000000000000000810484169482019490945263ffffffff780100000000000000000000000000000000000000000000000085048116606083015261ffff7c0100000000000000000000000000000000000000000000000000000000860416608083015260ff7e01000000000000000000000000000000000000000000000000000000000000860481811660a08501527f01000000000000000000000000000000000000000000000000000000000000009096041660c083015260019283015490811660e083015265ffffffffffff6401000000008204166101008301526a010000000000000000000081049093166101208201526dffffffffffffffffffffffffffff72010000000000000000000000000000000000009093049290921661014083015290918116148015611d2a5750806020015167ffffffffffffffff16816040015167ffffffffffffffff16105b611db5576040517f08c379a0000000000000000000000000000000000000000000000000000000008152602060048201526024808201527f54686973204361726420436f6c6c656374696f6e206973204f7574206f66205360448201527f746f636b000000000000000000000000000000000000000000000000000000006064820152608401610a6c565b6005546101408201516040517f79cc67900000000000000000000000000000000000000000000000000000000081523360048201526dffffffffffffffffffffffffffff909116602482015273ffffffffffffffffffffffffffffffffffffffff909116906379cc679090604401600060405180830381600087803b158015611e3d57600080fd5b505af1158015611e51573d6000803e3d6000fd5b5050600480546040517f2cf003c200000000000000000000000000000000000000000000000000000000815233928101929092526000935073ffffffffffffffffffffffffffffffffffffffff169150632cf003c290602401602060405180830381865afa158015611ec7573d6000803e3d6000fd5b505050506040513d601f19601f82011682018060405250810190611eeb91906151dd565b905060006305f5e1006001548461014001516dffffffffffffffffffffffffffff16611f179190615523565b611f21919061553a565b6005546040517f40c10f1900000000000000000000000000000000000000000000000000000000815273ffffffffffffffffffffffffffffffffffffffff8581166004830152602482018490529293509116906340c10f1990604401600060405180830381600087803b158015611f9757600080fd5b505af1158015611fab573d6000803e3d6000fd5b5050604080513381526020810185905273ffffffffffffffffffffffffffffffffffffffff861693507f45805682593333080c71f28f5a3a881c881e3acb9235006c6f6da7f0dabd8bc792500160405180910390a261200984613d80565b6101408301516040516dffffffffffffffffffffffffffff9091168152849033907f6aa8e7dacbeeb22d3cd519868e3150fed422627eb0fd6558283a0c4087599aef906020015b60405180910390a350505050565b60606002805461206d90615368565b80601f016020809104026020016040519081016040528092919081815260200182805461209990615368565b80156120e65780601f106120bb576101008083540402835291602001916120e6565b820191906000526020600020905b8154815290600101906020018083116120c957829003601f168201915b5050505050905090565b600480546040517f2cf003c2000000000000000000000000000000000000000000000000000000008152339281019290925260009173ffffffffffffffffffffffffffffffffffffffff90911690632cf003c290602401602060405180830381865afa158015612164573d6000803e3d6000fd5b505050506040513d601f19601f8201168201806040525081019061218891906151dd565b73ffffffffffffffffffffffffffffffffffffffff1603612205576040517f08c379a000000000000000000000000000000000000000000000000000000000815260206004820152600e60248201527f4e6f7420616374697661746564210000000000000000000000000000000000006044820152606401610a6c565b600c548110612295576040517f08c379a0000000000000000000000000000000000000000000000000000000008152602060048201526024808201527f54686973204361726420436f6c6c656374696f6e20646f6573206e6f7420657860448201527f69737421000000000000000000000000000000000000000000000000000000006064820152608401610a6c565b6000818152600e6020908152604091829020825161016081018452815467ffffffffffffffff8082168352680100000000000000008204811694830194909452700100000000000000000000000000000000810484169482019490945263ffffffff780100000000000000000000000000000000000000000000000085048116606083015261ffff7c0100000000000000000000000000000000000000000000000000000000860416608083015260ff7e01000000000000000000000000000000000000000000000000000000000000860481811660a08501527f01000000000000000000000000000000000000000000000000000000000000009096041660c083015260019092015491821660e082015265ffffffffffff6401000000008304166101008201526a010000000000000000000082049092166101208301526dffffffffffffffffffffffffffff72010000000000000000000000000000000000009091041661014082015290600290811614801561242f5750806020015167ffffffffffffffff16816040015167ffffffffffffffff16105b6124ba576040517f08c379a0000000000000000000000000000000000000000000000000000000008152602060048201526024808201527f54686973204361726420436f6c6c656374696f6e206973204f7574206f66205360448201527f746f636b000000000000000000000000000000000000000000000000000000006064820152608401610a6c565b6008546101208201516040517f79cc679000000000000000000000000000000000000000000000000000000000815233600482015267ffffffffffffffff909116602482015273ffffffffffffffffffffffffffffffffffffffff909116906379cc679090604401600060405180830381600087803b15801561253c57600080fd5b505af1158015612550573d6000803e3d6000fd5b5050505061255d82613d80565b61012081015160405167ffffffffffffffff9091168152829033907f37452686d1ea1fcf6c37ad0dfa8324176c27c534b4260f62a1ccf09637f72a77906020015b60405180910390a35050565b60006125b581613bcc565b506009805473ffffffffffffffffffffffffffffffffffffffff9384167fffffffffffffffffffffffff000000000000000000000000000000000000000091821617909155600a8054929093169116179055565b60606003805461206d90615368565b7fa076a07f65bcd51bcb15a0f01a65bc18f2d922acb81bcfd8af4caf5adb55709161264281613bcc565b506000938452600e60205260409093206001810180546dffffffffffffffffffffffffffff90931672010000000000000000000000000000000000000271ffffffffffffffffffffffffffffffffffff67ffffffffffffffff9095166a0100000000000000000000029490941669ffffffffffffffffffff90931692909217929092179055805460ff9092167e01000000000000000000000000000000000000000000000000000000000000027fff00ffffffffffffffffffffffffffffffffffffffffffffffffffffffffffff909216919091179055565b600480546040517f2cf003c2000000000000000000000000000000000000000000000000000000008152339281019290925260009173ffffffffffffffffffffffffffffffffffffffff90911690632cf003c290602401602060405180830381865afa15801561278f573d6000803e3d6000fd5b505050506040513d601f19601f820116820180604052508101906127b391906151dd565b73ffffffffffffffffffffffffffffffffffffffff1603612830576040517f08c379a000000000000000000000000000000000000000000000000000000000815260206004820152600e60248201527f4e6f7420616374697661746564210000000000000000000000000000000000006044820152606401610a6c565b600b5481106128c0576040517f08c379a0000000000000000000000000000000000000000000000000000000008152602060048201526024808201527f54686973204361726420436f6c6c656374696f6e20646f6573206e6f7420657860448201527f69737421000000000000000000000000000000000000000000000000000000006064820152608401610a6c565b6000818152600d602090815260409182902082516101c081018452815467ffffffffffffffff8082168352680100000000000000008083048216958401959095527001000000000000000000000000000000008083048216968401969096527801000000000000000000000000000000000000000000000000918290048116606084015260018401546dffffffffffffffffffffffffffff811660808501526e010000000000000000000000000000810465ffffffffffff90811660a0860152740100000000000000000000000000000000000000008204811660c08601527a0100000000000000000000000000000000000000000000000000009091041660e0840152600293840154808216610100850152948504811661012084015294840490941661014082015292820463ffffffff166101608401527c0100000000000000000000000000000000000000000000000000000000820461ffff9081166101808501527e010000000000000000000000000000000000000000000000000000000000009092049182166101a0840152908116148015612a7c5750806020015167ffffffffffffffff16816040015167ffffffffffffffff16105b612b07576040517f08c379a0000000000000000000000000000000000000000000000000000000008152602060048201526024808201527f54686973204361726420436f6c6c656374696f6e206973204f7574206f66205360448201527f746f636b000000000000000000000000000000000000000000000000000000006064820152608401610a6c565b60075460608201516040517f79cc679000000000000000000000000000000000000000000000000000000000815233600482015267ffffffffffffffff909116602482015273ffffffffffffffffffffffffffffffffffffffff909116906379cc679090604401600060405180830381600087803b158015612b8857600080fd5b505af1158015612b9c573d6000803e3d6000fd5b50505050612ba982614000565b606081015160405167ffffffffffffffff9091168152829033907fd86d9735ef30abf9f9dd5f4c40a50902a3d8d5d4269cbb78b9ec87a845ccb3179060200161259e565b6000612bf881613bcc565b506005805473ffffffffffffffffffffffffffffffffffffffff9485167fffffffffffffffffffffffff000000000000000000000000000000000000000091821617909155600780549385169382169390931790925560088054919093169116179055565b7fa076a07f65bcd51bcb15a0f01a65bc18f2d922acb81bcfd8af4caf5adb557091612c8781613bcc565b506000928352601160209081526040808520938552929052912055565b600480546040517f2cf003c2000000000000000000000000000000000000000000000000000000008152339281019290925260009173ffffffffffffffffffffffffffffffffffffffff90911690632cf003c290602401602060405180830381865afa158015612d18573d6000803e3d6000fd5b505050506040513d601f19601f82011682018060405250810190612d3c91906151dd565b73ffffffffffffffffffffffffffffffffffffffff1603612db9576040517f08c379a000000000000000000000000000000000000000000000000000000000815260206004820152600e60248201527f4e6f7420616374697661746564210000000000000000000000000000000000006044820152606401610a6c565b600b548110612e49576040517f08c379a0000000000000000000000000000000000000000000000000000000008152602060048201526024808201527f54686973204361726420436f6c6c656374696f6e20646f6573206e6f7420657860448201527f69737421000000000000000000000000000000000000000000000000000000006064820152608401610a6c565b6000818152600d602090815260409182902082516101c081018452815467ffffffffffffffff808216835268010000000000000000808304821695840195909552700100000000000000000000000000000000808304821696840196909652780100000000000000000000000000000000000000000000000091829004811660608401526001808501546dffffffffffffffffffffffffffff811660808601526e010000000000000000000000000000810465ffffffffffff90811660a0870152740100000000000000000000000000000000000000008204811660c08701527a0100000000000000000000000000000000000000000000000000009091041660e0850152600290940154808216610100850152948504811661012084015294840490941661014082015292820463ffffffff166101608401527c0100000000000000000000000000000000000000000000000000000000820461ffff9081166101808501527e010000000000000000000000000000000000000000000000000000000000009092049182166101a08401529081161480156130065750806020015167ffffffffffffffff16816040015167ffffffffffffffff16105b613091576040517f08c379a0000000000000000000000000000000000000000000000000000000008152602060048201526024808201527f54686973204361726420436f6c6c656374696f6e206973204f7574206f66205360448201527f746f636b000000000000000000000000000000000000000000000000000000006064820152608401610a6c565b60055460808201516040517f79cc67900000000000000000000000000000000000000000000000000000000081523360048201526dffffffffffffffffffffffffffff909116602482015273ffffffffffffffffffffffffffffffffffffffff909116906379cc679090604401600060405180830381600087803b15801561311857600080fd5b505af115801561312c573d6000803e3d6000fd5b5050600480546040517f2cf003c200000000000000000000000000000000000000000000000000000000815233928101929092526000935073ffffffffffffffffffffffffffffffffffffffff169150632cf003c290602401602060405180830381865afa1580156131a2573d6000803e3d6000fd5b505050506040513d601f19601f820116820180604052508101906131c691906151dd565b905060006305f5e10060015484608001516dffffffffffffffffffffffffffff166131f19190615523565b6131fb919061553a565b6005546040517f40c10f1900000000000000000000000000000000000000000000000000000000815273ffffffffffffffffffffffffffffffffffffffff8581166004830152602482018490529293509116906340c10f1990604401600060405180830381600087803b15801561327157600080fd5b505af1158015613285573d6000803e3d6000fd5b5050604080513381526020810185905273ffffffffffffffffffffffffffffffffffffffff861693507f45805682593333080c71f28f5a3a881c881e3acb9235006c6f6da7f0dabd8bc792500160405180910390a26132e384614000565b60808301516040516dffffffffffffffffffffffffffff9091168152849033907f54a97913de53545b2e447bd56a9995a9290c9fd547937dee00d3909794c42fec90602001612050565b7fa076a07f65bcd51bcb15a0f01a65bc18f2d922acb81bcfd8af4caf5adb55709161335781613bcc565b600c546000908152600e60209081526040918290208451815492860151938601516060870151608088015160a089015160c08a015160ff9081167f0100000000000000000000000000000000000000000000000000000000000000027effffffffffffffffffffffffffffffffffffffffffffffffffffffffffffff9183167e01000000000000000000000000000000000000000000000000000000000000027fff00ffffffffffffffffffffffffffffffffffffffffffffffffffffffffffff61ffff9095167c010000000000000000000000000000000000000000000000000000000002949094167fff000000ffffffffffffffffffffffffffffffffffffffffffffffffffffffff63ffffffff9687167801000000000000000000000000000000000000000000000000027fffffffff00000000ffffffffffffffffffffffffffffffffffffffffffffffff67ffffffffffffffff998a1670010000000000000000000000000000000002167fffffffff000000000000000000000000ffffffffffffffffffffffffffffffff9d8a1668010000000000000000027fffffffffffffffffffffffffffffffff00000000000000000000000000000000909d169a8a169a909a179b909b179b909b1697909717989098179890981694909417179590951693909317825560e0860151600190920180546101008801516101208901516101408a01516dffffffffffffffffffffffffffff1672010000000000000000000000000000000000000271ffffffffffffffffffffffffffffffffffff919097166a0100000000000000000000021669ffffffffffffffffffff65ffffffffffff909216640100000000027fffffffffffffffffffffffffffffffffffffffffffff000000000000000000009093169590971694909417179290921693909317919091179055600490811690036136f657608082015161ffff166000908152600f60205260408120606084015182906136379060019061554e565b63ffffffff168152602001908152602001600020549050600c5460106000856080015161ffff16815260200190815260200160002060006001866060015161367f919061554e565b63ffffffff16815260208082019290925260409081016000908120858252835281812093909355608086015161ffff168352600f90915281206060850151600192906136cc90849061554e565b63ffffffff16815260200190815260200160002060008282546136ef9190615572565b9091555050505b600c547f555b1c77c90127d86366904c6076045c7cbb7f2ce91ab5f1b9fcb2bb2dc3b6818360405161372891906150d9565b60405180910390a26001600c60008282546137439190615572565b90915550505050565b7fa076a07f65bcd51bcb15a0f01a65bc18f2d922acb81bcfd8af4caf5adb55709161377681613bcc565b60036109968382615409565b60008281526020819052604090206001015461379d81613bcc565b6109968383613cc9565b7fa076a07f65bcd51bcb15a0f01a65bc18f2d922acb81bcfd8af4caf5adb5570916137d181613bcc565b506000938452600d6020526040909320805467ffffffffffffffff90931678010000000000000000000000000000000000000000000000000277ffffffffffffffffffffffffffffffffffffffffffffffff9093169290921782556001820180546dffffffffffffffffffffffffffff9092167fffffffffffffffffffffffffffffffffffff0000000000000000000000000000909216919091179055600201805461ffff9092167e01000000000000000000000000000000000000000000000000000000000000027dffffffffffffffffffffffffffffffffffffffffffffffffffffffffffff909216919091179055565b7fa076a07f65bcd51bcb15a0f01a65bc18f2d922acb81bcfd8af4caf5adb5570916138ee81613bcc565b81600d6000600b54815260200190815260200160002060008201518160000160006101000a81548167ffffffffffffffff021916908367ffffffffffffffff16021790555060208201518160000160086101000a81548167ffffffffffffffff021916908367ffffffffffffffff16021790555060408201518160000160106101000a81548167ffffffffffffffff021916908367ffffffffffffffff16021790555060608201518160000160186101000a81548167ffffffffffffffff021916908367ffffffffffffffff16021790555060808201518160010160006101000a8154816dffffffffffffffffffffffffffff02191690836dffffffffffffffffffffffffffff16021790555060a082015181600101600e6101000a81548165ffffffffffff021916908365ffffffffffff16021790555060c08201518160010160146101000a81548165ffffffffffff021916908365ffffffffffff16021790555060e082015181600101601a6101000a81548165ffffffffffff021916908365ffffffffffff1602179055506101008201518160020160006101000a81548167ffffffffffffffff021916908367ffffffffffffffff1602179055506101208201518160020160086101000a81548167ffffffffffffffff021916908367ffffffffffffffff1602179055506101408201518160020160106101000a81548167ffffffffffffffff021916908367ffffffffffffffff1602179055506101608201518160020160186101000a81548163ffffffff021916908363ffffffff16021790555061018082015181600201601c6101000a81548161ffff021916908361ffff1602179055506101a082015181600201601e6101000a81548161ffff021916908361ffff160217905550905050600b547fb0b0f979831ae1f282a7019867bee9e45c5efe611cc7bd9465e88cc0c09b36cb83604051613bb19190614e8b565b60405180910390a26001600b60008282546137439190615572565b613bd681336144e3565b50565b60008281526020818152604080832073ffffffffffffffffffffffffffffffffffffffff8516845290915290205460ff16610a7f5760008281526020818152604080832073ffffffffffffffffffffffffffffffffffffffff85168452909152902080547fffffffffffffffffffffffffffffffffffffffffffffffffffffffffffffff00166001179055613c6b3390565b73ffffffffffffffffffffffffffffffffffffffff168173ffffffffffffffffffffffffffffffffffffffff16837f2f8788117e7eff1d82e926ec794901d17c78024a50270940304540a733656f0d60405160405180910390a45050565b60008281526020818152604080832073ffffffffffffffffffffffffffffffffffffffff8516845290915290205460ff1615610a7f5760008281526020818152604080832073ffffffffffffffffffffffffffffffffffffffff8516808552925280832080547fffffffffffffffffffffffffffffffffffffffffffffffffffffffffffffff0016905551339285917ff6391f5c32d9c69d2a47ea670b442974b53935d1edc7fd64eb21e047a839171b9190a45050565b6000818152600e60209081526040808320815160a08101835281547801000000000000000000000000000000000000000000000000810463ffffffff90811694830194909452600183015493841660608301527c0100000000000000000000000000000000000000000000000000000000810461ffff16825264010000000090930465ffffffffffff1660808201527f0100000000000000000000000000000000000000000000000000000000000000830460ff16938101939093529290613e689067ffffffffffffffff700100000000000000000000000000000000820481169116615585565b67ffffffffffffffff16905060006003613e818361459b565b604051602001613e929291906155a6565b604080517fffffffffffffffffffffffffffffffffffffffffffffffffffffffffffffffe081840301815290829052600a547fe74ccaa200000000000000000000000000000000000000000000000000000000835290925073ffffffffffffffffffffffffffffffffffffffff169063e74ccaa290613f1b903390869086908990600401615673565b600060405180830381600087803b158015613f3557600080fd5b505af1158015613f49573d6000803e3d6000fd5b5050855460019250869150601090613f80908490700100000000000000000000000000000000900467ffffffffffffffff16615585565b92506101000a81548167ffffffffffffffff021916908367ffffffffffffffff160217905550813373ffffffffffffffffffffffffffffffffffffffff167f5c9a53576e206a31aef9537f476902b18aba0f96df64c4e6152312b1c466d1da878487604051613ff193929190615709565b60405180910390a35050505050565b6000818152600d60209081526040808320815160a081018352848152928301849052908201839052606082018390526080820192909252600654604080517f9c025a1a000000000000000000000000000000000000000000000000000000008152905160009273ffffffffffffffffffffffffffffffffffffffff1691639c025a1a9160048083019260209291908290030181865afa1580156140a7573d6000803e3d6000fd5b505050506040513d601f19601f820116820180604052508101906140cb9190615292565b60018401549091506e010000000000000000000000000000900465ffffffffffff16156141485760018301546e010000000000000000000000000000900465ffffffffffff1669ffffffffffffffffffff82168161412b5761412b6152ab565b600285015491900667ffffffffffffffff9182160116825261415a565b600283015467ffffffffffffffff1682525b600183015474010000000000000000000000000000000000000000900465ffffffffffff16156141f757600183015474010000000000000000000000000000000000000000900465ffffffffffff16605082901c69ffffffffffffffffffff16816141c7576141c76152ab565b600285015467ffffffffffffffff6801000000000000000090910481169290910691909101166020830152614218565b600283015468010000000000000000900467ffffffffffffffff1660208301525b60018301547a010000000000000000000000000000000000000000000000000000900465ffffffffffff16156142c95760018301547a010000000000000000000000000000000000000000000000000000900465ffffffffffff1660a082901c69ffffffffffffffffffff1681614291576142916152ab565b600285015467ffffffffffffffff700100000000000000000000000000000000909104811692909106919091011660408301526142f2565b6002830154700100000000000000000000000000000000900467ffffffffffffffff1660408301525b6002838101547801000000000000000000000000000000000000000000000000810463ffffffff1660608501527c0100000000000000000000000000000000000000000000000000000000900461ffff1660808401528354700100000000000000000000000000000000810467ffffffffffffffff90811691811691909101169060009061437f8361459b565b6040516020016143909291906155a6565b604080517fffffffffffffffffffffffffffffffffffffffffffffffffffffffffffffffe0818403018152908290526009547fb5e52e8400000000000000000000000000000000000000000000000000000000835290925073ffffffffffffffffffffffffffffffffffffffff169063b5e52e8490614419903390869086908a90600401615780565b600060405180830381600087803b15801561443357600080fd5b505af1158015614447573d6000803e3d6000fd5b5050865467ffffffffffffffff7001000000000000000000000000000000008083048216600101909116027fffffffffffffffff0000000000000000ffffffffffffffffffffffffffffffff9091161787555050604051829033907f9fedd236cfec1db2fffb7cd5508a122cd95876f18a8799257851164b14ccac64906144d3908a9086908a9061580d565b60405180910390a3505050505050565b60008281526020818152604080832073ffffffffffffffffffffffffffffffffffffffff8516845290915290205460ff16610a7f5761452181614659565b61452c836020614678565b60405160200161453d92919061587c565b604080517fffffffffffffffffffffffffffffffffffffffffffffffffffffffffffffffe0818403018152908290527f08c379a0000000000000000000000000000000000000000000000000000000008252610a6c91600401614c5b565b606060006145a8836148c2565b600101905060008167ffffffffffffffff8111156145c8576145c8614a73565b6040519080825280601f01601f1916602001820160405280156145f2576020820181803683370190505b5090508181016020015b7fffffffffffffffffffffffffffffffffffffffffffffffffffffffffffffffff017f3031323334353637383961626364656600000000000000000000000000000000600a86061a8153600a85049450846145fc57509392505050565b606061096b73ffffffffffffffffffffffffffffffffffffffff831660145b60606000614687836002615523565b614692906002615572565b67ffffffffffffffff8111156146aa576146aa614a73565b6040519080825280601f01601f1916602001820160405280156146d4576020820181803683370190505b5090507f30000000000000000000000000000000000000000000000000000000000000008160008151811061470b5761470b6158fd565b60200101907effffffffffffffffffffffffffffffffffffffffffffffffffffffffffffff1916908160001a9053507f78000000000000000000000000000000000000000000000000000000000000008160018151811061476e5761476e6158fd565b60200101907effffffffffffffffffffffffffffffffffffffffffffffffffffffffffffff1916908160001a90535060006147aa846002615523565b6147b5906001615572565b90505b6001811115614852577f303132333435363738396162636465660000000000000000000000000000000085600f16601081106147f6576147f66158fd565b1a60f81b82828151811061480c5761480c6158fd565b60200101907effffffffffffffffffffffffffffffffffffffffffffffffffffffffffffff1916908160001a90535060049490941c9361484b8161592c565b90506147b8565b5083156148bb576040517f08c379a000000000000000000000000000000000000000000000000000000000815260206004820181905260248201527f537472696e67733a20686578206c656e67746820696e73756666696369656e746044820152606401610a6c565b9392505050565b6000807a184f03e93ff9f4daa797ed6e38ed64bf6a1f010000000000000000831061490b577a184f03e93ff9f4daa797ed6e38ed64bf6a1f010000000000000000830492506040015b6d04ee2d6d415b85acef81000000008310614937576d04ee2d6d415b85acef8100000000830492506020015b662386f26fc10000831061495557662386f26fc10000830492506010015b6305f5e100831061496d576305f5e100830492506008015b612710831061498157612710830492506004015b60648310614993576064830492506002015b600a831061096b5760010192915050565b6000602082840312156149b657600080fd5b81357fffffffff00000000000000000000000000000000000000000000000000000000811681146148bb57600080fd5b6000602082840312156149f857600080fd5b5035919050565b73ffffffffffffffffffffffffffffffffffffffff81168114613bd657600080fd5b60008060408385031215614a3457600080fd5b823591506020830135614a46816149ff565b809150509250929050565b60008060408385031215614a6457600080fd5b50508035926020909101359150565b7f4e487b7100000000000000000000000000000000000000000000000000000000600052604160045260246000fd5b604051610160810167ffffffffffffffff81118282101715614ac657614ac6614a73565b60405290565b6040516101c0810167ffffffffffffffff81118282101715614ac657614ac6614a73565b600060208284031215614b0257600080fd5b813567ffffffffffffffff80821115614b1a57600080fd5b818401915084601f830112614b2e57600080fd5b813581811115614b4057614b40614a73565b604051601f82017fffffffffffffffffffffffffffffffffffffffffffffffffffffffffffffffe0908116603f01168101908382118183101715614b8657614b86614a73565b81604052828152876020848701011115614b9f57600080fd5b826020860160208301376000928101602001929092525095945050505050565b60008060408385031215614bd257600080fd5b8235614bdd816149ff565b91506020830135614a46816149ff565b60005b83811015614c08578181015183820152602001614bf0565b50506000910152565b60008151808452614c29816020860160208601614bed565b601f017fffffffffffffffffffffffffffffffffffffffffffffffffffffffffffffffe0169290920160200192915050565b6020815260006148bb6020830184614c11565b60008060008060808587031215614c8457600080fd5b5050823594602084013594506040840135936060013592509050565b600080600060608486031215614cb557600080fd5b8335614cc0816149ff565b92506020840135614cd0816149ff565b91506040840135614ce0816149ff565b809150509250925092565b600080600060608486031215614d0057600080fd5b505081359360208301359350604090920135919050565b67ffffffffffffffff81168114613bd657600080fd5b8035614d3881614d17565b919050565b63ffffffff81168114613bd657600080fd5b8035614d3881614d3d565b803561ffff81168114614d3857600080fd5b803560ff81168114614d3857600080fd5b803565ffffffffffff81168114614d3857600080fd5b80356dffffffffffffffffffffffffffff81168114614d3857600080fd5b60006101608284031215614dc457600080fd5b614dcc614aa2565b614dd583614d2d565b8152614de360208401614d2d565b6020820152614df460408401614d2d565b6040820152614e0560608401614d4f565b6060820152614e1660808401614d5a565b6080820152614e2760a08401614d6c565b60a0820152614e3860c08401614d6c565b60c0820152614e4960e08401614d4f565b60e0820152610100614e5c818501614d7d565b90820152610120614e6e848201614d2d565b90820152610140614e80848201614d93565b908201529392505050565b815167ffffffffffffffff1681526101c081016020830151614eb9602084018267ffffffffffffffff169052565b506040830151614ed5604084018267ffffffffffffffff169052565b506060830151614ef1606084018267ffffffffffffffff169052565b506080830151614f1360808401826dffffffffffffffffffffffffffff169052565b5060a0830151614f2d60a084018265ffffffffffff169052565b5060c0830151614f4760c084018265ffffffffffff169052565b5060e0830151614f6160e084018265ffffffffffff169052565b506101008381015167ffffffffffffffff908116918401919091526101208085015182169084015261014080850151909116908301526101608084015163ffffffff16908301526101808084015161ffff908116918401919091526101a08085015191821681850152905b505092915050565b60006101c08284031215614fe757600080fd5b614fef614acc565b614ff883614d2d565b815261500660208401614d2d565b602082015261501760408401614d2d565b604082015261502860608401614d2d565b606082015261503960808401614d93565b608082015261504a60a08401614d7d565b60a082015261505b60c08401614d7d565b60c082015261506c60e08401614d7d565b60e082015261010061507f818501614d2d565b90820152610120615091848201614d2d565b908201526101406150a3848201614d2d565b908201526101606150b5848201614d4f565b908201526101806150c7848201614d5a565b908201526101a0614e80848201614d5a565b815167ffffffffffffffff16815261016081016020830151615107602084018267ffffffffffffffff169052565b506040830151615123604084018267ffffffffffffffff169052565b50606083015161513b606084018263ffffffff169052565b506080830151615151608084018261ffff169052565b5060a083015161516660a084018260ff169052565b5060c083015161517b60c084018260ff169052565b5060e083015161519360e084018263ffffffff169052565b506101008381015165ffffffffffff16908301526101208084015167ffffffffffffffff1690830152610140808401516dffffffffffffffffffffffffffff811682850152614fcc565b6000602082840312156151ef57600080fd5b81516148bb816149ff565b600060a0828403121561520c57600080fd5b60405160a0810181811067ffffffffffffffff8211171561522f5761522f614a73565b604052825161523d81614d3d565b8152602083015161524d81614d3d565b6020820152604083015161526081614d17565b6040820152606083015161527381614d17565b6060820152608083015161528681614d17565b60808201529392505050565b6000602082840312156152a457600080fd5b5051919050565b7f4e487b7100000000000000000000000000000000000000000000000000000000600052601260045260246000fd5b6000826152e9576152e96152ab565b500690565b7f4e487b7100000000000000000000000000000000000000000000000000000000600052601160045260246000fd5b8181038181111561096b5761096b6152ee565b60007fffffffffffffffffffffffffffffffffffffffffffffffffffffffffffffffff8203615361576153616152ee565b5060010190565b600181811c9082168061537c57607f821691505b6020821081036153b5577f4e487b7100000000000000000000000000000000000000000000000000000000600052602260045260246000fd5b50919050565b601f82111561099657600081815260208120601f850160051c810160208610156153e25750805b601f850160051c820191505b81811015615401578281556001016153ee565b505050505050565b815167ffffffffffffffff81111561542357615423614a73565b615437816154318454615368565b846153bb565b602080601f83116001811461548a57600084156154545750858301515b7fffffffffffffffffffffffffffffffffffffffffffffffffffffffffffffffff600386901b1c1916600185901b178555615401565b6000858152602081207fffffffffffffffffffffffffffffffffffffffffffffffffffffffffffffffe08616915b828110156154d7578886015182559484019460019091019084016154b8565b508582101561551357878501517fffffffffffffffffffffffffffffffffffffffffffffffffffffffffffffffff600388901b60f8161c191681555b5050505050600190811b01905550565b808202811582820484141761096b5761096b6152ee565b600082615549576155496152ab565b500490565b63ffffffff82811682821603908082111561556b5761556b6152ee565b5092915050565b8082018082111561096b5761096b6152ee565b67ffffffffffffffff81811683821601908082111561556b5761556b6152ee565b60008084546155b481615368565b600182811680156155cc57600181146155ff5761562e565b7fffffffffffffffffffffffffffffffffffffffffffffffffffffffffffffff008416875282151583028701945061562e565b8860005260208060002060005b858110156156255781548a82015290840190820161560c565b50505082870194505b505050508351615642818360208801614bed565b7f2e706e67000000000000000000000000000000000000000000000000000000009101908152600401949350505050565b600061010073ffffffffffffffffffffffffffffffffffffffff871683528560208401528060408401526156a981840186614c11565b915050615700606083018463ffffffff80825116835280602083015116602084015250604081015167ffffffffffffffff808216604085015280606084015116606085015280608084015116608085015250505050565b95945050505050565b83815260e06020820152600061572260e0830185614c11565b9050615778604083018463ffffffff80825116835280602083015116602084015250604081015167ffffffffffffffff808216604085015280606084015116606085015280608084015116608085015250505050565b949350505050565b600061010073ffffffffffffffffffffffffffffffffffffffff871683528560208401528060408401526157b681840186614c11565b915050615700606083018467ffffffffffffffff80825116835280602083015116602084015280604083015116604084015250606081015163ffffffff808216606085015280608084015116608085015250505050565b83815260e06020820152600061582660e0830185614c11565b9050615778604083018467ffffffffffffffff80825116835280602083015116602084015280604083015116604084015250606081015163ffffffff808216606085015280608084015116608085015250505050565b7f416363657373436f6e74726f6c3a206163636f756e74200000000000000000008152600083516158b4816017850160208801614bed565b7f206973206d697373696e6720726f6c652000000000000000000000000000000060179184019182015283516158f1816028840160208801614bed565b01602801949350505050565b7f4e487b7100000000000000000000000000000000000000000000000000000000600052603260045260246000fd5b60008161593b5761593b6152ee565b507fffffffffffffffffffffffffffffffffffffffffffffffffffffffffffffffff019056fea164736f6c6343000811000a",
  "linkReferences": {},
  "deployedLinkReferences": {}
}