{
  "_format": "hh-sol-artifact-1",
  "contractName": "RunbitEquip",
  "sourceName": "contracts/runbitEquip.sol",
  "abi": [
    {
      "inputs": [
        {
          "internalType": "address",
          "name": "admin",
          "type": "address"
        }
      ],
      "stateMutability": "nonpayable",
      "type": "constructor"
    },
    {
      "anonymous": false,
      "inputs": [
        {
          "indexed": true,
          "internalType": "address",
          "name": "owner",
          "type": "address"
        },
        {
          "indexed": true,
          "internalType": "address",
          "name": "approved",
          "type": "address"
        },
        {
          "indexed": true,
          "internalType": "uint256",
          "name": "tokenId",
          "type": "uint256"
        }
      ],
      "name": "Approval",
      "type": "event"
    },
    {
      "anonymous": false,
      "inputs": [
        {
          "indexed": true,
          "internalType": "address",
          "name": "owner",
          "type": "address"
        },
        {
          "indexed": true,
          "internalType": "address",
          "name": "operator",
          "type": "address"
        },
        {
          "indexed": false,
          "internalType": "bool",
          "name": "approved",
          "type": "bool"
        }
      ],
      "name": "ApprovalForAll",
      "type": "event"
    },
    {
      "anonymous": false,
      "inputs": [
        {
          "indexed": false,
          "internalType": "address",
          "name": "account",
          "type": "address"
        }
      ],
      "name": "Paused",
      "type": "event"
    },
    {
      "anonymous": false,
      "inputs": [
        {
          "indexed": true,
          "internalType": "bytes32",
          "name": "role",
          "type": "bytes32"
        },
        {
          "indexed": true,
          "internalType": "bytes32",
          "name": "previousAdminRole",
          "type": "bytes32"
        },
        {
          "indexed": true,
          "internalType": "bytes32",
          "name": "newAdminRole",
          "type": "bytes32"
        }
      ],
      "name": "RoleAdminChanged",
      "type": "event"
    },
    {
      "anonymous": false,
      "inputs": [
        {
          "indexed": true,
          "internalType": "bytes32",
          "name": "role",
          "type": "bytes32"
        },
        {
          "indexed": true,
          "internalType": "address",
          "name": "account",
          "type": "address"
        },
        {
          "indexed": true,
          "internalType": "address",
          "name": "sender",
          "type": "address"
        }
      ],
      "name": "RoleGranted",
      "type": "event"
    },
    {
      "anonymous": false,
      "inputs": [
        {
          "indexed": true,
          "internalType": "bytes32",
          "name": "role",
          "type": "bytes32"
        },
        {
          "indexed": true,
          "internalType": "address",
          "name": "account",
          "type": "address"
        },
        {
          "indexed": true,
          "internalType": "address",
          "name": "sender",
          "type": "address"
        }
      ],
      "name": "RoleRevoked",
      "type": "event"
    },
    {
      "anonymous": false,
      "inputs": [
        {
          "indexed": true,
          "internalType": "address",
          "name": "from",
          "type": "address"
        },
        {
          "indexed": true,
          "internalType": "address",
          "name": "to",
          "type": "address"
        },
        {
          "indexed": true,
          "internalType": "uint256",
          "name": "tokenId",
          "type": "uint256"
        }
      ],
      "name": "Transfer",
      "type": "event"
    },
    {
      "anonymous": false,
      "inputs": [
        {
          "indexed": false,
          "internalType": "address",
          "name": "account",
          "type": "address"
        }
      ],
      "name": "Unpaused",
      "type": "event"
    },
    {
      "inputs": [],
      "name": "DEFAULT_ADMIN_ROLE",
      "outputs": [
        {
          "internalType": "bytes32",
          "name": "",
          "type": "bytes32"
        }
      ],
      "stateMutability": "view",
      "type": "function"
    },
    {
      "inputs": [],
      "name": "LOCK_ROLE",
      "outputs": [
        {
          "internalType": "bytes32",
          "name": "",
          "type": "bytes32"
        }
      ],
      "stateMutability": "view",
      "type": "function"
    },
    {
      "inputs": [],
      "name": "MINTER_ROLE",
      "outputs": [
        {
          "internalType": "bytes32",
          "name": "",
          "type": "bytes32"
        }
      ],
      "stateMutability": "view",
      "type": "function"
    },
    {
      "inputs": [],
      "name": "PAUSER_ROLE",
      "outputs": [
        {
          "internalType": "bytes32",
          "name": "",
          "type": "bytes32"
        }
      ],
      "stateMutability": "view",
      "type": "function"
    },
    {
      "inputs": [
        {
          "internalType": "address",
          "name": "to",
          "type": "address"
        },
        {
          "internalType": "uint256",
          "name": "tokenId",
          "type": "uint256"
        }
      ],
      "name": "approve",
      "outputs": [],
      "stateMutability": "nonpayable",
      "type": "function"
    },
    {
      "inputs": [
        {
          "internalType": "address",
          "name": "owner",
          "type": "address"
        }
      ],
      "name": "balanceOf",
      "outputs": [
        {
          "internalType": "uint256",
          "name": "",
          "type": "uint256"
        }
      ],
      "stateMutability": "view",
      "type": "function"
    },
    {
      "inputs": [],
      "name": "baseURI",
      "outputs": [
        {
          "internalType": "string",
          "name": "",
          "type": "string"
        }
      ],
      "stateMutability": "view",
      "type": "function"
    },
    {
      "inputs": [
        {
          "internalType": "uint256",
          "name": "tokenId",
          "type": "uint256"
        }
      ],
      "name": "burn",
      "outputs": [],
      "stateMutability": "nonpayable",
      "type": "function"
    },
    {
      "inputs": [
        {
          "internalType": "uint256",
          "name": "tokenId",
          "type": "uint256"
        }
      ],
      "name": "getApproved",
      "outputs": [
        {
          "internalType": "address",
          "name": "",
          "type": "address"
        }
      ],
      "stateMutability": "view",
      "type": "function"
    },
    {
      "inputs": [
        {
          "internalType": "bytes32",
          "name": "role",
          "type": "bytes32"
        }
      ],
      "name": "getRoleAdmin",
      "outputs": [
        {
          "internalType": "bytes32",
          "name": "",
          "type": "bytes32"
        }
      ],
      "stateMutability": "view",
      "type": "function"
    },
    {
      "inputs": [
        {
          "internalType": "bytes32",
          "name": "role",
          "type": "bytes32"
        },
        {
          "internalType": "address",
          "name": "account",
          "type": "address"
        }
      ],
      "name": "grantRole",
      "outputs": [],
      "stateMutability": "nonpayable",
      "type": "function"
    },
    {
      "inputs": [
        {
          "internalType": "bytes32",
          "name": "role",
          "type": "bytes32"
        },
        {
          "internalType": "address",
          "name": "account",
          "type": "address"
        }
      ],
      "name": "hasRole",
      "outputs": [
        {
          "internalType": "bool",
          "name": "",
          "type": "bool"
        }
      ],
      "stateMutability": "view",
      "type": "function"
    },
    {
      "inputs": [
        {
          "internalType": "address",
          "name": "owner",
          "type": "address"
        },
        {
          "internalType": "address",
          "name": "operator",
          "type": "address"
        }
      ],
      "name": "isApprovedForAll",
      "outputs": [
        {
          "internalType": "bool",
          "name": "",
          "type": "bool"
        }
      ],
      "stateMutability": "view",
      "type": "function"
    },
    {
      "inputs": [
        {
          "internalType": "uint256",
          "name": "tokenId",
          "type": "uint256"
        }
      ],
      "name": "lock",
      "outputs": [],
      "stateMutability": "nonpayable",
      "type": "function"
    },
    {
      "inputs": [],
      "name": "lockMinter",
      "outputs": [],
      "stateMutability": "nonpayable",
      "type": "function"
    },
    {
      "inputs": [],
      "name": "name",
      "outputs": [
        {
          "internalType": "string",
          "name": "",
          "type": "string"
        }
      ],
      "stateMutability": "view",
      "type": "function"
    },
    {
      "inputs": [
        {
          "internalType": "uint256",
          "name": "tokenId",
          "type": "uint256"
        }
      ],
      "name": "ownerOf",
      "outputs": [
        {
          "internalType": "address",
          "name": "",
          "type": "address"
        }
      ],
      "stateMutability": "view",
      "type": "function"
    },
    {
      "inputs": [],
      "name": "pause",
      "outputs": [],
      "stateMutability": "nonpayable",
      "type": "function"
    },
    {
      "inputs": [],
      "name": "paused",
      "outputs": [
        {
          "internalType": "bool",
          "name": "",
          "type": "bool"
        }
      ],
      "stateMutability": "view",
      "type": "function"
    },
    {
      "inputs": [
        {
          "internalType": "bytes32",
          "name": "role",
          "type": "bytes32"
        },
        {
          "internalType": "address",
          "name": "account",
          "type": "address"
        }
      ],
      "name": "renounceRole",
      "outputs": [],
      "stateMutability": "nonpayable",
      "type": "function"
    },
    {
      "inputs": [
        {
          "internalType": "bytes32",
          "name": "role",
          "type": "bytes32"
        },
        {
          "internalType": "address",
          "name": "account",
          "type": "address"
        }
      ],
      "name": "revokeRole",
      "outputs": [],
      "stateMutability": "nonpayable",
      "type": "function"
    },
    {
      "inputs": [
        {
          "internalType": "address",
          "name": "to",
          "type": "address"
        },
        {
          "internalType": "uint256",
          "name": "tokenId",
          "type": "uint256"
        },
        {
          "internalType": "string",
          "name": "uri",
          "type": "string"
        },
        {
          "components": [
            {
              "internalType": "uint32",
              "name": "equipType",
              "type": "uint32"
            },
            {
              "internalType": "uint32",
              "name": "upgradeable",
              "type": "uint32"
            },
            {
              "internalType": "uint64",
              "name": "level",
              "type": "uint64"
            },
            {
              "internalType": "uint64",
              "name": "capacity",
              "type": "uint64"
            },
            {
              "internalType": "uint64",
              "name": "quality",
              "type": "uint64"
            }
          ],
          "internalType": "struct RunbitEquip.MetaData",
          "name": "metaData",
          "type": "tuple"
        }
      ],
      "name": "safeMint",
      "outputs": [],
      "stateMutability": "nonpayable",
      "type": "function"
    },
    {
      "inputs": [
        {
          "internalType": "address",
          "name": "from",
          "type": "address"
        },
        {
          "internalType": "address",
          "name": "to",
          "type": "address"
        },
        {
          "internalType": "uint256",
          "name": "tokenId",
          "type": "uint256"
        }
      ],
      "name": "safeTransferFrom",
      "outputs": [],
      "stateMutability": "nonpayable",
      "type": "function"
    },
    {
      "inputs": [
        {
          "internalType": "address",
          "name": "from",
          "type": "address"
        },
        {
          "internalType": "address",
          "name": "to",
          "type": "address"
        },
        {
          "internalType": "uint256",
          "name": "tokenId",
          "type": "uint256"
        },
        {
          "internalType": "bytes",
          "name": "data",
          "type": "bytes"
        }
      ],
      "name": "safeTransferFrom",
      "outputs": [],
      "stateMutability": "nonpayable",
      "type": "function"
    },
    {
      "inputs": [
        {
          "internalType": "address",
          "name": "operator",
          "type": "address"
        },
        {
          "internalType": "bool",
          "name": "approved",
          "type": "bool"
        }
      ],
      "name": "setApprovalForAll",
      "outputs": [],
      "stateMutability": "nonpayable",
      "type": "function"
    },
    {
      "inputs": [
        {
          "internalType": "string",
          "name": "_base",
          "type": "string"
        }
      ],
      "name": "setBaseURI",
      "outputs": [],
      "stateMutability": "nonpayable",
      "type": "function"
    },
    {
      "inputs": [
        {
          "internalType": "bytes4",
          "name": "interfaceId",
          "type": "bytes4"
        }
      ],
      "name": "supportsInterface",
      "outputs": [
        {
          "internalType": "bool",
          "name": "",
          "type": "bool"
        }
      ],
      "stateMutability": "view",
      "type": "function"
    },
    {
      "inputs": [],
      "name": "symbol",
      "outputs": [
        {
          "internalType": "string",
          "name": "",
          "type": "string"
        }
      ],
      "stateMutability": "view",
      "type": "function"
    },
    {
      "inputs": [
        {
          "internalType": "uint256",
          "name": "index",
          "type": "uint256"
        }
      ],
      "name": "tokenByIndex",
      "outputs": [
        {
          "internalType": "uint256",
          "name": "",
          "type": "uint256"
        }
      ],
      "stateMutability": "view",
      "type": "function"
    },
    {
      "inputs": [
        {
          "internalType": "uint256",
          "name": "tokenId",
          "type": "uint256"
        }
      ],
      "name": "tokenMetaData",
      "outputs": [
        {
          "components": [
            {
              "internalType": "uint32",
              "name": "equipType",
              "type": "uint32"
            },
            {
              "internalType": "uint32",
              "name": "upgradeable",
              "type": "uint32"
            },
            {
              "internalType": "uint64",
              "name": "level",
              "type": "uint64"
            },
            {
              "internalType": "uint64",
              "name": "capacity",
              "type": "uint64"
            },
            {
              "internalType": "uint64",
              "name": "quality",
              "type": "uint64"
            }
          ],
          "internalType": "struct RunbitEquip.MetaData",
          "name": "",
          "type": "tuple"
        }
      ],
      "stateMutability": "view",
      "type": "function"
    },
    {
      "inputs": [
        {
          "internalType": "address",
          "name": "owner",
          "type": "address"
        },
        {
          "internalType": "uint256",
          "name": "index",
          "type": "uint256"
        }
      ],
      "name": "tokenOfOwnerByIndex",
      "outputs": [
        {
          "internalType": "uint256",
          "name": "",
          "type": "uint256"
        }
      ],
      "stateMutability": "view",
      "type": "function"
    },
    {
      "inputs": [
        {
          "internalType": "uint256",
          "name": "tokenId",
          "type": "uint256"
        }
      ],
      "name": "tokenURI",
      "outputs": [
        {
          "internalType": "string",
          "name": "",
          "type": "string"
        }
      ],
      "stateMutability": "view",
      "type": "function"
    },
    {
      "inputs": [],
      "name": "totalSupply",
      "outputs": [
        {
          "internalType": "uint256",
          "name": "",
          "type": "uint256"
        }
      ],
      "stateMutability": "view",
      "type": "function"
    },
    {
      "inputs": [
        {
          "internalType": "address",
          "name": "from",
          "type": "address"
        },
        {
          "internalType": "address",
          "name": "to",
          "type": "address"
        },
        {
          "internalType": "uint256",
          "name": "tokenId",
          "type": "uint256"
        }
      ],
      "name": "transferFrom",
      "outputs": [],
      "stateMutability": "nonpayable",
      "type": "function"
    },
    {
      "inputs": [
        {
          "internalType": "uint256",
          "name": "tokenId",
          "type": "uint256"
        }
      ],
      "name": "unlock",
      "outputs": [],
      "stateMutability": "nonpayable",
      "type": "function"
    },
    {
      "inputs": [],
      "name": "unpause",
      "outputs": [],
      "stateMutability": "nonpayable",
      "type": "function"
    }
  ],
  "bytecode": "0x6080604052600f805460ff191690553480156200001b57600080fd5b5060405162003dc938038062003dc98339810160408190526200003e9162000254565b6040518060400160405280600c81526020016b052756e6269742045717569760a41b8152506040518060400160405280600381526020016252424560e81b81525081600090816200009091906200032b565b5060016200009f82826200032b565b5050600b805460ff1916905550620000b960008262000133565b620000e57f65d7a28e3265b37a6474929f336521b332c1681b933f6cb9f3376673440d862a8262000133565b6200010060008051602062003da98339815191528262000133565b6200012c7fee67e84f062f26b2e1ed715b7ab5b471f8978a749ac5fc5bc774f49acca5e7518262000133565b50620003f7565b600f5460ff16158062000155575060008051602062003da98339815191528214155b620001955760405162461bcd60e51b815260206004820152600c60248201526b6e6f7420616c6c6f7765642160a01b604482015260640160405180910390fd5b620001ac8282620001b060201b6200126f1760201c565b5050565b6000828152600c602090815260408083206001600160a01b038516845290915290205460ff16620001ac576000828152600c602090815260408083206001600160a01b03851684529091529020805460ff19166001179055620002103390565b6001600160a01b0316816001600160a01b0316837f2f8788117e7eff1d82e926ec794901d17c78024a50270940304540a733656f0d60405160405180910390a45050565b6000602082840312156200026757600080fd5b81516001600160a01b03811681146200027f57600080fd5b9392505050565b634e487b7160e01b600052604160045260246000fd5b600181811c90821680620002b157607f821691505b602082108103620002d257634e487b7160e01b600052602260045260246000fd5b50919050565b601f8211156200032657600081815260208120601f850160051c81016020861015620003015750805b601f850160051c820191505b8181101562000322578281556001016200030d565b5050505b505050565b81516001600160401b0381111562000347576200034762000286565b6200035f816200035884546200029c565b84620002d8565b602080601f8311600181146200039757600084156200037e5750858301515b600019600386901b1c1916600185901b17855562000322565b600085815260208120601f198616915b82811015620003c857888601518255948401946001909101908401620003a7565b5085821015620003e75787850151600019600388901b60f8161c191681555b5050505050600190811b01905550565b6139a280620004076000396000f3fe608060405234801561001057600080fd5b506004361061025c5760003560e01c80636352211e11610145578063af6a3476116100bd578063d547741f1161008c578063e63ab1e911610071578063e63ab1e91461064e578063e74ccaa214610675578063e985e9c51461068857600080fd5b8063d547741f14610628578063dd4670641461063b57600080fd5b8063af6a3476146104ac578063b88d4fde146105db578063c87b56dd146105ee578063d53913931461060157600080fd5b80638456cb591161011457806395d89b41116100f957806395d89b4114610489578063a217fddf14610491578063a22cb4651461049957600080fd5b80638456cb591461043b57806391d148541461044357600080fd5b80636352211e146104055780636c0360eb1461041857806370a082311461042057806376daebe11461043357600080fd5b80632f745c59116101d857806342966c68116101a757806355f804b31161018c57806355f804b3146103d45780635c975abb146103e75780636198e339146103f257600080fd5b806342966c68146103ae5780634f6ccce7146103c157600080fd5b80632f745c591461036d57806336568abe146103805780633f4ba83a1461039357806342842e0e1461039b57600080fd5b806318160ddd1161022f578063248a9ca311610214578063248a9ca3146103105780632f286b1b146103335780632f2ff15d1461035a57600080fd5b806318160ddd146102eb57806323b872dd146102fd57600080fd5b806301ffc9a71461026157806306fdde0314610289578063081812fc1461029e578063095ea7b3146102d6575b600080fd5b61027461026f366004613100565b6106d1565b60405190151581526020015b60405180910390f35b6102916106e2565b604051610280919061318b565b6102b16102ac36600461319e565b610774565b60405173ffffffffffffffffffffffffffffffffffffffff9091168152602001610280565b6102e96102e43660046131e0565b6107a8565b005b6008545b604051908152602001610280565b6102e961030b36600461320a565b610939565b6102ef61031e36600461319e565b6000908152600c602052604090206001015490565b6102ef7fee67e84f062f26b2e1ed715b7ab5b471f8978a749ac5fc5bc774f49acca5e75181565b6102e9610368366004613246565b6109db565b6102ef61037b3660046131e0565b610a00565b6102e961038e366004613246565b610acf565b6102e9610b82565b6102e96103a936600461320a565b610bb7565b6102e96103bc36600461319e565b610bd2565b6102ef6103cf36600461319e565b610c70565b6102e96103e236600461337e565b610d2e565b600b5460ff16610274565b6102e961040036600461319e565b610d45565b6102b161041336600461319e565b610d81565b610291610e0d565b6102ef61042e3660046133b3565b610e9b565b6102e9610f69565b6102e9610fa2565b610274610451366004613246565b6000918252600c6020908152604080842073ffffffffffffffffffffffffffffffffffffffff93909316845291905290205460ff1690565b610291610fd4565b6102ef600081565b6102e96104a73660046133ce565b610fe3565b61057d6104ba36600461319e565b6040805160a081018252600080825260208201819052918101829052606081018290526080810191909152506000908152600d6020908152604091829020825160a081018452905463ffffffff80821683526401000000008204169282019290925267ffffffffffffffff6801000000000000000083048116938201939093527001000000000000000000000000000000008204831660608201527801000000000000000000000000000000000000000000000000909104909116608082015290565b6040516102809190600060a08201905063ffffffff80845116835280602085015116602084015250604083015167ffffffffffffffff8082166040850152806060860151166060850152806080860151166080850152505092915050565b6102e96105e936600461340a565b610fee565b6102916105fc36600461319e565b611096565b6102ef7f9f2df0fed2c77648de5860a4cc508cd0818c85b8b8a1ab4ceeef8d981c8956a681565b6102e9610636366004613246565b6110a1565b6102e961064936600461319e565b6110c6565b6102ef7f65d7a28e3265b37a6474929f336521b332c1681b933f6cb9f3376673440d862a81565b6102e96106833660046134b2565b611105565b61027461069636600461359b565b73ffffffffffffffffffffffffffffffffffffffff918216600090815260056020908152604080832093909416825291909152205460ff1690565b60006106dc82611363565b92915050565b6060600080546106f1906135c5565b80601f016020809104026020016040519081016040528092919081815260200182805461071d906135c5565b801561076a5780601f1061073f5761010080835404028352916020019161076a565b820191906000526020600020905b81548152906001019060200180831161074d57829003601f168201915b5050505050905090565b600061077f826113b9565b5060009081526004602052604090205473ffffffffffffffffffffffffffffffffffffffff1690565b60006107b382610d81565b90508073ffffffffffffffffffffffffffffffffffffffff168373ffffffffffffffffffffffffffffffffffffffff1603610875576040517f08c379a000000000000000000000000000000000000000000000000000000000815260206004820152602160248201527f4552433732313a20617070726f76616c20746f2063757272656e74206f776e6560448201527f720000000000000000000000000000000000000000000000000000000000000060648201526084015b60405180910390fd5b3373ffffffffffffffffffffffffffffffffffffffff8216148061089e575061089e8133610696565b61092a576040517f08c379a000000000000000000000000000000000000000000000000000000000815260206004820152603d60248201527f4552433732313a20617070726f76652063616c6c6572206973206e6f7420746f60448201527f6b656e206f776e6572206f7220617070726f76656420666f7220616c6c000000606482015260840161086c565b6109348383611444565b505050565b610944335b826114e4565b6109d0576040517f08c379a000000000000000000000000000000000000000000000000000000000815260206004820152602d60248201527f4552433732313a2063616c6c6572206973206e6f7420746f6b656e206f776e6560448201527f72206f7220617070726f76656400000000000000000000000000000000000000606482015260840161086c565b6109348383836115a4565b6000828152600c60205260409020600101546109f6816118ac565b61093483836118b6565b6000610a0b83610e9b565b8210610a99576040517f08c379a000000000000000000000000000000000000000000000000000000000815260206004820152602b60248201527f455243373231456e756d657261626c653a206f776e657220696e646578206f7560448201527f74206f6620626f756e6473000000000000000000000000000000000000000000606482015260840161086c565b5073ffffffffffffffffffffffffffffffffffffffff919091166000908152600660209081526040808320938352929052205490565b73ffffffffffffffffffffffffffffffffffffffff81163314610b74576040517f08c379a000000000000000000000000000000000000000000000000000000000815260206004820152602f60248201527f416363657373436f6e74726f6c3a2063616e206f6e6c792072656e6f756e636560448201527f20726f6c657320666f722073656c660000000000000000000000000000000000606482015260840161086c565b610b7e8282611958565b5050565b7f65d7a28e3265b37a6474929f336521b332c1681b933f6cb9f3376673440d862a610bac816118ac565b610bb4611a13565b50565b61093483838360405180602001604052806000815250610fee565b610bdb3361093e565b610c67576040517f08c379a000000000000000000000000000000000000000000000000000000000815260206004820152602d60248201527f4552433732313a2063616c6c6572206973206e6f7420746f6b656e206f776e6560448201527f72206f7220617070726f76656400000000000000000000000000000000000000606482015260840161086c565b610bb481611a90565b6000610c7b60085490565b8210610d09576040517f08c379a000000000000000000000000000000000000000000000000000000000815260206004820152602c60248201527f455243373231456e756d657261626c653a20676c6f62616c20696e646578206f60448201527f7574206f6620626f756e64730000000000000000000000000000000000000000606482015260840161086c565b60088281548110610d1c57610d1c613618565b90600052602060002001549050919050565b6000610d39816118ac565b60106109348382613695565b7fee67e84f062f26b2e1ed715b7ab5b471f8978a749ac5fc5bc774f49acca5e751610d6f816118ac565b506000908152600e6020526040812055565b60008181526002602052604081205473ffffffffffffffffffffffffffffffffffffffff16806106dc576040517f08c379a000000000000000000000000000000000000000000000000000000000815260206004820152601860248201527f4552433732313a20696e76616c696420746f6b656e2049440000000000000000604482015260640161086c565b60108054610e1a906135c5565b80601f0160208091040260200160405190810160405280929190818152602001828054610e46906135c5565b8015610e935780601f10610e6857610100808354040283529160200191610e93565b820191906000526020600020905b815481529060010190602001808311610e7657829003601f168201915b505050505081565b600073ffffffffffffffffffffffffffffffffffffffff8216610f40576040517f08c379a000000000000000000000000000000000000000000000000000000000815260206004820152602960248201527f4552433732313a2061646472657373207a65726f206973206e6f74206120766160448201527f6c6964206f776e65720000000000000000000000000000000000000000000000606482015260840161086c565b5073ffffffffffffffffffffffffffffffffffffffff1660009081526003602052604090205490565b6000610f74816118ac565b50600f80547fffffffffffffffffffffffffffffffffffffffffffffffffffffffffffffff00166001179055565b7f65d7a28e3265b37a6474929f336521b332c1681b933f6cb9f3376673440d862a610fcc816118ac565b610bb4611a99565b6060600180546106f1906135c5565b610b7e338383611af4565b610ff833836114e4565b611084576040517f08c379a000000000000000000000000000000000000000000000000000000000815260206004820152602d60248201527f4552433732313a2063616c6c6572206973206e6f7420746f6b656e206f776e6560448201527f72206f7220617070726f76656400000000000000000000000000000000000000606482015260840161086c565b61109084848484611c21565b50505050565b60606106dc82611cc4565b6000828152600c60205260409020600101546110bc816118ac565b6109348383611958565b7fee67e84f062f26b2e1ed715b7ab5b471f8978a749ac5fc5bc774f49acca5e7516110f0816118ac565b506000908152600e6020526040902060019055565b7f9f2df0fed2c77648de5860a4cc508cd0818c85b8b8a1ab4ceeef8d981c8956a661112f816118ac565b6111398585611dbf565b6111438484611dd9565b506000928352600d6020908152604093849020825181549284015195840151606085015160809095015167ffffffffffffffff90811678010000000000000000000000000000000000000000000000000277ffffffffffffffffffffffffffffffffffffffffffffffff968216700100000000000000000000000000000000027fffffffffffffffff0000000000000000ffffffffffffffffffffffffffffffff929093166801000000000000000002919091167fffffffffffffffff00000000000000000000000000000000ffffffffffffffff63ffffffff998a16640100000000027fffffffffffffffffffffffffffffffffffffffffffffffff000000000000000090971699909416989098179490941791909116959095179490941791909116179091555050565b6000828152600c6020908152604080832073ffffffffffffffffffffffffffffffffffffffff8516845290915290205460ff16610b7e576000828152600c6020908152604080832073ffffffffffffffffffffffffffffffffffffffff85168452909152902080547fffffffffffffffffffffffffffffffffffffffffffffffffffffffffffffff001660011790556113053390565b73ffffffffffffffffffffffffffffffffffffffff168173ffffffffffffffffffffffffffffffffffffffff16837f2f8788117e7eff1d82e926ec794901d17c78024a50270940304540a733656f0d60405160405180910390a45050565b60007fffffffff0000000000000000000000000000000000000000000000000000000082167f7965db0b0000000000000000000000000000000000000000000000000000000014806106dc57506106dc82611ea2565b60008181526002602052604090205473ffffffffffffffffffffffffffffffffffffffff16610bb4576040517f08c379a000000000000000000000000000000000000000000000000000000000815260206004820152601860248201527f4552433732313a20696e76616c696420746f6b656e2049440000000000000000604482015260640161086c565b600081815260046020526040902080547fffffffffffffffffffffffff00000000000000000000000000000000000000001673ffffffffffffffffffffffffffffffffffffffff8416908117909155819061149e82610d81565b73ffffffffffffffffffffffffffffffffffffffff167f8c5be1e5ebec7d5bd14f71427d1e84f3dd0314c0f7b2291e5b200ac8c7c3b92560405160405180910390a45050565b6000806114f083610d81565b90508073ffffffffffffffffffffffffffffffffffffffff168473ffffffffffffffffffffffffffffffffffffffff16148061155e575073ffffffffffffffffffffffffffffffffffffffff80821660009081526005602090815260408083209388168352929052205460ff165b8061159c57508373ffffffffffffffffffffffffffffffffffffffff1661158484610774565b73ffffffffffffffffffffffffffffffffffffffff16145b949350505050565b8273ffffffffffffffffffffffffffffffffffffffff166115c482610d81565b73ffffffffffffffffffffffffffffffffffffffff1614611667576040517f08c379a000000000000000000000000000000000000000000000000000000000815260206004820152602560248201527f4552433732313a207472616e736665722066726f6d20696e636f72726563742060448201527f6f776e6572000000000000000000000000000000000000000000000000000000606482015260840161086c565b73ffffffffffffffffffffffffffffffffffffffff8216611709576040517f08c379a0000000000000000000000000000000000000000000000000000000008152602060048201526024808201527f4552433732313a207472616e7366657220746f20746865207a65726f2061646460448201527f7265737300000000000000000000000000000000000000000000000000000000606482015260840161086c565b6117168383836001611ef8565b8273ffffffffffffffffffffffffffffffffffffffff1661173682610d81565b73ffffffffffffffffffffffffffffffffffffffff16146117d9576040517f08c379a000000000000000000000000000000000000000000000000000000000815260206004820152602560248201527f4552433732313a207472616e736665722066726f6d20696e636f72726563742060448201527f6f776e6572000000000000000000000000000000000000000000000000000000606482015260840161086c565b600081815260046020908152604080832080547fffffffffffffffffffffffff000000000000000000000000000000000000000090811690915573ffffffffffffffffffffffffffffffffffffffff8781168086526003855283862080547fffffffffffffffffffffffffffffffffffffffffffffffffffffffffffffffff01905590871680865283862080546001019055868652600290945282852080549092168417909155905184937fddf252ad1be2c89b69c2b068fc378daa952ba7f163c4a11628f55a4df523b3ef91a4505050565b610bb48133611f82565b600f5460ff1615806118e857507f9f2df0fed2c77648de5860a4cc508cd0818c85b8b8a1ab4ceeef8d981c8956a68214155b61194e576040517f08c379a000000000000000000000000000000000000000000000000000000000815260206004820152600c60248201527f6e6f7420616c6c6f776564210000000000000000000000000000000000000000604482015260640161086c565b610b7e828261126f565b6000828152600c6020908152604080832073ffffffffffffffffffffffffffffffffffffffff8516845290915290205460ff1615610b7e576000828152600c6020908152604080832073ffffffffffffffffffffffffffffffffffffffff8516808552925280832080547fffffffffffffffffffffffffffffffffffffffffffffffffffffffffffffff0016905551339285917ff6391f5c32d9c69d2a47ea670b442974b53935d1edc7fd64eb21e047a839171b9190a45050565b611a1b61203c565b600b80547fffffffffffffffffffffffffffffffffffffffffffffffffffffffffffffff001690557f5db9ee0a495bf2e6ff9c91a7834c1ba4fdd244a5e8aa4e537bd38aeae4b073aa335b60405173ffffffffffffffffffffffffffffffffffffffff909116815260200160405180910390a1565b610bb4816120aa565b611aa16120ea565b600b80547fffffffffffffffffffffffffffffffffffffffffffffffffffffffffffffff001660011790557f62e78cea01bee320cd4e420270b5ea74000d11b0c9f74754ebdbfc544b05a258611a663390565b8173ffffffffffffffffffffffffffffffffffffffff168373ffffffffffffffffffffffffffffffffffffffff1603611b89576040517f08c379a000000000000000000000000000000000000000000000000000000000815260206004820152601960248201527f4552433732313a20617070726f766520746f2063616c6c657200000000000000604482015260640161086c565b73ffffffffffffffffffffffffffffffffffffffff83811660008181526005602090815260408083209487168084529482529182902080547fffffffffffffffffffffffffffffffffffffffffffffffffffffffffffffff001686151590811790915591519182527f17307eab39ab6107e8899845ad3d59bd9653f200f220920489ca2b5937696c31910160405180910390a3505050565b611c2c8484846115a4565b611c3884848484612157565b611090576040517f08c379a000000000000000000000000000000000000000000000000000000000815260206004820152603260248201527f4552433732313a207472616e7366657220746f206e6f6e20455243373231526560448201527f63656976657220696d706c656d656e7465720000000000000000000000000000606482015260840161086c565b6060611ccf826113b9565b6000828152600a602052604081208054611ce8906135c5565b80601f0160208091040260200160405190810160405280929190818152602001828054611d14906135c5565b8015611d615780601f10611d3657610100808354040283529160200191611d61565b820191906000526020600020905b815481529060010190602001808311611d4457829003601f168201915b505050505090506000611d7261234a565b90508051600003611d84575092915050565b815115611db6578082604051602001611d9e9291906137af565b60405160208183030381529060405292505050919050565b61159c84612359565b610b7e8282604051806020016040528060008152506123c0565b60008281526002602052604090205473ffffffffffffffffffffffffffffffffffffffff16611e8a576040517f08c379a000000000000000000000000000000000000000000000000000000000815260206004820152602e60248201527f45524337323155524953746f726167653a2055524920736574206f66206e6f6e60448201527f6578697374656e7420746f6b656e000000000000000000000000000000000000606482015260840161086c565b6000828152600a602052604090206109348282613695565b60007fffffffff0000000000000000000000000000000000000000000000000000000082167f780e9d630000000000000000000000000000000000000000000000000000000014806106dc57506106dc82612463565b611f006120ea565b6000828152600e602052604090205415611f76576040517f08c379a000000000000000000000000000000000000000000000000000000000815260206004820152601560248201527f5468697320746f6b656e206973206c6f636b6564210000000000000000000000604482015260640161086c565b61109084848484612546565b6000828152600c6020908152604080832073ffffffffffffffffffffffffffffffffffffffff8516845290915290205460ff16610b7e57611fc2816126f6565b611fcd836020612715565b604051602001611fde9291906137de565b604080517fffffffffffffffffffffffffffffffffffffffffffffffffffffffffffffffe0818403018152908290527f08c379a000000000000000000000000000000000000000000000000000000000825261086c9160040161318b565b600b5460ff166120a8576040517f08c379a000000000000000000000000000000000000000000000000000000000815260206004820152601460248201527f5061757361626c653a206e6f7420706175736564000000000000000000000000604482015260640161086c565b565b6120b381612958565b6000818152600a6020526040902080546120cc906135c5565b159050610bb4576000818152600a60205260408120610bb491613084565b600b5460ff16156120a8576040517f08c379a000000000000000000000000000000000000000000000000000000000815260206004820152601060248201527f5061757361626c653a2070617573656400000000000000000000000000000000604482015260640161086c565b600073ffffffffffffffffffffffffffffffffffffffff84163b1561233f576040517f150b7a0200000000000000000000000000000000000000000000000000000000815273ffffffffffffffffffffffffffffffffffffffff85169063150b7a02906121ce90339089908890889060040161385f565b6020604051808303816000875af1925050508015612227575060408051601f3d9081017fffffffffffffffffffffffffffffffffffffffffffffffffffffffffffffffe0168201909252612224918101906138a8565b60015b6122f4573d808015612255576040519150601f19603f3d011682016040523d82523d6000602084013e61225a565b606091505b5080516000036122ec576040517f08c379a000000000000000000000000000000000000000000000000000000000815260206004820152603260248201527f4552433732313a207472616e7366657220746f206e6f6e20455243373231526560448201527f63656976657220696d706c656d656e7465720000000000000000000000000000606482015260840161086c565b805181602001fd5b7fffffffff00000000000000000000000000000000000000000000000000000000167f150b7a020000000000000000000000000000000000000000000000000000000014905061159c565b506001949350505050565b6060601080546106f1906135c5565b6060612364826113b9565b600061236e61234a565b9050600081511161238e57604051806020016040528060008152506123b9565b8061239884612a3e565b6040516020016123a99291906137af565b6040516020818303038152906040525b9392505050565b6123ca8383612afc565b6123d76000848484612157565b610934576040517f08c379a000000000000000000000000000000000000000000000000000000000815260206004820152603260248201527f4552433732313a207472616e7366657220746f206e6f6e20455243373231526560448201527f63656976657220696d706c656d656e7465720000000000000000000000000000606482015260840161086c565b60007fffffffff0000000000000000000000000000000000000000000000000000000082167f80ac58cd0000000000000000000000000000000000000000000000000000000014806124f657507fffffffff0000000000000000000000000000000000000000000000000000000082167f5b5e139f00000000000000000000000000000000000000000000000000000000145b806106dc57507f01ffc9a7000000000000000000000000000000000000000000000000000000007fffffffff000000000000000000000000000000000000000000000000000000008316146106dc565b61255284848484612d2f565b60018111156125e3576040517f08c379a000000000000000000000000000000000000000000000000000000000815260206004820152603560248201527f455243373231456e756d657261626c653a20636f6e736563757469766520747260448201527f616e7366657273206e6f7420737570706f727465640000000000000000000000606482015260840161086c565b8173ffffffffffffffffffffffffffffffffffffffff851661264c5761264781600880546000838152600960205260408120829055600182018355919091527ff3f7a9fe364faab93b216da50a3214154f22a0a2b415b23a84c8169e8b636ee30155565b612689565b8373ffffffffffffffffffffffffffffffffffffffff168573ffffffffffffffffffffffffffffffffffffffff1614612689576126898582612deb565b73ffffffffffffffffffffffffffffffffffffffff84166126b2576126ad81612ea2565b6126ef565b8473ffffffffffffffffffffffffffffffffffffffff168473ffffffffffffffffffffffffffffffffffffffff16146126ef576126ef8482612f51565b5050505050565b60606106dc73ffffffffffffffffffffffffffffffffffffffff831660145b606060006127248360026138f4565b61272f90600261390b565b67ffffffffffffffff81111561274757612747613272565b6040519080825280601f01601f191660200182016040528015612771576020820181803683370190505b5090507f3000000000000000000000000000000000000000000000000000000000000000816000815181106127a8576127a8613618565b60200101907effffffffffffffffffffffffffffffffffffffffffffffffffffffffffffff1916908160001a9053507f78000000000000000000000000000000000000000000000000000000000000008160018151811061280b5761280b613618565b60200101907effffffffffffffffffffffffffffffffffffffffffffffffffffffffffffff1916908160001a90535060006128478460026138f4565b61285290600161390b565b90505b60018111156128ef577f303132333435363738396162636465660000000000000000000000000000000085600f166010811061289357612893613618565b1a60f81b8282815181106128a9576128a9613618565b60200101907effffffffffffffffffffffffffffffffffffffffffffffffffffffffffffff1916908160001a90535060049490941c936128e88161391e565b9050612855565b5083156123b9576040517f08c379a000000000000000000000000000000000000000000000000000000000815260206004820181905260248201527f537472696e67733a20686578206c656e67746820696e73756666696369656e74604482015260640161086c565b600061296382610d81565b9050612973816000846001611ef8565b61297c82610d81565b600083815260046020908152604080832080547fffffffffffffffffffffffff000000000000000000000000000000000000000090811690915573ffffffffffffffffffffffffffffffffffffffff85168085526003845282852080547fffffffffffffffffffffffffffffffffffffffffffffffffffffffffffffffff0190558785526002909352818420805490911690555192935084927fddf252ad1be2c89b69c2b068fc378daa952ba7f163c4a11628f55a4df523b3ef908390a45050565b60606000612a4b83612fa2565b600101905060008167ffffffffffffffff811115612a6b57612a6b613272565b6040519080825280601f01601f191660200182016040528015612a95576020820181803683370190505b5090508181016020015b7fffffffffffffffffffffffffffffffffffffffffffffffffffffffffffffffff017f3031323334353637383961626364656600000000000000000000000000000000600a86061a8153600a8504945084612a9f57509392505050565b73ffffffffffffffffffffffffffffffffffffffff8216612b79576040517f08c379a000000000000000000000000000000000000000000000000000000000815260206004820181905260248201527f4552433732313a206d696e7420746f20746865207a65726f2061646472657373604482015260640161086c565b60008181526002602052604090205473ffffffffffffffffffffffffffffffffffffffff1615612c05576040517f08c379a000000000000000000000000000000000000000000000000000000000815260206004820152601c60248201527f4552433732313a20746f6b656e20616c7265616479206d696e74656400000000604482015260640161086c565b612c13600083836001611ef8565b60008181526002602052604090205473ffffffffffffffffffffffffffffffffffffffff1615612c9f576040517f08c379a000000000000000000000000000000000000000000000000000000000815260206004820152601c60248201527f4552433732313a20746f6b656e20616c7265616479206d696e74656400000000604482015260640161086c565b73ffffffffffffffffffffffffffffffffffffffff8216600081815260036020908152604080832080546001019055848352600290915280822080547fffffffffffffffffffffffff0000000000000000000000000000000000000000168417905551839291907fddf252ad1be2c89b69c2b068fc378daa952ba7f163c4a11628f55a4df523b3ef908290a45050565b60018111156110905773ffffffffffffffffffffffffffffffffffffffff841615612d8f5773ffffffffffffffffffffffffffffffffffffffff841660009081526003602052604081208054839290612d89908490613953565b90915550505b73ffffffffffffffffffffffffffffffffffffffff8316156110905773ffffffffffffffffffffffffffffffffffffffff831660009081526003602052604081208054839290612de090849061390b565b909155505050505050565b60006001612df884610e9b565b612e029190613953565b600083815260076020526040902054909150808214612e625773ffffffffffffffffffffffffffffffffffffffff841660009081526006602090815260408083208584528252808320548484528184208190558352600790915290208190555b50600091825260076020908152604080842084905573ffffffffffffffffffffffffffffffffffffffff9094168352600681528383209183525290812055565b600854600090612eb490600190613953565b60008381526009602052604081205460088054939450909284908110612edc57612edc613618565b906000526020600020015490508060088381548110612efd57612efd613618565b6000918252602080832090910192909255828152600990915260408082208490558582528120556008805480612f3557612f35613966565b6001900381819060005260206000200160009055905550505050565b6000612f5c83610e9b565b73ffffffffffffffffffffffffffffffffffffffff9093166000908152600660209081526040808320868452825280832085905593825260079052919091209190915550565b6000807a184f03e93ff9f4daa797ed6e38ed64bf6a1f0100000000000000008310612feb577a184f03e93ff9f4daa797ed6e38ed64bf6a1f010000000000000000830492506040015b6d04ee2d6d415b85acef81000000008310613017576d04ee2d6d415b85acef8100000000830492506020015b662386f26fc10000831061303557662386f26fc10000830492506010015b6305f5e100831061304d576305f5e100830492506008015b612710831061306157612710830492506004015b60648310613073576064830492506002015b600a83106106dc5760010192915050565b508054613090906135c5565b6000825580601f106130a0575050565b601f016020900490600052602060002090810190610bb491905b808211156130ce57600081556001016130ba565b5090565b7fffffffff0000000000000000000000000000000000000000000000000000000081168114610bb457600080fd5b60006020828403121561311257600080fd5b81356123b9816130d2565b60005b83811015613138578181015183820152602001613120565b50506000910152565b6000815180845261315981602086016020860161311d565b601f017fffffffffffffffffffffffffffffffffffffffffffffffffffffffffffffffe0169290920160200192915050565b6020815260006123b96020830184613141565b6000602082840312156131b057600080fd5b5035919050565b803573ffffffffffffffffffffffffffffffffffffffff811681146131db57600080fd5b919050565b600080604083850312156131f357600080fd5b6131fc836131b7565b946020939093013593505050565b60008060006060848603121561321f57600080fd5b613228846131b7565b9250613236602085016131b7565b9150604084013590509250925092565b6000806040838503121561325957600080fd5b82359150613269602084016131b7565b90509250929050565b7f4e487b7100000000000000000000000000000000000000000000000000000000600052604160045260246000fd5b60405160a0810167ffffffffffffffff811182821017156132c4576132c4613272565b60405290565b600067ffffffffffffffff808411156132e5576132e5613272565b604051601f85017fffffffffffffffffffffffffffffffffffffffffffffffffffffffffffffffe0908116603f0116810190828211818310171561332b5761332b613272565b8160405280935085815286868601111561334457600080fd5b858560208301376000602087830101525050509392505050565b600082601f83011261336f57600080fd5b6123b9838335602085016132ca565b60006020828403121561339057600080fd5b813567ffffffffffffffff8111156133a757600080fd5b61159c8482850161335e565b6000602082840312156133c557600080fd5b6123b9826131b7565b600080604083850312156133e157600080fd5b6133ea836131b7565b9150602083013580151581146133ff57600080fd5b809150509250929050565b6000806000806080858703121561342057600080fd5b613429856131b7565b9350613437602086016131b7565b925060408501359150606085013567ffffffffffffffff81111561345a57600080fd5b8501601f8101871361346b57600080fd5b61347a878235602084016132ca565b91505092959194509250565b803563ffffffff811681146131db57600080fd5b803567ffffffffffffffff811681146131db57600080fd5b6000806000808486036101008112156134ca57600080fd5b6134d3866131b7565b945060208601359350604086013567ffffffffffffffff8111156134f657600080fd5b6135028882890161335e565b93505060a07fffffffffffffffffffffffffffffffffffffffffffffffffffffffffffffffa08201121561353557600080fd5b5061353e6132a1565b61354a60608701613486565b815261355860808701613486565b602082015261356960a0870161349a565b604082015261357a60c0870161349a565b606082015261358b60e0870161349a565b6080820152939692955090935050565b600080604083850312156135ae57600080fd5b6135b7836131b7565b9150613269602084016131b7565b600181811c908216806135d957607f821691505b602082108103613612577f4e487b7100000000000000000000000000000000000000000000000000000000600052602260045260246000fd5b50919050565b7f4e487b7100000000000000000000000000000000000000000000000000000000600052603260045260246000fd5b601f82111561093457600081815260208120601f850160051c8101602086101561366e5750805b601f850160051c820191505b8181101561368d5782815560010161367a565b505050505050565b815167ffffffffffffffff8111156136af576136af613272565b6136c3816136bd84546135c5565b84613647565b602080601f83116001811461371657600084156136e05750858301515b7fffffffffffffffffffffffffffffffffffffffffffffffffffffffffffffffff600386901b1c1916600185901b17855561368d565b6000858152602081207fffffffffffffffffffffffffffffffffffffffffffffffffffffffffffffffe08616915b8281101561376357888601518255948401946001909101908401613744565b508582101561379f57878501517fffffffffffffffffffffffffffffffffffffffffffffffffffffffffffffffff600388901b60f8161c191681555b5050505050600190811b01905550565b600083516137c181846020880161311d565b8351908301906137d581836020880161311d565b01949350505050565b7f416363657373436f6e74726f6c3a206163636f756e742000000000000000000081526000835161381681601785016020880161311d565b7f206973206d697373696e6720726f6c6520000000000000000000000000000000601791840191820152835161385381602884016020880161311d565b01602801949350505050565b600073ffffffffffffffffffffffffffffffffffffffff80871683528086166020840152508360408301526080606083015261389e6080830184613141565b9695505050505050565b6000602082840312156138ba57600080fd5b81516123b9816130d2565b7f4e487b7100000000000000000000000000000000000000000000000000000000600052601160045260246000fd5b80820281158282048414176106dc576106dc6138c5565b808201808211156106dc576106dc6138c5565b60008161392d5761392d6138c5565b507fffffffffffffffffffffffffffffffffffffffffffffffffffffffffffffffff0190565b818103818111156106dc576106dc6138c5565b7f4e487b7100000000000000000000000000000000000000000000000000000000600052603160045260246000fdfea164736f6c6343000811000a9f2df0fed2c77648de5860a4cc508cd0818c85b8b8a1ab4ceeef8d981c8956a6",
  "linkReferences": {},
  "deployedLinkReferences": {}
}