{
  "_format": "hh-sol-artifact-1",
  "contractName": "RunbitProxy",
  "sourceName": "contracts/RunbitProxy.sol",
  "abi": [
    {
      "inputs": [
        {
          "internalType": "address",
          "name": "_runbit",
          "type": "address"
        },
        {
          "internalType": "address",
          "name": "_card",
          "type": "address"
        },
        {
          "internalType": "address",
          "name": "_equip",
          "type": "address"
        },
        {
          "internalType": "address",
          "name": "_rb",
          "type": "address"
        }
      ],
      "stateMutability": "nonpayable",
      "type": "constructor"
    },
    {
      "inputs": [
        {
          "internalType": "address",
          "name": "user",
          "type": "address"
        }
      ],
      "name": "getUserInfo",
      "outputs": [
        {
          "components": [
            {
              "internalType": "uint256[3]",
              "name": "equipIds",
              "type": "uint256[3]"
            },
            {
              "components": [
                {
                  "internalType": "uint32",
                  "name": "equipType",
                  "type": "uint32"
                },
                {
                  "internalType": "uint32",
                  "name": "upgradeable",
                  "type": "uint32"
                },
                {
                  "internalType": "uint64",
                  "name": "level",
                  "type": "uint64"
                },
                {
                  "internalType": "uint64",
                  "name": "capacity",
                  "type": "uint64"
                },
                {
                  "internalType": "uint64",
                  "name": "quality",
                  "type": "uint64"
                }
              ],
              "internalType": "struct IRunbitEquip.MetaData[3]",
              "name": "equipMetas",
              "type": "tuple[3]"
            },
            {
              "internalType": "string[3]",
              "name": "equipURIs",
              "type": "string[3]"
            },
            {
              "internalType": "uint256[9]",
              "name": "cardIds",
              "type": "uint256[9]"
            },
            {
              "internalType": "uint256[9]",
              "name": "cardConsume",
              "type": "uint256[9]"
            },
            {
              "components": [
                {
                  "internalType": "uint64",
                  "name": "specialty",
                  "type": "uint64"
                },
                {
                  "internalType": "uint64",
                  "name": "comfort",
                  "type": "uint64"
                },
                {
                  "internalType": "uint64",
                  "name": "aesthetic",
                  "type": "uint64"
                },
                {
                  "internalType": "uint32",
                  "name": "durability",
                  "type": "uint32"
                },
                {
                  "internalType": "uint32",
                  "name": "level",
                  "type": "uint32"
                }
              ],
              "internalType": "struct IRunbitCard.MetaData[9]",
              "name": "cardMetas",
              "type": "tuple[9]"
            },
            {
              "internalType": "string[9]",
              "name": "cardURIs",
              "type": "string[9]"
            },
            {
              "internalType": "uint256",
              "name": "totalSpecialty",
              "type": "uint256"
            },
            {
              "internalType": "uint256",
              "name": "totalAesthetic",
              "type": "uint256"
            },
            {
              "internalType": "uint256",
              "name": "totalComfort",
              "type": "uint256"
            },
            {
              "internalType": "uint256",
              "name": "currentSteps",
              "type": "uint256"
            },
            {
              "internalType": "uint256",
              "name": "currentRewads",
              "type": "uint256"
            },
            {
              "internalType": "uint256",
              "name": "trackId0",
              "type": "uint256"
            },
            {
              "internalType": "uint256",
              "name": "trackId1",
              "type": "uint256"
            },
            {
              "internalType": "uint256",
              "name": "today",
              "type": "uint256"
            },
            {
              "internalType": "uint256",
              "name": "cardBalance",
              "type": "uint256"
            },
            {
              "internalType": "uint256",
              "name": "equipBalance",
              "type": "uint256"
            },
            {
              "internalType": "uint256",
              "name": "rbBalance",
              "type": "uint256"
            }
          ],
          "internalType": "struct RunbitProxy.UserInfo",
          "name": "info",
          "type": "tuple"
        }
      ],
      "stateMutability": "view",
      "type": "function"
    }
  ],
  "bytecode": "0x60806040523480156200001157600080fd5b506040516200183c3803806200183c8339810160408190526200003491620000a5565b600080546001600160a01b039586166001600160a01b031991821617909155600180549486169482169490941790935560028054928516928416929092179091556003805491909316911617905562000102565b80516001600160a01b0381168114620000a057600080fd5b919050565b60008060008060808587031215620000bc57600080fd5b620000c78562000088565b9350620000d76020860162000088565b9250620000e76040860162000088565b9150620000f76060860162000088565b905092959194509250565b61172a80620001126000396000f3fe608060405234801561001057600080fd5b506004361061002b5760003560e01c80636386c1c714610030575b600080fd5b61004361003e366004610f0a565b610059565b604051610050919061116b565b60405180910390f35b610061610d02565b62015180610071426170806112e1565b61007b91906112fa565b6101c082015260005b6003811015610935576000546040517f46a99bd300000000000000000000000000000000000000000000000000000000815273ffffffffffffffffffffffffffffffffffffffff858116600483015260248201849052909116906346a99bd390604401602060405180830381865afa158015610104573d6000803e3d6000fd5b505050506040513d601f19601f820116820180604052508101906101289190611335565b8251826003811061013b5761013b61134e565b6020020152815181600381106101535761015361134e565b60200201511561092557600254825173ffffffffffffffffffffffffffffffffffffffff808616921690636352211e9084600381106101945761019461134e565b60200201516040518263ffffffff1660e01b81526004016101b791815260200190565b602060405180830381865afa1580156101d4573d6000803e3d6000fd5b505050506040513d601f19601f820116820180604052508101906101f8919061137d565b73ffffffffffffffffffffffffffffffffffffffff161461023357815160009082600381106102295761022961134e565b6020020152610925565b600254825173ffffffffffffffffffffffffffffffffffffffff9091169063af6a34769083600381106102685761026861134e565b60200201516040518263ffffffff1660e01b815260040161028b91815260200190565b60a060405180830381865afa1580156102a8573d6000803e3d6000fd5b505050506040513d601f19601f820116820180604052508101906102cc9190611446565b826020015182600381106102e2576102e261134e565b6020020152600254825173ffffffffffffffffffffffffffffffffffffffff9091169063c87b56dd90836003811061031c5761031c61134e565b60200201516040518263ffffffff1660e01b815260040161033f91815260200190565b600060405180830381865afa15801561035c573d6000803e3d6000fd5b505050506040513d6000823e601f3d9081017fffffffffffffffffffffffffffffffffffffffffffffffffffffffffffffffe01682016040526103a291908101906114b6565b826040015182600381106103b8576103b861134e565b602002015260006103ca826003611581565b90505b6103d8826003611581565b6103e39060036112e1565b81101561092357600054835173ffffffffffffffffffffffffffffffffffffffff90911690635206cffb90846003811061041f5761041f61134e565b602002015161042f856003611581565b6104399085611598565b6040517fffffffff0000000000000000000000000000000000000000000000000000000060e085901b16815260048101929092526024820152604401602060405180830381865afa158015610492573d6000803e3d6000fd5b505050506040513d601f19601f820116820180604052508101906104b69190611335565b836060015182600981106104cc576104cc61134e565b6020020152606083015181600981106104e7576104e761134e565b60200201511561091357600154606084015173ffffffffffffffffffffffffffffffffffffffff808716921690636352211e90846009811061052b5761052b61134e565b60200201516040518263ffffffff1660e01b815260040161054e91815260200190565b602060405180830381865afa15801561056b573d6000803e3d6000fd5b505050506040513d601f19601f8201168201806040525081019061058f919061137d565b73ffffffffffffffffffffffffffffffffffffffff16146105cc576000836060015182600981106105c2576105c261134e565b6020020152610913565b600054606084015173ffffffffffffffffffffffffffffffffffffffff9091169063f51799979083600981106106045761060461134e565b60200201516040518263ffffffff1660e01b815260040161062791815260200190565b602060405180830381865afa158015610644573d6000803e3d6000fd5b505050506040513d601f19601f820116820180604052508101906106689190611335565b8360800151826009811061067e5761067e61134e565b6020020152600154606084015173ffffffffffffffffffffffffffffffffffffffff9091169063af6a34769083600981106106bb576106bb61134e565b60200201516040518263ffffffff1660e01b81526004016106de91815260200190565b60a060405180830381865afa1580156106fb573d6000803e3d6000fd5b505050506040513d601f19601f8201168201806040525081019061071f91906115ab565b8360a0015182600981106107355761073561134e565b6020020152600154606084015173ffffffffffffffffffffffffffffffffffffffff9091169063c87b56dd9083600981106107725761077261134e565b60200201516040518263ffffffff1660e01b815260040161079591815260200190565b600060405180830381865afa1580156107b2573d6000803e3d6000fd5b505050506040513d6000823e601f3d9081017fffffffffffffffffffffffffffffffffffffffffffffffffffffffffffffffe01682016040526107f891908101906114b6565b8360c00151826009811061080e5761080e61134e565b602002015260a083015181600981106108295761082961134e565b60200201516060015163ffffffff168360800151826009811061084e5761084e61134e565b60200201511015610913578260a00151816009811061086f5761086f61134e565b60200201516000015167ffffffffffffffff168360e00181815161089391906112e1565b90525060a083015181600981106108ac576108ac61134e565b60200201516020015167ffffffffffffffff1683610120018181516108d191906112e1565b90525060a083015181600981106108ea576108ea61134e565b60200201516040015167ffffffffffffffff16836101000181815161090f91906112e1565b9052505b61091c8161160f565b90506103cd565b505b61092e8161160f565b9050610084565b506000546101c08201516040517fdc4ee99f00000000000000000000000000000000000000000000000000000000815273ffffffffffffffffffffffffffffffffffffffff8581166004830152602482019290925291169063dc4ee99f90604401602060405180830381865afa1580156109b3573d6000803e3d6000fd5b505050506040513d601f19601f820116820180604052508101906109d79190611335565b6101608201526000546101c08201516040517fa289b3ae00000000000000000000000000000000000000000000000000000000815273ffffffffffffffffffffffffffffffffffffffff8581166004830152602482019290925291169063a289b3ae9060440160c060405180830381865afa158015610a5a573d6000803e3d6000fd5b505050506040513d601f19601f82011682018060405250810190610a7e9190611658565b6080015167ffffffffffffffff16610140820152600054604080517fc6db12d9000000000000000000000000000000000000000000000000000000008152815173ffffffffffffffffffffffffffffffffffffffff9093169263c6db12d9926004808401939192918290030181865afa158015610aff573d6000803e3d6000fd5b505050506040513d601f19601f82011682018060405250810190610b2391906116f9565b6101a08301526101808201526001546040517f70a0823100000000000000000000000000000000000000000000000000000000815273ffffffffffffffffffffffffffffffffffffffff8481166004830152909116906370a0823190602401602060405180830381865afa158015610b9f573d6000803e3d6000fd5b505050506040513d601f19601f82011682018060405250810190610bc39190611335565b6101e08201526002546040517f70a0823100000000000000000000000000000000000000000000000000000000815273ffffffffffffffffffffffffffffffffffffffff8481166004830152909116906370a0823190602401602060405180830381865afa158015610c39573d6000803e3d6000fd5b505050506040513d601f19601f82011682018060405250810190610c5d9190611335565b6102008201526003546040517f70a0823100000000000000000000000000000000000000000000000000000000815273ffffffffffffffffffffffffffffffffffffffff8481166004830152909116906370a0823190602401602060405180830381865afa158015610cd3573d6000803e3d6000fd5b505050506040513d601f19601f82011682018060405250810190610cf79190611335565b610220820152919050565b604051806102400160405280610d16610db7565b8152602001610d23610dd5565b8152602001610d30610e40565b8152602001610d3d610e67565b8152602001610d4a610e67565b8152602001610d57610e86565b8152602001610d64610eca565b815260200160008152602001600081526020016000815260200160008152602001600081526020016000815260200160008152602001600081526020016000815260200160008152602001600081525090565b60405180606001604052806003906020820280368337509192915050565b60405180606001604052806003905b6040805160a0810182526000808252602080830182905292820181905260608201819052608082015282527fffffffffffffffffffffffffffffffffffffffffffffffffffffffffffffffff909201910181610de45790505090565b60405180606001604052806003905b6060815260200190600190039081610e4f5790505090565b6040518061012001604052806009906020820280368337509192915050565b604080516101c08101909152600061012082018181526101408301829052610160830182905261018083018290526101a08301919091528152600860208201610de4565b60408051610120810190915260608152600860208201610e4f565b73ffffffffffffffffffffffffffffffffffffffff81168114610f0757600080fd5b50565b600060208284031215610f1c57600080fd5b8135610f2781610ee5565b9392505050565b8060005b6003811015610f51578151845260209384019390910190600101610f32565b50505050565b8060005b6003811015610f51578151805163ffffffff90811686526020808301519091168187015260408083015167ffffffffffffffff90811691880191909152606080840151821690880152608092830151169186019190915260a09094019390910190600101610f5b565b60005b83811015610fdf578181015183820152602001610fc7565b50506000910152565b600082606081018360005b600381101561105a57838303875281518051808552602061101982828801838601610fc4565b98890198601f919091017fffffffffffffffffffffffffffffffffffffffffffffffffffffffffffffffe01694909401840193929092019150600101610ff3565b509095945050505050565b8060005b6009811015610f51578151845260209384019390910190600101611069565b8060005b6009811015610f51578151805167ffffffffffffffff90811686526020808301518216818801526040808401519092169187019190915260608083015163ffffffff90811691880191909152608092830151169186019190915260a0909401939091019060010161108c565b60008261012081018360005b600981101561105a57838303875281518051808552602061112a82828801838601610fc4565b98890198601f919091017fffffffffffffffffffffffffffffffffffffffffffffffffffffffffffffffe01694909401840193929092019150600101611104565b6020815261117d602082018351610f2e565b600060208301516111916080840182610f57565b506040830151610bc0806102608501526111af610be0850183610fe8565b915060608501516111c4610280860182611065565b5060808501516111d86103a0860182611065565b5060a08501516111ec6104c0860182611088565b5060c08501517fffffffffffffffffffffffffffffffffffffffffffffffffffffffffffffffe085840301610a6086015261122783826110f8565b60e0870151610a80870152610100870151610aa0870152610120870151610ac0870152610140870151610ae0870152610160870151610b00870152610180870151610b208701526101a0870151610b408701526101c0870151610b608701526101e0870151610b80870152610200870151610ba0870152610220909601519190940152509192915050565b7f4e487b7100000000000000000000000000000000000000000000000000000000600052601160045260246000fd5b808201808211156112f4576112f46112b2565b92915050565b600082611330577f4e487b7100000000000000000000000000000000000000000000000000000000600052601260045260246000fd5b500490565b60006020828403121561134757600080fd5b5051919050565b7f4e487b7100000000000000000000000000000000000000000000000000000000600052603260045260246000fd5b60006020828403121561138f57600080fd5b8151610f2781610ee5565b7f4e487b7100000000000000000000000000000000000000000000000000000000600052604160045260246000fd5b60405160a0810167ffffffffffffffff811182821017156113ec576113ec61139a565b60405290565b60405160c0810167ffffffffffffffff811182821017156113ec576113ec61139a565b805163ffffffff8116811461142957600080fd5b919050565b805167ffffffffffffffff8116811461142957600080fd5b600060a0828403121561145857600080fd5b6114606113c9565b61146983611415565b815261147760208401611415565b60208201526114886040840161142e565b60408201526114996060840161142e565b60608201526114aa6080840161142e565b60808201529392505050565b6000602082840312156114c857600080fd5b815167ffffffffffffffff808211156114e057600080fd5b818401915084601f8301126114f457600080fd5b8151818111156115065761150661139a565b604051601f82017fffffffffffffffffffffffffffffffffffffffffffffffffffffffffffffffe0908116603f0116810190838211818310171561154c5761154c61139a565b8160405282815287602084870101111561156557600080fd5b611576836020830160208801610fc4565b979650505050505050565b80820281158282048414176112f4576112f46112b2565b818103818111156112f4576112f46112b2565b600060a082840312156115bd57600080fd5b6115c56113c9565b6115ce8361142e565b81526115dc6020840161142e565b60208201526115ed6040840161142e565b60408201526115fe60608401611415565b60608201526114aa60808401611415565b60007fffffffffffffffffffffffffffffffffffffffffffffffffffffffffffffffff8203611640576116406112b2565b5060010190565b805160ff8116811461142957600080fd5b600060c0828403121561166a57600080fd5b6116726113f2565b61167b83611647565b815261168960208401611647565b6020820152604083015161ffff811681146116a357600080fd5b60408201526116b460608401611415565b60608201526116c56080840161142e565b608082015260a08301516fffffffffffffffffffffffffffffffff811681146116ed57600080fd5b60a08201529392505050565b6000806040838503121561170c57600080fd5b50508051602090910151909290915056fea164736f6c6343000811000a",
  "linkReferences": {},
  "deployedLinkReferences": {}
}