{
  "_format": "hh-sol-artifact-1",
  "contractName": "RunbitProxy",
  "sourceName": "contracts/RunbitProxy.sol",
  "abi": [
    {
      "inputs": [
        {
          "internalType": "address",
          "name": "_runbit",
          "type": "address"
        },
        {
          "internalType": "address",
          "name": "_card",
          "type": "address"
        },
        {
          "internalType": "address",
          "name": "_equip",
          "type": "address"
        },
        {
          "internalType": "address",
          "name": "_rb",
          "type": "address"
        }
      ],
      "stateMutability": "nonpayable",
      "type": "constructor"
    },
    {
      "inputs": [
        {
          "internalType": "address",
          "name": "user",
          "type": "address"
        }
      ],
      "name": "getAllCards",
      "outputs": [
        {
          "components": [
            {
              "internalType": "string",
              "name": "uri",
              "type": "string"
            },
            {
              "internalType": "uint256",
              "name": "id",
              "type": "uint256"
            },
            {
              "components": [
                {
                  "internalType": "uint64",
                  "name": "specialty",
                  "type": "uint64"
                },
                {
                  "internalType": "uint64",
                  "name": "comfort",
                  "type": "uint64"
                },
                {
                  "internalType": "uint64",
                  "name": "aesthetic",
                  "type": "uint64"
                },
                {
                  "internalType": "uint32",
                  "name": "durability",
                  "type": "uint32"
                },
                {
                  "internalType": "uint32",
                  "name": "level",
                  "type": "uint32"
                }
              ],
              "internalType": "struct IRunbitCard.MetaData",
              "name": "meta",
              "type": "tuple"
            },
            {
              "components": [
                {
                  "internalType": "uint192",
                  "name": "equipId",
                  "type": "uint192"
                },
                {
                  "internalType": "uint64",
                  "name": "idx",
                  "type": "uint64"
                }
              ],
              "internalType": "struct Runbit.CardInfo",
              "name": "info",
              "type": "tuple"
            },
            {
              "components": [
                {
                  "internalType": "uint64",
                  "name": "count",
                  "type": "uint64"
                },
                {
                  "internalType": "uint64",
                  "name": "equipType",
                  "type": "uint64"
                },
                {
                  "internalType": "uint64",
                  "name": "trackId",
                  "type": "uint64"
                }
              ],
              "internalType": "struct Runbit.StepCount",
              "name": "count",
              "type": "tuple"
            },
            {
              "internalType": "uint256",
              "name": "consume",
              "type": "uint256"
            }
          ],
          "internalType": "struct RunbitProxy.CardAggInfo[]",
          "name": "infos",
          "type": "tuple[]"
        }
      ],
      "stateMutability": "view",
      "type": "function"
    },
    {
      "inputs": [
        {
          "internalType": "address",
          "name": "user",
          "type": "address"
        }
      ],
      "name": "getAllEquips",
      "outputs": [
        {
          "components": [
            {
              "internalType": "string",
              "name": "uri",
              "type": "string"
            },
            {
              "internalType": "uint256",
              "name": "id",
              "type": "uint256"
            },
            {
              "components": [
                {
                  "internalType": "uint32",
                  "name": "equipType",
                  "type": "uint32"
                },
                {
                  "internalType": "uint32",
                  "name": "upgradeable",
                  "type": "uint32"
                },
                {
                  "internalType": "uint64",
                  "name": "level",
                  "type": "uint64"
                },
                {
                  "internalType": "uint64",
                  "name": "capacity",
                  "type": "uint64"
                },
                {
                  "internalType": "uint64",
                  "name": "quality",
                  "type": "uint64"
                }
              ],
              "internalType": "struct IRunbitEquip.MetaData",
              "name": "meta",
              "type": "tuple"
            },
            {
              "components": [
                {
                  "internalType": "address",
                  "name": "owner",
                  "type": "address"
                },
                {
                  "internalType": "uint64",
                  "name": "emptyId",
                  "type": "uint64"
                },
                {
                  "internalType": "uint32",
                  "name": "latestDay",
                  "type": "uint32"
                }
              ],
              "internalType": "struct Runbit.EquipInfo",
              "name": "info",
              "type": "tuple"
            },
            {
              "internalType": "uint256[3]",
              "name": "cards",
              "type": "uint256[3]"
            },
            {
              "internalType": "string[3]",
              "name": "cardURIs",
              "type": "string[3]"
            }
          ],
          "internalType": "struct RunbitProxy.EquipAggInfo[]",
          "name": "infos",
          "type": "tuple[]"
        }
      ],
      "stateMutability": "view",
      "type": "function"
    },
    {
      "inputs": [
        {
          "internalType": "address",
          "name": "user",
          "type": "address"
        }
      ],
      "name": "getUserInfo",
      "outputs": [
        {
          "components": [
            {
              "internalType": "uint256[3]",
              "name": "equipIds",
              "type": "uint256[3]"
            },
            {
              "components": [
                {
                  "internalType": "uint32",
                  "name": "equipType",
                  "type": "uint32"
                },
                {
                  "internalType": "uint32",
                  "name": "upgradeable",
                  "type": "uint32"
                },
                {
                  "internalType": "uint64",
                  "name": "level",
                  "type": "uint64"
                },
                {
                  "internalType": "uint64",
                  "name": "capacity",
                  "type": "uint64"
                },
                {
                  "internalType": "uint64",
                  "name": "quality",
                  "type": "uint64"
                }
              ],
              "internalType": "struct IRunbitEquip.MetaData[3]",
              "name": "equipMetas",
              "type": "tuple[3]"
            },
            {
              "internalType": "string[3]",
              "name": "equipURIs",
              "type": "string[3]"
            },
            {
              "components": [
                {
                  "internalType": "address",
                  "name": "owner",
                  "type": "address"
                },
                {
                  "internalType": "uint64",
                  "name": "emptyId",
                  "type": "uint64"
                },
                {
                  "internalType": "uint32",
                  "name": "latestDay",
                  "type": "uint32"
                }
              ],
              "internalType": "struct Runbit.EquipInfo[3]",
              "name": "equipInfos",
              "type": "tuple[3]"
            },
            {
              "internalType": "uint256[9]",
              "name": "cardIds",
              "type": "uint256[9]"
            },
            {
              "internalType": "uint256[9]",
              "name": "cardConsume",
              "type": "uint256[9]"
            },
            {
              "components": [
                {
                  "internalType": "uint64",
                  "name": "specialty",
                  "type": "uint64"
                },
                {
                  "internalType": "uint64",
                  "name": "comfort",
                  "type": "uint64"
                },
                {
                  "internalType": "uint64",
                  "name": "aesthetic",
                  "type": "uint64"
                },
                {
                  "internalType": "uint32",
                  "name": "durability",
                  "type": "uint32"
                },
                {
                  "internalType": "uint32",
                  "name": "level",
                  "type": "uint32"
                }
              ],
              "internalType": "struct IRunbitCard.MetaData[9]",
              "name": "cardMetas",
              "type": "tuple[9]"
            },
            {
              "internalType": "string[9]",
              "name": "cardURIs",
              "type": "string[9]"
            },
            {
              "components": [
                {
                  "internalType": "uint64",
                  "name": "count",
                  "type": "uint64"
                },
                {
                  "internalType": "uint64",
                  "name": "equipType",
                  "type": "uint64"
                },
                {
                  "internalType": "uint64",
                  "name": "trackId",
                  "type": "uint64"
                }
              ],
              "internalType": "struct Runbit.StepCount[9]",
              "name": "cardCounts",
              "type": "tuple[9]"
            },
            {
              "internalType": "uint256",
              "name": "totalSpecialty",
              "type": "uint256"
            },
            {
              "internalType": "uint256",
              "name": "totalAesthetic",
              "type": "uint256"
            },
            {
              "internalType": "uint256",
              "name": "totalComfort",
              "type": "uint256"
            },
            {
              "internalType": "uint256",
              "name": "currentSteps",
              "type": "uint256"
            },
            {
              "internalType": "uint256",
              "name": "currentRewads",
              "type": "uint256"
            },
            {
              "internalType": "uint256",
              "name": "trackId0",
              "type": "uint256"
            },
            {
              "internalType": "uint256",
              "name": "trackId1",
              "type": "uint256"
            },
            {
              "internalType": "uint256",
              "name": "today",
              "type": "uint256"
            },
            {
              "internalType": "uint256",
              "name": "cardBalance",
              "type": "uint256"
            },
            {
              "internalType": "uint256",
              "name": "equipBalance",
              "type": "uint256"
            },
            {
              "internalType": "uint256",
              "name": "rbBalance",
              "type": "uint256"
            }
          ],
          "internalType": "struct RunbitProxy.UserInfo",
          "name": "info",
          "type": "tuple"
        }
      ],
      "stateMutability": "view",
      "type": "function"
    },
    {
      "inputs": [
        {
          "internalType": "address",
          "name": "user",
          "type": "address"
        },
        {
          "internalType": "uint256",
          "name": "from",
          "type": "uint256"
        },
        {
          "internalType": "uint256",
          "name": "to",
          "type": "uint256"
        }
      ],
      "name": "getUserLotterys",
      "outputs": [
        {
          "components": [
            {
              "internalType": "uint256[]",
              "name": "RT",
              "type": "uint256[]"
            },
            {
              "internalType": "uint256[]",
              "name": "CT",
              "type": "uint256[]"
            },
            {
              "internalType": "uint256[]",
              "name": "ET",
              "type": "uint256[]"
            },
            {
              "components": [
                {
                  "internalType": "uint8",
                  "name": "status",
                  "type": "uint8"
                },
                {
                  "internalType": "uint8",
                  "name": "lottery",
                  "type": "uint8"
                },
                {
                  "internalType": "uint16",
                  "name": "trackId",
                  "type": "uint16"
                },
                {
                  "internalType": "uint32",
                  "name": "cardCount",
                  "type": "uint32"
                },
                {
                  "internalType": "uint64",
                  "name": "lastSteps",
                  "type": "uint64"
                },
                {
                  "internalType": "uint128",
                  "name": "RBReward",
                  "type": "uint128"
                }
              ],
              "internalType": "struct Runbit.UserState[]",
              "name": "states",
              "type": "tuple[]"
            }
          ],
          "internalType": "struct RunbitProxy.UserLotterys",
          "name": "lotterys",
          "type": "tuple"
        }
      ],
      "stateMutability": "view",
      "type": "function"
    },
    {
      "inputs": [
        {
          "internalType": "address",
          "name": "user",
          "type": "address"
        },
        {
          "internalType": "uint256",
          "name": "from",
          "type": "uint256"
        },
        {
          "internalType": "uint256",
          "name": "to",
          "type": "uint256"
        }
      ],
      "name": "getUserRewards",
      "outputs": [
        {
          "components": [
            {
              "internalType": "uint256[]",
              "name": "rewards",
              "type": "uint256[]"
            },
            {
              "components": [
                {
                  "internalType": "uint8",
                  "name": "status",
                  "type": "uint8"
                },
                {
                  "internalType": "uint8",
                  "name": "lottery",
                  "type": "uint8"
                },
                {
                  "internalType": "uint16",
                  "name": "trackId",
                  "type": "uint16"
                },
                {
                  "internalType": "uint32",
                  "name": "cardCount",
                  "type": "uint32"
                },
                {
                  "internalType": "uint64",
                  "name": "lastSteps",
                  "type": "uint64"
                },
                {
                  "internalType": "uint128",
                  "name": "RBReward",
                  "type": "uint128"
                }
              ],
              "internalType": "struct Runbit.UserState[]",
              "name": "states",
              "type": "tuple[]"
            }
          ],
          "internalType": "struct RunbitProxy.UserRewards",
          "name": "rewards",
          "type": "tuple"
        }
      ],
      "stateMutability": "view",
      "type": "function"
    }
  ],
  "bytecode": "0x60806040523480156200001157600080fd5b5060405162003755380380620037558339810160408190526200003491620000a5565b600080546001600160a01b039586166001600160a01b031991821617909155600180549486169482169490941790935560028054928516928416929092179091556003805491909316911617905562000102565b80516001600160a01b0381168114620000a057600080fd5b919050565b60008060008060808587031215620000bc57600080fd5b620000c78562000088565b9350620000d76020860162000088565b9250620000e76040860162000088565b9150620000f76060860162000088565b905092959194509250565b61364380620001126000396000f3fe608060405234801561001057600080fd5b50600436106100675760003560e01c806392ce06471161005057806392ce0647146100b55780639cf08fcb146100d5578063a70e6d71146100f557600080fd5b8063139f13d11461006c5780636386c1c714610095575b600080fd5b61007f61007a366004612751565b610115565b60405161008c9190612851565b60405180910390f35b6100a86100a33660046128ed565b6104dd565b60405161008c9190612bee565b6100c86100c33660046128ed565b611319565b60405161008c9190612d60565b6100e86100e3366004612751565b611a83565b60405161008c9190612ebf565b6101086101033660046128ed565b611d32565b60405161008c9190612f16565b6101406040518060800160405280606081526020016060815260200160608152602001606081525090565b60008061014d858561309d565b90508067ffffffffffffffff811115610168576101686130b6565b604051908082528060200260200182016040528015610191578160200160208202803683370190505b5083528067ffffffffffffffff8111156101ad576101ad6130b6565b6040519080825280602002602001820160405280156101d6578160200160208202803683370190505b5060208401528067ffffffffffffffff8111156101f5576101f56130b6565b60405190808252806020026020018201604052801561021e578160200160208202803683370190505b5060408401528067ffffffffffffffff81111561023d5761023d6130b6565b6040519080825280602002602001820160405280156102bb57816020015b6040805160c08101825260008082526020808301829052928201819052606082018190526080820181905260a082015282527fffffffffffffffffffffffffffffffffffffffffffffffffffffffffffffffff90920191018161025b5790505b506060840152845b848110156104d357600080546040517fd266ffb700000000000000000000000000000000000000000000000000000000815273ffffffffffffffffffffffffffffffffffffffff8a81166004830152602482018590528392839291169063d266ffb790604401606060405180830381865afa158015610346573d6000803e3d6000fd5b505050506040513d601f19601f8201168201806040525081019061036a91906130e5565b925092509250600083118061037f5750600082115b8061038a5750600081115b156104b45782876000015187815181106103a6576103a6613113565b60200260200101818152505081876020015187815181106103c9576103c9613113565b60200260200101818152505080876040015187815181106103ec576103ec613113565b60209081029190910101526000546040517fa289b3ae00000000000000000000000000000000000000000000000000000000815273ffffffffffffffffffffffffffffffffffffffff8c81166004830152602482018790529091169063a289b3ae9060440160c060405180830381865afa15801561046e573d6000803e3d6000fd5b505050506040513d601f19601f8201168201806040525081019061049291906131f3565b876060015187815181106104a8576104a8613113565b60200260200101819052505b6104bd86613294565b9550505050806104cc90613294565b90506102c3565b5050509392505050565b6104e561241f565b620151806104f5426170806132cc565b6104ff91906132df565b61020082015260005b6003811015610f4a576000546040517f46a99bd300000000000000000000000000000000000000000000000000000000815273ffffffffffffffffffffffffffffffffffffffff858116600483015260248201849052909116906346a99bd390604401602060405180830381865afa158015610588573d6000803e3d6000fd5b505050506040513d601f19601f820116820180604052508101906105ac919061331a565b825182600381106105bf576105bf613113565b6020020152815181600381106105d7576105d7613113565b602002015115610f3a57600254825173ffffffffffffffffffffffffffffffffffffffff808616921690636352211e90846003811061061857610618613113565b60200201516040518263ffffffff1660e01b815260040161063b91815260200190565b602060405180830381865afa158015610658573d6000803e3d6000fd5b505050506040513d601f19601f8201168201806040525081019061067c9190613333565b73ffffffffffffffffffffffffffffffffffffffff16146106b757815160009082600381106106ad576106ad613113565b6020020152610f3a565b600254825173ffffffffffffffffffffffffffffffffffffffff9091169063af6a34769083600381106106ec576106ec613113565b60200201516040518263ffffffff1660e01b815260040161070f91815260200190565b60a060405180830381865afa15801561072c573d6000803e3d6000fd5b505050506040513d601f19601f820116820180604052508101906107509190613350565b8260200151826003811061076657610766613113565b6020020152600254825173ffffffffffffffffffffffffffffffffffffffff9091169063c87b56dd9083600381106107a0576107a0613113565b60200201516040518263ffffffff1660e01b81526004016107c391815260200190565b600060405180830381865afa1580156107e0573d6000803e3d6000fd5b505050506040513d6000823e601f3d9081017fffffffffffffffffffffffffffffffffffffffffffffffffffffffffffffffe016820160405261082691908101906133c0565b8260400151826003811061083c5761083c613113565b6020020152600054825173ffffffffffffffffffffffffffffffffffffffff909116906323af1a4890836003811061087657610876613113565b60200201516040518263ffffffff1660e01b815260040161089991815260200190565b606060405180830381865afa1580156108b6573d6000803e3d6000fd5b505050506040513d601f19601f820116820180604052508101906108da919061348b565b826060015182600381106108f0576108f0613113565b602002015260006109028260036134db565b90505b6109108260036134db565b61091b9060036132cc565b811015610f3857600054835173ffffffffffffffffffffffffffffffffffffffff90911690635206cffb90846003811061095757610957613113565b60200201516109678560036134db565b610971908561309d565b6040517fffffffff0000000000000000000000000000000000000000000000000000000060e085901b16815260048101929092526024820152604401602060405180830381865afa1580156109ca573d6000803e3d6000fd5b505050506040513d601f19601f820116820180604052508101906109ee919061331a565b83608001518260098110610a0457610a04613113565b602002015260808301518160098110610a1f57610a1f613113565b602002015115610f2857600154608084015173ffffffffffffffffffffffffffffffffffffffff808716921690636352211e908460098110610a6357610a63613113565b60200201516040518263ffffffff1660e01b8152600401610a8691815260200190565b602060405180830381865afa158015610aa3573d6000803e3d6000fd5b505050506040513d601f19601f82011682018060405250810190610ac79190613333565b73ffffffffffffffffffffffffffffffffffffffff1614610b0457600083608001518260098110610afa57610afa613113565b6020020152610f28565b600054608084015173ffffffffffffffffffffffffffffffffffffffff9091169063f5179997908360098110610b3c57610b3c613113565b60200201516040518263ffffffff1660e01b8152600401610b5f91815260200190565b602060405180830381865afa158015610b7c573d6000803e3d6000fd5b505050506040513d601f19601f82011682018060405250810190610ba0919061331a565b8360a001518260098110610bb657610bb6613113565b6020020152600154608084015173ffffffffffffffffffffffffffffffffffffffff9091169063af6a3476908360098110610bf357610bf3613113565b60200201516040518263ffffffff1660e01b8152600401610c1691815260200190565b60a060405180830381865afa158015610c33573d6000803e3d6000fd5b505050506040513d601f19601f82011682018060405250810190610c5791906134f2565b8360c001518260098110610c6d57610c6d613113565b6020020152600154608084015173ffffffffffffffffffffffffffffffffffffffff9091169063c87b56dd908360098110610caa57610caa613113565b60200201516040518263ffffffff1660e01b8152600401610ccd91815260200190565b600060405180830381865afa158015610cea573d6000803e3d6000fd5b505050506040513d6000823e601f3d9081017fffffffffffffffffffffffffffffffffffffffffffffffffffffffffffffffe0168201604052610d3091908101906133c0565b8360e001518260098110610d4657610d46613113565b6020020152600054608084015173ffffffffffffffffffffffffffffffffffffffff90911690639e23a993908360098110610d8357610d83613113565b60200201516102008601516040517fffffffff0000000000000000000000000000000000000000000000000000000060e085901b16815260048101929092526024820152604401606060405180830381865afa158015610de7573d6000803e3d6000fd5b505050506040513d601f19601f82011682018060405250810190610e0b9190613556565b8361010001518260098110610e2257610e22613113565b602002015260c08301518160098110610e3d57610e3d613113565b60200201516060015163ffffffff168360a001518260098110610e6257610e62613113565b60200201511015610f28578260c001518160098110610e8357610e83613113565b60200201516000015167ffffffffffffffff168361012001818151610ea891906132cc565b90525060c08301518160098110610ec157610ec1613113565b60200201516020015167ffffffffffffffff168361016001818151610ee691906132cc565b90525060c08301518160098110610eff57610eff613113565b60200201516040015167ffffffffffffffff168361014001818151610f2491906132cc565b9052505b610f3181613294565b9050610905565b505b610f4381613294565b9050610508565b506000546102008201516040517fdc4ee99f00000000000000000000000000000000000000000000000000000000815273ffffffffffffffffffffffffffffffffffffffff8581166004830152602482019290925291169063dc4ee99f90604401602060405180830381865afa158015610fc8573d6000803e3d6000fd5b505050506040513d601f19601f82011682018060405250810190610fec919061331a565b6101a08201526000546102008201516040517fa289b3ae00000000000000000000000000000000000000000000000000000000815273ffffffffffffffffffffffffffffffffffffffff8581166004830152602482019290925291169063a289b3ae9060440160c060405180830381865afa15801561106f573d6000803e3d6000fd5b505050506040513d601f19601f8201168201806040525081019061109391906131f3565b6080015167ffffffffffffffff166101808201526000546040517f4cf6aa8e00000000000000000000000000000000000000000000000000000000815273ffffffffffffffffffffffffffffffffffffffff848116600483015290911690634cf6aa8e906024016040805180830381865afa158015611116573d6000803e3d6000fd5b505050506040513d601f19601f8201168201806040525081019061113a9190613598565b6101e08301526101c08201526001546040517f70a0823100000000000000000000000000000000000000000000000000000000815273ffffffffffffffffffffffffffffffffffffffff8481166004830152909116906370a0823190602401602060405180830381865afa1580156111b6573d6000803e3d6000fd5b505050506040513d601f19601f820116820180604052508101906111da919061331a565b6102208201526002546040517f70a0823100000000000000000000000000000000000000000000000000000000815273ffffffffffffffffffffffffffffffffffffffff8481166004830152909116906370a0823190602401602060405180830381865afa158015611250573d6000803e3d6000fd5b505050506040513d601f19601f82011682018060405250810190611274919061331a565b6102408201526003546040517f70a0823100000000000000000000000000000000000000000000000000000000815273ffffffffffffffffffffffffffffffffffffffff8481166004830152909116906370a0823190602401602060405180830381865afa1580156112ea573d6000803e3d6000fd5b505050506040513d601f19601f8201168201806040525081019061130e919061331a565b610260820152919050565b606060006201518061132d426170806132cc565b61133791906132df565b6001546040517f70a0823100000000000000000000000000000000000000000000000000000000815273ffffffffffffffffffffffffffffffffffffffff8681166004830152929350600092909116906370a0823190602401602060405180830381865afa1580156113ad573d6000803e3d6000fd5b505050506040513d601f19601f820116820180604052508101906113d1919061331a565b90508067ffffffffffffffff8111156113ec576113ec6130b6565b6040519080825280602002602001820160405280156114a257816020015b61148f6040805160c081018252606080825260006020808401829052845160a0810186528281528082018390528086018390528084018390526080810183905284860152845180860190955281855284015290919082019081526040805160608101825260008082526020828101829052928201529101908152602001600081525090565b81526020019060019003908161140a5790505b50925060005b81811015611a7b576001546040517f2f745c5900000000000000000000000000000000000000000000000000000000815273ffffffffffffffffffffffffffffffffffffffff87811660048301526024820184905290911690632f745c5990604401602060405180830381865afa158015611527573d6000803e3d6000fd5b505050506040513d601f19601f8201168201806040525081019061154b919061331a565b84828151811061155d5761155d613113565b6020908102919091018101510152600154845173ffffffffffffffffffffffffffffffffffffffff9091169063af6a3476908690849081106115a1576115a1613113565b6020026020010151602001516040518263ffffffff1660e01b81526004016115cb91815260200190565b60a060405180830381865afa1580156115e8573d6000803e3d6000fd5b505050506040513d601f19601f8201168201806040525081019061160c91906134f2565b84828151811061161e5761161e613113565b602090810291909101015160400152600154845173ffffffffffffffffffffffffffffffffffffffff9091169063c87b56dd9086908490811061166357611663613113565b6020026020010151602001516040518263ffffffff1660e01b815260040161168d91815260200190565b600060405180830381865afa1580156116aa573d6000803e3d6000fd5b505050506040513d6000823e601f3d9081017fffffffffffffffffffffffffffffffffffffffffffffffffffffffffffffffe01682016040526116f091908101906133c0565b84828151811061170257611702613113565b602090810291909101015152600054845173ffffffffffffffffffffffffffffffffffffffff9091169063f51799979086908490811061174457611744613113565b6020026020010151602001516040518263ffffffff1660e01b815260040161176e91815260200190565b602060405180830381865afa15801561178b573d6000803e3d6000fd5b505050506040513d601f19601f820116820180604052508101906117af919061331a565b8482815181106117c1576117c1613113565b602090810291909101015160a00152600054845173ffffffffffffffffffffffffffffffffffffffff90911690639e23a9939086908490811061180657611806613113565b602002602001015160200151856040518363ffffffff1660e01b8152600401611839929190918252602082015260400190565b606060405180830381865afa158015611856573d6000803e3d6000fd5b505050506040513d601f19601f8201168201806040525081019061187a9190613556565b84828151811061188c5761188c613113565b60209081029190910101516080015260008054855173ffffffffffffffffffffffffffffffffffffffff9091169063970129be908790859081106118d2576118d2613113565b6020026020010151602001516040518263ffffffff1660e01b81526004016118fc91815260200190565b6040805180830381865afa158015611918573d6000803e3d6000fd5b505050506040513d601f19601f8201168201806040525081019061193c91906135bc565b805190915077ffffffffffffffffffffffffffffffffffffffffffffffff1615611a6a5760025481516040517f6352211e00000000000000000000000000000000000000000000000000000000815277ffffffffffffffffffffffffffffffffffffffffffffffff909116600482015260009173ffffffffffffffffffffffffffffffffffffffff1690636352211e90602401602060405180830381865afa1580156119ec573d6000803e3d6000fd5b505050506040513d601f19601f82011682018060405250810190611a109190613333565b90508673ffffffffffffffffffffffffffffffffffffffff168173ffffffffffffffffffffffffffffffffffffffff1603611a685781868481518110611a5857611a58613113565b6020026020010151606001819052505b505b50611a7481613294565b90506114a8565b505050919050565b6040805180820190915260608082526020820152600080611aa4858561309d565b90508067ffffffffffffffff811115611abf57611abf6130b6565b604051908082528060200260200182016040528015611ae8578160200160208202803683370190505b5083528067ffffffffffffffff811115611b0457611b046130b6565b604051908082528060200260200182016040528015611b8257816020015b6040805160c08101825260008082526020808301829052928201819052606082018190526080820181905260a082015282527fffffffffffffffffffffffffffffffffffffffffffffffffffffffffffffffff909201910181611b225790505b506020840152845b848110156104d357600080546040517fdc4ee99f00000000000000000000000000000000000000000000000000000000815273ffffffffffffffffffffffffffffffffffffffff8a81166004830152602482018590529091169063dc4ee99f90604401602060405180830381865afa158015611c0a573d6000803e3d6000fd5b505050506040513d601f19601f82011682018060405250810190611c2e919061331a565b90508015611d15578085600001518581518110611c4d57611c4d613113565b60209081029190910101526000546040517fa289b3ae00000000000000000000000000000000000000000000000000000000815273ffffffffffffffffffffffffffffffffffffffff8a81166004830152602482018590529091169063a289b3ae9060440160c060405180830381865afa158015611ccf573d6000803e3d6000fd5b505050506040513d601f19601f82011682018060405250810190611cf391906131f3565b85602001518581518110611d0957611d09613113565b60200260200101819052505b611d1e84613294565b93505080611d2b90613294565b9050611b8a565b6002546040517f70a0823100000000000000000000000000000000000000000000000000000000815273ffffffffffffffffffffffffffffffffffffffff83811660048301526060926000929116906370a0823190602401602060405180830381865afa158015611da7573d6000803e3d6000fd5b505050506040513d601f19601f82011682018060405250810190611dcb919061331a565b90508067ffffffffffffffff811115611de657611de66130b6565b604051908082528060200260200182016040528015611e1f57816020015b611e0c6124ee565b815260200190600190039081611e045790505b50915060005b81811015612418576002546040517f2f745c5900000000000000000000000000000000000000000000000000000000815273ffffffffffffffffffffffffffffffffffffffff86811660048301526024820184905290911690632f745c5990604401602060405180830381865afa158015611ea4573d6000803e3d6000fd5b505050506040513d601f19601f82011682018060405250810190611ec8919061331a565b838281518110611eda57611eda613113565b6020908102919091018101510152600254835173ffffffffffffffffffffffffffffffffffffffff9091169063af6a347690859084908110611f1e57611f1e613113565b6020026020010151602001516040518263ffffffff1660e01b8152600401611f4891815260200190565b60a060405180830381865afa158015611f65573d6000803e3d6000fd5b505050506040513d601f19601f82011682018060405250810190611f899190613350565b838281518110611f9b57611f9b613113565b602090810291909101015160400152600254835173ffffffffffffffffffffffffffffffffffffffff9091169063c87b56dd90859084908110611fe057611fe0613113565b6020026020010151602001516040518263ffffffff1660e01b815260040161200a91815260200190565b600060405180830381865afa158015612027573d6000803e3d6000fd5b505050506040513d6000823e601f3d9081017fffffffffffffffffffffffffffffffffffffffffffffffffffffffffffffffe016820160405261206d91908101906133c0565b83828151811061207f5761207f613113565b602090810291909101015152600054835173ffffffffffffffffffffffffffffffffffffffff909116906323af1a48908590849081106120c1576120c1613113565b6020026020010151602001516040518263ffffffff1660e01b81526004016120eb91815260200190565b606060405180830381865afa158015612108573d6000803e3d6000fd5b505050506040513d601f19601f8201168201806040525081019061212c919061348b565b83828151811061213e5761213e613113565b60200260200101516060018190525060005b60038110156124075760008054855173ffffffffffffffffffffffffffffffffffffffff90911690635206cffb9087908690811061219057612190613113565b602002602001015160200151846040518363ffffffff1660e01b81526004016121c3929190918252602082015260400190565b602060405180830381865afa1580156121e0573d6000803e3d6000fd5b505050506040513d601f19601f82011682018060405250810190612204919061331a565b905080156123f6576001546040517f6352211e0000000000000000000000000000000000000000000000000000000081526004810183905260009173ffffffffffffffffffffffffffffffffffffffff1690636352211e90602401602060405180830381865afa15801561227c573d6000803e3d6000fd5b505050506040513d601f19601f820116820180604052508101906122a09190613333565b90508073ffffffffffffffffffffffffffffffffffffffff168773ffffffffffffffffffffffffffffffffffffffff16036123f457818685815181106122e8576122e8613113565b602002602001015160800151846003811061230557612305613113565b60200201526001546040517fc87b56dd0000000000000000000000000000000000000000000000000000000081526004810184905273ffffffffffffffffffffffffffffffffffffffff9091169063c87b56dd90602401600060405180830381865afa158015612379573d6000803e3d6000fd5b505050506040513d6000823e601f3d9081017fffffffffffffffffffffffffffffffffffffffffffffffffffffffffffffffe01682016040526123bf91908101906133c0565b8685815181106123d1576123d1613113565b602002602001015160a0015184600381106123ee576123ee613113565b60200201525b505b5061240081613294565b9050612150565b5061241181613294565b9050611e25565b5050919050565b60405180610280016040528061243361256d565b815260200161244061258b565b815260200161244d6125f6565b815260200161245a61261d565b815260200161246761267a565b815260200161247461267a565b8152602001612481612699565b815260200161248e6126dd565b815260200161249b6126f8565b815260200160008152602001600081526020016000815260200160008152602001600081526020016000815260200160008152602001600081526020016000815260200160008152602001600081525090565b6040805160c081018252606080825260006020808401829052845160a081018652828152908101829052808501829052918201819052608082015290918201908152604080516060810182526000808252602082810182905292820152910190815260200161255b61256d565b81526020016125686125f6565b905290565b60405180606001604052806003906020820280368337509192915050565b60405180606001604052806003905b6040805160a0810182526000808252602080830182905292820181905260608201819052608082015282527fffffffffffffffffffffffffffffffffffffffffffffffffffffffffffffffff90920191018161259a5790505090565b60405180606001604052806003905b60608152602001906001900390816126055790505090565b60405180606001604052806003905b60408051606081018252600080825260208083018290529282015282527fffffffffffffffffffffffffffffffffffffffffffffffffffffffffffffffff90920191018161262c5790505090565b6040518061012001604052806009906020820280368337509192915050565b604080516101c08101909152600061012082018181526101408301829052610160830182905261018083018290526101a0830191909152815260086020820161259a565b60408051610120810190915260608152600860208201612605565b604080516101808101909152600061012082018181526101408301829052610160830191909152815260086020820161262c565b73ffffffffffffffffffffffffffffffffffffffff8116811461274e57600080fd5b50565b60008060006060848603121561276657600080fd5b83356127718161272c565b95602085013595506040909401359392505050565b600081518084526020808501945080840160005b838110156127b65781518752958201959082019060010161279a565b509495945050505050565b600081518084526020808501945080840160005b838110156127b6578151805160ff908116895284820151168489015260408082015161ffff169089015260608082015163ffffffff169089015260808082015167ffffffffffffffff169089015260a0908101516fffffffffffffffffffffffffffffffff169088015260c090960195908201906001016127d5565b60208152600082516080602084015261286d60a0840182612786565b905060208401517fffffffffffffffffffffffffffffffffffffffffffffffffffffffffffffffe0808584030160408601526128a98383612786565b925060408601519150808584030160608601526128c68383612786565b92506060860151915080858403016080860152506128e482826127c1565b95945050505050565b6000602082840312156128ff57600080fd5b813561290a8161272c565b9392505050565b8060005b6003811015612934578151845260209384019390910190600101612915565b50505050565b8060005b60038110156129345761299984835163ffffffff80825116835280602083015116602084015250604081015167ffffffffffffffff808216604085015280606084015116606085015280608084015116608085015250505050565b60a093909301926020919091019060010161293e565b60005b838110156129ca5781810151838201526020016129b2565b50506000910152565b600081518084526129eb8160208601602086016129af565b601f017fffffffffffffffffffffffffffffffffffffffffffffffffffffffffffffffe0169290920160200192915050565b600082606081018360005b6003811015612a57578383038752612a418383516129d3565b6020978801979093509190910190600101612a28565b509095945050505050565b8060005b600381101561293457612ab4848351805173ffffffffffffffffffffffffffffffffffffffff16825260208082015167ffffffffffffffff169083015260409081015163ffffffff16910152565b6060939093019260209190910190600101612a66565b8060005b6009811015612934578151845260209384019390910190600101612ace565b8060005b600981101561293457612b4c84835167ffffffffffffffff80825116835280602083015116602084015280604083015116604084015250606081015163ffffffff808216606085015280608084015116608085015250505050565b60a0939093019260209190910190600101612af1565b60008261012081018360005b6009811015612a57578383038752612b878383516129d3565b6020978801979093509190910190600101612b6e565b8060005b600981101561293457612bd8848351805167ffffffffffffffff908116835260208083015182169084015260409182015116910152565b6060939093019260209190910190600101612ba1565b60208152612c00602082018351612911565b60006020830151612c14608084018261293a565b5060408301516110406102608181860152612c33611060860184612a1d565b92506060860151612c48610280870182612a62565b506080860151612c5c6103a0870182612aca565b5060a0860151612c706104c0870182612aca565b5060c0860151612c846105e0870182612aed565b5060e08601517fffffffffffffffffffffffffffffffffffffffffffffffffffffffffffffffe086850301610b80870152612cbf8482612b62565b935050610100860151612cd6610ba0870182612b9d565b50610120860151610f00860152610140860151610f20860152610160860151610f40860152610180860151610f608601526101a0860151610f808601526101c0860151610fa08601526101e0860151610fc0860152610200860151610fe0860152610220860151611000860152610240860151611020860152909401519390920192909252919050565b60006020808301818452808551808352604092508286019150828160051b87010184880160005b83811015612eb1577fffffffffffffffffffffffffffffffffffffffffffffffffffffffffffffffc089840301855281516101a08151818652612dcc828701826129d3565b915050888201518986015287820151612e2e8987018267ffffffffffffffff80825116835280602083015116602084015280604083015116604084015250606081015163ffffffff808216606085015280608084015116608085015250505050565b506060820151805177ffffffffffffffffffffffffffffffffffffffffffffffff1660e087015289015167ffffffffffffffff90811661010087015260808301518051821661012088015260208101518216610140880152604001511661016086015260a090910151610180909401939093529386019390860190600101612d87565b509098975050505050505050565b602081526000825160406020840152612edb6060840182612786565b905060208401517fffffffffffffffffffffffffffffffffffffffffffffffffffffffffffffffe08483030160408501526128e482826127c1565b60006020808301818452808551808352604092508286019150828160051b87010184880160005b83811015612eb1577fffffffffffffffffffffffffffffffffffffffffffffffffffffffffffffffc089840301855281516101c08151818652612f82828701826129d3565b915050888201518986015287820151612fe48987018263ffffffff80825116835280602083015116602084015250604081015167ffffffffffffffff808216604085015280606084015116606085015280608084015116608085015250505050565b506060820151805173ffffffffffffffffffffffffffffffffffffffff1660e0870152602081015167ffffffffffffffff166101008701526040015163ffffffff16610120860152608082015161303f610140870182612911565b5060a082015191508481036101a086015261305a8183612a1d565b968901969450505090860190600101612f3d565b7f4e487b7100000000000000000000000000000000000000000000000000000000600052601160045260246000fd5b818103818111156130b0576130b061306e565b92915050565b7f4e487b7100000000000000000000000000000000000000000000000000000000600052604160045260246000fd5b6000806000606084860312156130fa57600080fd5b8351925060208401519150604084015190509250925092565b7f4e487b7100000000000000000000000000000000000000000000000000000000600052603260045260246000fd5b60405160c0810167ffffffffffffffff81118282101715613165576131656130b6565b60405290565b60405160a0810167ffffffffffffffff81118282101715613165576131656130b6565b6040516060810167ffffffffffffffff81118282101715613165576131656130b6565b805160ff811681146131c257600080fd5b919050565b805163ffffffff811681146131c257600080fd5b805167ffffffffffffffff811681146131c257600080fd5b600060c0828403121561320557600080fd5b61320d613142565b613216836131b1565b8152613224602084016131b1565b6020820152604083015161ffff8116811461323e57600080fd5b604082015261324f606084016131c7565b6060820152613260608084016131db565b608082015260a08301516fffffffffffffffffffffffffffffffff8116811461328857600080fd5b60a08201529392505050565b60007fffffffffffffffffffffffffffffffffffffffffffffffffffffffffffffffff82036132c5576132c561306e565b5060010190565b808201808211156130b0576130b061306e565b600082613315577f4e487b7100000000000000000000000000000000000000000000000000000000600052601260045260246000fd5b500490565b60006020828403121561332c57600080fd5b5051919050565b60006020828403121561334557600080fd5b815161290a8161272c565b600060a0828403121561336257600080fd5b61336a61316b565b613373836131c7565b8152613381602084016131c7565b6020820152613392604084016131db565b60408201526133a3606084016131db565b60608201526133b4608084016131db565b60808201529392505050565b6000602082840312156133d257600080fd5b815167ffffffffffffffff808211156133ea57600080fd5b818401915084601f8301126133fe57600080fd5b815181811115613410576134106130b6565b604051601f82017fffffffffffffffffffffffffffffffffffffffffffffffffffffffffffffffe0908116603f01168101908382118183101715613456576134566130b6565b8160405282815287602084870101111561346f57600080fd5b6134808360208301602088016129af565b979650505050505050565b60006060828403121561349d57600080fd5b6134a561318e565b82516134b08161272c565b81526134be602084016131db565b60208201526134cf604084016131c7565b60408201529392505050565b80820281158282048414176130b0576130b061306e565b600060a0828403121561350457600080fd5b61350c61316b565b613515836131db565b8152613523602084016131db565b6020820152613534604084016131db565b6040820152613545606084016131c7565b60608201526133b4608084016131c7565b60006060828403121561356857600080fd5b61357061318e565b613579836131db565b8152613587602084016131db565b60208201526134cf604084016131db565b600080604083850312156135ab57600080fd5b505080516020909101519092909150565b6000604082840312156135ce57600080fd5b6040516040810181811067ffffffffffffffff821117156135f1576135f16130b6565b604052825177ffffffffffffffffffffffffffffffffffffffffffffffff8116811461361c57600080fd5b815261362a602084016131db565b6020820152939250505056fea164736f6c6343000811000a",
  "linkReferences": {},
  "deployedLinkReferences": {}
}