{
  "_format": "hh-sol-artifact-1",
  "contractName": "Runbit",
  "sourceName": "contracts/Runbit.sol",
  "abi": [
    {
      "inputs": [
        {
          "internalType": "address",
          "name": "admin",
          "type": "address"
        }
      ],
      "stateMutability": "nonpayable",
      "type": "constructor"
    },
    {
      "anonymous": false,
      "inputs": [
        {
          "indexed": true,
          "internalType": "uint256",
          "name": "day",
          "type": "uint256"
        },
        {
          "indexed": false,
          "internalType": "uint256",
          "name": "commitAmount",
          "type": "uint256"
        },
        {
          "indexed": false,
          "internalType": "uint256",
          "name": "techAmount",
          "type": "uint256"
        },
        {
          "indexed": false,
          "internalType": "uint256",
          "name": "bonusAmount",
          "type": "uint256"
        }
      ],
      "name": "BonusClaim",
      "type": "event"
    },
    {
      "anonymous": false,
      "inputs": [
        {
          "indexed": true,
          "internalType": "uint256",
          "name": "cardId",
          "type": "uint256"
        },
        {
          "indexed": true,
          "internalType": "address",
          "name": "user",
          "type": "address"
        },
        {
          "indexed": false,
          "internalType": "uint256",
          "name": "equipId",
          "type": "uint256"
        },
        {
          "indexed": false,
          "internalType": "uint256",
          "name": "index",
          "type": "uint256"
        }
      ],
      "name": "CardBind",
      "type": "event"
    },
    {
      "anonymous": false,
      "inputs": [
        {
          "indexed": true,
          "internalType": "uint256",
          "name": "cardId",
          "type": "uint256"
        },
        {
          "indexed": true,
          "internalType": "address",
          "name": "user",
          "type": "address"
        },
        {
          "indexed": false,
          "internalType": "uint256",
          "name": "equipId",
          "type": "uint256"
        },
        {
          "indexed": false,
          "internalType": "uint256",
          "name": "index",
          "type": "uint256"
        }
      ],
      "name": "CardUnbind",
      "type": "event"
    },
    {
      "anonymous": false,
      "inputs": [
        {
          "indexed": true,
          "internalType": "uint256",
          "name": "tokenId",
          "type": "uint256"
        },
        {
          "indexed": true,
          "internalType": "address",
          "name": "user",
          "type": "address"
        }
      ],
      "name": "CardUse",
      "type": "event"
    },
    {
      "anonymous": false,
      "inputs": [
        {
          "indexed": true,
          "internalType": "uint256",
          "name": "tokenId",
          "type": "uint256"
        },
        {
          "indexed": true,
          "internalType": "address",
          "name": "user",
          "type": "address"
        }
      ],
      "name": "EquipBind",
      "type": "event"
    },
    {
      "anonymous": false,
      "inputs": [
        {
          "indexed": true,
          "internalType": "address",
          "name": "user",
          "type": "address"
        },
        {
          "indexed": false,
          "internalType": "uint256",
          "name": "equipType",
          "type": "uint256"
        }
      ],
      "name": "EquipUnbind",
      "type": "event"
    },
    {
      "anonymous": false,
      "inputs": [
        {
          "indexed": true,
          "internalType": "address",
          "name": "user",
          "type": "address"
        },
        {
          "indexed": false,
          "internalType": "uint256",
          "name": "day",
          "type": "uint256"
        },
        {
          "indexed": false,
          "internalType": "uint256",
          "name": "amount",
          "type": "uint256"
        }
      ],
      "name": "LotteryCT",
      "type": "event"
    },
    {
      "anonymous": false,
      "inputs": [
        {
          "indexed": true,
          "internalType": "address",
          "name": "user",
          "type": "address"
        },
        {
          "indexed": false,
          "internalType": "uint256",
          "name": "day",
          "type": "uint256"
        },
        {
          "indexed": false,
          "internalType": "uint256",
          "name": "amount",
          "type": "uint256"
        }
      ],
      "name": "LotteryET",
      "type": "event"
    },
    {
      "anonymous": false,
      "inputs": [
        {
          "indexed": true,
          "internalType": "address",
          "name": "user",
          "type": "address"
        },
        {
          "indexed": false,
          "internalType": "uint256",
          "name": "day",
          "type": "uint256"
        },
        {
          "indexed": false,
          "internalType": "uint256",
          "name": "amount",
          "type": "uint256"
        }
      ],
      "name": "LotteryRB",
      "type": "event"
    },
    {
      "anonymous": false,
      "inputs": [
        {
          "indexed": true,
          "internalType": "address",
          "name": "owner",
          "type": "address"
        },
        {
          "indexed": false,
          "internalType": "address",
          "name": "to",
          "type": "address"
        },
        {
          "indexed": false,
          "internalType": "uint256",
          "name": "amount",
          "type": "uint256"
        }
      ],
      "name": "RBClaim",
      "type": "event"
    },
    {
      "anonymous": false,
      "inputs": [
        {
          "indexed": true,
          "internalType": "address",
          "name": "user",
          "type": "address"
        },
        {
          "indexed": false,
          "internalType": "uint256",
          "name": "amount",
          "type": "uint256"
        },
        {
          "indexed": false,
          "internalType": "uint256",
          "name": "day",
          "type": "uint256"
        }
      ],
      "name": "RBHarvest",
      "type": "event"
    },
    {
      "anonymous": false,
      "inputs": [
        {
          "indexed": true,
          "internalType": "uint256",
          "name": "day",
          "type": "uint256"
        },
        {
          "indexed": false,
          "internalType": "uint256",
          "name": "rand",
          "type": "uint256"
        }
      ],
      "name": "RandSet",
      "type": "event"
    },
    {
      "anonymous": false,
      "inputs": [
        {
          "indexed": true,
          "internalType": "bytes32",
          "name": "role",
          "type": "bytes32"
        },
        {
          "indexed": true,
          "internalType": "bytes32",
          "name": "previousAdminRole",
          "type": "bytes32"
        },
        {
          "indexed": true,
          "internalType": "bytes32",
          "name": "newAdminRole",
          "type": "bytes32"
        }
      ],
      "name": "RoleAdminChanged",
      "type": "event"
    },
    {
      "anonymous": false,
      "inputs": [
        {
          "indexed": true,
          "internalType": "bytes32",
          "name": "role",
          "type": "bytes32"
        },
        {
          "indexed": true,
          "internalType": "address",
          "name": "account",
          "type": "address"
        },
        {
          "indexed": true,
          "internalType": "address",
          "name": "sender",
          "type": "address"
        }
      ],
      "name": "RoleGranted",
      "type": "event"
    },
    {
      "anonymous": false,
      "inputs": [
        {
          "indexed": true,
          "internalType": "bytes32",
          "name": "role",
          "type": "bytes32"
        },
        {
          "indexed": true,
          "internalType": "address",
          "name": "account",
          "type": "address"
        },
        {
          "indexed": true,
          "internalType": "address",
          "name": "sender",
          "type": "address"
        }
      ],
      "name": "RoleRevoked",
      "type": "event"
    },
    {
      "anonymous": false,
      "inputs": [
        {
          "indexed": true,
          "internalType": "address",
          "name": "user",
          "type": "address"
        },
        {
          "indexed": false,
          "internalType": "uint256",
          "name": "trackId",
          "type": "uint256"
        }
      ],
      "name": "TrackChange",
      "type": "event"
    },
    {
      "inputs": [],
      "name": "DEFAULT_ADMIN_ROLE",
      "outputs": [
        {
          "internalType": "bytes32",
          "name": "",
          "type": "bytes32"
        }
      ],
      "stateMutability": "view",
      "type": "function"
    },
    {
      "inputs": [],
      "name": "MANAGE_ROLE",
      "outputs": [
        {
          "internalType": "bytes32",
          "name": "",
          "type": "bytes32"
        }
      ],
      "stateMutability": "view",
      "type": "function"
    },
    {
      "inputs": [
        {
          "internalType": "uint256",
          "name": "equipId",
          "type": "uint256"
        },
        {
          "internalType": "uint256",
          "name": "cardId",
          "type": "uint256"
        },
        {
          "internalType": "uint256",
          "name": "index",
          "type": "uint256"
        }
      ],
      "name": "bindCard",
      "outputs": [],
      "stateMutability": "nonpayable",
      "type": "function"
    },
    {
      "inputs": [
        {
          "internalType": "uint256",
          "name": "tokenId",
          "type": "uint256"
        }
      ],
      "name": "bindEquip",
      "outputs": [],
      "stateMutability": "nonpayable",
      "type": "function"
    },
    {
      "inputs": [],
      "name": "bonusFound",
      "outputs": [
        {
          "internalType": "address",
          "name": "",
          "type": "address"
        }
      ],
      "stateMutability": "view",
      "type": "function"
    },
    {
      "inputs": [],
      "name": "bonusRate",
      "outputs": [
        {
          "internalType": "uint256",
          "name": "",
          "type": "uint256"
        }
      ],
      "stateMutability": "view",
      "type": "function"
    },
    {
      "inputs": [
        {
          "internalType": "uint256",
          "name": "amount",
          "type": "uint256"
        },
        {
          "internalType": "address",
          "name": "to",
          "type": "address"
        }
      ],
      "name": "claim",
      "outputs": [],
      "stateMutability": "nonpayable",
      "type": "function"
    },
    {
      "inputs": [
        {
          "internalType": "uint256",
          "name": "day",
          "type": "uint256"
        }
      ],
      "name": "claimBonus",
      "outputs": [],
      "stateMutability": "nonpayable",
      "type": "function"
    },
    {
      "inputs": [],
      "name": "commitRate",
      "outputs": [
        {
          "internalType": "uint256",
          "name": "",
          "type": "uint256"
        }
      ],
      "stateMutability": "view",
      "type": "function"
    },
    {
      "inputs": [],
      "name": "committee",
      "outputs": [
        {
          "internalType": "address",
          "name": "",
          "type": "address"
        }
      ],
      "stateMutability": "view",
      "type": "function"
    },
    {
      "inputs": [],
      "name": "epoch",
      "outputs": [
        {
          "internalType": "uint256",
          "name": "",
          "type": "uint256"
        }
      ],
      "stateMutability": "view",
      "type": "function"
    },
    {
      "inputs": [
        {
          "internalType": "uint256",
          "name": "equipId",
          "type": "uint256"
        },
        {
          "internalType": "uint256",
          "name": "index",
          "type": "uint256"
        }
      ],
      "name": "getBindCard",
      "outputs": [
        {
          "internalType": "uint256",
          "name": "",
          "type": "uint256"
        }
      ],
      "stateMutability": "view",
      "type": "function"
    },
    {
      "inputs": [
        {
          "internalType": "address",
          "name": "user",
          "type": "address"
        },
        {
          "internalType": "uint256",
          "name": "equipType",
          "type": "uint256"
        }
      ],
      "name": "getBindEquip",
      "outputs": [
        {
          "internalType": "uint256",
          "name": "",
          "type": "uint256"
        }
      ],
      "stateMutability": "view",
      "type": "function"
    },
    {
      "inputs": [
        {
          "internalType": "uint256",
          "name": "cardId",
          "type": "uint256"
        }
      ],
      "name": "getCardConsume",
      "outputs": [
        {
          "internalType": "uint256",
          "name": "",
          "type": "uint256"
        }
      ],
      "stateMutability": "view",
      "type": "function"
    },
    {
      "inputs": [
        {
          "internalType": "uint256",
          "name": "cardId",
          "type": "uint256"
        }
      ],
      "name": "getCardInfo",
      "outputs": [
        {
          "components": [
            {
              "internalType": "uint192",
              "name": "equipId",
              "type": "uint192"
            },
            {
              "internalType": "uint64",
              "name": "idx",
              "type": "uint64"
            }
          ],
          "internalType": "struct Runbit.CardInfo",
          "name": "info",
          "type": "tuple"
        }
      ],
      "stateMutability": "view",
      "type": "function"
    },
    {
      "inputs": [
        {
          "internalType": "uint256",
          "name": "cardId",
          "type": "uint256"
        },
        {
          "internalType": "uint256",
          "name": "day",
          "type": "uint256"
        }
      ],
      "name": "getCardStepCount",
      "outputs": [
        {
          "components": [
            {
              "internalType": "uint64",
              "name": "count",
              "type": "uint64"
            },
            {
              "internalType": "uint64",
              "name": "equipType",
              "type": "uint64"
            },
            {
              "internalType": "uint64",
              "name": "trackId",
              "type": "uint64"
            }
          ],
          "internalType": "struct Runbit.StepCount",
          "name": "count",
          "type": "tuple"
        }
      ],
      "stateMutability": "view",
      "type": "function"
    },
    {
      "inputs": [
        {
          "internalType": "uint256",
          "name": "cid",
          "type": "uint256"
        },
        {
          "internalType": "uint256",
          "name": "day",
          "type": "uint256"
        }
      ],
      "name": "getCardsReward",
      "outputs": [
        {
          "internalType": "uint256",
          "name": "",
          "type": "uint256"
        }
      ],
      "stateMutability": "view",
      "type": "function"
    },
    {
      "inputs": [
        {
          "internalType": "uint256",
          "name": "day",
          "type": "uint256"
        }
      ],
      "name": "getDailyBonus",
      "outputs": [
        {
          "internalType": "uint256",
          "name": "",
          "type": "uint256"
        },
        {
          "internalType": "uint256",
          "name": "",
          "type": "uint256"
        },
        {
          "internalType": "uint256",
          "name": "",
          "type": "uint256"
        }
      ],
      "stateMutability": "view",
      "type": "function"
    },
    {
      "inputs": [
        {
          "internalType": "uint256",
          "name": "day",
          "type": "uint256"
        }
      ],
      "name": "getDailyInfo",
      "outputs": [
        {
          "components": [
            {
              "internalType": "uint64",
              "name": "track0",
              "type": "uint64"
            },
            {
              "internalType": "uint64",
              "name": "track1",
              "type": "uint64"
            },
            {
              "internalType": "uint64",
              "name": "track2",
              "type": "uint64"
            },
            {
              "internalType": "uint64",
              "name": "userCount",
              "type": "uint64"
            },
            {
              "internalType": "uint64",
              "name": "totalSpecialty",
              "type": "uint64"
            },
            {
              "internalType": "uint64",
              "name": "totalComfort",
              "type": "uint64"
            },
            {
              "internalType": "uint64",
              "name": "totalAesthetic",
              "type": "uint64"
            }
          ],
          "internalType": "struct Runbit.DailyInfo",
          "name": "info",
          "type": "tuple"
        }
      ],
      "stateMutability": "view",
      "type": "function"
    },
    {
      "inputs": [
        {
          "internalType": "uint256",
          "name": "equipId",
          "type": "uint256"
        }
      ],
      "name": "getEquipInfo",
      "outputs": [
        {
          "components": [
            {
              "internalType": "address",
              "name": "owner",
              "type": "address"
            },
            {
              "internalType": "uint64",
              "name": "emptyId",
              "type": "uint64"
            },
            {
              "internalType": "uint32",
              "name": "latestDay",
              "type": "uint32"
            }
          ],
          "internalType": "struct Runbit.EquipInfo",
          "name": "info",
          "type": "tuple"
        }
      ],
      "stateMutability": "view",
      "type": "function"
    },
    {
      "inputs": [
        {
          "internalType": "uint256",
          "name": "day",
          "type": "uint256"
        }
      ],
      "name": "getLotteryRand",
      "outputs": [
        {
          "internalType": "uint256",
          "name": "",
          "type": "uint256"
        }
      ],
      "stateMutability": "view",
      "type": "function"
    },
    {
      "inputs": [],
      "name": "getRewardRate",
      "outputs": [
        {
          "components": [
            {
              "internalType": "uint64",
              "name": "trackDecay",
              "type": "uint64"
            },
            {
              "internalType": "uint64",
              "name": "stepDecay",
              "type": "uint64"
            },
            {
              "internalType": "uint64",
              "name": "jamDecay",
              "type": "uint64"
            },
            {
              "internalType": "uint64",
              "name": "comfortBuff",
              "type": "uint64"
            },
            {
              "internalType": "uint64",
              "name": "trackCapacity",
              "type": "uint64"
            },
            {
              "internalType": "uint64",
              "name": "trackLimit",
              "type": "uint64"
            },
            {
              "internalType": "uint128",
              "name": "specialty",
              "type": "uint128"
            },
            {
              "internalType": "uint112",
              "name": "aesthetic",
              "type": "uint112"
            },
            {
              "internalType": "uint112",
              "name": "comfort",
              "type": "uint112"
            },
            {
              "internalType": "uint32",
              "name": "minSteps",
              "type": "uint32"
            }
          ],
          "internalType": "struct Runbit.RewardRate",
          "name": "",
          "type": "tuple"
        }
      ],
      "stateMutability": "view",
      "type": "function"
    },
    {
      "inputs": [
        {
          "internalType": "bytes32",
          "name": "role",
          "type": "bytes32"
        }
      ],
      "name": "getRoleAdmin",
      "outputs": [
        {
          "internalType": "bytes32",
          "name": "",
          "type": "bytes32"
        }
      ],
      "stateMutability": "view",
      "type": "function"
    },
    {
      "inputs": [],
      "name": "getTrackId",
      "outputs": [
        {
          "internalType": "uint256",
          "name": "",
          "type": "uint256"
        },
        {
          "internalType": "uint256",
          "name": "",
          "type": "uint256"
        }
      ],
      "stateMutability": "view",
      "type": "function"
    },
    {
      "inputs": [
        {
          "internalType": "address",
          "name": "user",
          "type": "address"
        }
      ],
      "name": "getUnclaimReward",
      "outputs": [
        {
          "internalType": "uint256",
          "name": "",
          "type": "uint256"
        }
      ],
      "stateMutability": "view",
      "type": "function"
    },
    {
      "inputs": [
        {
          "internalType": "address",
          "name": "user",
          "type": "address"
        },
        {
          "internalType": "uint256",
          "name": "day",
          "type": "uint256"
        }
      ],
      "name": "getUnharvestReward",
      "outputs": [
        {
          "internalType": "uint256",
          "name": "",
          "type": "uint256"
        }
      ],
      "stateMutability": "view",
      "type": "function"
    },
    {
      "inputs": [
        {
          "internalType": "address",
          "name": "user",
          "type": "address"
        },
        {
          "internalType": "uint256",
          "name": "day",
          "type": "uint256"
        },
        {
          "internalType": "uint256",
          "name": "index",
          "type": "uint256"
        }
      ],
      "name": "getUserCards",
      "outputs": [
        {
          "internalType": "uint256",
          "name": "",
          "type": "uint256"
        }
      ],
      "stateMutability": "view",
      "type": "function"
    },
    {
      "inputs": [
        {
          "internalType": "address",
          "name": "user",
          "type": "address"
        },
        {
          "internalType": "uint256",
          "name": "day",
          "type": "uint256"
        }
      ],
      "name": "getUserState",
      "outputs": [
        {
          "components": [
            {
              "internalType": "uint8",
              "name": "status",
              "type": "uint8"
            },
            {
              "internalType": "uint8",
              "name": "lottery",
              "type": "uint8"
            },
            {
              "internalType": "uint16",
              "name": "trackId",
              "type": "uint16"
            },
            {
              "internalType": "uint32",
              "name": "cardCount",
              "type": "uint32"
            },
            {
              "internalType": "uint64",
              "name": "lastSteps",
              "type": "uint64"
            },
            {
              "internalType": "uint128",
              "name": "RBReward",
              "type": "uint128"
            }
          ],
          "internalType": "struct Runbit.UserState",
          "name": "us",
          "type": "tuple"
        }
      ],
      "stateMutability": "view",
      "type": "function"
    },
    {
      "inputs": [
        {
          "internalType": "bytes32",
          "name": "role",
          "type": "bytes32"
        },
        {
          "internalType": "address",
          "name": "account",
          "type": "address"
        }
      ],
      "name": "grantRole",
      "outputs": [],
      "stateMutability": "nonpayable",
      "type": "function"
    },
    {
      "inputs": [
        {
          "internalType": "uint256",
          "name": "startDay",
          "type": "uint256"
        },
        {
          "internalType": "uint256",
          "name": "endDay",
          "type": "uint256"
        }
      ],
      "name": "harvest",
      "outputs": [],
      "stateMutability": "nonpayable",
      "type": "function"
    },
    {
      "inputs": [
        {
          "internalType": "bytes32",
          "name": "role",
          "type": "bytes32"
        },
        {
          "internalType": "address",
          "name": "account",
          "type": "address"
        }
      ],
      "name": "hasRole",
      "outputs": [
        {
          "internalType": "bool",
          "name": "",
          "type": "bool"
        }
      ],
      "stateMutability": "view",
      "type": "function"
    },
    {
      "inputs": [
        {
          "internalType": "address",
          "name": "user",
          "type": "address"
        },
        {
          "internalType": "uint256",
          "name": "day",
          "type": "uint256"
        }
      ],
      "name": "isLucky",
      "outputs": [
        {
          "internalType": "uint256",
          "name": "",
          "type": "uint256"
        },
        {
          "internalType": "uint256",
          "name": "",
          "type": "uint256"
        },
        {
          "internalType": "uint256",
          "name": "",
          "type": "uint256"
        }
      ],
      "stateMutability": "view",
      "type": "function"
    },
    {
      "inputs": [
        {
          "internalType": "uint256",
          "name": "day",
          "type": "uint256"
        }
      ],
      "name": "lottery",
      "outputs": [],
      "stateMutability": "nonpayable",
      "type": "function"
    },
    {
      "inputs": [
        {
          "internalType": "uint256",
          "name": "_v",
          "type": "uint256"
        }
      ],
      "name": "pause",
      "outputs": [],
      "stateMutability": "nonpayable",
      "type": "function"
    },
    {
      "inputs": [
        {
          "internalType": "bytes32",
          "name": "role",
          "type": "bytes32"
        },
        {
          "internalType": "address",
          "name": "account",
          "type": "address"
        }
      ],
      "name": "renounceRole",
      "outputs": [],
      "stateMutability": "nonpayable",
      "type": "function"
    },
    {
      "inputs": [
        {
          "internalType": "bytes32",
          "name": "role",
          "type": "bytes32"
        },
        {
          "internalType": "address",
          "name": "account",
          "type": "address"
        }
      ],
      "name": "revokeRole",
      "outputs": [],
      "stateMutability": "nonpayable",
      "type": "function"
    },
    {
      "inputs": [
        {
          "components": [
            {
              "internalType": "uint128",
              "name": "RBRate",
              "type": "uint128"
            },
            {
              "internalType": "uint64",
              "name": "ETRate",
              "type": "uint64"
            },
            {
              "internalType": "uint64",
              "name": "CTRate",
              "type": "uint64"
            },
            {
              "internalType": "uint64",
              "name": "RBNum",
              "type": "uint64"
            },
            {
              "internalType": "uint64",
              "name": "ETNum",
              "type": "uint64"
            },
            {
              "internalType": "uint64",
              "name": "CTNum",
              "type": "uint64"
            }
          ],
          "internalType": "struct Runbit.LotteryInfo",
          "name": "_baseLottery",
          "type": "tuple"
        }
      ],
      "name": "setBaseLottery",
      "outputs": [],
      "stateMutability": "nonpayable",
      "type": "function"
    },
    {
      "inputs": [
        {
          "internalType": "uint256",
          "name": "_epoch",
          "type": "uint256"
        }
      ],
      "name": "setEpoch",
      "outputs": [],
      "stateMutability": "nonpayable",
      "type": "function"
    },
    {
      "inputs": [
        {
          "internalType": "address",
          "name": "_refs",
          "type": "address"
        },
        {
          "internalType": "address",
          "name": "_rand",
          "type": "address"
        },
        {
          "internalType": "address",
          "name": "_stepCheck",
          "type": "address"
        }
      ],
      "name": "setFactorys",
      "outputs": [],
      "stateMutability": "nonpayable",
      "type": "function"
    },
    {
      "inputs": [
        {
          "internalType": "address",
          "name": "_commit",
          "type": "address"
        },
        {
          "internalType": "address",
          "name": "_tech",
          "type": "address"
        },
        {
          "internalType": "address",
          "name": "_bonus",
          "type": "address"
        }
      ],
      "name": "setFound",
      "outputs": [],
      "stateMutability": "nonpayable",
      "type": "function"
    },
    {
      "inputs": [
        {
          "internalType": "address",
          "name": "_card",
          "type": "address"
        },
        {
          "internalType": "address",
          "name": "_equip",
          "type": "address"
        }
      ],
      "name": "setNFTs",
      "outputs": [],
      "stateMutability": "nonpayable",
      "type": "function"
    },
    {
      "inputs": [],
      "name": "setRand",
      "outputs": [],
      "stateMutability": "nonpayable",
      "type": "function"
    },
    {
      "inputs": [
        {
          "internalType": "uint256",
          "name": "_commit",
          "type": "uint256"
        },
        {
          "internalType": "uint256",
          "name": "_tech",
          "type": "uint256"
        },
        {
          "internalType": "uint256",
          "name": "_bonus",
          "type": "uint256"
        }
      ],
      "name": "setRate",
      "outputs": [],
      "stateMutability": "nonpayable",
      "type": "function"
    },
    {
      "inputs": [
        {
          "components": [
            {
              "internalType": "uint64",
              "name": "trackDecay",
              "type": "uint64"
            },
            {
              "internalType": "uint64",
              "name": "stepDecay",
              "type": "uint64"
            },
            {
              "internalType": "uint64",
              "name": "jamDecay",
              "type": "uint64"
            },
            {
              "internalType": "uint64",
              "name": "comfortBuff",
              "type": "uint64"
            },
            {
              "internalType": "uint64",
              "name": "trackCapacity",
              "type": "uint64"
            },
            {
              "internalType": "uint64",
              "name": "trackLimit",
              "type": "uint64"
            },
            {
              "internalType": "uint128",
              "name": "specialty",
              "type": "uint128"
            },
            {
              "internalType": "uint112",
              "name": "aesthetic",
              "type": "uint112"
            },
            {
              "internalType": "uint112",
              "name": "comfort",
              "type": "uint112"
            },
            {
              "internalType": "uint32",
              "name": "minSteps",
              "type": "uint32"
            }
          ],
          "internalType": "struct Runbit.RewardRate",
          "name": "rate",
          "type": "tuple"
        }
      ],
      "name": "setRewardRate",
      "outputs": [],
      "stateMutability": "nonpayable",
      "type": "function"
    },
    {
      "inputs": [
        {
          "internalType": "address",
          "name": "_rb",
          "type": "address"
        },
        {
          "internalType": "address",
          "name": "_cardToken",
          "type": "address"
        },
        {
          "internalType": "address",
          "name": "_equipToken",
          "type": "address"
        }
      ],
      "name": "setTokens",
      "outputs": [],
      "stateMutability": "nonpayable",
      "type": "function"
    },
    {
      "inputs": [
        {
          "internalType": "bytes4",
          "name": "interfaceId",
          "type": "bytes4"
        }
      ],
      "name": "supportsInterface",
      "outputs": [
        {
          "internalType": "bool",
          "name": "",
          "type": "bool"
        }
      ],
      "stateMutability": "view",
      "type": "function"
    },
    {
      "inputs": [],
      "name": "techFound",
      "outputs": [
        {
          "internalType": "address",
          "name": "",
          "type": "address"
        }
      ],
      "stateMutability": "view",
      "type": "function"
    },
    {
      "inputs": [],
      "name": "techRate",
      "outputs": [
        {
          "internalType": "uint256",
          "name": "",
          "type": "uint256"
        }
      ],
      "stateMutability": "view",
      "type": "function"
    },
    {
      "inputs": [
        {
          "internalType": "uint256",
          "name": "equipId",
          "type": "uint256"
        },
        {
          "internalType": "uint256",
          "name": "index",
          "type": "uint256"
        }
      ],
      "name": "unbindCard",
      "outputs": [],
      "stateMutability": "nonpayable",
      "type": "function"
    },
    {
      "inputs": [
        {
          "internalType": "uint256",
          "name": "equipType",
          "type": "uint256"
        }
      ],
      "name": "unbindEquip",
      "outputs": [],
      "stateMutability": "nonpayable",
      "type": "function"
    },
    {
      "inputs": [
        {
          "internalType": "uint256",
          "name": "steps",
          "type": "uint256"
        }
      ],
      "name": "updateSteps",
      "outputs": [],
      "stateMutability": "nonpayable",
      "type": "function"
    },
    {
      "inputs": [
        {
          "internalType": "uint256",
          "name": "trackId",
          "type": "uint256"
        }
      ],
      "name": "updateTrack",
      "outputs": [],
      "stateMutability": "nonpayable",
      "type": "function"
    }
  ],
  "bytecode": "0x608060405260018055620151806002553480156200001c57600080fd5b50604051620059af380380620059af8339810160408190526200003f9162000120565b6200004c6000826200007f565b620000787fa076a07f65bcd51bcb15a0f01a65bc18f2d922acb81bcfd8af4caf5adb557091826200007f565b5062000152565b6000828152602081815260408083206001600160a01b038516845290915290205460ff166200011c576000828152602081815260408083206001600160a01b03851684529091529020805460ff19166001179055620000db3390565b6001600160a01b0316816001600160a01b0316837f2f8788117e7eff1d82e926ec794901d17c78024a50270940304540a733656f0d60405160405180910390a45b5050565b6000602082840312156200013357600080fd5b81516001600160a01b03811681146200014b57600080fd5b9392505050565b61584d80620001626000396000f3fe608060405234801561001057600080fd5b506004361061034c5760003560e01c806389adb583116101bd578063d547741f116100f9578063e43e193f116100a2578063f14ba3621161007c578063f14ba36214610e9c578063f40cbeab14610eaf578063f517999714610ecf578063f56e9e5214610eef57600080fd5b8063e43e193f14610e4a578063e4a4b7b114610e80578063e7d5175214610e9357600080fd5b8063dc4ee99f116100d3578063dc4ee99f14610e11578063ddd5e1b214610e24578063dfc8d4e114610e3757600080fd5b8063d547741f14610dcb578063d864e74014610dde578063d919302514610dfe57600080fd5b8063a217fddf11610166578063c6db12d911610140578063c6db12d914610d80578063c9cfb61d14610d9d578063d266ffb714610db0578063d2fdbe3c14610dc357600080fd5b8063a217fddf14610bed578063a289b3ae14610bf5578063a57d156014610d6d57600080fd5b8063970129be11610197578063970129be14610a545780639c78eb6b14610b1b5780639e23a99314610b2e57600080fd5b806389adb583146109f4578063900cf0cf14610a0757806391d1485414610a1057600080fd5b80633d7eef771161028c57806360a4b76a116102355780637e1a37861161020f5780637e1a3786146108565780637f6c7f10146109bb57806381832d51146109ce578063838d2613146109e157600080fd5b806360a4b76a146107d75780636e15af56146107fe5780637db66c961461084357600080fd5b806346a99bd31161026657806346a99bd3146107605780635206cffb146107a35780635af123f4146107ce57600080fd5b80633d7eef77146106f257806343a971f6146106fb578063443be2091461074d57600080fd5b806323af1a48116102f95780632f2ff15d116102d35780632f2ff15d146106a657806334cbba5f146106b957806336568abe146106cc5780633989c666146106df57600080fd5b806323af1a481461057a578063248a9ca3146106705780632bd777381461069357600080fd5b80630ceb2cef1161032a5780630ceb2cef14610532578063136439dd146105475780631f82bd451461055a57600080fd5b806301ffc9a71461035157806309599232146103795780630a36f2b0146103d5575b600080fd5b61036461035f366004614ee4565b610f02565b60405190151581526020015b60405180910390f35b6103c7610387366004614f48565b73ffffffffffffffffffffffffffffffffffffffff83166000908152601b6020908152604080832085845282528083208484529091529020549392505050565b604051908152602001610370565b6104c46103e3366004614f7d565b6040805160e081018252600080825260208201819052918101829052606081018290526080810182905260a0810182905260c0810191909152506000908152601f6020908152604091829020825160e081018452815467ffffffffffffffff8082168352680100000000000000008083048216958401959095527001000000000000000000000000000000008083048216968401969096527801000000000000000000000000000000000000000000000000909104811660608301526001909201548083166080830152928304821660a0820152929091041660c082015290565b6040516103709190600060e08201905067ffffffffffffffff8084511683528060208501511660208401528060408501511660408401528060608501511660608401528060808501511660808401528060a08501511660a08401528060c08501511660c08401525092915050565b610545610540366004614f7d565b610f9b565b005b610545610555366004614f7d565b610fac565b6103c7610568366004614f7d565b60009081526022602052604090205490565b610628610588366004614f7d565b604080516060808201835260008083526020808401829052928401819052938452601c825292829020825193840183525473ffffffffffffffffffffffffffffffffffffffff8116845274010000000000000000000000000000000000000000810467ffffffffffffffff16918401919091527c0100000000000000000000000000000000000000000000000000000000900463ffffffff169082015290565b60408051825173ffffffffffffffffffffffffffffffffffffffff16815260208084015167ffffffffffffffff16908201529181015163ffffffff1690820152606001610370565b6103c761067e366004614f7d565b60009081526020819052604090206001015490565b6105456106a1366004614f7d565b610fbd565b6105456106b4366004614f96565b61100e565b6105456106c7366004614f7d565b611038565b6105456106da366004614f96565b611c17565b6105456106ed366004614fc6565b611cca565b6103c760075481565b610732610709366004614f7d565b600081815260246020908152604080832054602583528184205460239093529220549193909250565b60408051938452602084019290925290820152606001610370565b61054561075b366004614ff2565b611ce4565b6103c761076e36600461503d565b73ffffffffffffffffffffffffffffffffffffffff919091166000908152601760209081526040808320938352929052205490565b6103c76107b1366004615069565b600091825260186020908152604080842092845291905290205490565b6103c760085481565b6103c77fa076a07f65bcd51bcb15a0f01a65bc18f2d922acb81bcfd8af4caf5adb55709181565b60045461081e9073ffffffffffffffffffffffffffffffffffffffff1681565b60405173ffffffffffffffffffffffffffffffffffffffff9091168152602001610370565b610545610851366004614fc6565b611d54565b6109ae6040805161014081018252600080825260208201819052918101829052606081018290526080810182905260a0810182905260c0810182905260e08101829052610100810182905261012081019190915250604080516101408101825260115467ffffffffffffffff8082168352680100000000000000008083048216602085015270010000000000000000000000000000000080840483169585019590955278010000000000000000000000000000000000000000000000009092048116606084015260125480821660808501529182041660a0830152919091046fffffffffffffffffffffffffffffffff1660c08201526013546dffffffffffffffffffffffffffff80821660e08401526e0100000000000000000000000000008204166101008301527c0100000000000000000000000000000000000000000000000000000000900463ffffffff1661012082015290565b604051610370919061508b565b6105456109c93660046151a3565b61238f565b6105456109dc366004614ff2565b6123ee565b6103c76109ef366004615069565b61245e565b610545610a02366004614f7d565b612471565b6103c760025481565b610364610a1e366004614f96565b60009182526020828152604080842073ffffffffffffffffffffffffffffffffffffffff93909316845291905290205460ff1690565b610adc610a62366004614f7d565b6040805180820190915260008082526020820152506000908152601d602090815260409182902082518084019093525477ffffffffffffffffffffffffffffffffffffffffffffffff811683527801000000000000000000000000000000000000000000000000900467ffffffffffffffff169082015290565b60408051825177ffffffffffffffffffffffffffffffffffffffffffffffff16815260209283015167ffffffffffffffff169281019290925201610370565b610545610b2936600461531c565b6127ff565b610bba610b3c366004615069565b604080516060808201835260008083526020808401829052928401819052948552601a825282852093855292815292819020815192830182525467ffffffffffffffff808216845268010000000000000000820481169484019490945270010000000000000000000000000000000090049092169181019190915290565b60408051825167ffffffffffffffff90811682526020808501518216908301529282015190921690820152606001610370565b6103c7600081565b610cf5610c0336600461503d565b6040805160c081018252600080825260208201819052918101829052606081018290526080810182905260a08101919091525073ffffffffffffffffffffffffffffffffffffffff9091166000908152601e6020908152604080832093835292815290829020825160c081018452905460ff80821683526101008204169282019290925261ffff620100008304169281019290925263ffffffff640100000000820416606083015267ffffffffffffffff6801000000000000000082041660808301526fffffffffffffffffffffffffffffffff7001000000000000000000000000000000009091041660a082015290565b6040516103709190600060c08201905060ff835116825260ff602084015116602083015261ffff604084015116604083015263ffffffff606084015116606083015267ffffffffffffffff60808401511660808301526fffffffffffffffffffffffffffffffff60a08401511660a083015292915050565b610545610d7b366004614f7d565b6129b6565b610d88612d7e565b60408051928352602083019190915201610370565b610545610dab366004615069565b612dac565b610732610dbe36600461503d565b612fe6565b610545613025565b610545610dd9366004614f96565b613327565b60035461081e9073ffffffffffffffffffffffffffffffffffffffff1681565b610545610e0c366004614f7d565b61334c565b6103c7610e1f36600461503d565b6136bb565b610545610e32366004614f96565b6137b5565b610545610e45366004614f7d565b613926565b6103c7610e583660046153e4565b73ffffffffffffffffffffffffffffffffffffffff1660009081526016602052604090205490565b610545610e8e366004615069565b613b00565b6103c760065481565b610545610eaa366004614ff2565b613c62565b60055461081e9073ffffffffffffffffffffffffffffffffffffffff1681565b6103c7610edd366004614f7d565b60009081526019602052604090205490565b610545610efd366004615401565b613cd0565b60007fffffffff0000000000000000000000000000000000000000000000000000000082167f7965db0b000000000000000000000000000000000000000000000000000000001480610f9557507f01ffc9a7000000000000000000000000000000000000000000000000000000007fffffffff000000000000000000000000000000000000000000000000000000008316145b92915050565b6000610fa681613e0e565b50600255565b6000610fb781613e0e565b50600155565b33600081815260176020908152604080832085845282528083209290925590518381527f4fc0ef14ea0564e2c15585f0d114f5ce8f52ad7c610bd2747c0903dcf1545f86910160405180910390a250565b60008281526020819052604090206001015461102981613e0e565b6110338383613e1b565b505050565b6001541580156110ef57506009546040517f2cf003c200000000000000000000000000000000000000000000000000000000815233600482015260009173ffffffffffffffffffffffffffffffffffffffff1690632cf003c290602401602060405180830381865afa1580156110b2573d6000803e3d6000fd5b505050506040513d601f19601f820116820180604052508101906110d691906154d1565b73ffffffffffffffffffffffffffffffffffffffff1614155b61115a576040517f08c379a000000000000000000000000000000000000000000000000000000000815260206004820152600e60248201527f4e6f7420617661696c61626c652100000000000000000000000000000000000060448201526064015b60405180910390fd5b6010546040517f5db7e2820000000000000000000000000000000000000000000000000000000081526004810183905233602482015273ffffffffffffffffffffffffffffffffffffffff90911690635db7e28290604401602060405180830381865afa1580156111cf573d6000803e3d6000fd5b505050506040513d601f19601f820116820180604052508101906111f391906154ee565b905060006111ff613f0b565b9050600061120b613f2c565b336000908152601e602090815260408083208684528252808320601f9092529091208154929350909168010000000000000000900467ffffffffffffffff1685116112b2576040517f08c379a000000000000000000000000000000000000000000000000000000000815260206004820152601760248201527f4530313a206e6f206e65656420746f20757064617465210000000000000000006044820152606401611151565b815468010000000000000000900467ffffffffffffffff1660000361135557805467ffffffffffffffff780100000000000000000000000000000000000000000000000080830482166001019091160277ffffffffffffffffffffffffffffffffffffffffffffffff909116178155815461ffff841662010000027fffffffffffffffffffffffffffffffffffffffffffffffffffffffff0000ffff9091161782555b815467ffffffffffffffff68010000000000000000808304821697889003978801909116027fffffffffffffffffffffffffffffffff0000000000000000ffffffffffffffff90911617825560005b6003811015611c0f573360009081526017602090815260408083208484529091529020548015611c05576000818152601c6020526040808220600f5491517f6352211e0000000000000000000000000000000000000000000000000000000081526004810185905290929173ffffffffffffffffffffffffffffffffffffffff1690636352211e90602401602060405180830381865afa15801561144c573d6000803e3d6000fd5b505050506040513d601f19601f8201168201806040525081019061147091906154d1565b905073ffffffffffffffffffffffffffffffffffffffff81166114b057505033600090815260176020908152604080832085845290915281205550611c07565b81547c0100000000000000000000000000000000000000000000000000000000900463ffffffff16881461158c573373ffffffffffffffffffffffffffffffffffffffff8216036115695781547bffffffffffffffff000000000000000000000000000000000000000016337bffffffffffffffffffffffffffffffffffffffffffffffffffffffff16177c010000000000000000000000000000000000000000000000000000000063ffffffff8a160217825561158c565b505033600090815260176020908152604080832085845290915281205550611c07565b600f546040517faf6a34760000000000000000000000000000000000000000000000000000000081526004810185905260009173ffffffffffffffffffffffffffffffffffffffff169063af6a34769060240160a060405180830381865afa1580156115fc573d6000803e3d6000fd5b505050506040513d601f19601f820116820180604052508101906116209190615507565b905060005b816060015167ffffffffffffffff16811015611c005760008581526018602090815260408083208484529091529020548015611bf6576000818152601a602090815260408083208e8452909152808220600e5491517faf6a34760000000000000000000000000000000000000000000000000000000081526004810185905290929173ffffffffffffffffffffffffffffffffffffffff169063af6a34769060240160a060405180830381865afa1580156116e4573d6000803e3d6000fd5b505050506040513d601f19601f820116820180604052508101906117089190615581565b825490915067ffffffffffffffff16600003611bbc57606081015160008481526019602052604090205463ffffffff9091161161174757505050611bf8565b600e546040517f6352211e00000000000000000000000000000000000000000000000000000000815260048101859052339173ffffffffffffffffffffffffffffffffffffffff1690636352211e90602401602060405180830381865afa1580156117b6573d6000803e3d6000fd5b505050506040513d601f19601f820116820180604052508101906117da91906154d1565b73ffffffffffffffffffffffffffffffffffffffff16146118235750506000908152601d6020908152604080832083905587835260188252808320848452909152812055611bf8565b604081015160018b018054835160208501516801000000000000000067ffffffffffffffff700100000000000000000000000000000000808604821690970181169096028087168786161790930186167fffffffffffffffffffffffffffffffffffffffffffffffff000000000000000084167fffffffffffffffff0000000000000000ffffffffffffffff0000000000000000861617811782900487169092019095169094027fffffffffffffffffffffffffffffffff000000000000000000000000000000009091167fffffffffffffffff0000000000000000000000000000000000000000000000009092169190911790921791909117905560008c90036119705760808101518a547fffffffffffffffffffffffffffffffffffffffffffffffff0000000000000000811663ffffffff90921667ffffffffffffffff9182160116178a55611a30565b8b6001036119d25760808101518a547fffffffffffffffffffffffffffffffff0000000000000000ffffffffffffffff811663ffffffff909216680100000000000000009182900467ffffffffffffffff908116919091011602178a55611a30565b60808101518a547fffffffffffffffff0000000000000000ffffffffffffffffffffffffffffffff811663ffffffff9092167001000000000000000000000000000000009182900467ffffffffffffffff908116919091011602178a555b6201518060025460640281611a4757611a476155ef565b046019600085815260200190815260200160002060008282540192505081905550888260000160086101000a81548167ffffffffffffffff021916908367ffffffffffffffff1602179055508b8260000160106101000a81548167ffffffffffffffff021916908367ffffffffffffffff16021790555082601b60003373ffffffffffffffffffffffffffffffffffffffff1673ffffffffffffffffffffffffffffffffffffffff16815260200190815260200160002060008f815260200190815260200160002060008d60000160049054906101000a900463ffffffff1663ffffffff1681526020019081526020016000208190555060018b60000160048282829054906101000a900463ffffffff160192506101000a81548163ffffffff021916908363ffffffff1602179055503373ffffffffffffffffffffffffffffffffffffffff16837f314ab079732ee87c1e198393efb46b683c10ab6797b5a6955b4af8c09d398e4f60405160405180910390a35b50805467ffffffffffffffff8082168f01167fffffffffffffffffffffffffffffffffffffffffffffffff00000000000000009091161790555b505b600101611625565b505050505b505b6001016113a4565b505050505050565b73ffffffffffffffffffffffffffffffffffffffff81163314611cbc576040517f08c379a000000000000000000000000000000000000000000000000000000000815260206004820152602f60248201527f416363657373436f6e74726f6c3a2063616e206f6e6c792072656e6f756e636560448201527f20726f6c657320666f722073656c6600000000000000000000000000000000006064820152608401611151565b611cc68282613fb6565b5050565b6000611cd581613e0e565b50600855600691909155600755565b6000611cef81613e0e565b50600a805473ffffffffffffffffffffffffffffffffffffffff9485167fffffffffffffffffffffffff000000000000000000000000000000000000000091821617909155600c805493851693821693909317909255600d8054919093169116179055565b611d5c613f0b565b6000848152601c60205260409020547c0100000000000000000000000000000000000000000000000000000000900463ffffffff1603611df8576040517f08c379a000000000000000000000000000000000000000000000000000000000815260206004820152601060248201527f54727920697420746f6d6f72726f7721000000000000000000000000000000006044820152606401611151565b600f546040517f6352211e00000000000000000000000000000000000000000000000000000000815260048101859052339173ffffffffffffffffffffffffffffffffffffffff1690636352211e90602401602060405180830381865afa158015611e67573d6000803e3d6000fd5b505050506040513d601f19601f82011682018060405250810190611e8b91906154d1565b73ffffffffffffffffffffffffffffffffffffffff1614611f08576040517f08c379a000000000000000000000000000000000000000000000000000000000815260206004820152600a60248201527f4e6f74206f776e657221000000000000000000000000000000000000000000006044820152606401611151565b600e546040517f6352211e00000000000000000000000000000000000000000000000000000000815260048101849052339173ffffffffffffffffffffffffffffffffffffffff1690636352211e90602401602060405180830381865afa158015611f77573d6000803e3d6000fd5b505050506040513d601f19601f82011682018060405250810190611f9b91906154d1565b73ffffffffffffffffffffffffffffffffffffffff1614612018576040517f08c379a000000000000000000000000000000000000000000000000000000000815260206004820152600a60248201527f4e6f74206f776e657221000000000000000000000000000000000000000000006044820152606401611151565b600f546040517faf6a34760000000000000000000000000000000000000000000000000000000081526004810185905260009173ffffffffffffffffffffffffffffffffffffffff169063af6a34769060240160a060405180830381865afa158015612088573d6000803e3d6000fd5b505050506040513d601f19601f820116820180604052508101906120ac9190615507565b600e546040517faf6a34760000000000000000000000000000000000000000000000000000000081526004810186905291925060009173ffffffffffffffffffffffffffffffffffffffff9091169063af6a34769060240160a060405180830381865afa158015612121573d6000803e3d6000fd5b505050506040513d601f19601f820116820180604052508101906121459190615581565b9050816060015167ffffffffffffffff1683106121be576040517f08c379a000000000000000000000000000000000000000000000000000000000815260206004820152600e60248201527f696e76616c696420696e646578210000000000000000000000000000000000006044820152606401611151565b816040015167ffffffffffffffff16816080015163ffffffff161115612240576040517f08c379a000000000000000000000000000000000000000000000000000000000815260206004820152600e60248201527f696e76616c6964206c6576656c210000000000000000000000000000000000006044820152606401611151565b60008581526018602090815260408083208684528252808320548352601d9091528082208290558582529020805477ffffffffffffffffffffffffffffffffffffffffffffffff16156122ec57805477ffffffffffffffffffffffffffffffffffffffffffffffff81166000908152601860209081526040808320780100000000000000000000000000000000000000000000000090940467ffffffffffffffff168352929052908120555b600086815260186020908152604080832087845282529182902087905577ffffffffffffffffffffffffffffffffffffffffffffffff8816780100000000000000000000000000000000000000000000000067ffffffffffffffff8816021783558151888152908101869052339187917fdbe4f833c5560a9d4f5b9c76dc84ac0c37b2ed6fc930f7409a11f36e3a063c6c910160405180910390a3505050505050565b600061239a81613e0e565b50600e805473ffffffffffffffffffffffffffffffffffffffff9384167fffffffffffffffffffffffff000000000000000000000000000000000000000091821617909155600f8054929093169116179055565b60006123f981613e0e565b506009805473ffffffffffffffffffffffffffffffffffffffff9485167fffffffffffffffffffffffff000000000000000000000000000000000000000091821617909155600b80549385169382169390931790925560108054919093169116179055565b600061246a838361406d565b9392505050565b6000818152601c602090815260408083208151606081018352905473ffffffffffffffffffffffffffffffffffffffff808216835274010000000000000000000000000000000000000000820467ffffffffffffffff16948301949094527c0100000000000000000000000000000000000000000000000000000000900463ffffffff1681830152600f5491517f6352211e000000000000000000000000000000000000000000000000000000008152600481018690529093929190911690636352211e90602401602060405180830381865afa158015612556573d6000803e3d6000fd5b505050506040513d601f19601f8201168201806040525081019061257a91906154d1565b905073ffffffffffffffffffffffffffffffffffffffff81166125f9576040517f08c379a000000000000000000000000000000000000000000000000000000000815260206004820152600c60248201527f4530333a206275726e65642100000000000000000000000000000000000000006044820152606401611151565b612601613f0b565b826040015163ffffffff160361269657815173ffffffffffffffffffffffffffffffffffffffff163314612691576040517f08c379a000000000000000000000000000000000000000000000000000000000815260206004820152601860248201527f4530313a206f776e657220636865636b206661696c65642100000000000000006044820152606401611151565b612715565b73ffffffffffffffffffffffffffffffffffffffff81163314612715576040517f08c379a000000000000000000000000000000000000000000000000000000000815260206004820152601860248201527f4530323a206f776e657220636865636b206661696c65642100000000000000006044820152606401611151565b600f546040517faf6a34760000000000000000000000000000000000000000000000000000000081526004810185905260009173ffffffffffffffffffffffffffffffffffffffff169063af6a34769060240160a060405180830381865afa158015612785573d6000803e3d6000fd5b505050506040513d601f19601f820116820180604052508101906127a99190615507565b336000818152601760209081526040808320855163ffffffff16845290915280822088905551929350909186917f9ce437da18de5fd36b322b27c11e7ca72d40b354903bf0e37dee2fbbe8f94a3b91a350505050565b600061280a81613e0e565b5080516011805460208401516040850151606086015167ffffffffffffffff9586167fffffffffffffffffffffffffffffffff0000000000000000000000000000000094851617680100000000000000009387168402176fffffffffffffffffffffffffffffffff908116700100000000000000000000000000000000938816840277ffffffffffffffffffffffffffffffffffffffffffffffff16177801000000000000000000000000000000000000000000000000928816929092029190911790945560808601516012805460a089015160c08a015193891691909616179490961690920292909217831692160217905560e081015160138054610100840151610120909401516dffffffffffffffffffffffffffff9384167fffffffff00000000000000000000000000000000000000000000000000000000909216919091176e0100000000000000000000000000009390941692909202929092177bffffffffffffffffffffffffffffffffffffffffffffffffffffffff167c010000000000000000000000000000000000000000000000000000000063ffffffff90921691909102179055565b6000818152602260205260408120549003612a2d576040517f08c379a000000000000000000000000000000000000000000000000000000000815260206004820152600f60248201527f4530313a206e6f742073746172742100000000000000000000000000000000006044820152606401611151565b336000908152601e6020908152604080832084845290915290208054610100900460ff16158015612a6c57508054640100000000900463ffffffff1615155b612ad2576040517f08c379a000000000000000000000000000000000000000000000000000000000815260206004820152600f60248201527f4530323a206e6f206368616e63652100000000000000000000000000000000006044820152606401611151565b6000806000612ae133866144fe565b86547fffffffffffffffffffffffffffffffffffffffffffffffffffffffffffff00ff16610100178755919450925090508215612bde57600a546040517f40c10f190000000000000000000000000000000000000000000000000000000081523360048201526024810185905273ffffffffffffffffffffffffffffffffffffffff909116906340c10f1990604401600060405180830381600087803b158015612b8a57600080fd5b505af1158015612b9e573d6000803e3d6000fd5b505060408051888152602081018790523393507f9234112f3df964b3d2a0fcb468eb89fcb656d3da8c12862e52a611a2d816606892500160405180910390a25b8115612caa57600c546040517f40c10f190000000000000000000000000000000000000000000000000000000081523360048201526024810184905273ffffffffffffffffffffffffffffffffffffffff909116906340c10f1990604401600060405180830381600087803b158015612c5657600080fd5b505af1158015612c6a573d6000803e3d6000fd5b505060408051888152602081018690523393507f70d5a7784b7208c07d7bd0f869b035644e6914095869fae01d58c734fa41a3cc92500160405180910390a25b8015612d7757600d546040517f40c10f190000000000000000000000000000000000000000000000000000000081523360048201526024810183905273ffffffffffffffffffffffffffffffffffffffff909116906340c10f1990604401600060405180830381600087803b158015612d2257600080fd5b505af1158015612d36573d6000803e3d6000fd5b505060408051888152602081018590523393507f8ecd9224e996c9d592bcf3b882b02d73e293b5a9d4e93e99a89eda05c2b356d99250015b60405180910390a25b5050505050565b600080612d89613f2c565b336000908152602080526040902054909367ffffffffffffffff90911692509050565b612db4613f0b565b6000838152601c60205260409020547c0100000000000000000000000000000000000000000000000000000000900463ffffffff1603612e50576040517f08c379a000000000000000000000000000000000000000000000000000000000815260206004820152601060248201527f54727920697420746f6d6f72726f7721000000000000000000000000000000006044820152606401611151565b600f546040517f6352211e00000000000000000000000000000000000000000000000000000000815260048101849052339173ffffffffffffffffffffffffffffffffffffffff1690636352211e90602401602060405180830381865afa158015612ebf573d6000803e3d6000fd5b505050506040513d601f19601f82011682018060405250810190612ee391906154d1565b73ffffffffffffffffffffffffffffffffffffffff1614612f60576040517f08c379a000000000000000000000000000000000000000000000000000000000815260206004820152600a60248201527f4e6f74206f776e657221000000000000000000000000000000000000000000006044820152606401611151565b6000828152601860209081526040808320848452825291829020548251858152918201849052339290917f05e325156aba69410a66eab5a9b20915c86eba2014aa3688ba112b0d3af69605910160405180910390a3600091825260186020908152604080842083855280835281852080548652601d845291852085905592845291905255565b60008181526022602052604081205481908190810361300d5750600091508190508061301e565b61301785856144fe565b9250925092505b9250925092565b7fa076a07f65bcd51bcb15a0f01a65bc18f2d922acb81bcfd8af4caf5adb55709161304f81613e0e565b6000600161305b613f0b565b613065919061564d565b600b546040517f5e5201b70000000000000000000000000000000000000000000000000000000081526004810183905291925060009173ffffffffffffffffffffffffffffffffffffffff90911690635e5201b790602401602060405180830381865afa1580156130da573d6000803e3d6000fd5b505050506040513d601f19601f820116820180604052508101906130fe91906154ee565b90508060000361316a576040517f08c379a000000000000000000000000000000000000000000000000000000000815260206004820152600a60248201527f6e6f7420737461727421000000000000000000000000000000000000000000006044820152606401611151565b60008281526021602090815260408083206014805482547fffffffffffffffffffffffffffffffff000000000000000000000000000000008082166fffffffffffffffffffffffffffffffff9093169283178555835467ffffffffffffffff70010000000000000000000000000000000091829004811682027fffffffffffffffff00000000000000000000000000000000000000000000000090941690941792909217808655935478010000000000000000000000000000000000000000000000009081900484160277ffffffffffffffffffffffffffffffffffffffffffffffff90941693909317845560158054600190950180547fffffffffffffffffffffffffffffffffffffffffffffffff000000000000000081169685169687178255825468010000000000000000908190048616029516909517939093178085559254819004909116027fffffffffffffffff0000000000000000ffffffffffffffffffffffffffffffff919091161790556022909152908190208290555182907f742e0a2b52f3968c30cb16c8481984622cd4eca9aca001bf1bbe8f4586b27d589061331a9084815260200190565b60405180910390a2505050565b60008281526020819052604090206001015461334281613e0e565b6110338383613fb6565b7fa076a07f65bcd51bcb15a0f01a65bc18f2d922acb81bcfd8af4caf5adb55709161337681613e0e565b61337e613f0b565b82106133e6576040517f08c379a000000000000000000000000000000000000000000000000000000000815260206004820152600a60248201527f746f6f206561726c7921000000000000000000000000000000000000000000006044820152606401611151565b60008281526023602052604090205415801561340e5750600082815260246020526040902054155b80156134265750600082815260256020526040902054155b61348c576040517f08c379a000000000000000000000000000000000000000000000000000000000815260206004820152600860248201527f636c61696d6564210000000000000000000000000000000000000000000000006044820152606401611151565b600080600061349a85614996565b60008881526023602090815260408083208490556024808352818420879055602590925291829020849055600a5460035492517f40c10f1900000000000000000000000000000000000000000000000000000000815273ffffffffffffffffffffffffffffffffffffffff9384166004820152918201869052949750929550909350909116906340c10f1990604401600060405180830381600087803b15801561354357600080fd5b505af1158015613557573d6000803e3d6000fd5b5050600a54600480546040517f40c10f1900000000000000000000000000000000000000000000000000000000815273ffffffffffffffffffffffffffffffffffffffff918216928101929092526024820187905290911692506340c10f199150604401600060405180830381600087803b1580156135d557600080fd5b505af11580156135e9573d6000803e3d6000fd5b5050600a546005546040517f40c10f1900000000000000000000000000000000000000000000000000000000815273ffffffffffffffffffffffffffffffffffffffff918216600482015260248101869052911692506340c10f199150604401600060405180830381600087803b15801561366357600080fd5b505af1158015613677573d6000803e3d6000fd5b505060408051868152602081018690529081018490528792507f560a69ea1e4b494a093d79c1110688a93ada607bcafeb2132ed592bb5af181fe9150606001612d6e565b73ffffffffffffffffffffffffffffffffffffffff82166000908152601e602090815260408083208484528252808320815160c081018352905460ff80821680845261010083049091169483019490945262010000810461ffff1692820192909252640100000000820463ffffffff16606082015268010000000000000000820467ffffffffffffffff1660808201527001000000000000000000000000000000009091046fffffffffffffffffffffffffffffffff1660a08201529060010361379c5760a001516fffffffffffffffffffffffffffffffff169050610f95565b6137a68484614a97565b915050610f95565b5092915050565b3360009081526016602052604090205482111561382e576040517f08c379a000000000000000000000000000000000000000000000000000000000815260206004820152601960248201527f4530313a20696e73756666696369656e7420616d6f756e7421000000000000006044820152606401611151565b336000908152601660205260409081902080548490039055600a5490517f40c10f1900000000000000000000000000000000000000000000000000000000815273ffffffffffffffffffffffffffffffffffffffff838116600483015260248201859052909116906340c10f1990604401600060405180830381600087803b1580156138b957600080fd5b505af11580156138cd573d6000803e3d6000fd5b50506040805173ffffffffffffffffffffffffffffffffffffffff85168152602081018690523393507fc9517c0ab99122679dd92d47fb3491fb889663c3f28c600016a87bfec77fe6ee92500160405180910390a25050565b33600090815260176020908152604080832084845290915281205490036139a9576040517f08c379a000000000000000000000000000000000000000000000000000000000815260206004820152600960248201527f6e6f2065717569702100000000000000000000000000000000000000000000006044820152606401611151565b3360009081526020805260408120906139c0613f0b565b8254909150700100000000000000000000000000000000900467ffffffffffffffff168103613a205781547fffffffffffffffffffffffffffffffffffffffffffffffff00000000000000001667ffffffffffffffff8416178255613ace565b81547fffffffffffffffff00000000000000000000000000000000ffffffffffffffff81167fffffffffffffffffffffffffffffffff0000000000000000ffffffffffffffff70010000000000000000000000000000000067ffffffffffffffff8581169190910291821692909217928216908216176801000000000000000002919091177fffffffffffffffffffffffffffffffffffffffffffffffff0000000000000000169084161782555b60405183815233907fd0fa65fbd5d690b1dafd7a34f7640bef639ae2cdf497e5469747700bcbd02c6f9060200161331a565b613b08613f0b565b811115613b71576040517f08c379a000000000000000000000000000000000000000000000000000000000815260206004820152600e60248201527f696e76616c696420656e644461790000000000000000000000000000000000006044820152606401611151565b815b81811015611033576000613b873383614a97565b90508015613c5957336000818152601e602090815260408083208684528252808320805460016fffffffffffffffffffffffffffffff009091167001000000000000000000000000000000006fffffffffffffffffffffffffffffffff8916027fffffffffffffffffffffffffffffffffffffffffffffffffffffffffffffff001617178155848452601683529281902080548601905580518581529182018690529192917f9aeae5bd7310b743679cd0c66fea31ac995c063423ea882a979d1570938c384e910160405180910390a2505b50600101613b73565b6000613c6d81613e0e565b50600580547fffffffffffffffffffffffff000000000000000000000000000000000000000090811673ffffffffffffffffffffffffffffffffffffffff9384161790915560038054821694831694909417909355600480549093169116179055565b6000613cdb81613e0e565b508051601480546020840151604085015167ffffffffffffffff90811678010000000000000000000000000000000000000000000000000277ffffffffffffffffffffffffffffffffffffffffffffffff9282167001000000000000000000000000000000009081027fffffffffffffffff0000000000000000000000000000000000000000000000009095166fffffffffffffffffffffffffffffffff90971696909617939093179190911691909117909155606083015160158054608086015160a090960151841690940294831668010000000000000000027fffffffffffffffffffffffffffffffff00000000000000000000000000000000949094169190921617919091177fffffffffffffffff0000000000000000ffffffffffffffffffffffffffffffff16919091179055565b613e188133614bca565b50565b60008281526020818152604080832073ffffffffffffffffffffffffffffffffffffffff8516845290915290205460ff16611cc65760008281526020818152604080832073ffffffffffffffffffffffffffffffffffffffff85168452909152902080547fffffffffffffffffffffffffffffffffffffffffffffffffffffffffffffff00166001179055613ead3390565b73ffffffffffffffffffffffffffffffffffffffff168173ffffffffffffffffffffffffffffffffffffffff16837f2f8788117e7eff1d82e926ec794901d17c78024a50270940304540a733656f0d60405160405180910390a45050565b600254600090613f1d42617080615660565b613f279190615673565b905090565b336000908152602080805260408083208151606081018352905467ffffffffffffffff80821683526801000000000000000082048116948301949094527001000000000000000000000000000000009004909216908201819052613f8e613f0b565b03613fa6576020015167ffffffffffffffff16919050565b5167ffffffffffffffff16919050565b60008281526020818152604080832073ffffffffffffffffffffffffffffffffffffffff8516845290915290205460ff1615611cc65760008281526020818152604080832073ffffffffffffffffffffffffffffffffffffffff8516808552925280832080547fffffffffffffffffffffffffffffffffffffffffffffffffffffffffffffff0016905551339285917ff6391f5c32d9c69d2a47ea670b442974b53935d1edc7fd64eb21e047a839171b9190a45050565b600e546040517faf6a347600000000000000000000000000000000000000000000000000000000815260048101849052600091829173ffffffffffffffffffffffffffffffffffffffff9091169063af6a34769060240160a060405180830381865afa1580156140e1573d6000803e3d6000fd5b505050506040513d601f19601f820116820180604052508101906141059190615581565b6000858152601a6020908152604080832087845282528083208151606081018352905467ffffffffffffffff808216835268010000000000000000820481169483019490945270010000000000000000000000000000000090049092169082018190529293509181908103614194576000868152601f602052604090205467ffffffffffffffff169150614206565b826040015167ffffffffffffffff166001036141d6576000868152601f602052604090205468010000000000000000900467ffffffffffffffff169150614206565b6000868152601f6020526040902054700100000000000000000000000000000000900467ffffffffffffffff1691505b5082516012546040850151601354602087015167ffffffffffffffff94851670010000000000000000000000000000000085046fffffffffffffffffffffffffffffffff16029285166dffffffffffffffffffffffffffff8084169190910293909301985084166e0100000000000000000000000000009091049091160291168211156143c95760125468010000000000000000900467ffffffffffffffff168211156142c95760125468010000000000000000900467ffffffffffffffff1691505b601154601254670de0b6b3a76400009167ffffffffffffffff70010000000000000000000000000000000090910481169161430591168561564d565b61430f90886156ae565b61431991906156ae565b6143239190615673565b61432d908661564d565b601154909550670de0b6b3a7640000906143839067ffffffffffffffff780100000000000000000000000000000000000000000000000082048116917001000000000000000000000000000000009004166156c5565b60125467ffffffffffffffff9182169161439e91168561564d565b6143a890846156ae565b6143b291906156ae565b6143bc9190615673565b6143c6908261564d565b90505b8085019450826040015167ffffffffffffffff16836020015167ffffffffffffffff161461442957601154670de0b6b3a7640000906144129067ffffffffffffffff16876156ae565b61441c9190615673565b614426908661564d565b94505b60135483517c010000000000000000000000000000000000000000000000000000000090910463ffffffff1667ffffffffffffffff90911610156144f4576011548351601354670de0b6b3a76400009268010000000000000000900467ffffffffffffffff16916144bf917c0100000000000000000000000000000000000000000000000000000000900463ffffffff166156c5565b6144d39067ffffffffffffffff16886156ae565b6144dd91906156ae565b6144e79190615673565b6144f1908661564d565b94505b5050505092915050565b6000818152601f602052604081206001015481908190700100000000000000000000000000000000900467ffffffffffffffff1680820361454a5760008060009350935093505061301e565b73ffffffffffffffffffffffffffffffffffffffff86166000908152601e602090815260408083208884528252808320815160c081018352905460ff80821683526101008204169382019390935262010000830461ffff1691810191909152640100000000820463ffffffff16606082015268010000000000000000820467ffffffffffffffff1660808201527001000000000000000000000000000000009091046fffffffffffffffffffffffffffffffff1660a0820152815b816060015163ffffffff168110156146ef5773ffffffffffffffffffffffffffffffffffffffff8981166000908152601b602090815260408083208c8452825280832085845290915280822054600e5491517faf6a3476000000000000000000000000000000000000000000000000000000008152600481018290529093919091169063af6a34769060240160a060405180830381865afa1580156146ae573d6000803e3d6000fd5b505050506040513d601f19601f820116820180604052508101906146d29190615581565b6040015167ffffffffffffffff1694909401935050600101614605565b506000878152602160209081526040808320815160c08101835281546fffffffffffffffffffffffffffffffff8116825267ffffffffffffffff70010000000000000000000000000000000080830482168488015278010000000000000000000000000000000000000000000000009092048116838601526001909301548084166060840152680100000000000000008104841660808401520490911660a08201528a8452602283528184205491519093926147df928d9290910160609290921b7fffffffffffffffffffffffffffffffffffffffff000000000000000000000000168252601482015260340190565b6040516020818303038152906040528051906020012060001c9050600085828161480b5761480b6155ef565b06905084836060015167ffffffffffffffff160281101561483f5782516fffffffffffffffffffffffffffffffff16860298505b6040517fffffffffffffffffffffffffffffffffffffffff00000000000000000000000060608d901b166020820152603481018390526054016040516020818303038152906040528051906020012060001c91508582816148a2576148a26155ef565b06905084836060015167ffffffffffffffff16028110156148e4576305f5e100836040015167ffffffffffffffff168702816148e0576148e06155ef565b0497505b6040517fffffffffffffffffffffffffffffffffffffffff00000000000000000000000060608d901b166020820152603481018390526054016040516020818303038152906040528051906020012060001c9150858281614947576149476155ef565b06905084836060015167ffffffffffffffff1602811015614989576305f5e100836020015167ffffffffffffffff16870281614985576149856155ef565b0496505b5050505050509250925092565b6013546000828152601f60205260408120600101546012546006549293849384936dffffffffffffffffffffffffffff80841670010000000000000000000000000000000080840467ffffffffffffffff9081169290920296046fffffffffffffffffffffffffffffffff1681841602959095016e0100000000000000000000000000009094041668010000000000000000909104939093169290920201906305f5e10090614a4590836156ae565b614a4f9190615673565b6305f5e10060075483614a6291906156ae565b614a6c9190615673565b6305f5e10060085484614a7f91906156ae565b614a899190615673565b935093509350509193909250565b73ffffffffffffffffffffffffffffffffffffffff82166000908152601e602090815260408083208484528252808320815160c081018352905460ff80821680845261010083049091169483019490945262010000810461ffff1692820192909252640100000000820463ffffffff16606082015268010000000000000000820467ffffffffffffffff1660808201527001000000000000000000000000000000009091046fffffffffffffffffffffffffffffffff1660a082015282918203614bc25760005b816060015163ffffffff16811015614bc05773ffffffffffffffffffffffffffffffffffffffff86166000908152601b602090815260408083208884528252808320848452909152902054614bb3818761406d565b9093019250600101614b5e565b505b509392505050565b60008281526020818152604080832073ffffffffffffffffffffffffffffffffffffffff8516845290915290205460ff16611cc657614c0881614c82565b614c13836020614ca1565b604051602001614c2492919061570a565b604080517fffffffffffffffffffffffffffffffffffffffffffffffffffffffffffffffe0818403018152908290527f08c379a00000000000000000000000000000000000000000000000000000000082526111519160040161578b565b6060610f9573ffffffffffffffffffffffffffffffffffffffff831660145b60606000614cb08360026156ae565b614cbb906002615660565b67ffffffffffffffff811115614cd357614cd36151d1565b6040519080825280601f01601f191660200182016040528015614cfd576020820181803683370190505b5090507f300000000000000000000000000000000000000000000000000000000000000081600081518110614d3457614d346157dc565b60200101907effffffffffffffffffffffffffffffffffffffffffffffffffffffffffffff1916908160001a9053507f780000000000000000000000000000000000000000000000000000000000000081600181518110614d9757614d976157dc565b60200101907effffffffffffffffffffffffffffffffffffffffffffffffffffffffffffff1916908160001a9053506000614dd38460026156ae565b614dde906001615660565b90505b6001811115614e7b577f303132333435363738396162636465660000000000000000000000000000000085600f1660108110614e1f57614e1f6157dc565b1a60f81b828281518110614e3557614e356157dc565b60200101907effffffffffffffffffffffffffffffffffffffffffffffffffffffffffffff1916908160001a90535060049490941c93614e748161580b565b9050614de1565b50831561246a576040517f08c379a000000000000000000000000000000000000000000000000000000000815260206004820181905260248201527f537472696e67733a20686578206c656e67746820696e73756666696369656e746044820152606401611151565b600060208284031215614ef657600080fd5b81357fffffffff000000000000000000000000000000000000000000000000000000008116811461246a57600080fd5b73ffffffffffffffffffffffffffffffffffffffff81168114613e1857600080fd5b600080600060608486031215614f5d57600080fd5b8335614f6881614f26565b95602085013595506040909401359392505050565b600060208284031215614f8f57600080fd5b5035919050565b60008060408385031215614fa957600080fd5b823591506020830135614fbb81614f26565b809150509250929050565b600080600060608486031215614fdb57600080fd5b505081359360208301359350604090920135919050565b60008060006060848603121561500757600080fd5b833561501281614f26565b9250602084013561502281614f26565b9150604084013561503281614f26565b809150509250925092565b6000806040838503121561505057600080fd5b823561505b81614f26565b946020939093013593505050565b6000806040838503121561507c57600080fd5b50508035926020909101359150565b815167ffffffffffffffff168152610140810160208301516150b9602084018267ffffffffffffffff169052565b5060408301516150d5604084018267ffffffffffffffff169052565b5060608301516150f1606084018267ffffffffffffffff169052565b50608083015161510d608084018267ffffffffffffffff169052565b5060a083015161512960a084018267ffffffffffffffff169052565b5060c083015161514d60c08401826fffffffffffffffffffffffffffffffff169052565b5060e083015161516f60e08401826dffffffffffffffffffffffffffff169052565b50610100838101516dffffffffffffffffffffffffffff16908301526101209283015163ffffffff16929091019190915290565b600080604083850312156151b657600080fd5b82356151c181614f26565b91506020830135614fbb81614f26565b7f4e487b7100000000000000000000000000000000000000000000000000000000600052604160045260246000fd5b604051610140810167ffffffffffffffff8111828210171561524b577f4e487b7100000000000000000000000000000000000000000000000000000000600052604160045260246000fd5b60405290565b60405160a0810167ffffffffffffffff8111828210171561524b577f4e487b7100000000000000000000000000000000000000000000000000000000600052604160045260246000fd5b67ffffffffffffffff81168114613e1857600080fd5b80356152bc8161529b565b919050565b80356fffffffffffffffffffffffffffffffff811681146152bc57600080fd5b80356dffffffffffffffffffffffffffff811681146152bc57600080fd5b63ffffffff81168114613e1857600080fd5b80356152bc816152ff565b6000610140828403121561532f57600080fd5b615337615200565b615340836152b1565b815261534e602084016152b1565b602082015261535f604084016152b1565b6040820152615370606084016152b1565b6060820152615381608084016152b1565b608082015261539260a084016152b1565b60a08201526153a360c084016152c1565b60c08201526153b460e084016152e1565b60e08201526101006153c78185016152e1565b908201526101206153d9848201615311565b908201529392505050565b6000602082840312156153f657600080fd5b813561246a81614f26565b600060c0828403121561541357600080fd5b60405160c0810181811067ffffffffffffffff8211171561545d577f4e487b7100000000000000000000000000000000000000000000000000000000600052604160045260246000fd5b604052615469836152c1565b815260208301356154798161529b565b6020820152604083013561548c8161529b565b6040820152606083013561549f8161529b565b606082015260808301356154b28161529b565b608082015260a08301356154c58161529b565b60a08201529392505050565b6000602082840312156154e357600080fd5b815161246a81614f26565b60006020828403121561550057600080fd5b5051919050565b600060a0828403121561551957600080fd5b615521615251565b825161552c816152ff565b8152602083015161553c816152ff565b6020820152604083015161554f8161529b565b604082015260608301516155628161529b565b606082015260808301516155758161529b565b60808201529392505050565b600060a0828403121561559357600080fd5b61559b615251565b82516155a68161529b565b815260208301516155b68161529b565b602082015260408301516155c98161529b565b604082015260608301516155dc816152ff565b60608201526080830151615575816152ff565b7f4e487b7100000000000000000000000000000000000000000000000000000000600052601260045260246000fd5b7f4e487b7100000000000000000000000000000000000000000000000000000000600052601160045260246000fd5b81810381811115610f9557610f9561561e565b80820180821115610f9557610f9561561e565b6000826156a9577f4e487b7100000000000000000000000000000000000000000000000000000000600052601260045260246000fd5b500490565b8082028115828204841417610f9557610f9561561e565b67ffffffffffffffff8281168282160390808211156137ae576137ae61561e565b60005b838110156157015781810151838201526020016156e9565b50506000910152565b7f416363657373436f6e74726f6c3a206163636f756e74200000000000000000008152600083516157428160178501602088016156e6565b7f206973206d697373696e6720726f6c6520000000000000000000000000000000601791840191820152835161577f8160288401602088016156e6565b01602801949350505050565b60208152600082518060208401526157aa8160408501602087016156e6565b601f017fffffffffffffffffffffffffffffffffffffffffffffffffffffffffffffffe0169190910160400192915050565b7f4e487b7100000000000000000000000000000000000000000000000000000000600052603260045260246000fd5b60008161581a5761581a61561e565b507fffffffffffffffffffffffffffffffffffffffffffffffffffffffffffffffff019056fea164736f6c6343000811000a",
  "linkReferences": {},
  "deployedLinkReferences": {}
}