{
  "_format": "hh-sol-artifact-1",
  "contractName": "RunbitToken",
  "sourceName": "contracts/RunbitToken.sol",
  "abi": [
    {
      "inputs": [
        {
          "internalType": "address",
          "name": "admin",
          "type": "address"
        }
      ],
      "stateMutability": "nonpayable",
      "type": "constructor"
    },
    {
      "anonymous": false,
      "inputs": [
        {
          "indexed": true,
          "internalType": "address",
          "name": "owner",
          "type": "address"
        },
        {
          "indexed": true,
          "internalType": "address",
          "name": "spender",
          "type": "address"
        },
        {
          "indexed": false,
          "internalType": "uint256",
          "name": "value",
          "type": "uint256"
        }
      ],
      "name": "Approval",
      "type": "event"
    },
    {
      "anonymous": false,
      "inputs": [
        {
          "indexed": true,
          "internalType": "address",
          "name": "delegator",
          "type": "address"
        },
        {
          "indexed": true,
          "internalType": "address",
          "name": "fromDelegate",
          "type": "address"
        },
        {
          "indexed": true,
          "internalType": "address",
          "name": "toDelegate",
          "type": "address"
        }
      ],
      "name": "DelegateChanged",
      "type": "event"
    },
    {
      "anonymous": false,
      "inputs": [
        {
          "indexed": true,
          "internalType": "address",
          "name": "delegate",
          "type": "address"
        },
        {
          "indexed": false,
          "internalType": "uint256",
          "name": "previousBalance",
          "type": "uint256"
        },
        {
          "indexed": false,
          "internalType": "uint256",
          "name": "newBalance",
          "type": "uint256"
        }
      ],
      "name": "DelegateVotesChanged",
      "type": "event"
    },
    {
      "anonymous": false,
      "inputs": [
        {
          "indexed": true,
          "internalType": "bytes32",
          "name": "role",
          "type": "bytes32"
        },
        {
          "indexed": true,
          "internalType": "bytes32",
          "name": "previousAdminRole",
          "type": "bytes32"
        },
        {
          "indexed": true,
          "internalType": "bytes32",
          "name": "newAdminRole",
          "type": "bytes32"
        }
      ],
      "name": "RoleAdminChanged",
      "type": "event"
    },
    {
      "anonymous": false,
      "inputs": [
        {
          "indexed": true,
          "internalType": "bytes32",
          "name": "role",
          "type": "bytes32"
        },
        {
          "indexed": true,
          "internalType": "address",
          "name": "account",
          "type": "address"
        },
        {
          "indexed": true,
          "internalType": "address",
          "name": "sender",
          "type": "address"
        }
      ],
      "name": "RoleGranted",
      "type": "event"
    },
    {
      "anonymous": false,
      "inputs": [
        {
          "indexed": true,
          "internalType": "bytes32",
          "name": "role",
          "type": "bytes32"
        },
        {
          "indexed": true,
          "internalType": "address",
          "name": "account",
          "type": "address"
        },
        {
          "indexed": true,
          "internalType": "address",
          "name": "sender",
          "type": "address"
        }
      ],
      "name": "RoleRevoked",
      "type": "event"
    },
    {
      "anonymous": false,
      "inputs": [
        {
          "indexed": false,
          "internalType": "uint256",
          "name": "id",
          "type": "uint256"
        }
      ],
      "name": "Snapshot",
      "type": "event"
    },
    {
      "anonymous": false,
      "inputs": [
        {
          "indexed": true,
          "internalType": "address",
          "name": "from",
          "type": "address"
        },
        {
          "indexed": true,
          "internalType": "address",
          "name": "to",
          "type": "address"
        },
        {
          "indexed": false,
          "internalType": "uint256",
          "name": "value",
          "type": "uint256"
        }
      ],
      "name": "Transfer",
      "type": "event"
    },
    {
      "inputs": [],
      "name": "DEFAULT_ADMIN_ROLE",
      "outputs": [
        {
          "internalType": "bytes32",
          "name": "",
          "type": "bytes32"
        }
      ],
      "stateMutability": "view",
      "type": "function"
    },
    {
      "inputs": [],
      "name": "DOMAIN_SEPARATOR",
      "outputs": [
        {
          "internalType": "bytes32",
          "name": "",
          "type": "bytes32"
        }
      ],
      "stateMutability": "view",
      "type": "function"
    },
    {
      "inputs": [],
      "name": "MINTER_ROLE",
      "outputs": [
        {
          "internalType": "bytes32",
          "name": "",
          "type": "bytes32"
        }
      ],
      "stateMutability": "view",
      "type": "function"
    },
    {
      "inputs": [],
      "name": "SNAPSHOT_ROLE",
      "outputs": [
        {
          "internalType": "bytes32",
          "name": "",
          "type": "bytes32"
        }
      ],
      "stateMutability": "view",
      "type": "function"
    },
    {
      "inputs": [
        {
          "internalType": "address",
          "name": "owner",
          "type": "address"
        },
        {
          "internalType": "address",
          "name": "spender",
          "type": "address"
        }
      ],
      "name": "allowance",
      "outputs": [
        {
          "internalType": "uint256",
          "name": "",
          "type": "uint256"
        }
      ],
      "stateMutability": "view",
      "type": "function"
    },
    {
      "inputs": [
        {
          "internalType": "address",
          "name": "spender",
          "type": "address"
        },
        {
          "internalType": "uint256",
          "name": "amount",
          "type": "uint256"
        }
      ],
      "name": "approve",
      "outputs": [
        {
          "internalType": "bool",
          "name": "",
          "type": "bool"
        }
      ],
      "stateMutability": "nonpayable",
      "type": "function"
    },
    {
      "inputs": [
        {
          "internalType": "address",
          "name": "account",
          "type": "address"
        }
      ],
      "name": "balanceOf",
      "outputs": [
        {
          "internalType": "uint256",
          "name": "",
          "type": "uint256"
        }
      ],
      "stateMutability": "view",
      "type": "function"
    },
    {
      "inputs": [
        {
          "internalType": "address",
          "name": "account",
          "type": "address"
        },
        {
          "internalType": "uint256",
          "name": "snapshotId",
          "type": "uint256"
        }
      ],
      "name": "balanceOfAt",
      "outputs": [
        {
          "internalType": "uint256",
          "name": "",
          "type": "uint256"
        }
      ],
      "stateMutability": "view",
      "type": "function"
    },
    {
      "inputs": [
        {
          "internalType": "uint256",
          "name": "amount",
          "type": "uint256"
        }
      ],
      "name": "burn",
      "outputs": [],
      "stateMutability": "nonpayable",
      "type": "function"
    },
    {
      "inputs": [
        {
          "internalType": "address",
          "name": "account",
          "type": "address"
        },
        {
          "internalType": "uint256",
          "name": "amount",
          "type": "uint256"
        }
      ],
      "name": "burnFrom",
      "outputs": [],
      "stateMutability": "nonpayable",
      "type": "function"
    },
    {
      "inputs": [
        {
          "internalType": "address",
          "name": "account",
          "type": "address"
        },
        {
          "internalType": "uint32",
          "name": "pos",
          "type": "uint32"
        }
      ],
      "name": "checkpoints",
      "outputs": [
        {
          "components": [
            {
              "internalType": "uint32",
              "name": "fromBlock",
              "type": "uint32"
            },
            {
              "internalType": "uint224",
              "name": "votes",
              "type": "uint224"
            }
          ],
          "internalType": "struct ERC20Votes.Checkpoint",
          "name": "",
          "type": "tuple"
        }
      ],
      "stateMutability": "view",
      "type": "function"
    },
    {
      "inputs": [],
      "name": "decimals",
      "outputs": [
        {
          "internalType": "uint8",
          "name": "",
          "type": "uint8"
        }
      ],
      "stateMutability": "view",
      "type": "function"
    },
    {
      "inputs": [
        {
          "internalType": "address",
          "name": "spender",
          "type": "address"
        },
        {
          "internalType": "uint256",
          "name": "subtractedValue",
          "type": "uint256"
        }
      ],
      "name": "decreaseAllowance",
      "outputs": [
        {
          "internalType": "bool",
          "name": "",
          "type": "bool"
        }
      ],
      "stateMutability": "nonpayable",
      "type": "function"
    },
    {
      "inputs": [
        {
          "internalType": "address",
          "name": "delegatee",
          "type": "address"
        }
      ],
      "name": "delegate",
      "outputs": [],
      "stateMutability": "nonpayable",
      "type": "function"
    },
    {
      "inputs": [
        {
          "internalType": "address",
          "name": "delegatee",
          "type": "address"
        },
        {
          "internalType": "uint256",
          "name": "nonce",
          "type": "uint256"
        },
        {
          "internalType": "uint256",
          "name": "expiry",
          "type": "uint256"
        },
        {
          "internalType": "uint8",
          "name": "v",
          "type": "uint8"
        },
        {
          "internalType": "bytes32",
          "name": "r",
          "type": "bytes32"
        },
        {
          "internalType": "bytes32",
          "name": "s",
          "type": "bytes32"
        }
      ],
      "name": "delegateBySig",
      "outputs": [],
      "stateMutability": "nonpayable",
      "type": "function"
    },
    {
      "inputs": [
        {
          "internalType": "address",
          "name": "account",
          "type": "address"
        }
      ],
      "name": "delegates",
      "outputs": [
        {
          "internalType": "address",
          "name": "",
          "type": "address"
        }
      ],
      "stateMutability": "view",
      "type": "function"
    },
    {
      "inputs": [
        {
          "internalType": "address",
          "name": "token",
          "type": "address"
        },
        {
          "internalType": "uint256",
          "name": "amount",
          "type": "uint256"
        }
      ],
      "name": "flashFee",
      "outputs": [
        {
          "internalType": "uint256",
          "name": "",
          "type": "uint256"
        }
      ],
      "stateMutability": "view",
      "type": "function"
    },
    {
      "inputs": [
        {
          "internalType": "contract IERC3156FlashBorrower",
          "name": "receiver",
          "type": "address"
        },
        {
          "internalType": "address",
          "name": "token",
          "type": "address"
        },
        {
          "internalType": "uint256",
          "name": "amount",
          "type": "uint256"
        },
        {
          "internalType": "bytes",
          "name": "data",
          "type": "bytes"
        }
      ],
      "name": "flashLoan",
      "outputs": [
        {
          "internalType": "bool",
          "name": "",
          "type": "bool"
        }
      ],
      "stateMutability": "nonpayable",
      "type": "function"
    },
    {
      "inputs": [
        {
          "internalType": "uint256",
          "name": "blockNumber",
          "type": "uint256"
        }
      ],
      "name": "getPastTotalSupply",
      "outputs": [
        {
          "internalType": "uint256",
          "name": "",
          "type": "uint256"
        }
      ],
      "stateMutability": "view",
      "type": "function"
    },
    {
      "inputs": [
        {
          "internalType": "address",
          "name": "account",
          "type": "address"
        },
        {
          "internalType": "uint256",
          "name": "blockNumber",
          "type": "uint256"
        }
      ],
      "name": "getPastVotes",
      "outputs": [
        {
          "internalType": "uint256",
          "name": "",
          "type": "uint256"
        }
      ],
      "stateMutability": "view",
      "type": "function"
    },
    {
      "inputs": [
        {
          "internalType": "bytes32",
          "name": "role",
          "type": "bytes32"
        }
      ],
      "name": "getRoleAdmin",
      "outputs": [
        {
          "internalType": "bytes32",
          "name": "",
          "type": "bytes32"
        }
      ],
      "stateMutability": "view",
      "type": "function"
    },
    {
      "inputs": [
        {
          "internalType": "address",
          "name": "account",
          "type": "address"
        }
      ],
      "name": "getVotes",
      "outputs": [
        {
          "internalType": "uint256",
          "name": "",
          "type": "uint256"
        }
      ],
      "stateMutability": "view",
      "type": "function"
    },
    {
      "inputs": [
        {
          "internalType": "bytes32",
          "name": "role",
          "type": "bytes32"
        },
        {
          "internalType": "address",
          "name": "account",
          "type": "address"
        }
      ],
      "name": "grantRole",
      "outputs": [],
      "stateMutability": "nonpayable",
      "type": "function"
    },
    {
      "inputs": [
        {
          "internalType": "bytes32",
          "name": "role",
          "type": "bytes32"
        },
        {
          "internalType": "address",
          "name": "account",
          "type": "address"
        }
      ],
      "name": "hasRole",
      "outputs": [
        {
          "internalType": "bool",
          "name": "",
          "type": "bool"
        }
      ],
      "stateMutability": "view",
      "type": "function"
    },
    {
      "inputs": [
        {
          "internalType": "address",
          "name": "spender",
          "type": "address"
        },
        {
          "internalType": "uint256",
          "name": "addedValue",
          "type": "uint256"
        }
      ],
      "name": "increaseAllowance",
      "outputs": [
        {
          "internalType": "bool",
          "name": "",
          "type": "bool"
        }
      ],
      "stateMutability": "nonpayable",
      "type": "function"
    },
    {
      "inputs": [],
      "name": "lockMinter",
      "outputs": [],
      "stateMutability": "nonpayable",
      "type": "function"
    },
    {
      "inputs": [
        {
          "internalType": "address",
          "name": "token",
          "type": "address"
        }
      ],
      "name": "maxFlashLoan",
      "outputs": [
        {
          "internalType": "uint256",
          "name": "",
          "type": "uint256"
        }
      ],
      "stateMutability": "view",
      "type": "function"
    },
    {
      "inputs": [
        {
          "internalType": "address",
          "name": "to",
          "type": "address"
        },
        {
          "internalType": "uint256",
          "name": "amount",
          "type": "uint256"
        }
      ],
      "name": "mint",
      "outputs": [],
      "stateMutability": "nonpayable",
      "type": "function"
    },
    {
      "inputs": [],
      "name": "name",
      "outputs": [
        {
          "internalType": "string",
          "name": "",
          "type": "string"
        }
      ],
      "stateMutability": "view",
      "type": "function"
    },
    {
      "inputs": [
        {
          "internalType": "address",
          "name": "owner",
          "type": "address"
        }
      ],
      "name": "nonces",
      "outputs": [
        {
          "internalType": "uint256",
          "name": "",
          "type": "uint256"
        }
      ],
      "stateMutability": "view",
      "type": "function"
    },
    {
      "inputs": [
        {
          "internalType": "address",
          "name": "account",
          "type": "address"
        }
      ],
      "name": "numCheckpoints",
      "outputs": [
        {
          "internalType": "uint32",
          "name": "",
          "type": "uint32"
        }
      ],
      "stateMutability": "view",
      "type": "function"
    },
    {
      "inputs": [
        {
          "internalType": "address",
          "name": "owner",
          "type": "address"
        },
        {
          "internalType": "address",
          "name": "spender",
          "type": "address"
        },
        {
          "internalType": "uint256",
          "name": "value",
          "type": "uint256"
        },
        {
          "internalType": "uint256",
          "name": "deadline",
          "type": "uint256"
        },
        {
          "internalType": "uint8",
          "name": "v",
          "type": "uint8"
        },
        {
          "internalType": "bytes32",
          "name": "r",
          "type": "bytes32"
        },
        {
          "internalType": "bytes32",
          "name": "s",
          "type": "bytes32"
        }
      ],
      "name": "permit",
      "outputs": [],
      "stateMutability": "nonpayable",
      "type": "function"
    },
    {
      "inputs": [
        {
          "internalType": "bytes32",
          "name": "role",
          "type": "bytes32"
        },
        {
          "internalType": "address",
          "name": "account",
          "type": "address"
        }
      ],
      "name": "renounceRole",
      "outputs": [],
      "stateMutability": "nonpayable",
      "type": "function"
    },
    {
      "inputs": [
        {
          "internalType": "bytes32",
          "name": "role",
          "type": "bytes32"
        },
        {
          "internalType": "address",
          "name": "account",
          "type": "address"
        }
      ],
      "name": "revokeRole",
      "outputs": [],
      "stateMutability": "nonpayable",
      "type": "function"
    },
    {
      "inputs": [],
      "name": "snapshot",
      "outputs": [],
      "stateMutability": "nonpayable",
      "type": "function"
    },
    {
      "inputs": [
        {
          "internalType": "bytes4",
          "name": "interfaceId",
          "type": "bytes4"
        }
      ],
      "name": "supportsInterface",
      "outputs": [
        {
          "internalType": "bool",
          "name": "",
          "type": "bool"
        }
      ],
      "stateMutability": "view",
      "type": "function"
    },
    {
      "inputs": [],
      "name": "symbol",
      "outputs": [
        {
          "internalType": "string",
          "name": "",
          "type": "string"
        }
      ],
      "stateMutability": "view",
      "type": "function"
    },
    {
      "inputs": [],
      "name": "totalSupply",
      "outputs": [
        {
          "internalType": "uint256",
          "name": "",
          "type": "uint256"
        }
      ],
      "stateMutability": "view",
      "type": "function"
    },
    {
      "inputs": [
        {
          "internalType": "uint256",
          "name": "snapshotId",
          "type": "uint256"
        }
      ],
      "name": "totalSupplyAt",
      "outputs": [
        {
          "internalType": "uint256",
          "name": "",
          "type": "uint256"
        }
      ],
      "stateMutability": "view",
      "type": "function"
    },
    {
      "inputs": [
        {
          "internalType": "address",
          "name": "to",
          "type": "address"
        },
        {
          "internalType": "uint256",
          "name": "amount",
          "type": "uint256"
        }
      ],
      "name": "transfer",
      "outputs": [
        {
          "internalType": "bool",
          "name": "",
          "type": "bool"
        }
      ],
      "stateMutability": "nonpayable",
      "type": "function"
    },
    {
      "inputs": [
        {
          "internalType": "address",
          "name": "from",
          "type": "address"
        },
        {
          "internalType": "address",
          "name": "to",
          "type": "address"
        },
        {
          "internalType": "uint256",
          "name": "amount",
          "type": "uint256"
        }
      ],
      "name": "transferFrom",
      "outputs": [
        {
          "internalType": "bool",
          "name": "",
          "type": "bool"
        }
      ],
      "stateMutability": "nonpayable",
      "type": "function"
    }
  ],
  "bytecode": "0x610140604052600f805460ff191690553480156200001c57600080fd5b5060405162004019380380620040198339810160408190526200003f91620002ed565b6040518060400160405280600b81526020016a293ab73134ba2a37b5b2b760a91b81525080604051806040016040528060018152602001603160f81b8152506040518060400160405280600b81526020016a293ab73134ba2a37b5b2b760a91b81525060405180604001604052806002815260200161292160f11b8152508160039081620000ce9190620003c4565b506004620000dd8282620003c4565b5050825160209384012082519284019290922060e08390526101008190524660a0818152604080517f8b73c3c69bb8fe3d512ecc4cf759cc79239f7b179b0ffacaa9a75d522b39400f818901819052818301979097526060810194909452608080850193909352308483018190528151808603909301835260c09485019091528151919096012090529290925261012052506200017e9050600082620001cc565b620001aa7f5fdbd35e8da83ee755d5e62a539e5ed7f47126abede0b8b10f9ea43dc6eed07f82620001cc565b620001c560008051602062003ff983398151915282620001cc565b5062000490565b600f5460ff161580620001ee575060008051602062003ff98339815191528214155b6200022e5760405162461bcd60e51b815260206004820152600c60248201526b6e6f7420616c6c6f7765642160a01b604482015260640160405180910390fd5b6200024582826200024960201b620015a91760201c565b5050565b60008281526009602090815260408083206001600160a01b038516845290915290205460ff16620002455760008281526009602090815260408083206001600160a01b03851684529091529020805460ff19166001179055620002a93390565b6001600160a01b0316816001600160a01b0316837f2f8788117e7eff1d82e926ec794901d17c78024a50270940304540a733656f0d60405160405180910390a45050565b6000602082840312156200030057600080fd5b81516001600160a01b03811681146200031857600080fd5b9392505050565b634e487b7160e01b600052604160045260246000fd5b600181811c908216806200034a57607f821691505b6020821081036200036b57634e487b7160e01b600052602260045260246000fd5b50919050565b601f821115620003bf57600081815260208120601f850160051c810160208610156200039a5750805b601f850160051c820191505b81811015620003bb57828155600101620003a6565b5050505b505050565b81516001600160401b03811115620003e057620003e06200031f565b620003f881620003f1845462000335565b8462000371565b602080601f831160018114620004305760008415620004175750858301515b600019600386901b1c1916600185901b178555620003bb565b600085815260208120601f198616915b82811015620004615788860151825594840194600190910190840162000440565b5085821015620004805787850151600019600388901b60f8161c191681555b5050505050600190811b01905550565b60805160a05160c05160e0516101005161012051613b19620004e06000396000611cea01526000611d3901526000611d1401526000611c6d01526000611c9701526000611cc10152613b196000f3fe608060405234801561001057600080fd5b50600436106102d35760003560e01c80637028e2cd116101865780639ab24eb0116100e3578063d505accf11610097578063d9d98ce411610071578063d9d98ce414610675578063dd62ed3e14610688578063f1127ed8146106ce57600080fd5b8063d505accf14610628578063d53913931461063b578063d547741f1461066257600080fd5b8063a457c2d7116100c8578063a457c2d7146105ef578063a9059cbb14610602578063c3cda5201461061557600080fd5b80639ab24eb0146105d4578063a217fddf146105e757600080fd5b80638e539e8c1161013a57806395d89b411161011f57806395d89b41146105b15780639711715a146105b9578063981b24d0146105c157600080fd5b80638e539e8c1461055857806391d148541461056b57600080fd5b806376daebe11161016b57806376daebe11461052a57806379cc6790146105325780637ecebe001461054557600080fd5b80637028e2cd146104cd57806370a08231146104f457600080fd5b80633950935111610234578063587cde1e116101e85780635cffe9de116101cd5780635cffe9de1461047f578063613255ab146104925780636fcfff45146104a557600080fd5b8063587cde1e1461040e5780635c19a95c1461046c57600080fd5b806340c10f191161021957806340c10f19146103d557806342966c68146103e85780634ee2cd7e146103fb57600080fd5b806339509351146103af5780633a46b1a8146103c257600080fd5b8063248a9ca31161028b578063313ce56711610270578063313ce567146103855780633644e5151461039457806336568abe1461039c57600080fd5b8063248a9ca31461034d5780632f2ff15d1461037057600080fd5b8063095ea7b3116102bc578063095ea7b31461031557806318160ddd1461032857806323b872dd1461033a57600080fd5b806301ffc9a7146102d857806306fdde0314610300575b600080fd5b6102eb6102e636600461347e565b610720565b60405190151581526020015b60405180910390f35b6103086107b9565b6040516102f791906134e4565b6102eb610323366004613557565b61084b565b6002545b6040519081526020016102f7565b6102eb610348366004613583565b610863565b61032c61035b3660046135c4565b60009081526009602052604090206001015490565b61038361037e3660046135dd565b610887565b005b604051601281526020016102f7565b61032c6108b1565b6103836103aa3660046135dd565b6108c0565b6102eb6103bd366004613557565b610978565b61032c6103d0366004613557565b6109c4565b6103836103e3366004613557565b610a65565b6103836103f63660046135c4565b610a99565b61032c610409366004613557565b610aa6565b61044761041c36600461360d565b73ffffffffffffffffffffffffffffffffffffffff9081166000908152600c60205260409020541690565b60405173ffffffffffffffffffffffffffffffffffffffff90911681526020016102f7565b61038361047a36600461360d565b610b19565b6102eb61048d36600461362a565b610b23565b61032c6104a036600461360d565b610d99565b6104b86104b336600461360d565b610dec565b60405163ffffffff90911681526020016102f7565b61032c7f5fdbd35e8da83ee755d5e62a539e5ed7f47126abede0b8b10f9ea43dc6eed07f81565b61032c61050236600461360d565b73ffffffffffffffffffffffffffffffffffffffff1660009081526020819052604090205490565b610383610e1b565b610383610540366004613557565b610e54565b61032c61055336600461360d565b610e69565b61032c6105663660046135c4565b610e94565b6102eb6105793660046135dd565b600091825260096020908152604080842073ffffffffffffffffffffffffffffffffffffffff93909316845291905290205460ff1690565b610308610f0a565b610383610f19565b61032c6105cf3660046135c4565b610f4b565b61032c6105e236600461360d565b610f76565b61032c600081565b6102eb6105fd366004613557565b611041565b6102eb610610366004613557565b611112565b6103836106233660046136da565b611120565b610383610636366004613734565b611297565b61032c7f9f2df0fed2c77648de5860a4cc508cd0818c85b8b8a1ab4ceeef8d981c8956a681565b6103836106703660046135dd565b611456565b61032c610683366004613557565b61147b565b61032c6106963660046137a2565b73ffffffffffffffffffffffffffffffffffffffff918216600090815260016020908152604080832093909416825291909152205490565b6106e16106dc3660046137d0565b611503565b60408051825163ffffffff1681526020928301517bffffffffffffffffffffffffffffffffffffffffffffffffffffffff1692810192909252016102f7565b60007fffffffff0000000000000000000000000000000000000000000000000000000082167f7965db0b0000000000000000000000000000000000000000000000000000000014806107b357507f01ffc9a7000000000000000000000000000000000000000000000000000000007fffffffff000000000000000000000000000000000000000000000000000000008316145b92915050565b6060600380546107c890613807565b80601f01602080910402602001604051908101604052809291908181526020018280546107f490613807565b80156108415780601f1061081657610100808354040283529160200191610841565b820191906000526020600020905b81548152906001019060200180831161082457829003601f168201915b5050505050905090565b60003361085981858561169d565b5060019392505050565b600033610871858285611850565b61087c858585611927565b506001949350505050565b6000828152600960205260409020600101546108a281611ba7565b6108ac8383611bb1565b505050565b60006108bb611c53565b905090565b73ffffffffffffffffffffffffffffffffffffffff8116331461096a576040517f08c379a000000000000000000000000000000000000000000000000000000000815260206004820152602f60248201527f416363657373436f6e74726f6c3a2063616e206f6e6c792072656e6f756e636560448201527f20726f6c657320666f722073656c66000000000000000000000000000000000060648201526084015b60405180910390fd5b6109748282611d87565b5050565b33600081815260016020908152604080832073ffffffffffffffffffffffffffffffffffffffff8716845290915281205490919061085990829086906109bf908790613883565b61169d565b6000438210610a2f576040517f08c379a000000000000000000000000000000000000000000000000000000000815260206004820152601f60248201527f4552433230566f7465733a20626c6f636b206e6f7420796574206d696e6564006044820152606401610961565b73ffffffffffffffffffffffffffffffffffffffff83166000908152600d60205260409020610a5e9083611e42565b9392505050565b7f9f2df0fed2c77648de5860a4cc508cd0818c85b8b8a1ab4ceeef8d981c8956a6610a8f81611ba7565b6108ac8383611f63565b610aa33382611f6d565b50565b73ffffffffffffffffffffffffffffffffffffffff8216600090815260056020526040812081908190610ada908590611f77565b9150915081610b0e5773ffffffffffffffffffffffffffffffffffffffff8516600090815260208190526040902054610b10565b805b95945050505050565b610aa333826120a8565b6000610b2e85610d99565b841115610bbd576040517f08c379a000000000000000000000000000000000000000000000000000000000815260206004820152602b60248201527f4552433230466c6173684d696e743a20616d6f756e742065786365656473206d60448201527f6178466c6173684c6f616e0000000000000000000000000000000000000000006064820152608401610961565b6000610bc9868661147b565b9050610bd58786611f63565b6040517f23e30c8b0000000000000000000000000000000000000000000000000000000081527f439148f0bbc682ca079e46d6e2c2f0c1e3b820f1a291b069d8882abf8cf18dd99073ffffffffffffffffffffffffffffffffffffffff8916906323e30c8b90610c539033908b908b9088908c908c90600401613896565b6020604051808303816000875af1158015610c72573d6000803e3d6000fd5b505050506040513d601f19601f82011682018060405250810190610c96919061391c565b14610d22576040517f08c379a0000000000000000000000000000000000000000000000000000000008152602060048201526024808201527f4552433230466c6173684d696e743a20696e76616c69642072657475726e207660448201527f616c7565000000000000000000000000000000000000000000000000000000006064820152608401610961565b6000610d388830610d33858a613883565b611850565b811580610d59575073ffffffffffffffffffffffffffffffffffffffff8116155b15610d7657610d7188610d6c8489613883565b611f6d565b610d8b565b610d808887611f6d565b610d8b888284611927565b506001979650505050505050565b600073ffffffffffffffffffffffffffffffffffffffff82163014610dbf5760006107b3565b6002546107b3907fffffffffffffffffffffffffffffffffffffffffffffffffffffffffffffffff613935565b73ffffffffffffffffffffffffffffffffffffffff81166000908152600d60205260408120546107b390612146565b6000610e2681611ba7565b50600f80547fffffffffffffffffffffffffffffffffffffffffffffffffffffffffffffff00166001179055565b610e5f823383611850565b6109748282611f6d565b73ffffffffffffffffffffffffffffffffffffffff81166000908152600a60205260408120546107b3565b6000438210610eff576040517f08c379a000000000000000000000000000000000000000000000000000000000815260206004820152601f60248201527f4552433230566f7465733a20626c6f636b206e6f7420796574206d696e6564006044820152606401610961565b6107b3600e83611e42565b6060600480546107c890613807565b7f5fdbd35e8da83ee755d5e62a539e5ed7f47126abede0b8b10f9ea43dc6eed07f610f4381611ba7565b6109746121e0565b6000806000610f5b846006611f77565b9150915081610f6c57600254610f6e565b805b949350505050565b73ffffffffffffffffffffffffffffffffffffffff81166000908152600d602052604081205480156110195773ffffffffffffffffffffffffffffffffffffffff83166000908152600d60205260409020610fd2600183613935565b81548110610fe257610fe2613948565b60009182526020909120015464010000000090047bffffffffffffffffffffffffffffffffffffffffffffffffffffffff1661101c565b60005b7bffffffffffffffffffffffffffffffffffffffffffffffffffffffff169392505050565b33600081815260016020908152604080832073ffffffffffffffffffffffffffffffffffffffff8716845290915281205490919083811015611105576040517f08c379a000000000000000000000000000000000000000000000000000000000815260206004820152602560248201527f45524332303a2064656372656173656420616c6c6f77616e63652062656c6f7760448201527f207a65726f0000000000000000000000000000000000000000000000000000006064820152608401610961565b61087c828686840361169d565b600033610859818585611927565b8342111561118a576040517f08c379a000000000000000000000000000000000000000000000000000000000815260206004820152601d60248201527f4552433230566f7465733a207369676e617475726520657870697265640000006044820152606401610961565b604080517fe48329057bfd03d55e49b547132e39cffd9c1820ad7b9d4c5307691425d15adf602082015273ffffffffffffffffffffffffffffffffffffffff8816918101919091526060810186905260808101859052600090611211906112099060a0016040516020818303038152906040528051906020012061223a565b8585856122a3565b905061121c816122cb565b8614611284576040517f08c379a000000000000000000000000000000000000000000000000000000000815260206004820152601960248201527f4552433230566f7465733a20696e76616c6964206e6f6e6365000000000000006044820152606401610961565b61128e81886120a8565b50505050505050565b83421115611301576040517f08c379a000000000000000000000000000000000000000000000000000000000815260206004820152601d60248201527f45524332305065726d69743a206578706972656420646561646c696e650000006044820152606401610961565b60007f6e71edae12b1b97f4d1f60370fef10105fa2faae0126114a169c64845d6126c98888886113308c6122cb565b60408051602081019690965273ffffffffffffffffffffffffffffffffffffffff94851690860152929091166060840152608083015260a082015260c0810186905260e00160405160208183030381529060405280519060200120905060006113988261223a565b905060006113a8828787876122a3565b90508973ffffffffffffffffffffffffffffffffffffffff168173ffffffffffffffffffffffffffffffffffffffff161461143f576040517f08c379a000000000000000000000000000000000000000000000000000000000815260206004820152601e60248201527f45524332305065726d69743a20696e76616c6964207369676e617475726500006044820152606401610961565b61144a8a8a8a61169d565b50505050505050505050565b60008281526009602052604090206001015461147181611ba7565b6108ac8383611d87565b600073ffffffffffffffffffffffffffffffffffffffff831630146114fc576040517f08c379a000000000000000000000000000000000000000000000000000000000815260206004820152601b60248201527f4552433230466c6173684d696e743a2077726f6e6720746f6b656e00000000006044820152606401610961565b6000610a5e565b604080518082019091526000808252602082015273ffffffffffffffffffffffffffffffffffffffff83166000908152600d60205260409020805463ffffffff841690811061155457611554613948565b60009182526020918290206040805180820190915291015463ffffffff8116825264010000000090047bffffffffffffffffffffffffffffffffffffffffffffffffffffffff16918101919091529392505050565b600082815260096020908152604080832073ffffffffffffffffffffffffffffffffffffffff8516845290915290205460ff1661097457600082815260096020908152604080832073ffffffffffffffffffffffffffffffffffffffff85168452909152902080547fffffffffffffffffffffffffffffffffffffffffffffffffffffffffffffff0016600117905561163f3390565b73ffffffffffffffffffffffffffffffffffffffff168173ffffffffffffffffffffffffffffffffffffffff16837f2f8788117e7eff1d82e926ec794901d17c78024a50270940304540a733656f0d60405160405180910390a45050565b73ffffffffffffffffffffffffffffffffffffffff831661173f576040517f08c379a0000000000000000000000000000000000000000000000000000000008152602060048201526024808201527f45524332303a20617070726f76652066726f6d20746865207a65726f2061646460448201527f72657373000000000000000000000000000000000000000000000000000000006064820152608401610961565b73ffffffffffffffffffffffffffffffffffffffff82166117e2576040517f08c379a000000000000000000000000000000000000000000000000000000000815260206004820152602260248201527f45524332303a20617070726f766520746f20746865207a65726f20616464726560448201527f73730000000000000000000000000000000000000000000000000000000000006064820152608401610961565b73ffffffffffffffffffffffffffffffffffffffff83811660008181526001602090815260408083209487168084529482529182902085905590518481527f8c5be1e5ebec7d5bd14f71427d1e84f3dd0314c0f7b2291e5b200ac8c7c3b925910160405180910390a3505050565b73ffffffffffffffffffffffffffffffffffffffff8381166000908152600160209081526040808320938616835292905220547fffffffffffffffffffffffffffffffffffffffffffffffffffffffffffffffff81146119215781811015611914576040517f08c379a000000000000000000000000000000000000000000000000000000000815260206004820152601d60248201527f45524332303a20696e73756666696369656e7420616c6c6f77616e63650000006044820152606401610961565b611921848484840361169d565b50505050565b73ffffffffffffffffffffffffffffffffffffffff83166119ca576040517f08c379a000000000000000000000000000000000000000000000000000000000815260206004820152602560248201527f45524332303a207472616e736665722066726f6d20746865207a65726f20616460448201527f64726573730000000000000000000000000000000000000000000000000000006064820152608401610961565b73ffffffffffffffffffffffffffffffffffffffff8216611a6d576040517f08c379a000000000000000000000000000000000000000000000000000000000815260206004820152602360248201527f45524332303a207472616e7366657220746f20746865207a65726f206164647260448201527f65737300000000000000000000000000000000000000000000000000000000006064820152608401610961565b611a78838383612300565b73ffffffffffffffffffffffffffffffffffffffff831660009081526020819052604090205481811015611b2e576040517f08c379a000000000000000000000000000000000000000000000000000000000815260206004820152602660248201527f45524332303a207472616e7366657220616d6f756e742065786365656473206260448201527f616c616e636500000000000000000000000000000000000000000000000000006064820152608401610961565b73ffffffffffffffffffffffffffffffffffffffff848116600081815260208181526040808320878703905593871680835291849020805487019055925185815290927fddf252ad1be2c89b69c2b068fc378daa952ba7f163c4a11628f55a4df523b3ef910160405180910390a361192184848461230b565b610aa38133612316565b600f5460ff161580611be357507f9f2df0fed2c77648de5860a4cc508cd0818c85b8b8a1ab4ceeef8d981c8956a68214155b611c49576040517f08c379a000000000000000000000000000000000000000000000000000000000815260206004820152600c60248201527f6e6f7420616c6c6f7765642100000000000000000000000000000000000000006044820152606401610961565b61097482826115a9565b60003073ffffffffffffffffffffffffffffffffffffffff7f000000000000000000000000000000000000000000000000000000000000000016148015611cb957507f000000000000000000000000000000000000000000000000000000000000000046145b15611ce357507f000000000000000000000000000000000000000000000000000000000000000090565b50604080517f00000000000000000000000000000000000000000000000000000000000000006020808301919091527f0000000000000000000000000000000000000000000000000000000000000000828401527f000000000000000000000000000000000000000000000000000000000000000060608301524660808301523060a0808401919091528351808403909101815260c0909201909252805191012090565b600082815260096020908152604080832073ffffffffffffffffffffffffffffffffffffffff8516845290915290205460ff161561097457600082815260096020908152604080832073ffffffffffffffffffffffffffffffffffffffff8516808552925280832080547fffffffffffffffffffffffffffffffffffffffffffffffffffffffffffffff0016905551339285917ff6391f5c32d9c69d2a47ea670b442974b53935d1edc7fd64eb21e047a839171b9190a45050565b815460009081816005811115611e9c576000611e5d846123d0565b611e679085613935565b600088815260209020909150869082015463ffffffff161115611e8c57809150611e9a565b611e97816001613883565b92505b505b80821015611ee9576000611eb083836124b8565b600088815260209020909150869082015463ffffffff161115611ed557809150611ee3565b611ee0816001613883565b92505b50611e9c565b8015611f3857611f0c86611efe600184613935565b600091825260209091200190565b5464010000000090047bffffffffffffffffffffffffffffffffffffffffffffffffffffffff16611f3b565b60005b7bffffffffffffffffffffffffffffffffffffffffffffffffffffffff169695505050505050565b61097482826124d3565b6109748282612599565b60008060008411611fe4576040517f08c379a000000000000000000000000000000000000000000000000000000000815260206004820152601660248201527f4552433230536e617073686f743a2069642069732030000000000000000000006044820152606401610961565b611fec6125b1565b841115612055576040517f08c379a000000000000000000000000000000000000000000000000000000000815260206004820152601d60248201527f4552433230536e617073686f743a206e6f6e6578697374656e742069640000006044820152606401610961565b600061206184866125bc565b845490915081036120795760008092509250506120a1565b600184600101828154811061209057612090613948565b906000526020600020015492509250505b9250929050565b73ffffffffffffffffffffffffffffffffffffffff8281166000818152600c60208181526040808420805485845282862054949093528787167fffffffffffffffffffffffff00000000000000000000000000000000000000008416811790915590519190951694919391928592917f3134e8a2e6d97e929a7e54011ea5485d7d196dd5f0ba4d4ef95803e8e3fc257f9190a461192182848361265b565b600063ffffffff8211156121dc576040517f08c379a000000000000000000000000000000000000000000000000000000000815260206004820152602660248201527f53616665436173743a2076616c756520646f65736e27742066697420696e203360448201527f32206269747300000000000000000000000000000000000000000000000000006064820152608401610961565b5090565b60006121f0600880546001019055565b60006121fa6125b1565b90507f8030e83b04d87bef53480e26263266d6ca66863aa8506aca6f2559d18aa1cb678160405161222d91815260200190565b60405180910390a1919050565b60006107b3612247611c53565b836040517f19010000000000000000000000000000000000000000000000000000000000006020820152602281018390526042810182905260009060620160405160208183030381529060405280519060200120905092915050565b60008060006122b487878787612800565b915091506122c1816128ef565b5095945050505050565b73ffffffffffffffffffffffffffffffffffffffff81166000908152600a602052604090208054600181018255905b50919050565b6108ac838383612aa2565b6108ac838383612b04565b600082815260096020908152604080832073ffffffffffffffffffffffffffffffffffffffff8516845290915290205460ff166109745761235681612b43565b612361836020612b62565b604051602001612372929190613977565b604080517fffffffffffffffffffffffffffffffffffffffffffffffffffffffffffffffe0818403018152908290527f08c379a0000000000000000000000000000000000000000000000000000000008252610961916004016134e4565b6000816000036123e257506000919050565b600060016123ef84612da5565b901c6001901b90506001818481612408576124086139f8565b048201901c90506001818481612420576124206139f8565b048201901c90506001818481612438576124386139f8565b048201901c90506001818481612450576124506139f8565b048201901c90506001818481612468576124686139f8565b048201901c90506001818481612480576124806139f8565b048201901c90506001818481612498576124986139f8565b048201901c9050610a5e818285816124b2576124b26139f8565b04612e39565b60006124c76002848418613a27565b610a5e90848416613883565b6124dd8282612e4f565b6002547bffffffffffffffffffffffffffffffffffffffffffffffffffffffff101561258b576040517f08c379a000000000000000000000000000000000000000000000000000000000815260206004820152603060248201527f4552433230566f7465733a20746f74616c20737570706c79207269736b73206f60448201527f766572666c6f77696e6720766f746573000000000000000000000000000000006064820152608401610961565b611921600e612f5683612f62565b6125a3828261310a565b611921600e6132e183612f62565b60006108bb60085490565b815460009081036125cf575060006107b3565b82546000905b8082101561261c5760006125e983836124b8565b6000878152602090209091508590820154111561260857809150612616565b612613816001613883565b92505b506125d5565b60008211801561263a57508361263786611efe600186613935565b54145b156126535761264a600183613935565b925050506107b3565b5090506107b3565b8173ffffffffffffffffffffffffffffffffffffffff168373ffffffffffffffffffffffffffffffffffffffff16141580156126975750600081115b156108ac5773ffffffffffffffffffffffffffffffffffffffff83161561274c5773ffffffffffffffffffffffffffffffffffffffff83166000908152600d6020526040812081906126ec906132e185612f62565b915091508473ffffffffffffffffffffffffffffffffffffffff167fdec2bacdd2f05b59de34da9b523dff8be42e5e38e818c82fdb0bae774387a7248383604051612741929190918252602082015260400190565b60405180910390a250505b73ffffffffffffffffffffffffffffffffffffffff8216156108ac5773ffffffffffffffffffffffffffffffffffffffff82166000908152600d60205260408120819061279c90612f5685612f62565b915091508373ffffffffffffffffffffffffffffffffffffffff167fdec2bacdd2f05b59de34da9b523dff8be42e5e38e818c82fdb0bae774387a72483836040516127f1929190918252602082015260400190565b60405180910390a25050505050565b6000807f7fffffffffffffffffffffffffffffff5d576e7357a4501ddfe92f46681b20a083111561283757506000905060036128e6565b6040805160008082526020820180845289905260ff881692820192909252606081018690526080810185905260019060a0016020604051602081039080840390855afa15801561288b573d6000803e3d6000fd5b50506040517fffffffffffffffffffffffffffffffffffffffffffffffffffffffffffffffe0015191505073ffffffffffffffffffffffffffffffffffffffff81166128df576000600192509250506128e6565b9150600090505b94509492505050565b600081600481111561290357612903613a62565b0361290b5750565b600181600481111561291f5761291f613a62565b03612986576040517f08c379a000000000000000000000000000000000000000000000000000000000815260206004820152601860248201527f45434453413a20696e76616c6964207369676e617475726500000000000000006044820152606401610961565b600281600481111561299a5761299a613a62565b03612a01576040517f08c379a000000000000000000000000000000000000000000000000000000000815260206004820152601f60248201527f45434453413a20696e76616c6964207369676e6174757265206c656e677468006044820152606401610961565b6003816004811115612a1557612a15613a62565b03610aa3576040517f08c379a000000000000000000000000000000000000000000000000000000000815260206004820152602260248201527f45434453413a20696e76616c6964207369676e6174757265202773272076616c60448201527f75650000000000000000000000000000000000000000000000000000000000006064820152608401610961565b73ffffffffffffffffffffffffffffffffffffffff8316612ace57612ac6826132ed565b6108ac61332c565b73ffffffffffffffffffffffffffffffffffffffff8216612af257612ac6836132ed565b612afb836132ed565b6108ac826132ed565b73ffffffffffffffffffffffffffffffffffffffff8381166000908152600c60205260408082205485841683529120546108ac9291821691168361265b565b60606107b373ffffffffffffffffffffffffffffffffffffffff831660145b60606000612b71836002613a91565b612b7c906002613883565b67ffffffffffffffff811115612b9457612b94613aa8565b6040519080825280601f01601f191660200182016040528015612bbe576020820181803683370190505b5090507f300000000000000000000000000000000000000000000000000000000000000081600081518110612bf557612bf5613948565b60200101907effffffffffffffffffffffffffffffffffffffffffffffffffffffffffffff1916908160001a9053507f780000000000000000000000000000000000000000000000000000000000000081600181518110612c5857612c58613948565b60200101907effffffffffffffffffffffffffffffffffffffffffffffffffffffffffffff1916908160001a9053506000612c94846002613a91565b612c9f906001613883565b90505b6001811115612d3c577f303132333435363738396162636465660000000000000000000000000000000085600f1660108110612ce057612ce0613948565b1a60f81b828281518110612cf657612cf6613948565b60200101907effffffffffffffffffffffffffffffffffffffffffffffffffffffffffffff1916908160001a90535060049490941c93612d3581613ad7565b9050612ca2565b508315610a5e576040517f08c379a000000000000000000000000000000000000000000000000000000000815260206004820181905260248201527f537472696e67733a20686578206c656e67746820696e73756666696369656e746044820152606401610961565b600080608083901c15612dba57608092831c92015b604083901c15612dcc57604092831c92015b602083901c15612dde57602092831c92015b601083901c15612df057601092831c92015b600883901c15612e0257600892831c92015b600483901c15612e1457600492831c92015b600283901c15612e2657600292831c92015b600183901c156107b35760010192915050565b6000818310612e485781610a5e565b5090919050565b73ffffffffffffffffffffffffffffffffffffffff8216612ecc576040517f08c379a000000000000000000000000000000000000000000000000000000000815260206004820152601f60248201527f45524332303a206d696e7420746f20746865207a65726f2061646472657373006044820152606401610961565b612ed860008383612300565b8060026000828254612eea9190613883565b909155505073ffffffffffffffffffffffffffffffffffffffff8216600081815260208181526040808320805486019055518481527fddf252ad1be2c89b69c2b068fc378daa952ba7f163c4a11628f55a4df523b3ef910160405180910390a36109746000838361230b565b6000610a5e8284613883565b82546000908190818115612fc457612f7f87611efe600185613935565b60408051808201909152905463ffffffff8116825264010000000090047bffffffffffffffffffffffffffffffffffffffffffffffffffffffff166020820152612fd9565b60408051808201909152600080825260208201525b905080602001517bffffffffffffffffffffffffffffffffffffffffffffffffffffffff16935061300e84868863ffffffff16565b92506000821180156130265750805163ffffffff1643145b15613080576130348361333c565b61304388611efe600186613935565b80547bffffffffffffffffffffffffffffffffffffffffffffffffffffffff929092166401000000000263ffffffff909216919091179055613100565b86604051806040016040528061309543612146565b63ffffffff1681526020016130a98661333c565b7bffffffffffffffffffffffffffffffffffffffffffffffffffffffff90811690915282546001810184556000938452602093849020835194909301519091166401000000000263ffffffff909316929092179101555b5050935093915050565b73ffffffffffffffffffffffffffffffffffffffff82166131ad576040517f08c379a000000000000000000000000000000000000000000000000000000000815260206004820152602160248201527f45524332303a206275726e2066726f6d20746865207a65726f2061646472657360448201527f73000000000000000000000000000000000000000000000000000000000000006064820152608401610961565b6131b982600083612300565b73ffffffffffffffffffffffffffffffffffffffff82166000908152602081905260409020548181101561326f576040517f08c379a000000000000000000000000000000000000000000000000000000000815260206004820152602260248201527f45524332303a206275726e20616d6f756e7420657863656564732062616c616e60448201527f63650000000000000000000000000000000000000000000000000000000000006064820152608401610961565b73ffffffffffffffffffffffffffffffffffffffff83166000818152602081815260408083208686039055600280548790039055518581529192917fddf252ad1be2c89b69c2b068fc378daa952ba7f163c4a11628f55a4df523b3ef910160405180910390a36108ac8360008461230b565b6000610a5e8284613935565b73ffffffffffffffffffffffffffffffffffffffff811660009081526005602090815260408083209183905290912054610aa391906133ea565b6133ea565b61333a600661332760025490565b565b60007bffffffffffffffffffffffffffffffffffffffffffffffffffffffff8211156121dc576040517f08c379a000000000000000000000000000000000000000000000000000000000815260206004820152602760248201527f53616665436173743a2076616c756520646f65736e27742066697420696e203260448201527f32342062697473000000000000000000000000000000000000000000000000006064820152608401610961565b60006133f46125b1565b90508061340084613434565b10156108ac578254600180820185556000858152602080822090930193909355938401805494850181558252902090910155565b8054600090810361344757506000919050565b8154829061345790600190613935565b8154811061346757613467613948565b90600052602060002001549050919050565b919050565b60006020828403121561349057600080fd5b81357fffffffff0000000000000000000000000000000000000000000000000000000081168114610a5e57600080fd5b60005b838110156134db5781810151838201526020016134c3565b50506000910152565b60208152600082518060208401526135038160408501602087016134c0565b601f017fffffffffffffffffffffffffffffffffffffffffffffffffffffffffffffffe0169190910160400192915050565b73ffffffffffffffffffffffffffffffffffffffff81168114610aa357600080fd5b6000806040838503121561356a57600080fd5b823561357581613535565b946020939093013593505050565b60008060006060848603121561359857600080fd5b83356135a381613535565b925060208401356135b381613535565b929592945050506040919091013590565b6000602082840312156135d657600080fd5b5035919050565b600080604083850312156135f057600080fd5b82359150602083013561360281613535565b809150509250929050565b60006020828403121561361f57600080fd5b8135610a5e81613535565b60008060008060006080868803121561364257600080fd5b853561364d81613535565b9450602086013561365d81613535565b935060408601359250606086013567ffffffffffffffff8082111561368157600080fd5b818801915088601f83011261369557600080fd5b8135818111156136a457600080fd5b8960208285010111156136b657600080fd5b9699959850939650602001949392505050565b803560ff8116811461347957600080fd5b60008060008060008060c087890312156136f357600080fd5b86356136fe81613535565b9550602087013594506040870135935061371a606088016136c9565b92506080870135915060a087013590509295509295509295565b600080600080600080600060e0888a03121561374f57600080fd5b873561375a81613535565b9650602088013561376a81613535565b95506040880135945060608801359350613786608089016136c9565b925060a0880135915060c0880135905092959891949750929550565b600080604083850312156137b557600080fd5b82356137c081613535565b9150602083013561360281613535565b600080604083850312156137e357600080fd5b82356137ee81613535565b9150602083013563ffffffff8116811461360257600080fd5b600181811c9082168061381b57607f821691505b6020821081036122fa577f4e487b7100000000000000000000000000000000000000000000000000000000600052602260045260246000fd5b7f4e487b7100000000000000000000000000000000000000000000000000000000600052601160045260246000fd5b808201808211156107b3576107b3613854565b600073ffffffffffffffffffffffffffffffffffffffff808916835280881660208401525085604083015284606083015260a060808301528260a0830152828460c0840137600060c0848401015260c07fffffffffffffffffffffffffffffffffffffffffffffffffffffffffffffffe0601f8501168301019050979650505050505050565b60006020828403121561392e57600080fd5b5051919050565b818103818111156107b3576107b3613854565b7f4e487b7100000000000000000000000000000000000000000000000000000000600052603260045260246000fd5b7f416363657373436f6e74726f6c3a206163636f756e74200000000000000000008152600083516139af8160178501602088016134c0565b7f206973206d697373696e6720726f6c652000000000000000000000000000000060179184019182015283516139ec8160288401602088016134c0565b01602801949350505050565b7f4e487b7100000000000000000000000000000000000000000000000000000000600052601260045260246000fd5b600082613a5d577f4e487b7100000000000000000000000000000000000000000000000000000000600052601260045260246000fd5b500490565b7f4e487b7100000000000000000000000000000000000000000000000000000000600052602160045260246000fd5b80820281158282048414176107b3576107b3613854565b7f4e487b7100000000000000000000000000000000000000000000000000000000600052604160045260246000fd5b600081613ae657613ae6613854565b507fffffffffffffffffffffffffffffffffffffffffffffffffffffffffffffffff019056fea164736f6c6343000811000a9f2df0fed2c77648de5860a4cc508cd0818c85b8b8a1ab4ceeef8d981c8956a6",
  "linkReferences": {},
  "deployedLinkReferences": {}
}