{
  "_format": "hh-sol-artifact-1",
  "contractName": "RefStore",
  "sourceName": "contracts/RefStore.sol",
  "abi": [
    {
      "inputs": [
        {
          "internalType": "address",
          "name": "admin",
          "type": "address"
        }
      ],
      "stateMutability": "nonpayable",
      "type": "constructor"
    },
    {
      "anonymous": false,
      "inputs": [
        {
          "indexed": true,
          "internalType": "address",
          "name": "to",
          "type": "address"
        },
        {
          "indexed": false,
          "internalType": "address",
          "name": "from",
          "type": "address"
        }
      ],
      "name": "ReferrerAdded",
      "type": "event"
    },
    {
      "anonymous": false,
      "inputs": [
        {
          "indexed": true,
          "internalType": "bytes32",
          "name": "role",
          "type": "bytes32"
        },
        {
          "indexed": true,
          "internalType": "bytes32",
          "name": "previousAdminRole",
          "type": "bytes32"
        },
        {
          "indexed": true,
          "internalType": "bytes32",
          "name": "newAdminRole",
          "type": "bytes32"
        }
      ],
      "name": "RoleAdminChanged",
      "type": "event"
    },
    {
      "anonymous": false,
      "inputs": [
        {
          "indexed": true,
          "internalType": "bytes32",
          "name": "role",
          "type": "bytes32"
        },
        {
          "indexed": true,
          "internalType": "address",
          "name": "account",
          "type": "address"
        },
        {
          "indexed": true,
          "internalType": "address",
          "name": "sender",
          "type": "address"
        }
      ],
      "name": "RoleGranted",
      "type": "event"
    },
    {
      "anonymous": false,
      "inputs": [
        {
          "indexed": true,
          "internalType": "bytes32",
          "name": "role",
          "type": "bytes32"
        },
        {
          "indexed": true,
          "internalType": "address",
          "name": "account",
          "type": "address"
        },
        {
          "indexed": true,
          "internalType": "address",
          "name": "sender",
          "type": "address"
        }
      ],
      "name": "RoleRevoked",
      "type": "event"
    },
    {
      "inputs": [],
      "name": "APPEND_ROLE",
      "outputs": [
        {
          "internalType": "bytes32",
          "name": "",
          "type": "bytes32"
        }
      ],
      "stateMutability": "view",
      "type": "function"
    },
    {
      "inputs": [],
      "name": "DEFAULT_ADMIN_ROLE",
      "outputs": [
        {
          "internalType": "bytes32",
          "name": "",
          "type": "bytes32"
        }
      ],
      "stateMutability": "view",
      "type": "function"
    },
    {
      "inputs": [
        {
          "internalType": "address",
          "name": "from",
          "type": "address"
        },
        {
          "internalType": "address",
          "name": "to",
          "type": "address"
        }
      ],
      "name": "addReferrer",
      "outputs": [],
      "stateMutability": "nonpayable",
      "type": "function"
    },
    {
      "inputs": [
        {
          "internalType": "address",
          "name": "to",
          "type": "address"
        }
      ],
      "name": "addReferrerWithCheck",
      "outputs": [],
      "stateMutability": "nonpayable",
      "type": "function"
    },
    {
      "inputs": [],
      "name": "close",
      "outputs": [],
      "stateMutability": "nonpayable",
      "type": "function"
    },
    {
      "inputs": [
        {
          "internalType": "address",
          "name": "from",
          "type": "address"
        },
        {
          "internalType": "address",
          "name": "to",
          "type": "address"
        }
      ],
      "name": "forceSetReferrer",
      "outputs": [],
      "stateMutability": "nonpayable",
      "type": "function"
    },
    {
      "inputs": [
        {
          "internalType": "bytes32",
          "name": "role",
          "type": "bytes32"
        }
      ],
      "name": "getRoleAdmin",
      "outputs": [
        {
          "internalType": "bytes32",
          "name": "",
          "type": "bytes32"
        }
      ],
      "stateMutability": "view",
      "type": "function"
    },
    {
      "inputs": [
        {
          "internalType": "bytes32",
          "name": "role",
          "type": "bytes32"
        },
        {
          "internalType": "address",
          "name": "account",
          "type": "address"
        }
      ],
      "name": "grantRole",
      "outputs": [],
      "stateMutability": "nonpayable",
      "type": "function"
    },
    {
      "inputs": [
        {
          "internalType": "bytes32",
          "name": "role",
          "type": "bytes32"
        },
        {
          "internalType": "address",
          "name": "account",
          "type": "address"
        }
      ],
      "name": "hasRole",
      "outputs": [
        {
          "internalType": "bool",
          "name": "",
          "type": "bool"
        }
      ],
      "stateMutability": "view",
      "type": "function"
    },
    {
      "inputs": [],
      "name": "open",
      "outputs": [],
      "stateMutability": "nonpayable",
      "type": "function"
    },
    {
      "inputs": [
        {
          "internalType": "address",
          "name": "",
          "type": "address"
        }
      ],
      "name": "referrer",
      "outputs": [
        {
          "internalType": "address",
          "name": "",
          "type": "address"
        }
      ],
      "stateMutability": "view",
      "type": "function"
    },
    {
      "inputs": [
        {
          "internalType": "bytes32",
          "name": "role",
          "type": "bytes32"
        },
        {
          "internalType": "address",
          "name": "account",
          "type": "address"
        }
      ],
      "name": "renounceRole",
      "outputs": [],
      "stateMutability": "nonpayable",
      "type": "function"
    },
    {
      "inputs": [
        {
          "internalType": "bytes32",
          "name": "role",
          "type": "bytes32"
        },
        {
          "internalType": "address",
          "name": "account",
          "type": "address"
        }
      ],
      "name": "revokeRole",
      "outputs": [],
      "stateMutability": "nonpayable",
      "type": "function"
    },
    {
      "inputs": [
        {
          "internalType": "bytes4",
          "name": "interfaceId",
          "type": "bytes4"
        }
      ],
      "name": "supportsInterface",
      "outputs": [
        {
          "internalType": "bool",
          "name": "",
          "type": "bool"
        }
      ],
      "stateMutability": "view",
      "type": "function"
    }
  ],
  "bytecode": "0x60806040526001805463ffffffff19168117905534801561001f57600080fd5b5060405161121438038061121483398101604081905261003e91610118565b610049600082610079565b6100737f41c2a7053c9d1b0cc578f0260bae3004cf132c452f5e2f14105d4f567c48cc7d82610079565b50610148565b6000828152602081815260408083206001600160a01b038516845290915290205460ff16610114576000828152602081815260408083206001600160a01b03851684529091529020805460ff191660011790556100d33390565b6001600160a01b0316816001600160a01b0316837f2f8788117e7eff1d82e926ec794901d17c78024a50270940304540a733656f0d60405160405180910390a45b5050565b60006020828403121561012a57600080fd5b81516001600160a01b038116811461014157600080fd5b9392505050565b6110bd806101576000396000f3fe608060405234801561001057600080fd5b50600436106100ea5760003560e01c806391d148541161008c578063b94265b811610066578063b94265b814610259578063d547741f1461026c578063eeca5e2f1461027f578063fcfff16f1461029257600080fd5b806391d14854146101e6578063a217fddf1461022a578063b8ba44bb1461023257600080fd5b80632f2ff15d116100c85780632f2ff15d146101a357806336568abe146101b857806343d726d6146101cb57806368a414b3146101d357600080fd5b806301ffc9a7146100ef578063248a9ca3146101175780632cf003c214610148575b600080fd5b6101026100fd366004610dd9565b61029a565b60405190151581526020015b60405180910390f35b61013a610125366004610e1b565b60009081526020819052604090206001015490565b60405190815260200161010e565b61017e610156366004610e5d565b60026020526000908152604090205473ffffffffffffffffffffffffffffffffffffffff1681565b60405173ffffffffffffffffffffffffffffffffffffffff909116815260200161010e565b6101b66101b1366004610e78565b610333565b005b6101b66101c6366004610e78565b61035d565b6101b6610415565b6101b66101e1366004610ea4565b61044b565b6101026101f4366004610e78565b60009182526020828152604080842073ffffffffffffffffffffffffffffffffffffffff93909316845291905290205460ff1690565b61013a600081565b61013a7f41c2a7053c9d1b0cc578f0260bae3004cf132c452f5e2f14105d4f567c48cc7d81565b6101b6610267366004610ea4565b6104e1565b6101b661027a366004610e78565b610692565b6101b661028d366004610e5d565b6106b7565b6101b66108cc565b60007fffffffff0000000000000000000000000000000000000000000000000000000082167f7965db0b00000000000000000000000000000000000000000000000000000000148061032d57507f01ffc9a7000000000000000000000000000000000000000000000000000000007fffffffff000000000000000000000000000000000000000000000000000000008316145b92915050565b60008281526020819052604090206001015461034e81610904565b6103588383610911565b505050565b73ffffffffffffffffffffffffffffffffffffffff81163314610407576040517f08c379a000000000000000000000000000000000000000000000000000000000815260206004820152602f60248201527f416363657373436f6e74726f6c3a2063616e206f6e6c792072656e6f756e636560448201527f20726f6c657320666f722073656c66000000000000000000000000000000000060648201526084015b60405180910390fd5b6104118282610a01565b5050565b600061042081610904565b50600180547fffffffffffffffffffffffffffffffffffffffffffffffffffffffff00000000169055565b600061045681610904565b73ffffffffffffffffffffffffffffffffffffffff83811660008181526002602090815260409182902080547fffffffffffffffffffffffff000000000000000000000000000000000000000016948716948517905590519182527fec49a3c8c4ae06c18160fe86119c381c9d213ac3e052ff35b594da8687b193c7910160405180910390a2505050565b73ffffffffffffffffffffffffffffffffffffffff8281166000908152600260205260409020541615610570576040517f08c379a000000000000000000000000000000000000000000000000000000000815260206004820152600c60248201527f616c72656461792061646421000000000000000000000000000000000000000060448201526064016103fe565b3360009081527f66e0ca07a09b427df24c3ac363d654b0b184275173068b890496222c9c7b0763602052604090205460ff16610608576040517f08c379a000000000000000000000000000000000000000000000000000000000815260206004820152600e60248201527f6163636573732064656e6965642100000000000000000000000000000000000060448201526064016103fe565b73ffffffffffffffffffffffffffffffffffffffff82811660008181526002602090815260409182902080547fffffffffffffffffffffffff000000000000000000000000000000000000000016948616948517905590519182527fec49a3c8c4ae06c18160fe86119c381c9d213ac3e052ff35b594da8687b193c7910160405180910390a25050565b6000828152602081905260409020600101546106ad81610904565b6103588383610a01565b6001805463ffffffff1614610728576040517f08c379a000000000000000000000000000000000000000000000000000000000815260206004820152600e60248201527f6163636573732064656e6965642100000000000000000000000000000000000060448201526064016103fe565b3360009081526002602052604090205473ffffffffffffffffffffffffffffffffffffffff16156107b5576040517f08c379a000000000000000000000000000000000000000000000000000000000815260206004820152600c60248201527f616c72656461792061646421000000000000000000000000000000000000000060448201526064016103fe565b73ffffffffffffffffffffffffffffffffffffffff81811660009081526002602052604090205416610843576040517f08c379a000000000000000000000000000000000000000000000000000000000815260206004820152600b60248201527f696e76616c696420746f2100000000000000000000000000000000000000000060448201526064016103fe565b3360008181526002602090815260409182902080547fffffffffffffffffffffffff00000000000000000000000000000000000000001673ffffffffffffffffffffffffffffffffffffffff8616908117909155915192835290917fec49a3c8c4ae06c18160fe86119c381c9d213ac3e052ff35b594da8687b193c7910160405180910390a250565b60006108d781610904565b50600180547fffffffffffffffffffffffffffffffffffffffffffffffffffffffff000000001681179055565b61090e8133610ab8565b50565b60008281526020818152604080832073ffffffffffffffffffffffffffffffffffffffff8516845290915290205460ff166104115760008281526020818152604080832073ffffffffffffffffffffffffffffffffffffffff85168452909152902080547fffffffffffffffffffffffffffffffffffffffffffffffffffffffffffffff001660011790556109a33390565b73ffffffffffffffffffffffffffffffffffffffff168173ffffffffffffffffffffffffffffffffffffffff16837f2f8788117e7eff1d82e926ec794901d17c78024a50270940304540a733656f0d60405160405180910390a45050565b60008281526020818152604080832073ffffffffffffffffffffffffffffffffffffffff8516845290915290205460ff16156104115760008281526020818152604080832073ffffffffffffffffffffffffffffffffffffffff8516808552925280832080547fffffffffffffffffffffffffffffffffffffffffffffffffffffffffffffff0016905551339285917ff6391f5c32d9c69d2a47ea670b442974b53935d1edc7fd64eb21e047a839171b9190a45050565b60008281526020818152604080832073ffffffffffffffffffffffffffffffffffffffff8516845290915290205460ff1661041157610af681610b70565b610b01836020610b8f565b604051602001610b12929190610ef2565b604080517fffffffffffffffffffffffffffffffffffffffffffffffffffffffffffffffe0818403018152908290527f08c379a00000000000000000000000000000000000000000000000000000000082526103fe91600401610f73565b606061032d73ffffffffffffffffffffffffffffffffffffffff831660145b60606000610b9e836002610ff3565b610ba990600261100a565b67ffffffffffffffff811115610bc157610bc161101d565b6040519080825280601f01601f191660200182016040528015610beb576020820181803683370190505b5090507f300000000000000000000000000000000000000000000000000000000000000081600081518110610c2257610c2261104c565b60200101907effffffffffffffffffffffffffffffffffffffffffffffffffffffffffffff1916908160001a9053507f780000000000000000000000000000000000000000000000000000000000000081600181518110610c8557610c8561104c565b60200101907effffffffffffffffffffffffffffffffffffffffffffffffffffffffffffff1916908160001a9053506000610cc1846002610ff3565b610ccc90600161100a565b90505b6001811115610d69577f303132333435363738396162636465660000000000000000000000000000000085600f1660108110610d0d57610d0d61104c565b1a60f81b828281518110610d2357610d2361104c565b60200101907effffffffffffffffffffffffffffffffffffffffffffffffffffffffffffff1916908160001a90535060049490941c93610d628161107b565b9050610ccf565b508315610dd2576040517f08c379a000000000000000000000000000000000000000000000000000000000815260206004820181905260248201527f537472696e67733a20686578206c656e67746820696e73756666696369656e7460448201526064016103fe565b9392505050565b600060208284031215610deb57600080fd5b81357fffffffff0000000000000000000000000000000000000000000000000000000081168114610dd257600080fd5b600060208284031215610e2d57600080fd5b5035919050565b803573ffffffffffffffffffffffffffffffffffffffff81168114610e5857600080fd5b919050565b600060208284031215610e6f57600080fd5b610dd282610e34565b60008060408385031215610e8b57600080fd5b82359150610e9b60208401610e34565b90509250929050565b60008060408385031215610eb757600080fd5b610ec083610e34565b9150610e9b60208401610e34565b60005b83811015610ee9578181015183820152602001610ed1565b50506000910152565b7f416363657373436f6e74726f6c3a206163636f756e7420000000000000000000815260008351610f2a816017850160208801610ece565b7f206973206d697373696e6720726f6c65200000000000000000000000000000006017918401918201528351610f67816028840160208801610ece565b01602801949350505050565b6020815260008251806020840152610f92816040850160208701610ece565b601f017fffffffffffffffffffffffffffffffffffffffffffffffffffffffffffffffe0169190910160400192915050565b7f4e487b7100000000000000000000000000000000000000000000000000000000600052601160045260246000fd5b808202811582820484141761032d5761032d610fc4565b8082018082111561032d5761032d610fc4565b7f4e487b7100000000000000000000000000000000000000000000000000000000600052604160045260246000fd5b7f4e487b7100000000000000000000000000000000000000000000000000000000600052603260045260246000fd5b60008161108a5761108a610fc4565b507fffffffffffffffffffffffffffffffffffffffffffffffffffffffffffffffff019056fea164736f6c6343000811000a",
  "linkReferences": {},
  "deployedLinkReferences": {}
}