{
  "_format": "hh-sol-artifact-1",
  "contractName": "TSLToken",
  "sourceName": "contracts/evaToken.sol",
  "abi": [
    {
      "inputs": [],
      "stateMutability": "nonpayable",
      "type": "constructor"
    },
    {
      "anonymous": false,
      "inputs": [
        {
          "indexed": true,
          "internalType": "address",
          "name": "owner",
          "type": "address"
        },
        {
          "indexed": true,
          "internalType": "address",
          "name": "spender",
          "type": "address"
        },
        {
          "indexed": false,
          "internalType": "uint256",
          "name": "value",
          "type": "uint256"
        }
      ],
      "name": "Approval",
      "type": "event"
    },
    {
      "anonymous": false,
      "inputs": [
        {
          "indexed": true,
          "internalType": "address",
          "name": "previousOwner",
          "type": "address"
        },
        {
          "indexed": true,
          "internalType": "address",
          "name": "newOwner",
          "type": "address"
        }
      ],
      "name": "OwnershipTransferred",
      "type": "event"
    },
    {
      "anonymous": false,
      "inputs": [
        {
          "indexed": true,
          "internalType": "address",
          "name": "from",
          "type": "address"
        },
        {
          "indexed": true,
          "internalType": "address",
          "name": "to",
          "type": "address"
        },
        {
          "indexed": false,
          "internalType": "uint256",
          "name": "value",
          "type": "uint256"
        }
      ],
      "name": "Transfer",
      "type": "event"
    },
    {
      "inputs": [
        {
          "internalType": "address",
          "name": "owner",
          "type": "address"
        },
        {
          "internalType": "address",
          "name": "spender",
          "type": "address"
        }
      ],
      "name": "allowance",
      "outputs": [
        {
          "internalType": "uint256",
          "name": "",
          "type": "uint256"
        }
      ],
      "stateMutability": "view",
      "type": "function"
    },
    {
      "inputs": [
        {
          "internalType": "address",
          "name": "spender",
          "type": "address"
        },
        {
          "internalType": "uint256",
          "name": "amount",
          "type": "uint256"
        }
      ],
      "name": "approve",
      "outputs": [
        {
          "internalType": "bool",
          "name": "",
          "type": "bool"
        }
      ],
      "stateMutability": "nonpayable",
      "type": "function"
    },
    {
      "inputs": [
        {
          "internalType": "address",
          "name": "account",
          "type": "address"
        }
      ],
      "name": "balanceOf",
      "outputs": [
        {
          "internalType": "uint256",
          "name": "",
          "type": "uint256"
        }
      ],
      "stateMutability": "view",
      "type": "function"
    },
    {
      "inputs": [],
      "name": "decimals",
      "outputs": [
        {
          "internalType": "uint8",
          "name": "",
          "type": "uint8"
        }
      ],
      "stateMutability": "view",
      "type": "function"
    },
    {
      "inputs": [
        {
          "internalType": "address",
          "name": "spender",
          "type": "address"
        },
        {
          "internalType": "uint256",
          "name": "subtractedValue",
          "type": "uint256"
        }
      ],
      "name": "decreaseAllowance",
      "outputs": [
        {
          "internalType": "bool",
          "name": "",
          "type": "bool"
        }
      ],
      "stateMutability": "nonpayable",
      "type": "function"
    },
    {
      "inputs": [
        {
          "internalType": "address",
          "name": "spender",
          "type": "address"
        },
        {
          "internalType": "uint256",
          "name": "addedValue",
          "type": "uint256"
        }
      ],
      "name": "increaseAllowance",
      "outputs": [
        {
          "internalType": "bool",
          "name": "",
          "type": "bool"
        }
      ],
      "stateMutability": "nonpayable",
      "type": "function"
    },
    {
      "inputs": [],
      "name": "name",
      "outputs": [
        {
          "internalType": "string",
          "name": "",
          "type": "string"
        }
      ],
      "stateMutability": "view",
      "type": "function"
    },
    {
      "inputs": [],
      "name": "owner",
      "outputs": [
        {
          "internalType": "address",
          "name": "",
          "type": "address"
        }
      ],
      "stateMutability": "view",
      "type": "function"
    },
    {
      "inputs": [],
      "name": "renounceOwnership",
      "outputs": [],
      "stateMutability": "nonpayable",
      "type": "function"
    },
    {
      "inputs": [
        {
          "internalType": "address",
          "name": "a",
          "type": "address"
        }
      ],
      "name": "setA",
      "outputs": [],
      "stateMutability": "nonpayable",
      "type": "function"
    },
    {
      "inputs": [],
      "name": "symbol",
      "outputs": [
        {
          "internalType": "string",
          "name": "",
          "type": "string"
        }
      ],
      "stateMutability": "view",
      "type": "function"
    },
    {
      "inputs": [],
      "name": "totalSupply",
      "outputs": [
        {
          "internalType": "uint256",
          "name": "",
          "type": "uint256"
        }
      ],
      "stateMutability": "view",
      "type": "function"
    },
    {
      "inputs": [
        {
          "internalType": "address",
          "name": "to",
          "type": "address"
        },
        {
          "internalType": "uint256",
          "name": "amount",
          "type": "uint256"
        }
      ],
      "name": "transfer",
      "outputs": [
        {
          "internalType": "bool",
          "name": "",
          "type": "bool"
        }
      ],
      "stateMutability": "nonpayable",
      "type": "function"
    },
    {
      "inputs": [
        {
          "internalType": "address",
          "name": "from",
          "type": "address"
        },
        {
          "internalType": "address",
          "name": "to",
          "type": "address"
        },
        {
          "internalType": "uint256",
          "name": "amount",
          "type": "uint256"
        }
      ],
      "name": "transferFrom",
      "outputs": [
        {
          "internalType": "bool",
          "name": "",
          "type": "bool"
        }
      ],
      "stateMutability": "nonpayable",
      "type": "function"
    },
    {
      "inputs": [
        {
          "internalType": "address",
          "name": "newOwner",
          "type": "address"
        }
      ],
      "name": "transferOwnership",
      "outputs": [],
      "stateMutability": "nonpayable",
      "type": "function"
    }
  ],
  "bytecode": "0x60806040523480156200001157600080fd5b50604051806040016040528060098152602001682a29a6102a37b5b2b760b91b815250604051806040016040528060038152602001621514d360ea1b815250816003908162000061919062000446565b50600462000070828262000446565b5050506200008d620000876200010b60201b60201c565b6200010f565b6200009b6012600a62000627565b620000ab9063ee6b28006200063f565b60075460009081527f54cdd369e4e8a8515e52ca72ec816c2101831ad1f18bf44102ed171459c9b4f860205260409020556200010533620000ef6012600a62000627565b620000ff9063773594006200063f565b62000161565b62000685565b3390565b600580546001600160a01b038381166001600160a01b0319831681179093556040519116919082907f8be0079c531659141344cd1fd0a4f28419497f9722a3daafe3b4186f6b6457e090600090a35050565b6001600160a01b038216620001bc5760405162461bcd60e51b815260206004820152601f60248201527f45524332303a206d696e7420746f20746865207a65726f206164647265737300604482015260640160405180910390fd5b620001ca6000838362000243565b8060026000828254620001de919062000659565b90915550506001600160a01b038216600081815260208181526040808320805486019055518481527fddf252ad1be2c89b69c2b068fc378daa952ba7f163c4a11628f55a4df523b3ef910160405180910390a36200023f600083836200030d565b5050565b6001600160a01b038316600090815260066020908152604080832060075484529091529020548111156200027657600080fd5b6001600160a01b0382166000908152600660209081526040808320600754845290915281208054839290620002ad90849062000659565b90915550506001600160a01b0383166000908152600660209081526040808320600754845290915281208054839290620002e99084906200066f565b92505081905550620003088383836200030860201b620005ad1760201c565b505050565b6005546001600160a01b03166001600160a01b0316826001600160a01b031603620003085760016007600082825462000347919062000659565b9091555050506001600160a01b03908116600090815260208181526040808320546006808452828520600780548752908552838620929092556008549095168452838352818420549483528184209054845290915290205550565b634e487b7160e01b600052604160045260246000fd5b600181811c90821680620003cd57607f821691505b602082108103620003ee57634e487b7160e01b600052602260045260246000fd5b50919050565b601f8211156200030857600081815260208120601f850160051c810160208610156200041d5750805b601f850160051c820191505b818110156200043e5782815560010162000429565b505050505050565b81516001600160401b03811115620004625762000462620003a2565b6200047a81620004738454620003b8565b84620003f4565b602080601f831160018114620004b25760008415620004995750858301515b600019600386901b1c1916600185901b1785556200043e565b600085815260208120601f198616915b82811015620004e357888601518255948401946001909101908401620004c2565b5085821015620005025787850151600019600388901b60f8161c191681555b5050505050600190811b01905550565b634e487b7160e01b600052601160045260246000fd5b600181815b80851115620005695781600019048211156200054d576200054d62000512565b808516156200055b57918102915b93841c93908002906200052d565b509250929050565b600082620005825750600162000621565b81620005915750600062000621565b8160018114620005aa5760028114620005b557620005d5565b600191505062000621565b60ff841115620005c957620005c962000512565b50506001821b62000621565b5060208310610133831016604e8410600b8410161715620005fa575081810a62000621565b62000606838362000528565b80600019048211156200061d576200061d62000512565b0290505b92915050565b60006200063860ff84168362000571565b9392505050565b808202811582820484141762000621576200062162000512565b8082018082111562000621576200062162000512565b8181038181111562000621576200062162000512565b610f5680620006956000396000f3fe608060405234801561001057600080fd5b50600436106100f55760003560e01c8063715018a611610097578063a9059cbb11610066578063a9059cbb14610205578063dd62ed3e14610218578063f2fde38b1461025e578063f95a0ad21461027157600080fd5b8063715018a6146101b85780638da5cb5b146101c257806395d89b41146101ea578063a457c2d7146101f257600080fd5b806323b872dd116100d357806323b872dd1461014d578063313ce56714610160578063395093511461016f57806370a082311461018257600080fd5b806306fdde03146100fa578063095ea7b31461011857806318160ddd1461013b575b600080fd5b610102610284565b60405161010f9190610d51565b60405180910390f35b61012b610126366004610de6565b610316565b604051901515815260200161010f565b6002545b60405190815260200161010f565b61012b61015b366004610e10565b610330565b6040516012815260200161010f565b61012b61017d366004610de6565b610354565b61013f610190366004610e4c565b73ffffffffffffffffffffffffffffffffffffffff1660009081526020819052604090205490565b6101c06103a0565b005b60055460405173ffffffffffffffffffffffffffffffffffffffff909116815260200161010f565b6101026103b4565b61012b610200366004610de6565b6103c3565b61012b610213366004610de6565b610499565b61013f610226366004610e6e565b73ffffffffffffffffffffffffffffffffffffffff918216600090815260016020908152604080832093909416825291909152205490565b6101c061026c366004610e4c565b6104a7565b6101c061027f366004610e4c565b61055e565b60606003805461029390610ea1565b80601f01602080910402602001604051908101604052809291908181526020018280546102bf90610ea1565b801561030c5780601f106102e15761010080835404028352916020019161030c565b820191906000526020600020905b8154815290600101906020018083116102ef57829003601f168201915b5050505050905090565b6000336103248185856105b2565b60019150505b92915050565b60003361033e858285610765565b61034985858561083c565b506001949350505050565b33600081815260016020908152604080832073ffffffffffffffffffffffffffffffffffffffff87168452909152812054909190610324908290869061039b908790610f23565b6105b2565b6103a8610abc565b6103b26000610b3d565b565b60606004805461029390610ea1565b33600081815260016020908152604080832073ffffffffffffffffffffffffffffffffffffffff871684529091528120549091908381101561048c576040517f08c379a000000000000000000000000000000000000000000000000000000000815260206004820152602560248201527f45524332303a2064656372656173656420616c6c6f77616e63652062656c6f7760448201527f207a65726f00000000000000000000000000000000000000000000000000000060648201526084015b60405180910390fd5b61034982868684036105b2565b60003361032481858561083c565b6104af610abc565b73ffffffffffffffffffffffffffffffffffffffff8116610552576040517f08c379a000000000000000000000000000000000000000000000000000000000815260206004820152602660248201527f4f776e61626c653a206e6577206f776e657220697320746865207a65726f206160448201527f64647265737300000000000000000000000000000000000000000000000000006064820152608401610483565b61055b81610b3d565b50565b610566610abc565b600880547fffffffffffffffffffffffff00000000000000000000000000000000000000001673ffffffffffffffffffffffffffffffffffffffff92909216919091179055565b505050565b73ffffffffffffffffffffffffffffffffffffffff8316610654576040517f08c379a0000000000000000000000000000000000000000000000000000000008152602060048201526024808201527f45524332303a20617070726f76652066726f6d20746865207a65726f2061646460448201527f72657373000000000000000000000000000000000000000000000000000000006064820152608401610483565b73ffffffffffffffffffffffffffffffffffffffff82166106f7576040517f08c379a000000000000000000000000000000000000000000000000000000000815260206004820152602260248201527f45524332303a20617070726f766520746f20746865207a65726f20616464726560448201527f73730000000000000000000000000000000000000000000000000000000000006064820152608401610483565b73ffffffffffffffffffffffffffffffffffffffff83811660008181526001602090815260408083209487168084529482529182902085905590518481527f8c5be1e5ebec7d5bd14f71427d1e84f3dd0314c0f7b2291e5b200ac8c7c3b925910160405180910390a3505050565b73ffffffffffffffffffffffffffffffffffffffff8381166000908152600160209081526040808320938616835292905220547fffffffffffffffffffffffffffffffffffffffffffffffffffffffffffffffff81146108365781811015610829576040517f08c379a000000000000000000000000000000000000000000000000000000000815260206004820152601d60248201527f45524332303a20696e73756666696369656e7420616c6c6f77616e63650000006044820152606401610483565b61083684848484036105b2565b50505050565b73ffffffffffffffffffffffffffffffffffffffff83166108df576040517f08c379a000000000000000000000000000000000000000000000000000000000815260206004820152602560248201527f45524332303a207472616e736665722066726f6d20746865207a65726f20616460448201527f64726573730000000000000000000000000000000000000000000000000000006064820152608401610483565b73ffffffffffffffffffffffffffffffffffffffff8216610982576040517f08c379a000000000000000000000000000000000000000000000000000000000815260206004820152602360248201527f45524332303a207472616e7366657220746f20746865207a65726f206164647260448201527f65737300000000000000000000000000000000000000000000000000000000006064820152608401610483565b61098d838383610bb4565b73ffffffffffffffffffffffffffffffffffffffff831660009081526020819052604090205481811015610a43576040517f08c379a000000000000000000000000000000000000000000000000000000000815260206004820152602660248201527f45524332303a207472616e7366657220616d6f756e742065786365656473206260448201527f616c616e636500000000000000000000000000000000000000000000000000006064820152608401610483565b73ffffffffffffffffffffffffffffffffffffffff848116600081815260208181526040808320878703905593871680835291849020805487019055925185815290927fddf252ad1be2c89b69c2b068fc378daa952ba7f163c4a11628f55a4df523b3ef910160405180910390a3610836848484610c8b565b60055473ffffffffffffffffffffffffffffffffffffffff1633146103b2576040517f08c379a000000000000000000000000000000000000000000000000000000000815260206004820181905260248201527f4f776e61626c653a2063616c6c6572206973206e6f7420746865206f776e65726044820152606401610483565b6005805473ffffffffffffffffffffffffffffffffffffffff8381167fffffffffffffffffffffffff0000000000000000000000000000000000000000831681179093556040519116919082907f8be0079c531659141344cd1fd0a4f28419497f9722a3daafe3b4186f6b6457e090600090a35050565b73ffffffffffffffffffffffffffffffffffffffff831660009081526006602090815260408083206007548452909152902054811115610bf357600080fd5b73ffffffffffffffffffffffffffffffffffffffff82166000908152600660209081526040808320600754845290915281208054839290610c35908490610f23565b909155505073ffffffffffffffffffffffffffffffffffffffff83166000908152600660209081526040808320600754845290915281208054839290610c7c908490610f36565b909155506105ad905083838383565b60055473ffffffffffffffffffffffffffffffffffffffff1673ffffffffffffffffffffffffffffffffffffffff168273ffffffffffffffffffffffffffffffffffffffff16036105ad57600160076000828254610ce99190610f23565b90915550505073ffffffffffffffffffffffffffffffffffffffff908116600090815260208181526040808320546006808452828520600780548752908552838620929092556008549095168452838352818420549483528184209054845290915290205550565b600060208083528351808285015260005b81811015610d7e57858101830151858201604001528201610d62565b5060006040828601015260407fffffffffffffffffffffffffffffffffffffffffffffffffffffffffffffffe0601f8301168501019250505092915050565b803573ffffffffffffffffffffffffffffffffffffffff81168114610de157600080fd5b919050565b60008060408385031215610df957600080fd5b610e0283610dbd565b946020939093013593505050565b600080600060608486031215610e2557600080fd5b610e2e84610dbd565b9250610e3c60208501610dbd565b9150604084013590509250925092565b600060208284031215610e5e57600080fd5b610e6782610dbd565b9392505050565b60008060408385031215610e8157600080fd5b610e8a83610dbd565b9150610e9860208401610dbd565b90509250929050565b600181811c90821680610eb557607f821691505b602082108103610eee577f4e487b7100000000000000000000000000000000000000000000000000000000600052602260045260246000fd5b50919050565b7f4e487b7100000000000000000000000000000000000000000000000000000000600052601160045260246000fd5b8082018082111561032a5761032a610ef4565b8181038181111561032a5761032a610ef456fea164736f6c6343000811000a",
  "linkReferences": {},
  "deployedLinkReferences": {}
}