{
  "_format": "hh-sol-artifact-1",
  "contractName": "RunbitCard",
  "sourceName": "contracts/runbitcard.sol",
  "abi": [
    {
      "inputs": [
        {
          "internalType": "address",
          "name": "admin",
          "type": "address"
        }
      ],
      "stateMutability": "nonpayable",
      "type": "constructor"
    },
    {
      "anonymous": false,
      "inputs": [
        {
          "indexed": true,
          "internalType": "address",
          "name": "owner",
          "type": "address"
        },
        {
          "indexed": true,
          "internalType": "address",
          "name": "approved",
          "type": "address"
        },
        {
          "indexed": true,
          "internalType": "uint256",
          "name": "tokenId",
          "type": "uint256"
        }
      ],
      "name": "Approval",
      "type": "event"
    },
    {
      "anonymous": false,
      "inputs": [
        {
          "indexed": true,
          "internalType": "address",
          "name": "owner",
          "type": "address"
        },
        {
          "indexed": true,
          "internalType": "address",
          "name": "operator",
          "type": "address"
        },
        {
          "indexed": false,
          "internalType": "bool",
          "name": "approved",
          "type": "bool"
        }
      ],
      "name": "ApprovalForAll",
      "type": "event"
    },
    {
      "anonymous": false,
      "inputs": [
        {
          "indexed": false,
          "internalType": "address",
          "name": "account",
          "type": "address"
        }
      ],
      "name": "Paused",
      "type": "event"
    },
    {
      "anonymous": false,
      "inputs": [
        {
          "indexed": true,
          "internalType": "bytes32",
          "name": "role",
          "type": "bytes32"
        },
        {
          "indexed": true,
          "internalType": "bytes32",
          "name": "previousAdminRole",
          "type": "bytes32"
        },
        {
          "indexed": true,
          "internalType": "bytes32",
          "name": "newAdminRole",
          "type": "bytes32"
        }
      ],
      "name": "RoleAdminChanged",
      "type": "event"
    },
    {
      "anonymous": false,
      "inputs": [
        {
          "indexed": true,
          "internalType": "bytes32",
          "name": "role",
          "type": "bytes32"
        },
        {
          "indexed": true,
          "internalType": "address",
          "name": "account",
          "type": "address"
        },
        {
          "indexed": true,
          "internalType": "address",
          "name": "sender",
          "type": "address"
        }
      ],
      "name": "RoleGranted",
      "type": "event"
    },
    {
      "anonymous": false,
      "inputs": [
        {
          "indexed": true,
          "internalType": "bytes32",
          "name": "role",
          "type": "bytes32"
        },
        {
          "indexed": true,
          "internalType": "address",
          "name": "account",
          "type": "address"
        },
        {
          "indexed": true,
          "internalType": "address",
          "name": "sender",
          "type": "address"
        }
      ],
      "name": "RoleRevoked",
      "type": "event"
    },
    {
      "anonymous": false,
      "inputs": [
        {
          "indexed": true,
          "internalType": "address",
          "name": "from",
          "type": "address"
        },
        {
          "indexed": true,
          "internalType": "address",
          "name": "to",
          "type": "address"
        },
        {
          "indexed": true,
          "internalType": "uint256",
          "name": "tokenId",
          "type": "uint256"
        }
      ],
      "name": "Transfer",
      "type": "event"
    },
    {
      "anonymous": false,
      "inputs": [
        {
          "indexed": false,
          "internalType": "address",
          "name": "account",
          "type": "address"
        }
      ],
      "name": "Unpaused",
      "type": "event"
    },
    {
      "inputs": [],
      "name": "DEFAULT_ADMIN_ROLE",
      "outputs": [
        {
          "internalType": "bytes32",
          "name": "",
          "type": "bytes32"
        }
      ],
      "stateMutability": "view",
      "type": "function"
    },
    {
      "inputs": [],
      "name": "LOCK_ROLE",
      "outputs": [
        {
          "internalType": "bytes32",
          "name": "",
          "type": "bytes32"
        }
      ],
      "stateMutability": "view",
      "type": "function"
    },
    {
      "inputs": [],
      "name": "MINTER_ROLE",
      "outputs": [
        {
          "internalType": "bytes32",
          "name": "",
          "type": "bytes32"
        }
      ],
      "stateMutability": "view",
      "type": "function"
    },
    {
      "inputs": [],
      "name": "PAUSER_ROLE",
      "outputs": [
        {
          "internalType": "bytes32",
          "name": "",
          "type": "bytes32"
        }
      ],
      "stateMutability": "view",
      "type": "function"
    },
    {
      "inputs": [
        {
          "internalType": "address",
          "name": "to",
          "type": "address"
        },
        {
          "internalType": "uint256",
          "name": "tokenId",
          "type": "uint256"
        }
      ],
      "name": "approve",
      "outputs": [],
      "stateMutability": "nonpayable",
      "type": "function"
    },
    {
      "inputs": [
        {
          "internalType": "address",
          "name": "owner",
          "type": "address"
        }
      ],
      "name": "balanceOf",
      "outputs": [
        {
          "internalType": "uint256",
          "name": "",
          "type": "uint256"
        }
      ],
      "stateMutability": "view",
      "type": "function"
    },
    {
      "inputs": [],
      "name": "baseURI",
      "outputs": [
        {
          "internalType": "string",
          "name": "",
          "type": "string"
        }
      ],
      "stateMutability": "view",
      "type": "function"
    },
    {
      "inputs": [
        {
          "internalType": "uint256",
          "name": "tokenId",
          "type": "uint256"
        }
      ],
      "name": "burn",
      "outputs": [],
      "stateMutability": "nonpayable",
      "type": "function"
    },
    {
      "inputs": [
        {
          "internalType": "uint256",
          "name": "tokenId",
          "type": "uint256"
        }
      ],
      "name": "getApproved",
      "outputs": [
        {
          "internalType": "address",
          "name": "",
          "type": "address"
        }
      ],
      "stateMutability": "view",
      "type": "function"
    },
    {
      "inputs": [
        {
          "internalType": "bytes32",
          "name": "role",
          "type": "bytes32"
        }
      ],
      "name": "getRoleAdmin",
      "outputs": [
        {
          "internalType": "bytes32",
          "name": "",
          "type": "bytes32"
        }
      ],
      "stateMutability": "view",
      "type": "function"
    },
    {
      "inputs": [
        {
          "internalType": "bytes32",
          "name": "role",
          "type": "bytes32"
        },
        {
          "internalType": "address",
          "name": "account",
          "type": "address"
        }
      ],
      "name": "grantRole",
      "outputs": [],
      "stateMutability": "nonpayable",
      "type": "function"
    },
    {
      "inputs": [
        {
          "internalType": "bytes32",
          "name": "role",
          "type": "bytes32"
        },
        {
          "internalType": "address",
          "name": "account",
          "type": "address"
        }
      ],
      "name": "hasRole",
      "outputs": [
        {
          "internalType": "bool",
          "name": "",
          "type": "bool"
        }
      ],
      "stateMutability": "view",
      "type": "function"
    },
    {
      "inputs": [
        {
          "internalType": "address",
          "name": "owner",
          "type": "address"
        },
        {
          "internalType": "address",
          "name": "operator",
          "type": "address"
        }
      ],
      "name": "isApprovedForAll",
      "outputs": [
        {
          "internalType": "bool",
          "name": "",
          "type": "bool"
        }
      ],
      "stateMutability": "view",
      "type": "function"
    },
    {
      "inputs": [
        {
          "internalType": "uint256",
          "name": "tokenId",
          "type": "uint256"
        }
      ],
      "name": "lock",
      "outputs": [],
      "stateMutability": "nonpayable",
      "type": "function"
    },
    {
      "inputs": [],
      "name": "lockMinter",
      "outputs": [],
      "stateMutability": "nonpayable",
      "type": "function"
    },
    {
      "inputs": [],
      "name": "name",
      "outputs": [
        {
          "internalType": "string",
          "name": "",
          "type": "string"
        }
      ],
      "stateMutability": "view",
      "type": "function"
    },
    {
      "inputs": [
        {
          "internalType": "uint256",
          "name": "tokenId",
          "type": "uint256"
        }
      ],
      "name": "ownerOf",
      "outputs": [
        {
          "internalType": "address",
          "name": "",
          "type": "address"
        }
      ],
      "stateMutability": "view",
      "type": "function"
    },
    {
      "inputs": [],
      "name": "pause",
      "outputs": [],
      "stateMutability": "nonpayable",
      "type": "function"
    },
    {
      "inputs": [],
      "name": "paused",
      "outputs": [
        {
          "internalType": "bool",
          "name": "",
          "type": "bool"
        }
      ],
      "stateMutability": "view",
      "type": "function"
    },
    {
      "inputs": [
        {
          "internalType": "bytes32",
          "name": "role",
          "type": "bytes32"
        },
        {
          "internalType": "address",
          "name": "account",
          "type": "address"
        }
      ],
      "name": "renounceRole",
      "outputs": [],
      "stateMutability": "nonpayable",
      "type": "function"
    },
    {
      "inputs": [
        {
          "internalType": "bytes32",
          "name": "role",
          "type": "bytes32"
        },
        {
          "internalType": "address",
          "name": "account",
          "type": "address"
        }
      ],
      "name": "revokeRole",
      "outputs": [],
      "stateMutability": "nonpayable",
      "type": "function"
    },
    {
      "inputs": [
        {
          "internalType": "address",
          "name": "to",
          "type": "address"
        },
        {
          "internalType": "uint256",
          "name": "tokenId",
          "type": "uint256"
        },
        {
          "internalType": "string",
          "name": "uri",
          "type": "string"
        },
        {
          "components": [
            {
              "internalType": "uint64",
              "name": "specialty",
              "type": "uint64"
            },
            {
              "internalType": "uint64",
              "name": "comfort",
              "type": "uint64"
            },
            {
              "internalType": "uint64",
              "name": "aesthetic",
              "type": "uint64"
            },
            {
              "internalType": "uint32",
              "name": "durability",
              "type": "uint32"
            },
            {
              "internalType": "uint32",
              "name": "level",
              "type": "uint32"
            }
          ],
          "internalType": "struct RunbitCard.MetaData",
          "name": "metaData",
          "type": "tuple"
        }
      ],
      "name": "safeMint",
      "outputs": [],
      "stateMutability": "nonpayable",
      "type": "function"
    },
    {
      "inputs": [
        {
          "internalType": "address",
          "name": "from",
          "type": "address"
        },
        {
          "internalType": "address",
          "name": "to",
          "type": "address"
        },
        {
          "internalType": "uint256",
          "name": "tokenId",
          "type": "uint256"
        }
      ],
      "name": "safeTransferFrom",
      "outputs": [],
      "stateMutability": "nonpayable",
      "type": "function"
    },
    {
      "inputs": [
        {
          "internalType": "address",
          "name": "from",
          "type": "address"
        },
        {
          "internalType": "address",
          "name": "to",
          "type": "address"
        },
        {
          "internalType": "uint256",
          "name": "tokenId",
          "type": "uint256"
        },
        {
          "internalType": "bytes",
          "name": "data",
          "type": "bytes"
        }
      ],
      "name": "safeTransferFrom",
      "outputs": [],
      "stateMutability": "nonpayable",
      "type": "function"
    },
    {
      "inputs": [
        {
          "internalType": "address",
          "name": "operator",
          "type": "address"
        },
        {
          "internalType": "bool",
          "name": "approved",
          "type": "bool"
        }
      ],
      "name": "setApprovalForAll",
      "outputs": [],
      "stateMutability": "nonpayable",
      "type": "function"
    },
    {
      "inputs": [
        {
          "internalType": "string",
          "name": "_base",
          "type": "string"
        }
      ],
      "name": "setBaseURI",
      "outputs": [],
      "stateMutability": "nonpayable",
      "type": "function"
    },
    {
      "inputs": [
        {
          "internalType": "bytes4",
          "name": "interfaceId",
          "type": "bytes4"
        }
      ],
      "name": "supportsInterface",
      "outputs": [
        {
          "internalType": "bool",
          "name": "",
          "type": "bool"
        }
      ],
      "stateMutability": "view",
      "type": "function"
    },
    {
      "inputs": [],
      "name": "symbol",
      "outputs": [
        {
          "internalType": "string",
          "name": "",
          "type": "string"
        }
      ],
      "stateMutability": "view",
      "type": "function"
    },
    {
      "inputs": [
        {
          "internalType": "uint256",
          "name": "index",
          "type": "uint256"
        }
      ],
      "name": "tokenByIndex",
      "outputs": [
        {
          "internalType": "uint256",
          "name": "",
          "type": "uint256"
        }
      ],
      "stateMutability": "view",
      "type": "function"
    },
    {
      "inputs": [
        {
          "internalType": "uint256",
          "name": "tokenId",
          "type": "uint256"
        }
      ],
      "name": "tokenMetaData",
      "outputs": [
        {
          "components": [
            {
              "internalType": "uint64",
              "name": "specialty",
              "type": "uint64"
            },
            {
              "internalType": "uint64",
              "name": "comfort",
              "type": "uint64"
            },
            {
              "internalType": "uint64",
              "name": "aesthetic",
              "type": "uint64"
            },
            {
              "internalType": "uint32",
              "name": "durability",
              "type": "uint32"
            },
            {
              "internalType": "uint32",
              "name": "level",
              "type": "uint32"
            }
          ],
          "internalType": "struct RunbitCard.MetaData",
          "name": "",
          "type": "tuple"
        }
      ],
      "stateMutability": "view",
      "type": "function"
    },
    {
      "inputs": [
        {
          "internalType": "address",
          "name": "owner",
          "type": "address"
        },
        {
          "internalType": "uint256",
          "name": "index",
          "type": "uint256"
        }
      ],
      "name": "tokenOfOwnerByIndex",
      "outputs": [
        {
          "internalType": "uint256",
          "name": "",
          "type": "uint256"
        }
      ],
      "stateMutability": "view",
      "type": "function"
    },
    {
      "inputs": [
        {
          "internalType": "uint256",
          "name": "tokenId",
          "type": "uint256"
        }
      ],
      "name": "tokenURI",
      "outputs": [
        {
          "internalType": "string",
          "name": "",
          "type": "string"
        }
      ],
      "stateMutability": "view",
      "type": "function"
    },
    {
      "inputs": [],
      "name": "totalSupply",
      "outputs": [
        {
          "internalType": "uint256",
          "name": "",
          "type": "uint256"
        }
      ],
      "stateMutability": "view",
      "type": "function"
    },
    {
      "inputs": [
        {
          "internalType": "address",
          "name": "from",
          "type": "address"
        },
        {
          "internalType": "address",
          "name": "to",
          "type": "address"
        },
        {
          "internalType": "uint256",
          "name": "tokenId",
          "type": "uint256"
        }
      ],
      "name": "transferFrom",
      "outputs": [],
      "stateMutability": "nonpayable",
      "type": "function"
    },
    {
      "inputs": [
        {
          "internalType": "uint256",
          "name": "tokenId",
          "type": "uint256"
        }
      ],
      "name": "unlock",
      "outputs": [],
      "stateMutability": "nonpayable",
      "type": "function"
    },
    {
      "inputs": [],
      "name": "unpause",
      "outputs": [],
      "stateMutability": "nonpayable",
      "type": "function"
    }
  ],
  "bytecode": "0x60806040526010805460ff191690553480156200001b57600080fd5b5060405162003dec38038062003dec8339810160408190526200003e9162000253565b6040518060400160405280600b81526020016a149d5b989a5d0810d85c9960aa1b8152506040518060400160405280600381526020016252424360e81b81525081600090816200008f91906200032a565b5060016200009e82826200032a565b5050600b805460ff1916905550620000b860008262000132565b620000e47f65d7a28e3265b37a6474929f336521b332c1681b933f6cb9f3376673440d862a8262000132565b620000ff60008051602062003dcc8339815191528262000132565b6200012b7fee67e84f062f26b2e1ed715b7ab5b471f8978a749ac5fc5bc774f49acca5e7518262000132565b50620003f6565b60105460ff16158062000154575060008051602062003dcc8339815191528214155b620001945760405162461bcd60e51b815260206004820152600c60248201526b6e6f7420616c6c6f7765642160a01b604482015260640160405180910390fd5b620001ab8282620001af60201b620012931760201c565b5050565b6000828152600c602090815260408083206001600160a01b038516845290915290205460ff16620001ab576000828152600c602090815260408083206001600160a01b03851684529091529020805460ff191660011790556200020f3390565b6001600160a01b0316816001600160a01b0316837f2f8788117e7eff1d82e926ec794901d17c78024a50270940304540a733656f0d60405160405180910390a45050565b6000602082840312156200026657600080fd5b81516001600160a01b03811681146200027e57600080fd5b9392505050565b634e487b7160e01b600052604160045260246000fd5b600181811c90821680620002b057607f821691505b602082108103620002d157634e487b7160e01b600052602260045260246000fd5b50919050565b601f8211156200032557600081815260208120601f850160051c81016020861015620003005750805b601f850160051c820191505b8181101562000321578281556001016200030c565b5050505b505050565b81516001600160401b0381111562000346576200034662000285565b6200035e816200035784546200029b565b84620002d7565b602080601f8311600181146200039657600084156200037d5750858301515b600019600386901b1c1916600185901b17855562000321565b600085815260208120601f198616915b82811015620003c757888601518255948401946001909101908401620003a6565b5085821015620003e65787850151600019600388901b60f8161c191681555b5050505050600190811b01905550565b6139c680620004066000396000f3fe608060405234801561001057600080fd5b506004361061025c5760003560e01c80636352211e11610145578063af6a3476116100bd578063d53913931161008c578063dd46706411610071578063dd4670641461065f578063e63ab1e914610672578063e985e9c51461069957600080fd5b8063d539139314610625578063d547741f1461064c57600080fd5b8063af6a3476146104ac578063b5e52e84146105ec578063b88d4fde146105ff578063c87b56dd1461061257600080fd5b80638456cb591161011457806395d89b41116100f957806395d89b4114610489578063a217fddf14610491578063a22cb4651461049957600080fd5b80638456cb591461043b57806391d148541461044357600080fd5b80636352211e146104055780636c0360eb1461041857806370a082311461042057806376daebe11461043357600080fd5b80632f745c59116101d857806342966c68116101a757806355f804b31161018c57806355f804b3146103d45780635c975abb146103e75780636198e339146103f257600080fd5b806342966c68146103ae5780634f6ccce7146103c157600080fd5b80632f745c591461036d57806336568abe146103805780633f4ba83a1461039357806342842e0e1461039b57600080fd5b806318160ddd1161022f578063248a9ca311610214578063248a9ca3146103105780632f286b1b146103335780632f2ff15d1461035a57600080fd5b806318160ddd146102eb57806323b872dd146102fd57600080fd5b806301ffc9a71461026157806306fdde0314610289578063081812fc1461029e578063095ea7b3146102d6575b600080fd5b61027461026f366004613124565b6106e2565b60405190151581526020015b60405180910390f35b6102916106f3565b60405161028091906131af565b6102b16102ac3660046131c2565b610785565b60405173ffffffffffffffffffffffffffffffffffffffff9091168152602001610280565b6102e96102e4366004613204565b6107b9565b005b6008545b604051908152602001610280565b6102e961030b36600461322e565b61094a565b6102ef61031e3660046131c2565b6000908152600c602052604090206001015490565b6102ef7fee67e84f062f26b2e1ed715b7ab5b471f8978a749ac5fc5bc774f49acca5e75181565b6102e961036836600461326a565b6109ec565b6102ef61037b366004613204565b610a11565b6102e961038e36600461326a565b610ae0565b6102e9610b93565b6102e96103a936600461322e565b610bc8565b6102e96103bc3660046131c2565b610be3565b6102ef6103cf3660046131c2565b610c81565b6102e96103e23660046133a2565b610d3f565b600b5460ff16610274565b6102e96104003660046131c2565b610d56565b6102b16104133660046131c2565b610d92565b610291610e1e565b6102ef61042e3660046133d7565b610eac565b6102e9610f7a565b6102e9610fb3565b61027461045136600461326a565b6000918252600c6020908152604080842073ffffffffffffffffffffffffffffffffffffffff93909316845291905290205460ff1690565b610291610fe5565b6102ef600081565b6102e96104a73660046133f2565b610ff4565b6105956104ba3660046131c2565b6040805160a081018252600080825260208201819052918101829052606081018290526080810191909152506000908152600d6020908152604091829020825160a081018452905467ffffffffffffffff808216835268010000000000000000820481169383019390935270010000000000000000000000000000000081049092169281019290925263ffffffff78010000000000000000000000000000000000000000000000008204811660608401527c010000000000000000000000000000000000000000000000000000000090910416608082015290565b60408051825167ffffffffffffffff908116825260208085015182169083015283830151169181019190915260608083015163ffffffff90811691830191909152608092830151169181019190915260a001610280565b6102e96105fa36600461345a565b610fff565b6102e961060d366004613543565b61117c565b6102916106203660046131c2565b611224565b6102ef7f9f2df0fed2c77648de5860a4cc508cd0818c85b8b8a1ab4ceeef8d981c8956a681565b6102e961065a36600461326a565b61122f565b6102e961066d3660046131c2565b611254565b6102ef7f65d7a28e3265b37a6474929f336521b332c1681b933f6cb9f3376673440d862a81565b6102746106a73660046135bf565b73ffffffffffffffffffffffffffffffffffffffff918216600090815260056020908152604080832093909416825291909152205460ff1690565b60006106ed82611387565b92915050565b606060008054610702906135e9565b80601f016020809104026020016040519081016040528092919081815260200182805461072e906135e9565b801561077b5780601f106107505761010080835404028352916020019161077b565b820191906000526020600020905b81548152906001019060200180831161075e57829003601f168201915b5050505050905090565b6000610790826113dd565b5060009081526004602052604090205473ffffffffffffffffffffffffffffffffffffffff1690565b60006107c482610d92565b90508073ffffffffffffffffffffffffffffffffffffffff168373ffffffffffffffffffffffffffffffffffffffff1603610886576040517f08c379a000000000000000000000000000000000000000000000000000000000815260206004820152602160248201527f4552433732313a20617070726f76616c20746f2063757272656e74206f776e6560448201527f720000000000000000000000000000000000000000000000000000000000000060648201526084015b60405180910390fd5b3373ffffffffffffffffffffffffffffffffffffffff821614806108af57506108af81336106a7565b61093b576040517f08c379a000000000000000000000000000000000000000000000000000000000815260206004820152603d60248201527f4552433732313a20617070726f76652063616c6c6572206973206e6f7420746f60448201527f6b656e206f776e6572206f7220617070726f76656420666f7220616c6c000000606482015260840161087d565b6109458383611468565b505050565b610955335b82611508565b6109e1576040517f08c379a000000000000000000000000000000000000000000000000000000000815260206004820152602d60248201527f4552433732313a2063616c6c6572206973206e6f7420746f6b656e206f776e6560448201527f72206f7220617070726f76656400000000000000000000000000000000000000606482015260840161087d565b6109458383836115c8565b6000828152600c6020526040902060010154610a07816118d0565b61094583836118da565b6000610a1c83610eac565b8210610aaa576040517f08c379a000000000000000000000000000000000000000000000000000000000815260206004820152602b60248201527f455243373231456e756d657261626c653a206f776e657220696e646578206f7560448201527f74206f6620626f756e6473000000000000000000000000000000000000000000606482015260840161087d565b5073ffffffffffffffffffffffffffffffffffffffff919091166000908152600660209081526040808320938352929052205490565b73ffffffffffffffffffffffffffffffffffffffff81163314610b85576040517f08c379a000000000000000000000000000000000000000000000000000000000815260206004820152602f60248201527f416363657373436f6e74726f6c3a2063616e206f6e6c792072656e6f756e636560448201527f20726f6c657320666f722073656c660000000000000000000000000000000000606482015260840161087d565b610b8f828261197c565b5050565b7f65d7a28e3265b37a6474929f336521b332c1681b933f6cb9f3376673440d862a610bbd816118d0565b610bc5611a37565b50565b6109458383836040518060200160405280600081525061117c565b610bec3361094f565b610c78576040517f08c379a000000000000000000000000000000000000000000000000000000000815260206004820152602d60248201527f4552433732313a2063616c6c6572206973206e6f7420746f6b656e206f776e6560448201527f72206f7220617070726f76656400000000000000000000000000000000000000606482015260840161087d565b610bc581611ab4565b6000610c8c60085490565b8210610d1a576040517f08c379a000000000000000000000000000000000000000000000000000000000815260206004820152602c60248201527f455243373231456e756d657261626c653a20676c6f62616c20696e646578206f60448201527f7574206f6620626f756e64730000000000000000000000000000000000000000606482015260840161087d565b60088281548110610d2d57610d2d61363c565b90600052602060002001549050919050565b6000610d4a816118d0565b600f61094583826136b9565b7fee67e84f062f26b2e1ed715b7ab5b471f8978a749ac5fc5bc774f49acca5e751610d80816118d0565b506000908152600e6020526040812055565b60008181526002602052604081205473ffffffffffffffffffffffffffffffffffffffff16806106ed576040517f08c379a000000000000000000000000000000000000000000000000000000000815260206004820152601860248201527f4552433732313a20696e76616c696420746f6b656e2049440000000000000000604482015260640161087d565b600f8054610e2b906135e9565b80601f0160208091040260200160405190810160405280929190818152602001828054610e57906135e9565b8015610ea45780601f10610e7957610100808354040283529160200191610ea4565b820191906000526020600020905b815481529060010190602001808311610e8757829003601f168201915b505050505081565b600073ffffffffffffffffffffffffffffffffffffffff8216610f51576040517f08c379a000000000000000000000000000000000000000000000000000000000815260206004820152602960248201527f4552433732313a2061646472657373207a65726f206973206e6f74206120766160448201527f6c6964206f776e65720000000000000000000000000000000000000000000000606482015260840161087d565b5073ffffffffffffffffffffffffffffffffffffffff1660009081526003602052604090205490565b6000610f85816118d0565b50601080547fffffffffffffffffffffffffffffffffffffffffffffffffffffffffffffff00166001179055565b7f65d7a28e3265b37a6474929f336521b332c1681b933f6cb9f3376673440d862a610fdd816118d0565b610bc5611abd565b606060018054610702906135e9565b610b8f338383611b18565b7f9f2df0fed2c77648de5860a4cc508cd0818c85b8b8a1ab4ceeef8d981c8956a6611029816118d0565b6110338585611c45565b61103d8484611c5f565b506000928352600d6020908152604093849020825181549284015195840151606085015160809095015163ffffffff9081167c0100000000000000000000000000000000000000000000000000000000027bffffffffffffffffffffffffffffffffffffffffffffffffffffffff919096167801000000000000000000000000000000000000000000000000027fffffffff00000000ffffffffffffffffffffffffffffffffffffffffffffffff67ffffffffffffffff93841670010000000000000000000000000000000002167fffffffff000000000000000000000000ffffffffffffffffffffffffffffffff99841668010000000000000000027fffffffffffffffffffffffffffffffff0000000000000000000000000000000090971693909416929092179490941796909616179490941716179091555050565b6111863383611508565b611212576040517f08c379a000000000000000000000000000000000000000000000000000000000815260206004820152602d60248201527f4552433732313a2063616c6c6572206973206e6f7420746f6b656e206f776e6560448201527f72206f7220617070726f76656400000000000000000000000000000000000000606482015260840161087d565b61121e84848484611d28565b50505050565b60606106ed82611dcb565b6000828152600c602052604090206001015461124a816118d0565b610945838361197c565b7fee67e84f062f26b2e1ed715b7ab5b471f8978a749ac5fc5bc774f49acca5e75161127e816118d0565b506000908152600e6020526040902060019055565b6000828152600c6020908152604080832073ffffffffffffffffffffffffffffffffffffffff8516845290915290205460ff16610b8f576000828152600c6020908152604080832073ffffffffffffffffffffffffffffffffffffffff85168452909152902080547fffffffffffffffffffffffffffffffffffffffffffffffffffffffffffffff001660011790556113293390565b73ffffffffffffffffffffffffffffffffffffffff168173ffffffffffffffffffffffffffffffffffffffff16837f2f8788117e7eff1d82e926ec794901d17c78024a50270940304540a733656f0d60405160405180910390a45050565b60007fffffffff0000000000000000000000000000000000000000000000000000000082167f7965db0b0000000000000000000000000000000000000000000000000000000014806106ed57506106ed82611ec6565b60008181526002602052604090205473ffffffffffffffffffffffffffffffffffffffff16610bc5576040517f08c379a000000000000000000000000000000000000000000000000000000000815260206004820152601860248201527f4552433732313a20696e76616c696420746f6b656e2049440000000000000000604482015260640161087d565b600081815260046020526040902080547fffffffffffffffffffffffff00000000000000000000000000000000000000001673ffffffffffffffffffffffffffffffffffffffff841690811790915581906114c282610d92565b73ffffffffffffffffffffffffffffffffffffffff167f8c5be1e5ebec7d5bd14f71427d1e84f3dd0314c0f7b2291e5b200ac8c7c3b92560405160405180910390a45050565b60008061151483610d92565b90508073ffffffffffffffffffffffffffffffffffffffff168473ffffffffffffffffffffffffffffffffffffffff161480611582575073ffffffffffffffffffffffffffffffffffffffff80821660009081526005602090815260408083209388168352929052205460ff165b806115c057508373ffffffffffffffffffffffffffffffffffffffff166115a884610785565b73ffffffffffffffffffffffffffffffffffffffff16145b949350505050565b8273ffffffffffffffffffffffffffffffffffffffff166115e882610d92565b73ffffffffffffffffffffffffffffffffffffffff161461168b576040517f08c379a000000000000000000000000000000000000000000000000000000000815260206004820152602560248201527f4552433732313a207472616e736665722066726f6d20696e636f72726563742060448201527f6f776e6572000000000000000000000000000000000000000000000000000000606482015260840161087d565b73ffffffffffffffffffffffffffffffffffffffff821661172d576040517f08c379a0000000000000000000000000000000000000000000000000000000008152602060048201526024808201527f4552433732313a207472616e7366657220746f20746865207a65726f2061646460448201527f7265737300000000000000000000000000000000000000000000000000000000606482015260840161087d565b61173a8383836001611f1c565b8273ffffffffffffffffffffffffffffffffffffffff1661175a82610d92565b73ffffffffffffffffffffffffffffffffffffffff16146117fd576040517f08c379a000000000000000000000000000000000000000000000000000000000815260206004820152602560248201527f4552433732313a207472616e736665722066726f6d20696e636f72726563742060448201527f6f776e6572000000000000000000000000000000000000000000000000000000606482015260840161087d565b600081815260046020908152604080832080547fffffffffffffffffffffffff000000000000000000000000000000000000000090811690915573ffffffffffffffffffffffffffffffffffffffff8781168086526003855283862080547fffffffffffffffffffffffffffffffffffffffffffffffffffffffffffffffff01905590871680865283862080546001019055868652600290945282852080549092168417909155905184937fddf252ad1be2c89b69c2b068fc378daa952ba7f163c4a11628f55a4df523b3ef91a4505050565b610bc58133611fa6565b60105460ff16158061190c57507f9f2df0fed2c77648de5860a4cc508cd0818c85b8b8a1ab4ceeef8d981c8956a68214155b611972576040517f08c379a000000000000000000000000000000000000000000000000000000000815260206004820152600c60248201527f6e6f7420616c6c6f776564210000000000000000000000000000000000000000604482015260640161087d565b610b8f8282611293565b6000828152600c6020908152604080832073ffffffffffffffffffffffffffffffffffffffff8516845290915290205460ff1615610b8f576000828152600c6020908152604080832073ffffffffffffffffffffffffffffffffffffffff8516808552925280832080547fffffffffffffffffffffffffffffffffffffffffffffffffffffffffffffff0016905551339285917ff6391f5c32d9c69d2a47ea670b442974b53935d1edc7fd64eb21e047a839171b9190a45050565b611a3f612060565b600b80547fffffffffffffffffffffffffffffffffffffffffffffffffffffffffffffff001690557f5db9ee0a495bf2e6ff9c91a7834c1ba4fdd244a5e8aa4e537bd38aeae4b073aa335b60405173ffffffffffffffffffffffffffffffffffffffff909116815260200160405180910390a1565b610bc5816120ce565b611ac561210e565b600b80547fffffffffffffffffffffffffffffffffffffffffffffffffffffffffffffff001660011790557f62e78cea01bee320cd4e420270b5ea74000d11b0c9f74754ebdbfc544b05a258611a8a3390565b8173ffffffffffffffffffffffffffffffffffffffff168373ffffffffffffffffffffffffffffffffffffffff1603611bad576040517f08c379a000000000000000000000000000000000000000000000000000000000815260206004820152601960248201527f4552433732313a20617070726f766520746f2063616c6c657200000000000000604482015260640161087d565b73ffffffffffffffffffffffffffffffffffffffff83811660008181526005602090815260408083209487168084529482529182902080547fffffffffffffffffffffffffffffffffffffffffffffffffffffffffffffff001686151590811790915591519182527f17307eab39ab6107e8899845ad3d59bd9653f200f220920489ca2b5937696c31910160405180910390a3505050565b610b8f82826040518060200160405280600081525061217b565b60008281526002602052604090205473ffffffffffffffffffffffffffffffffffffffff16611d10576040517f08c379a000000000000000000000000000000000000000000000000000000000815260206004820152602e60248201527f45524337323155524953746f726167653a2055524920736574206f66206e6f6e60448201527f6578697374656e7420746f6b656e000000000000000000000000000000000000606482015260840161087d565b6000828152600a6020526040902061094582826136b9565b611d338484846115c8565b611d3f8484848461221e565b61121e576040517f08c379a000000000000000000000000000000000000000000000000000000000815260206004820152603260248201527f4552433732313a207472616e7366657220746f206e6f6e20455243373231526560448201527f63656976657220696d706c656d656e7465720000000000000000000000000000606482015260840161087d565b6060611dd6826113dd565b6000828152600a602052604081208054611def906135e9565b80601f0160208091040260200160405190810160405280929190818152602001828054611e1b906135e9565b8015611e685780601f10611e3d57610100808354040283529160200191611e68565b820191906000526020600020905b815481529060010190602001808311611e4b57829003601f168201915b505050505090506000611e79612411565b90508051600003611e8b575092915050565b815115611ebd578082604051602001611ea59291906137d3565b60405160208183030381529060405292505050919050565b6115c084612420565b60007fffffffff0000000000000000000000000000000000000000000000000000000082167f780e9d630000000000000000000000000000000000000000000000000000000014806106ed57506106ed82612487565b611f2461210e565b6000828152600e602052604090205415611f9a576040517f08c379a000000000000000000000000000000000000000000000000000000000815260206004820152601560248201527f5468697320746f6b656e206973206c6f636b6564210000000000000000000000604482015260640161087d565b61121e8484848461256a565b6000828152600c6020908152604080832073ffffffffffffffffffffffffffffffffffffffff8516845290915290205460ff16610b8f57611fe68161271a565b611ff1836020612739565b604051602001612002929190613802565b604080517fffffffffffffffffffffffffffffffffffffffffffffffffffffffffffffffe0818403018152908290527f08c379a000000000000000000000000000000000000000000000000000000000825261087d916004016131af565b600b5460ff166120cc576040517f08c379a000000000000000000000000000000000000000000000000000000000815260206004820152601460248201527f5061757361626c653a206e6f7420706175736564000000000000000000000000604482015260640161087d565b565b6120d78161297c565b6000818152600a6020526040902080546120f0906135e9565b159050610bc5576000818152600a60205260408120610bc5916130a8565b600b5460ff16156120cc576040517f08c379a000000000000000000000000000000000000000000000000000000000815260206004820152601060248201527f5061757361626c653a2070617573656400000000000000000000000000000000604482015260640161087d565b6121858383612a62565b612192600084848461221e565b610945576040517f08c379a000000000000000000000000000000000000000000000000000000000815260206004820152603260248201527f4552433732313a207472616e7366657220746f206e6f6e20455243373231526560448201527f63656976657220696d706c656d656e7465720000000000000000000000000000606482015260840161087d565b600073ffffffffffffffffffffffffffffffffffffffff84163b15612406576040517f150b7a0200000000000000000000000000000000000000000000000000000000815273ffffffffffffffffffffffffffffffffffffffff85169063150b7a0290612295903390899088908890600401613883565b6020604051808303816000875af19250505080156122ee575060408051601f3d9081017fffffffffffffffffffffffffffffffffffffffffffffffffffffffffffffffe01682019092526122eb918101906138cc565b60015b6123bb573d80801561231c576040519150601f19603f3d011682016040523d82523d6000602084013e612321565b606091505b5080516000036123b3576040517f08c379a000000000000000000000000000000000000000000000000000000000815260206004820152603260248201527f4552433732313a207472616e7366657220746f206e6f6e20455243373231526560448201527f63656976657220696d706c656d656e7465720000000000000000000000000000606482015260840161087d565b805181602001fd5b7fffffffff00000000000000000000000000000000000000000000000000000000167f150b7a02000000000000000000000000000000000000000000000000000000001490506115c0565b506001949350505050565b6060600f8054610702906135e9565b606061242b826113dd565b6000612435612411565b905060008151116124555760405180602001604052806000815250612480565b8061245f84612c95565b6040516020016124709291906137d3565b6040516020818303038152906040525b9392505050565b60007fffffffff0000000000000000000000000000000000000000000000000000000082167f80ac58cd00000000000000000000000000000000000000000000000000000000148061251a57507fffffffff0000000000000000000000000000000000000000000000000000000082167f5b5e139f00000000000000000000000000000000000000000000000000000000145b806106ed57507f01ffc9a7000000000000000000000000000000000000000000000000000000007fffffffff000000000000000000000000000000000000000000000000000000008316146106ed565b61257684848484612d53565b6001811115612607576040517f08c379a000000000000000000000000000000000000000000000000000000000815260206004820152603560248201527f455243373231456e756d657261626c653a20636f6e736563757469766520747260448201527f616e7366657273206e6f7420737570706f727465640000000000000000000000606482015260840161087d565b8173ffffffffffffffffffffffffffffffffffffffff85166126705761266b81600880546000838152600960205260408120829055600182018355919091527ff3f7a9fe364faab93b216da50a3214154f22a0a2b415b23a84c8169e8b636ee30155565b6126ad565b8373ffffffffffffffffffffffffffffffffffffffff168573ffffffffffffffffffffffffffffffffffffffff16146126ad576126ad8582612e0f565b73ffffffffffffffffffffffffffffffffffffffff84166126d6576126d181612ec6565b612713565b8473ffffffffffffffffffffffffffffffffffffffff168473ffffffffffffffffffffffffffffffffffffffff1614612713576127138482612f75565b5050505050565b60606106ed73ffffffffffffffffffffffffffffffffffffffff831660145b60606000612748836002613918565b61275390600261392f565b67ffffffffffffffff81111561276b5761276b613296565b6040519080825280601f01601f191660200182016040528015612795576020820181803683370190505b5090507f3000000000000000000000000000000000000000000000000000000000000000816000815181106127cc576127cc61363c565b60200101907effffffffffffffffffffffffffffffffffffffffffffffffffffffffffffff1916908160001a9053507f78000000000000000000000000000000000000000000000000000000000000008160018151811061282f5761282f61363c565b60200101907effffffffffffffffffffffffffffffffffffffffffffffffffffffffffffff1916908160001a905350600061286b846002613918565b61287690600161392f565b90505b6001811115612913577f303132333435363738396162636465660000000000000000000000000000000085600f16601081106128b7576128b761363c565b1a60f81b8282815181106128cd576128cd61363c565b60200101907effffffffffffffffffffffffffffffffffffffffffffffffffffffffffffff1916908160001a90535060049490941c9361290c81613942565b9050612879565b508315612480576040517f08c379a000000000000000000000000000000000000000000000000000000000815260206004820181905260248201527f537472696e67733a20686578206c656e67746820696e73756666696369656e74604482015260640161087d565b600061298782610d92565b9050612997816000846001611f1c565b6129a082610d92565b600083815260046020908152604080832080547fffffffffffffffffffffffff000000000000000000000000000000000000000090811690915573ffffffffffffffffffffffffffffffffffffffff85168085526003845282852080547fffffffffffffffffffffffffffffffffffffffffffffffffffffffffffffffff0190558785526002909352818420805490911690555192935084927fddf252ad1be2c89b69c2b068fc378daa952ba7f163c4a11628f55a4df523b3ef908390a45050565b73ffffffffffffffffffffffffffffffffffffffff8216612adf576040517f08c379a000000000000000000000000000000000000000000000000000000000815260206004820181905260248201527f4552433732313a206d696e7420746f20746865207a65726f2061646472657373604482015260640161087d565b60008181526002602052604090205473ffffffffffffffffffffffffffffffffffffffff1615612b6b576040517f08c379a000000000000000000000000000000000000000000000000000000000815260206004820152601c60248201527f4552433732313a20746f6b656e20616c7265616479206d696e74656400000000604482015260640161087d565b612b79600083836001611f1c565b60008181526002602052604090205473ffffffffffffffffffffffffffffffffffffffff1615612c05576040517f08c379a000000000000000000000000000000000000000000000000000000000815260206004820152601c60248201527f4552433732313a20746f6b656e20616c7265616479206d696e74656400000000604482015260640161087d565b73ffffffffffffffffffffffffffffffffffffffff8216600081815260036020908152604080832080546001019055848352600290915280822080547fffffffffffffffffffffffff0000000000000000000000000000000000000000168417905551839291907fddf252ad1be2c89b69c2b068fc378daa952ba7f163c4a11628f55a4df523b3ef908290a45050565b60606000612ca283612fc6565b600101905060008167ffffffffffffffff811115612cc257612cc2613296565b6040519080825280601f01601f191660200182016040528015612cec576020820181803683370190505b5090508181016020015b7fffffffffffffffffffffffffffffffffffffffffffffffffffffffffffffffff017f3031323334353637383961626364656600000000000000000000000000000000600a86061a8153600a8504945084612cf657509392505050565b600181111561121e5773ffffffffffffffffffffffffffffffffffffffff841615612db35773ffffffffffffffffffffffffffffffffffffffff841660009081526003602052604081208054839290612dad908490613977565b90915550505b73ffffffffffffffffffffffffffffffffffffffff83161561121e5773ffffffffffffffffffffffffffffffffffffffff831660009081526003602052604081208054839290612e0490849061392f565b909155505050505050565b60006001612e1c84610eac565b612e269190613977565b600083815260076020526040902054909150808214612e865773ffffffffffffffffffffffffffffffffffffffff841660009081526006602090815260408083208584528252808320548484528184208190558352600790915290208190555b50600091825260076020908152604080842084905573ffffffffffffffffffffffffffffffffffffffff9094168352600681528383209183525290812055565b600854600090612ed890600190613977565b60008381526009602052604081205460088054939450909284908110612f0057612f0061363c565b906000526020600020015490508060088381548110612f2157612f2161363c565b6000918252602080832090910192909255828152600990915260408082208490558582528120556008805480612f5957612f5961398a565b6001900381819060005260206000200160009055905550505050565b6000612f8083610eac565b73ffffffffffffffffffffffffffffffffffffffff9093166000908152600660209081526040808320868452825280832085905593825260079052919091209190915550565b6000807a184f03e93ff9f4daa797ed6e38ed64bf6a1f010000000000000000831061300f577a184f03e93ff9f4daa797ed6e38ed64bf6a1f010000000000000000830492506040015b6d04ee2d6d415b85acef8100000000831061303b576d04ee2d6d415b85acef8100000000830492506020015b662386f26fc10000831061305957662386f26fc10000830492506010015b6305f5e1008310613071576305f5e100830492506008015b612710831061308557612710830492506004015b60648310613097576064830492506002015b600a83106106ed5760010192915050565b5080546130b4906135e9565b6000825580601f106130c4575050565b601f016020900490600052602060002090810190610bc591905b808211156130f257600081556001016130de565b5090565b7fffffffff0000000000000000000000000000000000000000000000000000000081168114610bc557600080fd5b60006020828403121561313657600080fd5b8135612480816130f6565b60005b8381101561315c578181015183820152602001613144565b50506000910152565b6000815180845261317d816020860160208601613141565b601f017fffffffffffffffffffffffffffffffffffffffffffffffffffffffffffffffe0169290920160200192915050565b6020815260006124806020830184613165565b6000602082840312156131d457600080fd5b5035919050565b803573ffffffffffffffffffffffffffffffffffffffff811681146131ff57600080fd5b919050565b6000806040838503121561321757600080fd5b613220836131db565b946020939093013593505050565b60008060006060848603121561324357600080fd5b61324c846131db565b925061325a602085016131db565b9150604084013590509250925092565b6000806040838503121561327d57600080fd5b8235915061328d602084016131db565b90509250929050565b7f4e487b7100000000000000000000000000000000000000000000000000000000600052604160045260246000fd5b60405160a0810167ffffffffffffffff811182821017156132e8576132e8613296565b60405290565b600067ffffffffffffffff8084111561330957613309613296565b604051601f85017fffffffffffffffffffffffffffffffffffffffffffffffffffffffffffffffe0908116603f0116810190828211818310171561334f5761334f613296565b8160405280935085815286868601111561336857600080fd5b858560208301376000602087830101525050509392505050565b600082601f83011261339357600080fd5b612480838335602085016132ee565b6000602082840312156133b457600080fd5b813567ffffffffffffffff8111156133cb57600080fd5b6115c084828501613382565b6000602082840312156133e957600080fd5b612480826131db565b6000806040838503121561340557600080fd5b61340e836131db565b91506020830135801515811461342357600080fd5b809150509250929050565b803567ffffffffffffffff811681146131ff57600080fd5b803563ffffffff811681146131ff57600080fd5b60008060008084860361010081121561347257600080fd5b61347b866131db565b945060208601359350604086013567ffffffffffffffff81111561349e57600080fd5b6134aa88828901613382565b93505060a07fffffffffffffffffffffffffffffffffffffffffffffffffffffffffffffffa0820112156134dd57600080fd5b506134e66132c5565b6134f26060870161342e565b81526135006080870161342e565b602082015261351160a0870161342e565b604082015261352260c08701613446565b606082015261353360e08701613446565b6080820152939692955090935050565b6000806000806080858703121561355957600080fd5b613562856131db565b9350613570602086016131db565b925060408501359150606085013567ffffffffffffffff81111561359357600080fd5b8501601f810187136135a457600080fd5b6135b3878235602084016132ee565b91505092959194509250565b600080604083850312156135d257600080fd5b6135db836131db565b915061328d602084016131db565b600181811c908216806135fd57607f821691505b602082108103613636577f4e487b7100000000000000000000000000000000000000000000000000000000600052602260045260246000fd5b50919050565b7f4e487b7100000000000000000000000000000000000000000000000000000000600052603260045260246000fd5b601f82111561094557600081815260208120601f850160051c810160208610156136925750805b601f850160051c820191505b818110156136b15782815560010161369e565b505050505050565b815167ffffffffffffffff8111156136d3576136d3613296565b6136e7816136e184546135e9565b8461366b565b602080601f83116001811461373a57600084156137045750858301515b7fffffffffffffffffffffffffffffffffffffffffffffffffffffffffffffffff600386901b1c1916600185901b1785556136b1565b6000858152602081207fffffffffffffffffffffffffffffffffffffffffffffffffffffffffffffffe08616915b8281101561378757888601518255948401946001909101908401613768565b50858210156137c357878501517fffffffffffffffffffffffffffffffffffffffffffffffffffffffffffffffff600388901b60f8161c191681555b5050505050600190811b01905550565b600083516137e5818460208801613141565b8351908301906137f9818360208801613141565b01949350505050565b7f416363657373436f6e74726f6c3a206163636f756e742000000000000000000081526000835161383a816017850160208801613141565b7f206973206d697373696e6720726f6c65200000000000000000000000000000006017918401918201528351613877816028840160208801613141565b01602801949350505050565b600073ffffffffffffffffffffffffffffffffffffffff8087168352808616602084015250836040830152608060608301526138c26080830184613165565b9695505050505050565b6000602082840312156138de57600080fd5b8151612480816130f6565b7f4e487b7100000000000000000000000000000000000000000000000000000000600052601160045260246000fd5b80820281158282048414176106ed576106ed6138e9565b808201808211156106ed576106ed6138e9565b600081613951576139516138e9565b507fffffffffffffffffffffffffffffffffffffffffffffffffffffffffffffffff0190565b818103818111156106ed576106ed6138e9565b7f4e487b7100000000000000000000000000000000000000000000000000000000600052603160045260246000fdfea164736f6c6343000811000a9f2df0fed2c77648de5860a4cc508cd0818c85b8b8a1ab4ceeef8d981c8956a6",
  "linkReferences": {},
  "deployedLinkReferences": {}
}