{
  "_format": "hh-sol-artifact-1",
  "contractName": "DogToken",
  "sourceName": "contracts/TOKEN.sol",
  "abi": [
    {
      "inputs": [],
      "stateMutability": "nonpayable",
      "type": "constructor"
    },
    {
      "anonymous": false,
      "inputs": [
        {
          "indexed": true,
          "internalType": "address",
          "name": "owner",
          "type": "address"
        },
        {
          "indexed": true,
          "internalType": "address",
          "name": "spender",
          "type": "address"
        },
        {
          "indexed": false,
          "internalType": "uint256",
          "name": "value",
          "type": "uint256"
        }
      ],
      "name": "Approval",
      "type": "event"
    },
    {
      "anonymous": false,
      "inputs": [
        {
          "indexed": true,
          "internalType": "address",
          "name": "delegator",
          "type": "address"
        },
        {
          "indexed": true,
          "internalType": "address",
          "name": "fromDelegate",
          "type": "address"
        },
        {
          "indexed": true,
          "internalType": "address",
          "name": "toDelegate",
          "type": "address"
        }
      ],
      "name": "DelegateChanged",
      "type": "event"
    },
    {
      "anonymous": false,
      "inputs": [
        {
          "indexed": true,
          "internalType": "address",
          "name": "delegate",
          "type": "address"
        },
        {
          "indexed": false,
          "internalType": "uint256",
          "name": "previousBalance",
          "type": "uint256"
        },
        {
          "indexed": false,
          "internalType": "uint256",
          "name": "newBalance",
          "type": "uint256"
        }
      ],
      "name": "DelegateVotesChanged",
      "type": "event"
    },
    {
      "anonymous": false,
      "inputs": [
        {
          "indexed": false,
          "internalType": "address",
          "name": "account",
          "type": "address"
        }
      ],
      "name": "Paused",
      "type": "event"
    },
    {
      "anonymous": false,
      "inputs": [
        {
          "indexed": true,
          "internalType": "bytes32",
          "name": "role",
          "type": "bytes32"
        },
        {
          "indexed": true,
          "internalType": "bytes32",
          "name": "previousAdminRole",
          "type": "bytes32"
        },
        {
          "indexed": true,
          "internalType": "bytes32",
          "name": "newAdminRole",
          "type": "bytes32"
        }
      ],
      "name": "RoleAdminChanged",
      "type": "event"
    },
    {
      "anonymous": false,
      "inputs": [
        {
          "indexed": true,
          "internalType": "bytes32",
          "name": "role",
          "type": "bytes32"
        },
        {
          "indexed": true,
          "internalType": "address",
          "name": "account",
          "type": "address"
        },
        {
          "indexed": true,
          "internalType": "address",
          "name": "sender",
          "type": "address"
        }
      ],
      "name": "RoleGranted",
      "type": "event"
    },
    {
      "anonymous": false,
      "inputs": [
        {
          "indexed": true,
          "internalType": "bytes32",
          "name": "role",
          "type": "bytes32"
        },
        {
          "indexed": true,
          "internalType": "address",
          "name": "account",
          "type": "address"
        },
        {
          "indexed": true,
          "internalType": "address",
          "name": "sender",
          "type": "address"
        }
      ],
      "name": "RoleRevoked",
      "type": "event"
    },
    {
      "anonymous": false,
      "inputs": [
        {
          "indexed": false,
          "internalType": "uint256",
          "name": "id",
          "type": "uint256"
        }
      ],
      "name": "Snapshot",
      "type": "event"
    },
    {
      "anonymous": false,
      "inputs": [
        {
          "indexed": true,
          "internalType": "address",
          "name": "from",
          "type": "address"
        },
        {
          "indexed": true,
          "internalType": "address",
          "name": "to",
          "type": "address"
        },
        {
          "indexed": false,
          "internalType": "uint256",
          "name": "value",
          "type": "uint256"
        }
      ],
      "name": "Transfer",
      "type": "event"
    },
    {
      "anonymous": false,
      "inputs": [
        {
          "indexed": false,
          "internalType": "address",
          "name": "account",
          "type": "address"
        }
      ],
      "name": "Unpaused",
      "type": "event"
    },
    {
      "inputs": [],
      "name": "DEFAULT_ADMIN_ROLE",
      "outputs": [
        {
          "internalType": "bytes32",
          "name": "",
          "type": "bytes32"
        }
      ],
      "stateMutability": "view",
      "type": "function"
    },
    {
      "inputs": [],
      "name": "DOMAIN_SEPARATOR",
      "outputs": [
        {
          "internalType": "bytes32",
          "name": "",
          "type": "bytes32"
        }
      ],
      "stateMutability": "view",
      "type": "function"
    },
    {
      "inputs": [],
      "name": "MINTER_ROLE",
      "outputs": [
        {
          "internalType": "bytes32",
          "name": "",
          "type": "bytes32"
        }
      ],
      "stateMutability": "view",
      "type": "function"
    },
    {
      "inputs": [],
      "name": "PAUSER_ROLE",
      "outputs": [
        {
          "internalType": "bytes32",
          "name": "",
          "type": "bytes32"
        }
      ],
      "stateMutability": "view",
      "type": "function"
    },
    {
      "inputs": [],
      "name": "SNAPSHOT_ROLE",
      "outputs": [
        {
          "internalType": "bytes32",
          "name": "",
          "type": "bytes32"
        }
      ],
      "stateMutability": "view",
      "type": "function"
    },
    {
      "inputs": [
        {
          "internalType": "address",
          "name": "owner",
          "type": "address"
        },
        {
          "internalType": "address",
          "name": "spender",
          "type": "address"
        }
      ],
      "name": "allowance",
      "outputs": [
        {
          "internalType": "uint256",
          "name": "",
          "type": "uint256"
        }
      ],
      "stateMutability": "view",
      "type": "function"
    },
    {
      "inputs": [
        {
          "internalType": "address",
          "name": "spender",
          "type": "address"
        },
        {
          "internalType": "uint256",
          "name": "amount",
          "type": "uint256"
        }
      ],
      "name": "approve",
      "outputs": [
        {
          "internalType": "bool",
          "name": "",
          "type": "bool"
        }
      ],
      "stateMutability": "nonpayable",
      "type": "function"
    },
    {
      "inputs": [
        {
          "internalType": "address",
          "name": "account",
          "type": "address"
        }
      ],
      "name": "balanceOf",
      "outputs": [
        {
          "internalType": "uint256",
          "name": "",
          "type": "uint256"
        }
      ],
      "stateMutability": "view",
      "type": "function"
    },
    {
      "inputs": [
        {
          "internalType": "address",
          "name": "account",
          "type": "address"
        },
        {
          "internalType": "uint256",
          "name": "snapshotId",
          "type": "uint256"
        }
      ],
      "name": "balanceOfAt",
      "outputs": [
        {
          "internalType": "uint256",
          "name": "",
          "type": "uint256"
        }
      ],
      "stateMutability": "view",
      "type": "function"
    },
    {
      "inputs": [
        {
          "internalType": "uint256",
          "name": "amount",
          "type": "uint256"
        }
      ],
      "name": "burn",
      "outputs": [],
      "stateMutability": "nonpayable",
      "type": "function"
    },
    {
      "inputs": [
        {
          "internalType": "address",
          "name": "account",
          "type": "address"
        },
        {
          "internalType": "uint256",
          "name": "amount",
          "type": "uint256"
        }
      ],
      "name": "burnFrom",
      "outputs": [],
      "stateMutability": "nonpayable",
      "type": "function"
    },
    {
      "inputs": [
        {
          "internalType": "address",
          "name": "account",
          "type": "address"
        },
        {
          "internalType": "uint32",
          "name": "pos",
          "type": "uint32"
        }
      ],
      "name": "checkpoints",
      "outputs": [
        {
          "components": [
            {
              "internalType": "uint32",
              "name": "fromBlock",
              "type": "uint32"
            },
            {
              "internalType": "uint224",
              "name": "votes",
              "type": "uint224"
            }
          ],
          "internalType": "struct ERC20VotesUpgradeable.Checkpoint",
          "name": "",
          "type": "tuple"
        }
      ],
      "stateMutability": "view",
      "type": "function"
    },
    {
      "inputs": [],
      "name": "decimals",
      "outputs": [
        {
          "internalType": "uint8",
          "name": "",
          "type": "uint8"
        }
      ],
      "stateMutability": "view",
      "type": "function"
    },
    {
      "inputs": [
        {
          "internalType": "address",
          "name": "spender",
          "type": "address"
        },
        {
          "internalType": "uint256",
          "name": "subtractedValue",
          "type": "uint256"
        }
      ],
      "name": "decreaseAllowance",
      "outputs": [
        {
          "internalType": "bool",
          "name": "",
          "type": "bool"
        }
      ],
      "stateMutability": "nonpayable",
      "type": "function"
    },
    {
      "inputs": [
        {
          "internalType": "address",
          "name": "delegatee",
          "type": "address"
        }
      ],
      "name": "delegate",
      "outputs": [],
      "stateMutability": "nonpayable",
      "type": "function"
    },
    {
      "inputs": [
        {
          "internalType": "address",
          "name": "delegatee",
          "type": "address"
        },
        {
          "internalType": "uint256",
          "name": "nonce",
          "type": "uint256"
        },
        {
          "internalType": "uint256",
          "name": "expiry",
          "type": "uint256"
        },
        {
          "internalType": "uint8",
          "name": "v",
          "type": "uint8"
        },
        {
          "internalType": "bytes32",
          "name": "r",
          "type": "bytes32"
        },
        {
          "internalType": "bytes32",
          "name": "s",
          "type": "bytes32"
        }
      ],
      "name": "delegateBySig",
      "outputs": [],
      "stateMutability": "nonpayable",
      "type": "function"
    },
    {
      "inputs": [
        {
          "internalType": "address",
          "name": "account",
          "type": "address"
        }
      ],
      "name": "delegates",
      "outputs": [
        {
          "internalType": "address",
          "name": "",
          "type": "address"
        }
      ],
      "stateMutability": "view",
      "type": "function"
    },
    {
      "inputs": [
        {
          "internalType": "address",
          "name": "token",
          "type": "address"
        },
        {
          "internalType": "uint256",
          "name": "amount",
          "type": "uint256"
        }
      ],
      "name": "flashFee",
      "outputs": [
        {
          "internalType": "uint256",
          "name": "",
          "type": "uint256"
        }
      ],
      "stateMutability": "view",
      "type": "function"
    },
    {
      "inputs": [
        {
          "internalType": "contract IERC3156FlashBorrowerUpgradeable",
          "name": "receiver",
          "type": "address"
        },
        {
          "internalType": "address",
          "name": "token",
          "type": "address"
        },
        {
          "internalType": "uint256",
          "name": "amount",
          "type": "uint256"
        },
        {
          "internalType": "bytes",
          "name": "data",
          "type": "bytes"
        }
      ],
      "name": "flashLoan",
      "outputs": [
        {
          "internalType": "bool",
          "name": "",
          "type": "bool"
        }
      ],
      "stateMutability": "nonpayable",
      "type": "function"
    },
    {
      "inputs": [
        {
          "internalType": "uint256",
          "name": "blockNumber",
          "type": "uint256"
        }
      ],
      "name": "getPastTotalSupply",
      "outputs": [
        {
          "internalType": "uint256",
          "name": "",
          "type": "uint256"
        }
      ],
      "stateMutability": "view",
      "type": "function"
    },
    {
      "inputs": [
        {
          "internalType": "address",
          "name": "account",
          "type": "address"
        },
        {
          "internalType": "uint256",
          "name": "blockNumber",
          "type": "uint256"
        }
      ],
      "name": "getPastVotes",
      "outputs": [
        {
          "internalType": "uint256",
          "name": "",
          "type": "uint256"
        }
      ],
      "stateMutability": "view",
      "type": "function"
    },
    {
      "inputs": [
        {
          "internalType": "bytes32",
          "name": "role",
          "type": "bytes32"
        }
      ],
      "name": "getRoleAdmin",
      "outputs": [
        {
          "internalType": "bytes32",
          "name": "",
          "type": "bytes32"
        }
      ],
      "stateMutability": "view",
      "type": "function"
    },
    {
      "inputs": [
        {
          "internalType": "address",
          "name": "account",
          "type": "address"
        }
      ],
      "name": "getVotes",
      "outputs": [
        {
          "internalType": "uint256",
          "name": "",
          "type": "uint256"
        }
      ],
      "stateMutability": "view",
      "type": "function"
    },
    {
      "inputs": [
        {
          "internalType": "bytes32",
          "name": "role",
          "type": "bytes32"
        },
        {
          "internalType": "address",
          "name": "account",
          "type": "address"
        }
      ],
      "name": "grantRole",
      "outputs": [],
      "stateMutability": "nonpayable",
      "type": "function"
    },
    {
      "inputs": [
        {
          "internalType": "bytes32",
          "name": "role",
          "type": "bytes32"
        },
        {
          "internalType": "address",
          "name": "account",
          "type": "address"
        }
      ],
      "name": "hasRole",
      "outputs": [
        {
          "internalType": "bool",
          "name": "",
          "type": "bool"
        }
      ],
      "stateMutability": "view",
      "type": "function"
    },
    {
      "inputs": [
        {
          "internalType": "address",
          "name": "spender",
          "type": "address"
        },
        {
          "internalType": "uint256",
          "name": "addedValue",
          "type": "uint256"
        }
      ],
      "name": "increaseAllowance",
      "outputs": [
        {
          "internalType": "bool",
          "name": "",
          "type": "bool"
        }
      ],
      "stateMutability": "nonpayable",
      "type": "function"
    },
    {
      "inputs": [],
      "name": "initialize",
      "outputs": [],
      "stateMutability": "nonpayable",
      "type": "function"
    },
    {
      "inputs": [
        {
          "internalType": "address",
          "name": "token",
          "type": "address"
        }
      ],
      "name": "maxFlashLoan",
      "outputs": [
        {
          "internalType": "uint256",
          "name": "",
          "type": "uint256"
        }
      ],
      "stateMutability": "view",
      "type": "function"
    },
    {
      "inputs": [
        {
          "internalType": "address",
          "name": "to",
          "type": "address"
        },
        {
          "internalType": "uint256",
          "name": "amount",
          "type": "uint256"
        }
      ],
      "name": "mint",
      "outputs": [],
      "stateMutability": "nonpayable",
      "type": "function"
    },
    {
      "inputs": [],
      "name": "name",
      "outputs": [
        {
          "internalType": "string",
          "name": "",
          "type": "string"
        }
      ],
      "stateMutability": "view",
      "type": "function"
    },
    {
      "inputs": [
        {
          "internalType": "address",
          "name": "owner",
          "type": "address"
        }
      ],
      "name": "nonces",
      "outputs": [
        {
          "internalType": "uint256",
          "name": "",
          "type": "uint256"
        }
      ],
      "stateMutability": "view",
      "type": "function"
    },
    {
      "inputs": [
        {
          "internalType": "address",
          "name": "account",
          "type": "address"
        }
      ],
      "name": "numCheckpoints",
      "outputs": [
        {
          "internalType": "uint32",
          "name": "",
          "type": "uint32"
        }
      ],
      "stateMutability": "view",
      "type": "function"
    },
    {
      "inputs": [],
      "name": "pause",
      "outputs": [],
      "stateMutability": "nonpayable",
      "type": "function"
    },
    {
      "inputs": [],
      "name": "paused",
      "outputs": [
        {
          "internalType": "bool",
          "name": "",
          "type": "bool"
        }
      ],
      "stateMutability": "view",
      "type": "function"
    },
    {
      "inputs": [
        {
          "internalType": "address",
          "name": "owner",
          "type": "address"
        },
        {
          "internalType": "address",
          "name": "spender",
          "type": "address"
        },
        {
          "internalType": "uint256",
          "name": "value",
          "type": "uint256"
        },
        {
          "internalType": "uint256",
          "name": "deadline",
          "type": "uint256"
        },
        {
          "internalType": "uint8",
          "name": "v",
          "type": "uint8"
        },
        {
          "internalType": "bytes32",
          "name": "r",
          "type": "bytes32"
        },
        {
          "internalType": "bytes32",
          "name": "s",
          "type": "bytes32"
        }
      ],
      "name": "permit",
      "outputs": [],
      "stateMutability": "nonpayable",
      "type": "function"
    },
    {
      "inputs": [
        {
          "internalType": "bytes32",
          "name": "role",
          "type": "bytes32"
        },
        {
          "internalType": "address",
          "name": "account",
          "type": "address"
        }
      ],
      "name": "renounceRole",
      "outputs": [],
      "stateMutability": "nonpayable",
      "type": "function"
    },
    {
      "inputs": [
        {
          "internalType": "bytes32",
          "name": "role",
          "type": "bytes32"
        },
        {
          "internalType": "address",
          "name": "account",
          "type": "address"
        }
      ],
      "name": "revokeRole",
      "outputs": [],
      "stateMutability": "nonpayable",
      "type": "function"
    },
    {
      "inputs": [],
      "name": "snapshot",
      "outputs": [],
      "stateMutability": "nonpayable",
      "type": "function"
    },
    {
      "inputs": [
        {
          "internalType": "bytes4",
          "name": "interfaceId",
          "type": "bytes4"
        }
      ],
      "name": "supportsInterface",
      "outputs": [
        {
          "internalType": "bool",
          "name": "",
          "type": "bool"
        }
      ],
      "stateMutability": "view",
      "type": "function"
    },
    {
      "inputs": [],
      "name": "symbol",
      "outputs": [
        {
          "internalType": "string",
          "name": "",
          "type": "string"
        }
      ],
      "stateMutability": "view",
      "type": "function"
    },
    {
      "inputs": [],
      "name": "totalSupply",
      "outputs": [
        {
          "internalType": "uint256",
          "name": "",
          "type": "uint256"
        }
      ],
      "stateMutability": "view",
      "type": "function"
    },
    {
      "inputs": [
        {
          "internalType": "uint256",
          "name": "snapshotId",
          "type": "uint256"
        }
      ],
      "name": "totalSupplyAt",
      "outputs": [
        {
          "internalType": "uint256",
          "name": "",
          "type": "uint256"
        }
      ],
      "stateMutability": "view",
      "type": "function"
    },
    {
      "inputs": [
        {
          "internalType": "address",
          "name": "to",
          "type": "address"
        },
        {
          "internalType": "uint256",
          "name": "amount",
          "type": "uint256"
        }
      ],
      "name": "transfer",
      "outputs": [
        {
          "internalType": "bool",
          "name": "",
          "type": "bool"
        }
      ],
      "stateMutability": "nonpayable",
      "type": "function"
    },
    {
      "inputs": [
        {
          "internalType": "address",
          "name": "from",
          "type": "address"
        },
        {
          "internalType": "address",
          "name": "to",
          "type": "address"
        },
        {
          "internalType": "uint256",
          "name": "amount",
          "type": "uint256"
        }
      ],
      "name": "transferFrom",
      "outputs": [
        {
          "internalType": "bool",
          "name": "",
          "type": "bool"
        }
      ],
      "stateMutability": "nonpayable",
      "type": "function"
    },
    {
      "inputs": [],
      "name": "unpause",
      "outputs": [],
      "stateMutability": "nonpayable",
      "type": "function"
    }
  ],
  "bytecode": "0x60806040523480156200001157600080fd5b50600054610100900460ff166200002f5760005460ff161562000039565b62000039620000de565b620000a15760405162461bcd60e51b815260206004820152602e60248201527f496e697469616c697a61626c653a20636f6e747261637420697320616c72656160448201526d191e481a5b9a5d1a585b1a5e995960921b606482015260840160405180910390fd5b600054610100900460ff16158015620000c4576000805461ffff19166101011790555b8015620000d7576000805461ff00191690555b506200010b565b6000620000f630620000fc60201b620019641760201c565b15905090565b6001600160a01b03163b151590565b614707806200011b6000396000f3fe608060405234801561001057600080fd5b50600436106102ff5760003560e01c80637028e2cd1161019c5780639ab24eb0116100ee578063d539139311610097578063dd62ed3e11610071578063dd62ed3e146106d1578063e63ab1e914610717578063f1127ed81461073e57600080fd5b8063d539139314610684578063d547741f146106ab578063d9d98ce4146106be57600080fd5b8063a9059cbb116100c8578063a9059cbb1461064b578063c3cda5201461065e578063d505accf1461067157600080fd5b80639ab24eb01461061d578063a217fddf14610630578063a457c2d71461063857600080fd5b80638456cb591161015057806395d89b411161012a57806395d89b41146105fa5780639711715a14610602578063981b24d01461060a57600080fd5b80638456cb59146105995780638e539e8c146105a157806391d14854146105b457600080fd5b806379cc67901161018157806379cc67901461056b5780637ecebe001461057e5780638129fc1c1461059157600080fd5b80637028e2cd1461050e57806370a082311461053557600080fd5b80633a46b1a811610255578063587cde1e116102095780635cffe9de116101e35780635cffe9de146104c0578063613255ab146104d35780636fcfff45146104e657600080fd5b8063587cde1e146104425780635c19a95c146104a15780635c975abb146104b457600080fd5b806340c10f191161023a57806340c10f191461040957806342966c681461041c5780634ee2cd7e1461042f57600080fd5b80633a46b1a8146103ee5780633f4ba83a1461040157600080fd5b8063248a9ca3116102b75780633644e515116102915780633644e515146103c057806336568abe146103c857806339509351146103db57600080fd5b8063248a9ca3146103795780632f2ff15d1461039c578063313ce567146103b157600080fd5b8063095ea7b3116102e8578063095ea7b31461034157806318160ddd1461035457806323b872dd1461036657600080fd5b806301ffc9a71461030457806306fdde031461032c575b600080fd5b610317610312366004613f3d565b610790565b60405190151581526020015b60405180910390f35b610334610829565b6040516103239190613fab565b61031761034f36600461401e565b6108bb565b6035545b604051908152602001610323565b61031761037436600461404a565b6108d3565b61035861038736600461408b565b600090815260fb602052604090206001015490565b6103af6103aa3660046140a4565b6108f7565b005b60405160128152602001610323565b610358610922565b6103af6103d63660046140a4565b610931565b6103176103e936600461401e565b6109e9565b6103586103fc36600461401e565b610a35565b6103af610ad7565b6103af61041736600461401e565b610b0d565b6103af61042a36600461408b565b610b42565b61035861043d36600461401e565b610b4c565b61047c6104503660046140d4565b73ffffffffffffffffffffffffffffffffffffffff90811660009081526101c660205260409020541690565b60405173ffffffffffffffffffffffffffffffffffffffff9091168152602001610323565b6103af6104af3660046140d4565b610bbf565b61012d5460ff16610317565b6103176104ce3660046140f1565b610bc9565b6103586104e13660046140d4565b610ecd565b6104f96104f43660046140d4565b610f20565b60405163ffffffff9091168152602001610323565b6103587f5fdbd35e8da83ee755d5e62a539e5ed7f47126abede0b8b10f9ea43dc6eed07f81565b6103586105433660046140d4565b73ffffffffffffffffffffffffffffffffffffffff1660009081526033602052604090205490565b6103af61057936600461401e565b610f50565b61035861058c3660046140d4565b610f65565b6103af610f91565b6103af611231565b6103586105af36600461408b565b611264565b6103176105c23660046140a4565b600091825260fb6020908152604080842073ffffffffffffffffffffffffffffffffffffffff93909316845291905290205460ff1690565b6103346112db565b6103af6112ea565b61035861061836600461408b565b61131d565b61035861062b3660046140d4565b611348565b610358600081565b61031761064636600461401e565b611415565b61031761065936600461401e565b6114e6565b6103af61066c3660046141a1565b6114f4565b6103af61067f3660046141fb565b61166b565b6103587f9f2df0fed2c77648de5860a4cc508cd0818c85b8b8a1ab4ceeef8d981c8956a681565b6103af6106b93660046140a4565b61180d565b6103586106cc36600461401e565b611833565b6103586106df366004614269565b73ffffffffffffffffffffffffffffffffffffffff918216600090815260346020908152604080832093909416825291909152205490565b6103587f65d7a28e3265b37a6474929f336521b332c1681b933f6cb9f3376673440d862a81565b61075161074c366004614297565b6118bd565b60408051825163ffffffff1681526020928301517bffffffffffffffffffffffffffffffffffffffffffffffffffffffff169281019290925201610323565b60007fffffffff0000000000000000000000000000000000000000000000000000000082167f7965db0b00000000000000000000000000000000000000000000000000000000148061082357507f01ffc9a7000000000000000000000000000000000000000000000000000000007fffffffff000000000000000000000000000000000000000000000000000000008316145b92915050565b606060368054610838906142ce565b80601f0160208091040260200160405190810160405280929190818152602001828054610864906142ce565b80156108b15780601f10610886576101008083540402835291602001916108b1565b820191906000526020600020905b81548152906001019060200180831161089457829003601f168201915b5050505050905090565b6000336108c9818585611980565b5060019392505050565b6000336108e1858285611b33565b6108ec858585611c0a565b506001949350505050565b600082815260fb60205260409020600101546109138133611ece565b61091d8383611fa0565b505050565b600061092c612094565b905090565b73ffffffffffffffffffffffffffffffffffffffff811633146109db576040517f08c379a000000000000000000000000000000000000000000000000000000000815260206004820152602f60248201527f416363657373436f6e74726f6c3a2063616e206f6e6c792072656e6f756e636560448201527f20726f6c657320666f722073656c66000000000000000000000000000000000060648201526084015b60405180910390fd5b6109e58282612111565b5050565b33600081815260346020908152604080832073ffffffffffffffffffffffffffffffffffffffff871684529091528120549091906108c99082908690610a3090879061434a565b611980565b6000438210610aa0576040517f08c379a000000000000000000000000000000000000000000000000000000000815260206004820152601f60248201527f4552433230566f7465733a20626c6f636b206e6f7420796574206d696e65640060448201526064016109d2565b73ffffffffffffffffffffffffffffffffffffffff831660009081526101c760205260409020610ad090836121cc565b9392505050565b7f65d7a28e3265b37a6474929f336521b332c1681b933f6cb9f3376673440d862a610b028133611ece565b610b0a6122b3565b50565b7f9f2df0fed2c77648de5860a4cc508cd0818c85b8b8a1ab4ceeef8d981c8956a6610b388133611ece565b61091d8383612396565b610b0a33826123a0565b73ffffffffffffffffffffffffffffffffffffffff8216600090815260976020526040812081908190610b809085906123aa565b9150915081610bb45773ffffffffffffffffffffffffffffffffffffffff8516600090815260336020526040902054610bb6565b805b95945050505050565b610b0a33826124e1565b6000610bd485610ecd565b841115610c63576040517f08c379a000000000000000000000000000000000000000000000000000000000815260206004820152602b60248201527f4552433230466c6173684d696e743a20616d6f756e742065786365656473206d60448201527f6178466c6173684c6f616e00000000000000000000000000000000000000000060648201526084016109d2565b6000610c6f8686611833565b9050610c7b8786612396565b6040517f23e30c8b0000000000000000000000000000000000000000000000000000000081527f439148f0bbc682ca079e46d6e2c2f0c1e3b820f1a291b069d8882abf8cf18dd99073ffffffffffffffffffffffffffffffffffffffff8916906323e30c8b90610cf99033908b908b9088908c908c90600401614362565b6020604051808303816000875af1158015610d18573d6000803e3d6000fd5b505050506040513d601f19601f82011682018060405250810190610d3c91906143e8565b14610dc8576040517f08c379a0000000000000000000000000000000000000000000000000000000008152602060048201526024808201527f4552433230466c6173684d696e743a20696e76616c69642072657475726e207660448201527f616c75650000000000000000000000000000000000000000000000000000000060648201526084016109d2565b73ffffffffffffffffffffffffffffffffffffffff87166000908152603460209081526040808320308452909152902054610e03828761434a565b811015610e92576040517f08c379a000000000000000000000000000000000000000000000000000000000815260206004820152602f60248201527f4552433230466c6173684d696e743a20616c6c6f77616e636520646f6573206e60448201527f6f7420616c6c6f7720726566756e64000000000000000000000000000000000060648201526084016109d2565b610eac883084610ea28a86614401565b610a309190614401565b610ebf88610eba848961434a565b6123a0565b506001979650505050505050565b600073ffffffffffffffffffffffffffffffffffffffff82163014610ef3576000610823565b603554610823907fffffffffffffffffffffffffffffffffffffffffffffffffffffffffffffffff614401565b73ffffffffffffffffffffffffffffffffffffffff811660009081526101c7602052604081205461082390612581565b610f5b823383611b33565b6109e582826123a0565b73ffffffffffffffffffffffffffffffffffffffff811660009081526101936020526040812054610823565b600054610100900460ff16610fac5760005460ff1615610fb0565b303b155b61103c576040517f08c379a000000000000000000000000000000000000000000000000000000000815260206004820152602e60248201527f496e697469616c697a61626c653a20636f6e747261637420697320616c72656160448201527f647920696e697469616c697a656400000000000000000000000000000000000060648201526084016109d2565b600054610100900460ff1615801561107b57600080547fffffffffffffffffffffffffffffffffffffffffffffffffffffffffffff0000166101011790555b6110ef6040518060400160405280600881526020017f436174546f6b656e0000000000000000000000000000000000000000000000008152506040518060400160405280600381526020017f434154000000000000000000000000000000000000000000000000000000000081525061261b565b6110f76126bc565b6110ff6126bc565b6111076126bc565b61110f612755565b61114d6040518060400160405280600881526020017f446f67546f6b656e0000000000000000000000000000000000000000000000008152506127f4565b6111556126bc565b611160600033611fa0565b61118a7f5fdbd35e8da83ee755d5e62a539e5ed7f47126abede0b8b10f9ea43dc6eed07f33611fa0565b6111b47f65d7a28e3265b37a6474929f336521b332c1681b933f6cb9f3376673440d862a33611fa0565b6111d6336111c46012600a614530565b6111d190620f424061453f565b612396565b6112007f9f2df0fed2c77648de5860a4cc508cd0818c85b8b8a1ab4ceeef8d981c8956a633611fa0565b8015610b0a57600080547fffffffffffffffffffffffffffffffffffffffffffffffffffffffffffff00ff16905550565b7f65d7a28e3265b37a6474929f336521b332c1681b933f6cb9f3376673440d862a61125c8133611ece565b610b0a6128d3565b60004382106112cf576040517f08c379a000000000000000000000000000000000000000000000000000000000815260206004820152601f60248201527f4552433230566f7465733a20626c6f636b206e6f7420796574206d696e65640060448201526064016109d2565b6108236101c8836121cc565b606060378054610838906142ce565b7f5fdbd35e8da83ee755d5e62a539e5ed7f47126abede0b8b10f9ea43dc6eed07f6113158133611ece565b6109e5612995565b600080600061132d8460986123aa565b915091508161133e57603554611340565b805b949350505050565b73ffffffffffffffffffffffffffffffffffffffff811660009081526101c7602052604081205480156113ed5773ffffffffffffffffffffffffffffffffffffffff831660009081526101c7602052604090206113a6600183614401565b815481106113b6576113b661457c565b60009182526020909120015464010000000090047bffffffffffffffffffffffffffffffffffffffffffffffffffffffff166113f0565b60005b7bffffffffffffffffffffffffffffffffffffffffffffffffffffffff169392505050565b33600081815260346020908152604080832073ffffffffffffffffffffffffffffffffffffffff87168452909152812054909190838110156114d9576040517f08c379a000000000000000000000000000000000000000000000000000000000815260206004820152602560248201527f45524332303a2064656372656173656420616c6c6f77616e63652062656c6f7760448201527f207a65726f00000000000000000000000000000000000000000000000000000060648201526084016109d2565b6108ec8286868403611980565b6000336108c9818585611c0a565b8342111561155e576040517f08c379a000000000000000000000000000000000000000000000000000000000815260206004820152601d60248201527f4552433230566f7465733a207369676e6174757265206578706972656400000060448201526064016109d2565b604080517fe48329057bfd03d55e49b547132e39cffd9c1820ad7b9d4c5307691425d15adf602082015273ffffffffffffffffffffffffffffffffffffffff88169181019190915260608101869052608081018590526000906115e5906115dd9060a001604051602081830303815290604052805190602001206129ef565b858585612a58565b90506115f081612a80565b8614611658576040517f08c379a000000000000000000000000000000000000000000000000000000000815260206004820152601960248201527f4552433230566f7465733a20696e76616c6964206e6f6e63650000000000000060448201526064016109d2565b61166281886124e1565b50505050505050565b834211156116d5576040517f08c379a000000000000000000000000000000000000000000000000000000000815260206004820152601d60248201527f45524332305065726d69743a206578706972656420646561646c696e6500000060448201526064016109d2565b6000610194548888886116e78c612a80565b60408051602081019690965273ffffffffffffffffffffffffffffffffffffffff94851690860152929091166060840152608083015260a082015260c0810186905260e001604051602081830303815290604052805190602001209050600061174f826129ef565b9050600061175f82878787612a58565b90508973ffffffffffffffffffffffffffffffffffffffff168173ffffffffffffffffffffffffffffffffffffffff16146117f6576040517f08c379a000000000000000000000000000000000000000000000000000000000815260206004820152601e60248201527f45524332305065726d69743a20696e76616c6964207369676e6174757265000060448201526064016109d2565b6118018a8a8a611980565b50505050505050505050565b600082815260fb60205260409020600101546118298133611ece565b61091d8383612111565b600073ffffffffffffffffffffffffffffffffffffffff831630146118b4576040517f08c379a000000000000000000000000000000000000000000000000000000000815260206004820152601b60248201527f4552433230466c6173684d696e743a2077726f6e6720746f6b656e000000000060448201526064016109d2565b50600092915050565b604080518082019091526000808252602082015273ffffffffffffffffffffffffffffffffffffffff831660009081526101c760205260409020805463ffffffff841690811061190f5761190f61457c565b60009182526020918290206040805180820190915291015463ffffffff8116825264010000000090047bffffffffffffffffffffffffffffffffffffffffffffffffffffffff16918101919091529392505050565b73ffffffffffffffffffffffffffffffffffffffff163b151590565b73ffffffffffffffffffffffffffffffffffffffff8316611a22576040517f08c379a0000000000000000000000000000000000000000000000000000000008152602060048201526024808201527f45524332303a20617070726f76652066726f6d20746865207a65726f2061646460448201527f726573730000000000000000000000000000000000000000000000000000000060648201526084016109d2565b73ffffffffffffffffffffffffffffffffffffffff8216611ac5576040517f08c379a000000000000000000000000000000000000000000000000000000000815260206004820152602260248201527f45524332303a20617070726f766520746f20746865207a65726f20616464726560448201527f737300000000000000000000000000000000000000000000000000000000000060648201526084016109d2565b73ffffffffffffffffffffffffffffffffffffffff83811660008181526034602090815260408083209487168084529482529182902085905590518481527f8c5be1e5ebec7d5bd14f71427d1e84f3dd0314c0f7b2291e5b200ac8c7c3b925910160405180910390a3505050565b73ffffffffffffffffffffffffffffffffffffffff8381166000908152603460209081526040808320938616835292905220547fffffffffffffffffffffffffffffffffffffffffffffffffffffffffffffffff8114611c045781811015611bf7576040517f08c379a000000000000000000000000000000000000000000000000000000000815260206004820152601d60248201527f45524332303a20696e73756666696369656e7420616c6c6f77616e636500000060448201526064016109d2565b611c048484848403611980565b50505050565b73ffffffffffffffffffffffffffffffffffffffff8316611cad576040517f08c379a000000000000000000000000000000000000000000000000000000000815260206004820152602560248201527f45524332303a207472616e736665722066726f6d20746865207a65726f20616460448201527f647265737300000000000000000000000000000000000000000000000000000060648201526084016109d2565b73ffffffffffffffffffffffffffffffffffffffff8216611d50576040517f08c379a000000000000000000000000000000000000000000000000000000000815260206004820152602360248201527f45524332303a207472616e7366657220746f20746865207a65726f206164647260448201527f657373000000000000000000000000000000000000000000000000000000000060648201526084016109d2565b611d5b838383612ab6565b73ffffffffffffffffffffffffffffffffffffffff831660009081526033602052604090205481811015611e11576040517f08c379a000000000000000000000000000000000000000000000000000000000815260206004820152602660248201527f45524332303a207472616e7366657220616d6f756e742065786365656473206260448201527f616c616e6365000000000000000000000000000000000000000000000000000060648201526084016109d2565b73ffffffffffffffffffffffffffffffffffffffff808516600090815260336020526040808220858503905591851681529081208054849290611e5590849061434a565b925050819055508273ffffffffffffffffffffffffffffffffffffffff168473ffffffffffffffffffffffffffffffffffffffff167fddf252ad1be2c89b69c2b068fc378daa952ba7f163c4a11628f55a4df523b3ef84604051611ebb91815260200190565b60405180910390a3611c04848484612b2f565b600082815260fb6020908152604080832073ffffffffffffffffffffffffffffffffffffffff8516845290915290205460ff166109e557611f268173ffffffffffffffffffffffffffffffffffffffff166014612b3a565b611f31836020612b3a565b604051602001611f429291906145ab565b604080517fffffffffffffffffffffffffffffffffffffffffffffffffffffffffffffffe0818403018152908290527f08c379a00000000000000000000000000000000000000000000000000000000082526109d291600401613fab565b600082815260fb6020908152604080832073ffffffffffffffffffffffffffffffffffffffff8516845290915290205460ff166109e557600082815260fb6020908152604080832073ffffffffffffffffffffffffffffffffffffffff85168452909152902080547fffffffffffffffffffffffffffffffffffffffffffffffffffffffffffffff001660011790556120363390565b73ffffffffffffffffffffffffffffffffffffffff168173ffffffffffffffffffffffffffffffffffffffff16837f2f8788117e7eff1d82e926ec794901d17c78024a50270940304540a733656f0d60405160405180910390a45050565b600061092c7f8b73c3c69bb8fe3d512ecc4cf759cc79239f7b179b0ffacaa9a75d522b39400f6120c461015f5490565b610160546040805160208101859052908101839052606081018290524660808201523060a082015260009060c0016040516020818303038152906040528051906020012090509392505050565b600082815260fb6020908152604080832073ffffffffffffffffffffffffffffffffffffffff8516845290915290205460ff16156109e557600082815260fb6020908152604080832073ffffffffffffffffffffffffffffffffffffffff8516808552925280832080547fffffffffffffffffffffffffffffffffffffffffffffffffffffffffffffff0016905551339285917ff6391f5c32d9c69d2a47ea670b442974b53935d1edc7fd64eb21e047a839171b9190a45050565b8154600090815b818110156122305760006121e78284612d7d565b9050848682815481106121fc576121fc61457c565b60009182526020909120015463ffffffff16111561221c5780925061222a565b61222781600161434a565b91505b506121d3565b81156122895784612242600184614401565b815481106122525761225261457c565b60009182526020909120015464010000000090047bffffffffffffffffffffffffffffffffffffffffffffffffffffffff1661228c565b60005b7bffffffffffffffffffffffffffffffffffffffffffffffffffffffff1695945050505050565b61012d5460ff16612320576040517f08c379a000000000000000000000000000000000000000000000000000000000815260206004820152601460248201527f5061757361626c653a206e6f742070617573656400000000000000000000000060448201526064016109d2565b61012d80547fffffffffffffffffffffffffffffffffffffffffffffffffffffffffffffff001690557f5db9ee0a495bf2e6ff9c91a7834c1ba4fdd244a5e8aa4e537bd38aeae4b073aa335b60405173ffffffffffffffffffffffffffffffffffffffff909116815260200160405180910390a1565b6109e58282612d98565b6109e58282612e5f565b60008060008411612417576040517f08c379a000000000000000000000000000000000000000000000000000000000815260206004820152601660248201527f4552433230536e617073686f743a20696420697320300000000000000000000060448201526064016109d2565b61241f612e78565b841115612488576040517f08c379a000000000000000000000000000000000000000000000000000000000815260206004820152601d60248201527f4552433230536e617073686f743a206e6f6e6578697374656e7420696400000060448201526064016109d2565b60006124948486612e83565b845490915081036124ac5760008092509250506124da565b60018460010182815481106124c3576124c361457c565b906000526020600020015492509250506124da565b505b9250929050565b73ffffffffffffffffffffffffffffffffffffffff82811660008181526101c66020818152604080842080546033845282862054949093528787167fffffffffffffffffffffffff00000000000000000000000000000000000000008416811790915590519190951694919391928592917f3134e8a2e6d97e929a7e54011ea5485d7d196dd5f0ba4d4ef95803e8e3fc257f9190a4611c04828483612f48565b600063ffffffff821115612617576040517f08c379a000000000000000000000000000000000000000000000000000000000815260206004820152602660248201527f53616665436173743a2076616c756520646f65736e27742066697420696e203360448201527f322062697473000000000000000000000000000000000000000000000000000060648201526084016109d2565b5090565b600054610100900460ff166126b2576040517f08c379a000000000000000000000000000000000000000000000000000000000815260206004820152602b60248201527f496e697469616c697a61626c653a20636f6e7472616374206973206e6f74206960448201527f6e697469616c697a696e6700000000000000000000000000000000000000000060648201526084016109d2565b6109e582826130ef565b600054610100900460ff16612753576040517f08c379a000000000000000000000000000000000000000000000000000000000815260206004820152602b60248201527f496e697469616c697a61626c653a20636f6e7472616374206973206e6f74206960448201527f6e697469616c697a696e6700000000000000000000000000000000000000000060648201526084016109d2565b565b600054610100900460ff166127ec576040517f08c379a000000000000000000000000000000000000000000000000000000000815260206004820152602b60248201527f496e697469616c697a61626c653a20636f6e7472616374206973206e6f74206960448201527f6e697469616c697a696e6700000000000000000000000000000000000000000060648201526084016109d2565b6127536131ad565b600054610100900460ff1661288b576040517f08c379a000000000000000000000000000000000000000000000000000000000815260206004820152602b60248201527f496e697469616c697a61626c653a20636f6e7472616374206973206e6f74206960448201527f6e697469616c697a696e6700000000000000000000000000000000000000000060648201526084016109d2565b6128ca816040518060400160405280600181526020017f310000000000000000000000000000000000000000000000000000000000000081525061326f565b610b0a81613322565b61012d5460ff1615612941576040517f08c379a000000000000000000000000000000000000000000000000000000000815260206004820152601060248201527f5061757361626c653a207061757365640000000000000000000000000000000060448201526064016109d2565b61012d80547fffffffffffffffffffffffffffffffffffffffffffffffffffffffffffffff001660011790557f62e78cea01bee320cd4e420270b5ea74000d11b0c9f74754ebdbfc544b05a25861236c3390565b60006129a5609a80546001019055565b60006129af612e78565b90507f8030e83b04d87bef53480e26263266d6ca66863aa8506aca6f2559d18aa1cb67816040516129e291815260200190565b60405180910390a1919050565b60006108236129fc612094565b836040517f19010000000000000000000000000000000000000000000000000000000000006020820152602281018390526042810182905260009060620160405160208183030381529060405280519060200120905092915050565b6000806000612a69878787876133e1565b91509150612a76816134f9565b5095945050505050565b73ffffffffffffffffffffffffffffffffffffffff81166000908152610193602052604090208054600181018255905b50919050565b61012d5460ff1615612b24576040517f08c379a000000000000000000000000000000000000000000000000000000000815260206004820152601060248201527f5061757361626c653a207061757365640000000000000000000000000000000060448201526064016109d2565b61091d83838361374d565b61091d8383836137af565b60606000612b4983600261453f565b612b5490600261434a565b67ffffffffffffffff811115612b6c57612b6c61462c565b6040519080825280601f01601f191660200182016040528015612b96576020820181803683370190505b5090507f300000000000000000000000000000000000000000000000000000000000000081600081518110612bcd57612bcd61457c565b60200101907effffffffffffffffffffffffffffffffffffffffffffffffffffffffffffff1916908160001a9053507f780000000000000000000000000000000000000000000000000000000000000081600181518110612c3057612c3061457c565b60200101907effffffffffffffffffffffffffffffffffffffffffffffffffffffffffffff1916908160001a9053506000612c6c84600261453f565b612c7790600161434a565b90505b6001811115612d14577f303132333435363738396162636465660000000000000000000000000000000085600f1660108110612cb857612cb861457c565b1a60f81b828281518110612cce57612cce61457c565b60200101907effffffffffffffffffffffffffffffffffffffffffffffffffffffffffffff1916908160001a90535060049490941c93612d0d8161465b565b9050612c7a565b508315610ad0576040517f08c379a000000000000000000000000000000000000000000000000000000000815260206004820181905260248201527f537472696e67733a20686578206c656e67746820696e73756666696369656e7460448201526064016109d2565b6000612d8c6002848418614690565b610ad09084841661434a565b612da282826137ef565b6035547bffffffffffffffffffffffffffffffffffffffffffffffffffffffff1015612e50576040517f08c379a000000000000000000000000000000000000000000000000000000000815260206004820152603060248201527f4552433230566f7465733a20746f74616c20737570706c79207269736b73206f60448201527f766572666c6f77696e6720766f7465730000000000000000000000000000000060648201526084016109d2565b611c046101c86139238361392f565b612e698282613b11565b611c046101c8613d118361392f565b600061092c609a5490565b81546000908103612e9657506000610823565b82546000905b80821015612ef2576000612eb08383612d7d565b905084868281548110612ec557612ec561457c565b90600052602060002001541115612ede57809150612eec565b612ee981600161434a565b92505b50612e9c565b600082118015612f2757508385612f0a600185614401565b81548110612f1a57612f1a61457c565b9060005260206000200154145b15612f4057612f37600183614401565b92505050610823565b509050610823565b8173ffffffffffffffffffffffffffffffffffffffff168373ffffffffffffffffffffffffffffffffffffffff1614158015612f845750600081115b1561091d5773ffffffffffffffffffffffffffffffffffffffff83161561303a5773ffffffffffffffffffffffffffffffffffffffff831660009081526101c7602052604081208190612fda90613d118561392f565b915091508473ffffffffffffffffffffffffffffffffffffffff167fdec2bacdd2f05b59de34da9b523dff8be42e5e38e818c82fdb0bae774387a724838360405161302f929190918252602082015260400190565b60405180910390a250505b73ffffffffffffffffffffffffffffffffffffffff82161561091d5773ffffffffffffffffffffffffffffffffffffffff821660009081526101c760205260408120819061308b906139238561392f565b915091508373ffffffffffffffffffffffffffffffffffffffff167fdec2bacdd2f05b59de34da9b523dff8be42e5e38e818c82fdb0bae774387a72483836040516130e0929190918252602082015260400190565b60405180910390a25050505050565b600054610100900460ff16613186576040517f08c379a000000000000000000000000000000000000000000000000000000000815260206004820152602b60248201527f496e697469616c697a61626c653a20636f6e7472616374206973206e6f74206960448201527f6e697469616c697a696e6700000000000000000000000000000000000000000060648201526084016109d2565b8151613199906036906020850190613ead565b50805161091d906037906020840190613ead565b600054610100900460ff16613244576040517f08c379a000000000000000000000000000000000000000000000000000000000815260206004820152602b60248201527f496e697469616c697a61626c653a20636f6e7472616374206973206e6f74206960448201527f6e697469616c697a696e6700000000000000000000000000000000000000000060648201526084016109d2565b61012d80547fffffffffffffffffffffffffffffffffffffffffffffffffffffffffffffff00169055565b600054610100900460ff16613306576040517f08c379a000000000000000000000000000000000000000000000000000000000815260206004820152602b60248201527f496e697469616c697a61626c653a20636f6e7472616374206973206e6f74206960448201527f6e697469616c697a696e6700000000000000000000000000000000000000000060648201526084016109d2565b81516020928301208151919092012061015f9190915561016055565b600054610100900460ff166133b9576040517f08c379a000000000000000000000000000000000000000000000000000000000815260206004820152602b60248201527f496e697469616c697a61626c653a20636f6e7472616374206973206e6f74206960448201527f6e697469616c697a696e6700000000000000000000000000000000000000000060648201526084016109d2565b507f6e71edae12b1b97f4d1f60370fef10105fa2faae0126114a169c64845d6126c961019455565b6000807f7fffffffffffffffffffffffffffffff5d576e7357a4501ddfe92f46681b20a083111561341857506000905060036134f0565b8460ff16601b1415801561343057508460ff16601c14155b1561344157506000905060046134f0565b6040805160008082526020820180845289905260ff881692820192909252606081018690526080810185905260019060a0016020604051602081039080840390855afa158015613495573d6000803e3d6000fd5b50506040517fffffffffffffffffffffffffffffffffffffffffffffffffffffffffffffffe0015191505073ffffffffffffffffffffffffffffffffffffffff81166134e9576000600192509250506134f0565b9150600090505b94509492505050565b600081600481111561350d5761350d6146cb565b036135155750565b6001816004811115613529576135296146cb565b03613590576040517f08c379a000000000000000000000000000000000000000000000000000000000815260206004820152601860248201527f45434453413a20696e76616c6964207369676e6174757265000000000000000060448201526064016109d2565b60028160048111156135a4576135a46146cb565b0361360b576040517f08c379a000000000000000000000000000000000000000000000000000000000815260206004820152601f60248201527f45434453413a20696e76616c6964207369676e6174757265206c656e6774680060448201526064016109d2565b600381600481111561361f5761361f6146cb565b036136ac576040517f08c379a000000000000000000000000000000000000000000000000000000000815260206004820152602260248201527f45434453413a20696e76616c6964207369676e6174757265202773272076616c60448201527f756500000000000000000000000000000000000000000000000000000000000060648201526084016109d2565b60048160048111156136c0576136c06146cb565b03610b0a576040517f08c379a000000000000000000000000000000000000000000000000000000000815260206004820152602260248201527f45434453413a20696e76616c6964207369676e6174757265202776272076616c60448201527f756500000000000000000000000000000000000000000000000000000000000060648201526084016109d2565b73ffffffffffffffffffffffffffffffffffffffff83166137795761377182613d1d565b61091d613d5d565b73ffffffffffffffffffffffffffffffffffffffff821661379d5761377183613d1d565b6137a683613d1d565b61091d82613d1d565b73ffffffffffffffffffffffffffffffffffffffff83811660009081526101c6602052604080822054858416835291205461091d92918216911683612f48565b73ffffffffffffffffffffffffffffffffffffffff821661386c576040517f08c379a000000000000000000000000000000000000000000000000000000000815260206004820152601f60248201527f45524332303a206d696e7420746f20746865207a65726f20616464726573730060448201526064016109d2565b61387860008383612ab6565b806035600082825461388a919061434a565b909155505073ffffffffffffffffffffffffffffffffffffffff8216600090815260336020526040812080548392906138c490849061434a565b909155505060405181815273ffffffffffffffffffffffffffffffffffffffff8316906000907fddf252ad1be2c89b69c2b068fc378daa952ba7f163c4a11628f55a4df523b3ef9060200160405180910390a36109e560008383612b2f565b6000610ad0828461434a565b82546000908190801561398f5785613948600183614401565b815481106139585761395861457c565b60009182526020909120015464010000000090047bffffffffffffffffffffffffffffffffffffffffffffffffffffffff16613992565b60005b7bffffffffffffffffffffffffffffffffffffffffffffffffffffffff1692506139c083858763ffffffff16565b91506000811180156139fe575043866139da600184614401565b815481106139ea576139ea61457c565b60009182526020909120015463ffffffff16145b15613a8857613a0c82613d6b565b86613a18600184614401565b81548110613a2857613a2861457c565b9060005260206000200160000160046101000a8154817bffffffffffffffffffffffffffffffffffffffffffffffffffffffff02191690837bffffffffffffffffffffffffffffffffffffffffffffffffffffffff160217905550613b08565b856040518060400160405280613a9d43612581565b63ffffffff168152602001613ab185613d6b565b7bffffffffffffffffffffffffffffffffffffffffffffffffffffffff90811690915282546001810184556000938452602093849020835194909301519091166401000000000263ffffffff909316929092179101555b50935093915050565b73ffffffffffffffffffffffffffffffffffffffff8216613bb4576040517f08c379a000000000000000000000000000000000000000000000000000000000815260206004820152602160248201527f45524332303a206275726e2066726f6d20746865207a65726f2061646472657360448201527f730000000000000000000000000000000000000000000000000000000000000060648201526084016109d2565b613bc082600083612ab6565b73ffffffffffffffffffffffffffffffffffffffff821660009081526033602052604090205481811015613c76576040517f08c379a000000000000000000000000000000000000000000000000000000000815260206004820152602260248201527f45524332303a206275726e20616d6f756e7420657863656564732062616c616e60448201527f636500000000000000000000000000000000000000000000000000000000000060648201526084016109d2565b73ffffffffffffffffffffffffffffffffffffffff83166000908152603360205260408120838303905560358054849290613cb2908490614401565b909155505060405182815260009073ffffffffffffffffffffffffffffffffffffffff8516907fddf252ad1be2c89b69c2b068fc378daa952ba7f163c4a11628f55a4df523b3ef9060200160405180910390a361091d83600084612b2f565b6000610ad08284614401565b73ffffffffffffffffffffffffffffffffffffffff81166000908152609760209081526040808320603390925290912054610b0a9190613e19565b613e19565b6127536098613d5860355490565b60007bffffffffffffffffffffffffffffffffffffffffffffffffffffffff821115612617576040517f08c379a000000000000000000000000000000000000000000000000000000000815260206004820152602760248201527f53616665436173743a2076616c756520646f65736e27742066697420696e203260448201527f323420626974730000000000000000000000000000000000000000000000000060648201526084016109d2565b6000613e23612e78565b905080613e2f84613e63565b101561091d578254600180820185556000858152602080822090930193909355938401805494850181558252902090910155565b80546000908103613e7657506000919050565b81548290613e8690600190614401565b81548110613e9657613e9661457c565b90600052602060002001549050919050565b919050565b828054613eb9906142ce565b90600052602060002090601f016020900481019282613edb5760008555613f21565b82601f10613ef457805160ff1916838001178555613f21565b82800160010185558215613f21579182015b82811115613f21578251825591602001919060010190613f06565b506126179291505b808211156126175760008155600101613f29565b600060208284031215613f4f57600080fd5b81357fffffffff0000000000000000000000000000000000000000000000000000000081168114610ad057600080fd5b60005b83811015613f9a578181015183820152602001613f82565b83811115611c045750506000910152565b6020815260008251806020840152613fca816040850160208701613f7f565b601f017fffffffffffffffffffffffffffffffffffffffffffffffffffffffffffffffe0169190910160400192915050565b73ffffffffffffffffffffffffffffffffffffffff81168114610b0a57600080fd5b6000806040838503121561403157600080fd5b823561403c81613ffc565b946020939093013593505050565b60008060006060848603121561405f57600080fd5b833561406a81613ffc565b9250602084013561407a81613ffc565b929592945050506040919091013590565b60006020828403121561409d57600080fd5b5035919050565b600080604083850312156140b757600080fd5b8235915060208301356140c981613ffc565b809150509250929050565b6000602082840312156140e657600080fd5b8135610ad081613ffc565b60008060008060006080868803121561410957600080fd5b853561411481613ffc565b9450602086013561412481613ffc565b935060408601359250606086013567ffffffffffffffff8082111561414857600080fd5b818801915088601f83011261415c57600080fd5b81358181111561416b57600080fd5b89602082850101111561417d57600080fd5b9699959850939650602001949392505050565b803560ff81168114613ea857600080fd5b60008060008060008060c087890312156141ba57600080fd5b86356141c581613ffc565b955060208701359450604087013593506141e160608801614190565b92506080870135915060a087013590509295509295509295565b600080600080600080600060e0888a03121561421657600080fd5b873561422181613ffc565b9650602088013561423181613ffc565b9550604088013594506060880135935061424d60808901614190565b925060a0880135915060c0880135905092959891949750929550565b6000806040838503121561427c57600080fd5b823561428781613ffc565b915060208301356140c981613ffc565b600080604083850312156142aa57600080fd5b82356142b581613ffc565b9150602083013563ffffffff811681146140c957600080fd5b600181811c908216806142e257607f821691505b602082108103612ab0577f4e487b7100000000000000000000000000000000000000000000000000000000600052602260045260246000fd5b7f4e487b7100000000000000000000000000000000000000000000000000000000600052601160045260246000fd5b6000821982111561435d5761435d61431b565b500190565b600073ffffffffffffffffffffffffffffffffffffffff808916835280881660208401525085604083015284606083015260a060808301528260a0830152828460c0840137600060c0848401015260c07fffffffffffffffffffffffffffffffffffffffffffffffffffffffffffffffe0601f8501168301019050979650505050505050565b6000602082840312156143fa57600080fd5b5051919050565b6000828210156144135761441361431b565b500390565b600181815b808511156124d857817fffffffffffffffffffffffffffffffffffffffffffffffffffffffffffffffff048211156144575761445761431b565b8085161561446457918102915b93841c939080029061441d565b60008261448057506001610823565b8161448d57506000610823565b81600181146144a357600281146144ad576144c9565b6001915050610823565b60ff8411156144be576144be61431b565b50506001821b610823565b5060208310610133831016604e8410600b84101617156144ec575081810a610823565b6144f68383614418565b807fffffffffffffffffffffffffffffffffffffffffffffffffffffffffffffffff048211156145285761452861431b565b029392505050565b6000610ad060ff841683614471565b6000817fffffffffffffffffffffffffffffffffffffffffffffffffffffffffffffffff04831182151516156145775761457761431b565b500290565b7f4e487b7100000000000000000000000000000000000000000000000000000000600052603260045260246000fd5b7f416363657373436f6e74726f6c3a206163636f756e74200000000000000000008152600083516145e3816017850160208801613f7f565b7f206973206d697373696e6720726f6c65200000000000000000000000000000006017918401918201528351614620816028840160208801613f7f565b01602801949350505050565b7f4e487b7100000000000000000000000000000000000000000000000000000000600052604160045260246000fd5b60008161466a5761466a61431b565b507fffffffffffffffffffffffffffffffffffffffffffffffffffffffffffffffff0190565b6000826146c6577f4e487b7100000000000000000000000000000000000000000000000000000000600052601260045260246000fd5b500490565b7f4e487b7100000000000000000000000000000000000000000000000000000000600052602160045260246000fdfea164736f6c634300080d000a",
  "linkReferences": {},
  "deployedLinkReferences": {}
}