{
  "_format": "hh-sol-artifact-1",
  "contractName": "RunbitRand",
  "sourceName": "contracts/RunbitRand.sol",
  "abi": [
    {
      "inputs": [
        {
          "internalType": "address",
          "name": "admin",
          "type": "address"
        }
      ],
      "stateMutability": "nonpayable",
      "type": "constructor"
    },
    {
      "anonymous": false,
      "inputs": [
        {
          "indexed": true,
          "internalType": "bytes32",
          "name": "role",
          "type": "bytes32"
        },
        {
          "indexed": true,
          "internalType": "bytes32",
          "name": "previousAdminRole",
          "type": "bytes32"
        },
        {
          "indexed": true,
          "internalType": "bytes32",
          "name": "newAdminRole",
          "type": "bytes32"
        }
      ],
      "name": "RoleAdminChanged",
      "type": "event"
    },
    {
      "anonymous": false,
      "inputs": [
        {
          "indexed": true,
          "internalType": "bytes32",
          "name": "role",
          "type": "bytes32"
        },
        {
          "indexed": true,
          "internalType": "address",
          "name": "account",
          "type": "address"
        },
        {
          "indexed": true,
          "internalType": "address",
          "name": "sender",
          "type": "address"
        }
      ],
      "name": "RoleGranted",
      "type": "event"
    },
    {
      "anonymous": false,
      "inputs": [
        {
          "indexed": true,
          "internalType": "bytes32",
          "name": "role",
          "type": "bytes32"
        },
        {
          "indexed": true,
          "internalType": "address",
          "name": "account",
          "type": "address"
        },
        {
          "indexed": true,
          "internalType": "address",
          "name": "sender",
          "type": "address"
        }
      ],
      "name": "RoleRevoked",
      "type": "event"
    },
    {
      "inputs": [],
      "name": "DEFAULT_ADMIN_ROLE",
      "outputs": [
        {
          "internalType": "bytes32",
          "name": "",
          "type": "bytes32"
        }
      ],
      "stateMutability": "view",
      "type": "function"
    },
    {
      "inputs": [],
      "name": "genNormalRand",
      "outputs": [
        {
          "internalType": "uint256",
          "name": "",
          "type": "uint256"
        }
      ],
      "stateMutability": "view",
      "type": "function"
    },
    {
      "inputs": [
        {
          "internalType": "uint256",
          "name": "sec",
          "type": "uint256"
        }
      ],
      "name": "genRand",
      "outputs": [],
      "stateMutability": "nonpayable",
      "type": "function"
    },
    {
      "inputs": [
        {
          "internalType": "uint256",
          "name": "round",
          "type": "uint256"
        }
      ],
      "name": "getRand",
      "outputs": [
        {
          "internalType": "uint256",
          "name": "",
          "type": "uint256"
        }
      ],
      "stateMutability": "view",
      "type": "function"
    },
    {
      "inputs": [
        {
          "internalType": "bytes32",
          "name": "role",
          "type": "bytes32"
        }
      ],
      "name": "getRoleAdmin",
      "outputs": [
        {
          "internalType": "bytes32",
          "name": "",
          "type": "bytes32"
        }
      ],
      "stateMutability": "view",
      "type": "function"
    },
    {
      "inputs": [
        {
          "internalType": "bytes32",
          "name": "role",
          "type": "bytes32"
        },
        {
          "internalType": "address",
          "name": "account",
          "type": "address"
        }
      ],
      "name": "grantRole",
      "outputs": [],
      "stateMutability": "nonpayable",
      "type": "function"
    },
    {
      "inputs": [
        {
          "internalType": "bytes32",
          "name": "role",
          "type": "bytes32"
        },
        {
          "internalType": "address",
          "name": "account",
          "type": "address"
        }
      ],
      "name": "hasRole",
      "outputs": [
        {
          "internalType": "bool",
          "name": "",
          "type": "bool"
        }
      ],
      "stateMutability": "view",
      "type": "function"
    },
    {
      "inputs": [
        {
          "internalType": "bytes32",
          "name": "role",
          "type": "bytes32"
        },
        {
          "internalType": "address",
          "name": "account",
          "type": "address"
        }
      ],
      "name": "renounceRole",
      "outputs": [],
      "stateMutability": "nonpayable",
      "type": "function"
    },
    {
      "inputs": [
        {
          "internalType": "bytes32",
          "name": "role",
          "type": "bytes32"
        },
        {
          "internalType": "address",
          "name": "account",
          "type": "address"
        }
      ],
      "name": "revokeRole",
      "outputs": [],
      "stateMutability": "nonpayable",
      "type": "function"
    },
    {
      "inputs": [
        {
          "internalType": "uint256",
          "name": "commit",
          "type": "uint256"
        }
      ],
      "name": "setCommit",
      "outputs": [],
      "stateMutability": "nonpayable",
      "type": "function"
    },
    {
      "inputs": [
        {
          "internalType": "uint256",
          "name": "_epoch",
          "type": "uint256"
        }
      ],
      "name": "setEpoch",
      "outputs": [],
      "stateMutability": "nonpayable",
      "type": "function"
    },
    {
      "inputs": [
        {
          "internalType": "address",
          "name": "_oracle",
          "type": "address"
        }
      ],
      "name": "setOracle",
      "outputs": [],
      "stateMutability": "nonpayable",
      "type": "function"
    },
    {
      "inputs": [],
      "name": "setSeed",
      "outputs": [],
      "stateMutability": "nonpayable",
      "type": "function"
    },
    {
      "inputs": [
        {
          "internalType": "bytes4",
          "name": "interfaceId",
          "type": "bytes4"
        }
      ],
      "name": "supportsInterface",
      "outputs": [
        {
          "internalType": "bool",
          "name": "",
          "type": "bool"
        }
      ],
      "stateMutability": "view",
      "type": "function"
    }
  ],
  "bytecode": "0x60806040526201518060025534801561001757600080fd5b506040516112ff3803806112ff833981016040819052610036916100e6565b610041600082610047565b50610116565b6000828152602081815260408083206001600160a01b038516845290915290205460ff166100e2576000828152602081815260408083206001600160a01b03851684529091529020805460ff191660011790556100a13390565b6001600160a01b0316816001600160a01b0316837f2f8788117e7eff1d82e926ec794901d17c78024a50270940304540a733656f0d60405160405180910390a45b5050565b6000602082840312156100f857600080fd5b81516001600160a01b038116811461010f57600080fd5b9392505050565b6111da806101256000396000f3fe608060405234801561001057600080fd5b50600436106100ea5760003560e01c80635e5201b71161008c57806391d148541161006657806391d14854146101e45780639c025a1a14610228578063a217fddf14610230578063d547741f1461023857600080fd5b80635e5201b71461019e5780637adbf973146101be5780637b3054fd146101d157600080fd5b8063248a9ca3116100c8578063248a9ca31461013f5780632f2ff15d1461017057806336568abe1461018357806343083f0e1461019657600080fd5b806301ffc9a7146100ef5780630ceb2cef1461011757806321d79e581461012c575b600080fd5b6101026100fd366004610eb9565b61024b565b60405190151581526020015b60405180910390f35b61012a610125366004610efb565b6102e4565b005b61012a61013a366004610efb565b6102f5565b61016261014d366004610efb565b60009081526020819052604090206001015490565b60405190815260200161010e565b61012a61017e366004610f3d565b61039d565b61012a610191366004610f3d565b6103c7565b61012a61047a565b6101626101ac366004610efb565b60009081526005602052604090205490565b61012a6101cc366004610f69565b61063c565b61012a6101df366004610efb565b61068f565b6101026101f2366004610f3d565b60009182526020828152604080842073ffffffffffffffffffffffffffffffffffffffff93909316845291905290205460ff1690565b610162610891565b610162600081565b61012a610246366004610f3d565b61099e565b60007fffffffff0000000000000000000000000000000000000000000000000000000082167f7965db0b0000000000000000000000000000000000000000000000000000000014806102de57507f01ffc9a7000000000000000000000000000000000000000000000000000000007fffffffff000000000000000000000000000000000000000000000000000000008316145b92915050565b60006102ef816109c3565b50600255565b6000610300816109c3565b600061030a6109d0565b60008181526003602052604090205490915015610388576040517f08c379a000000000000000000000000000000000000000000000000000000000815260206004820152601060248201527f4530313a20616c7265617920736574210000000000000000000000000000000060448201526064015b60405180910390fd5b60009081526003602052604090209190915550565b6000828152602081905260409020600101546103b8816109c3565b6103c283836109f1565b505050565b73ffffffffffffffffffffffffffffffffffffffff8116331461046c576040517f08c379a000000000000000000000000000000000000000000000000000000000815260206004820152602f60248201527f416363657373436f6e74726f6c3a2063616e206f6e6c792072656e6f756e636560448201527f20726f6c657320666f722073656c660000000000000000000000000000000000606482015260840161037f565b6104768282610ae1565b5050565b600060016104866109d0565b6104909190610fb3565b60008181526004602052604090205490915015610509576040517f08c379a000000000000000000000000000000000000000000000000000000000815260206004820152601060248201527f4530313a20616c72656179207365742100000000000000000000000000000000604482015260640161037f565b415a42610517600143610fb3565b40600160009054906101000a900473ffffffffffffffffffffffffffffffffffffffff1673ffffffffffffffffffffffffffffffffffffffff166350d25bcd6040518163ffffffff1660e01b8152600401602060405180830381865afa158015610585573d6000803e3d6000fd5b505050506040513d601f19601f820116820180604052508101906105a99190610fc6565b60405160609590951b7fffffffffffffffffffffffffffffffffffffffff000000000000000000000000166020860152603485019390935260548401919091526074830152609482015260b401604080517fffffffffffffffffffffffffffffffffffffffffffffffffffffffffffffffe081840301815291815281516020928301206000938452600490925290912055565b6000610647816109c3565b50600180547fffffffffffffffffffffffff00000000000000000000000000000000000000001673ffffffffffffffffffffffffffffffffffffffff92909216919091179055565b6000600161069b6109d0565b6106a59190610fb3565b6000818152600360205260408120549192500361071e576040517f08c379a000000000000000000000000000000000000000000000000000000000815260206004820152600f60248201527f636f6d6d6974206e6f7420736574210000000000000000000000000000000000604482015260640161037f565b6000818152600460205260408120549003610795576040517f08c379a000000000000000000000000000000000000000000000000000000000815260206004820152600d60248201527f73656564206e6f74207365742100000000000000000000000000000000000000604482015260640161037f565b604080516020810184905201604080517fffffffffffffffffffffffffffffffffffffffffffffffffffffffffffffffe08184030181529181528151602092830120600084815260039093529120541461084b576040517f08c379a000000000000000000000000000000000000000000000000000000000815260206004820152600c60248201527f696e76616c696420736563210000000000000000000000000000000000000000604482015260640161037f565b6000818152600460209081526040808320548151808401969096528582015280518086038201815260609095018152845194820194909420928252600590529190912055565b6000415a426108a1600143610fb3565b40600160009054906101000a900473ffffffffffffffffffffffffffffffffffffffff1673ffffffffffffffffffffffffffffffffffffffff166350d25bcd6040518163ffffffff1660e01b8152600401602060405180830381865afa15801561090f573d6000803e3d6000fd5b505050506040513d601f19601f820116820180604052508101906109339190610fc6565b60405160609590951b7fffffffffffffffffffffffffffffffffffffffff000000000000000000000000166020860152603485019390935260548401919091526074830152609482015260b4016040516020818303038152906040528051906020012060001c905090565b6000828152602081905260409020600101546109b9816109c3565b6103c28383610ae1565b6109cd8133610b98565b50565b6002546000906109e242617080610fdf565b6109ec9190610ff2565b905090565b60008281526020818152604080832073ffffffffffffffffffffffffffffffffffffffff8516845290915290205460ff166104765760008281526020818152604080832073ffffffffffffffffffffffffffffffffffffffff85168452909152902080547fffffffffffffffffffffffffffffffffffffffffffffffffffffffffffffff00166001179055610a833390565b73ffffffffffffffffffffffffffffffffffffffff168173ffffffffffffffffffffffffffffffffffffffff16837f2f8788117e7eff1d82e926ec794901d17c78024a50270940304540a733656f0d60405160405180910390a45050565b60008281526020818152604080832073ffffffffffffffffffffffffffffffffffffffff8516845290915290205460ff16156104765760008281526020818152604080832073ffffffffffffffffffffffffffffffffffffffff8516808552925280832080547fffffffffffffffffffffffffffffffffffffffffffffffffffffffffffffff0016905551339285917ff6391f5c32d9c69d2a47ea670b442974b53935d1edc7fd64eb21e047a839171b9190a45050565b60008281526020818152604080832073ffffffffffffffffffffffffffffffffffffffff8516845290915290205460ff1661047657610bd681610c50565b610be1836020610c6f565b604051602001610bf2929190611051565b604080517fffffffffffffffffffffffffffffffffffffffffffffffffffffffffffffffe0818403018152908290527f08c379a000000000000000000000000000000000000000000000000000000000825261037f916004016110d2565b60606102de73ffffffffffffffffffffffffffffffffffffffff831660145b60606000610c7e836002611123565b610c89906002610fdf565b67ffffffffffffffff811115610ca157610ca161113a565b6040519080825280601f01601f191660200182016040528015610ccb576020820181803683370190505b5090507f300000000000000000000000000000000000000000000000000000000000000081600081518110610d0257610d02611169565b60200101907effffffffffffffffffffffffffffffffffffffffffffffffffffffffffffff1916908160001a9053507f780000000000000000000000000000000000000000000000000000000000000081600181518110610d6557610d65611169565b60200101907effffffffffffffffffffffffffffffffffffffffffffffffffffffffffffff1916908160001a9053506000610da1846002611123565b610dac906001610fdf565b90505b6001811115610e49577f303132333435363738396162636465660000000000000000000000000000000085600f1660108110610ded57610ded611169565b1a60f81b828281518110610e0357610e03611169565b60200101907effffffffffffffffffffffffffffffffffffffffffffffffffffffffffffff1916908160001a90535060049490941c93610e4281611198565b9050610daf565b508315610eb2576040517f08c379a000000000000000000000000000000000000000000000000000000000815260206004820181905260248201527f537472696e67733a20686578206c656e67746820696e73756666696369656e74604482015260640161037f565b9392505050565b600060208284031215610ecb57600080fd5b81357fffffffff0000000000000000000000000000000000000000000000000000000081168114610eb257600080fd5b600060208284031215610f0d57600080fd5b5035919050565b803573ffffffffffffffffffffffffffffffffffffffff81168114610f3857600080fd5b919050565b60008060408385031215610f5057600080fd5b82359150610f6060208401610f14565b90509250929050565b600060208284031215610f7b57600080fd5b610eb282610f14565b7f4e487b7100000000000000000000000000000000000000000000000000000000600052601160045260246000fd5b818103818111156102de576102de610f84565b600060208284031215610fd857600080fd5b5051919050565b808201808211156102de576102de610f84565b600082611028577f4e487b7100000000000000000000000000000000000000000000000000000000600052601260045260246000fd5b500490565b60005b83811015611048578181015183820152602001611030565b50506000910152565b7f416363657373436f6e74726f6c3a206163636f756e742000000000000000000081526000835161108981601785016020880161102d565b7f206973206d697373696e6720726f6c652000000000000000000000000000000060179184019182015283516110c681602884016020880161102d565b01602801949350505050565b60208152600082518060208401526110f181604085016020870161102d565b601f017fffffffffffffffffffffffffffffffffffffffffffffffffffffffffffffffe0169190910160400192915050565b80820281158282048414176102de576102de610f84565b7f4e487b7100000000000000000000000000000000000000000000000000000000600052604160045260246000fd5b7f4e487b7100000000000000000000000000000000000000000000000000000000600052603260045260246000fd5b6000816111a7576111a7610f84565b507fffffffffffffffffffffffffffffffffffffffffffffffffffffffffffffffff019056fea164736f6c6343000811000a",
  "linkReferences": {},
  "deployedLinkReferences": {}
}