{
  "_format": "hh-sol-artifact-1",
  "contractName": "RunbitCard",
  "sourceName": "contracts/RunbitCard.sol",
  "abi": [
    {
      "inputs": [],
      "stateMutability": "nonpayable",
      "type": "constructor"
    },
    {
      "anonymous": false,
      "inputs": [
        {
          "indexed": true,
          "internalType": "address",
          "name": "owner",
          "type": "address"
        },
        {
          "indexed": true,
          "internalType": "address",
          "name": "approved",
          "type": "address"
        },
        {
          "indexed": true,
          "internalType": "uint256",
          "name": "tokenId",
          "type": "uint256"
        }
      ],
      "name": "Approval",
      "type": "event"
    },
    {
      "anonymous": false,
      "inputs": [
        {
          "indexed": true,
          "internalType": "address",
          "name": "owner",
          "type": "address"
        },
        {
          "indexed": true,
          "internalType": "address",
          "name": "operator",
          "type": "address"
        },
        {
          "indexed": false,
          "internalType": "bool",
          "name": "approved",
          "type": "bool"
        }
      ],
      "name": "ApprovalForAll",
      "type": "event"
    },
    {
      "anonymous": false,
      "inputs": [
        {
          "indexed": false,
          "internalType": "address",
          "name": "account",
          "type": "address"
        }
      ],
      "name": "Paused",
      "type": "event"
    },
    {
      "anonymous": false,
      "inputs": [
        {
          "indexed": true,
          "internalType": "bytes32",
          "name": "role",
          "type": "bytes32"
        },
        {
          "indexed": true,
          "internalType": "bytes32",
          "name": "previousAdminRole",
          "type": "bytes32"
        },
        {
          "indexed": true,
          "internalType": "bytes32",
          "name": "newAdminRole",
          "type": "bytes32"
        }
      ],
      "name": "RoleAdminChanged",
      "type": "event"
    },
    {
      "anonymous": false,
      "inputs": [
        {
          "indexed": true,
          "internalType": "bytes32",
          "name": "role",
          "type": "bytes32"
        },
        {
          "indexed": true,
          "internalType": "address",
          "name": "account",
          "type": "address"
        },
        {
          "indexed": true,
          "internalType": "address",
          "name": "sender",
          "type": "address"
        }
      ],
      "name": "RoleGranted",
      "type": "event"
    },
    {
      "anonymous": false,
      "inputs": [
        {
          "indexed": true,
          "internalType": "bytes32",
          "name": "role",
          "type": "bytes32"
        },
        {
          "indexed": true,
          "internalType": "address",
          "name": "account",
          "type": "address"
        },
        {
          "indexed": true,
          "internalType": "address",
          "name": "sender",
          "type": "address"
        }
      ],
      "name": "RoleRevoked",
      "type": "event"
    },
    {
      "anonymous": false,
      "inputs": [
        {
          "indexed": true,
          "internalType": "address",
          "name": "from",
          "type": "address"
        },
        {
          "indexed": true,
          "internalType": "address",
          "name": "to",
          "type": "address"
        },
        {
          "indexed": true,
          "internalType": "uint256",
          "name": "tokenId",
          "type": "uint256"
        }
      ],
      "name": "Transfer",
      "type": "event"
    },
    {
      "anonymous": false,
      "inputs": [
        {
          "indexed": false,
          "internalType": "address",
          "name": "account",
          "type": "address"
        }
      ],
      "name": "Unpaused",
      "type": "event"
    },
    {
      "inputs": [],
      "name": "DEFAULT_ADMIN_ROLE",
      "outputs": [
        {
          "internalType": "bytes32",
          "name": "",
          "type": "bytes32"
        }
      ],
      "stateMutability": "view",
      "type": "function"
    },
    {
      "inputs": [],
      "name": "MINTER_ROLE",
      "outputs": [
        {
          "internalType": "bytes32",
          "name": "",
          "type": "bytes32"
        }
      ],
      "stateMutability": "view",
      "type": "function"
    },
    {
      "inputs": [],
      "name": "PAUSER_ROLE",
      "outputs": [
        {
          "internalType": "bytes32",
          "name": "",
          "type": "bytes32"
        }
      ],
      "stateMutability": "view",
      "type": "function"
    },
    {
      "inputs": [
        {
          "internalType": "address",
          "name": "to",
          "type": "address"
        },
        {
          "internalType": "uint256",
          "name": "tokenId",
          "type": "uint256"
        }
      ],
      "name": "approve",
      "outputs": [],
      "stateMutability": "nonpayable",
      "type": "function"
    },
    {
      "inputs": [
        {
          "internalType": "address",
          "name": "owner",
          "type": "address"
        }
      ],
      "name": "balanceOf",
      "outputs": [
        {
          "internalType": "uint256",
          "name": "",
          "type": "uint256"
        }
      ],
      "stateMutability": "view",
      "type": "function"
    },
    {
      "inputs": [
        {
          "internalType": "uint256",
          "name": "tokenId",
          "type": "uint256"
        }
      ],
      "name": "burn",
      "outputs": [],
      "stateMutability": "nonpayable",
      "type": "function"
    },
    {
      "inputs": [
        {
          "internalType": "uint256",
          "name": "tokenId",
          "type": "uint256"
        }
      ],
      "name": "getApproved",
      "outputs": [
        {
          "internalType": "address",
          "name": "",
          "type": "address"
        }
      ],
      "stateMutability": "view",
      "type": "function"
    },
    {
      "inputs": [
        {
          "internalType": "bytes32",
          "name": "role",
          "type": "bytes32"
        }
      ],
      "name": "getRoleAdmin",
      "outputs": [
        {
          "internalType": "bytes32",
          "name": "",
          "type": "bytes32"
        }
      ],
      "stateMutability": "view",
      "type": "function"
    },
    {
      "inputs": [
        {
          "internalType": "bytes32",
          "name": "role",
          "type": "bytes32"
        },
        {
          "internalType": "address",
          "name": "account",
          "type": "address"
        }
      ],
      "name": "grantRole",
      "outputs": [],
      "stateMutability": "nonpayable",
      "type": "function"
    },
    {
      "inputs": [
        {
          "internalType": "bytes32",
          "name": "role",
          "type": "bytes32"
        },
        {
          "internalType": "address",
          "name": "account",
          "type": "address"
        }
      ],
      "name": "hasRole",
      "outputs": [
        {
          "internalType": "bool",
          "name": "",
          "type": "bool"
        }
      ],
      "stateMutability": "view",
      "type": "function"
    },
    {
      "inputs": [
        {
          "internalType": "address",
          "name": "owner",
          "type": "address"
        },
        {
          "internalType": "address",
          "name": "operator",
          "type": "address"
        }
      ],
      "name": "isApprovedForAll",
      "outputs": [
        {
          "internalType": "bool",
          "name": "",
          "type": "bool"
        }
      ],
      "stateMutability": "view",
      "type": "function"
    },
    {
      "inputs": [],
      "name": "name",
      "outputs": [
        {
          "internalType": "string",
          "name": "",
          "type": "string"
        }
      ],
      "stateMutability": "view",
      "type": "function"
    },
    {
      "inputs": [
        {
          "internalType": "uint256",
          "name": "tokenId",
          "type": "uint256"
        }
      ],
      "name": "ownerOf",
      "outputs": [
        {
          "internalType": "address",
          "name": "",
          "type": "address"
        }
      ],
      "stateMutability": "view",
      "type": "function"
    },
    {
      "inputs": [],
      "name": "pause",
      "outputs": [],
      "stateMutability": "nonpayable",
      "type": "function"
    },
    {
      "inputs": [],
      "name": "paused",
      "outputs": [
        {
          "internalType": "bool",
          "name": "",
          "type": "bool"
        }
      ],
      "stateMutability": "view",
      "type": "function"
    },
    {
      "inputs": [
        {
          "internalType": "bytes32",
          "name": "role",
          "type": "bytes32"
        },
        {
          "internalType": "address",
          "name": "account",
          "type": "address"
        }
      ],
      "name": "renounceRole",
      "outputs": [],
      "stateMutability": "nonpayable",
      "type": "function"
    },
    {
      "inputs": [
        {
          "internalType": "bytes32",
          "name": "role",
          "type": "bytes32"
        },
        {
          "internalType": "address",
          "name": "account",
          "type": "address"
        }
      ],
      "name": "revokeRole",
      "outputs": [],
      "stateMutability": "nonpayable",
      "type": "function"
    },
    {
      "inputs": [
        {
          "internalType": "address",
          "name": "to",
          "type": "address"
        },
        {
          "internalType": "uint256",
          "name": "tokenId",
          "type": "uint256"
        },
        {
          "internalType": "string",
          "name": "uri",
          "type": "string"
        },
        {
          "components": [
            {
              "internalType": "uint64",
              "name": "specialty",
              "type": "uint64"
            },
            {
              "internalType": "uint64",
              "name": "comfort",
              "type": "uint64"
            },
            {
              "internalType": "uint64",
              "name": "aesthetic",
              "type": "uint64"
            },
            {
              "internalType": "uint32",
              "name": "durability",
              "type": "uint32"
            },
            {
              "internalType": "uint32",
              "name": "level",
              "type": "uint32"
            }
          ],
          "internalType": "struct RunbitCard.MetaData",
          "name": "metaData",
          "type": "tuple"
        }
      ],
      "name": "safeMint",
      "outputs": [],
      "stateMutability": "nonpayable",
      "type": "function"
    },
    {
      "inputs": [
        {
          "internalType": "address",
          "name": "from",
          "type": "address"
        },
        {
          "internalType": "address",
          "name": "to",
          "type": "address"
        },
        {
          "internalType": "uint256",
          "name": "tokenId",
          "type": "uint256"
        }
      ],
      "name": "safeTransferFrom",
      "outputs": [],
      "stateMutability": "nonpayable",
      "type": "function"
    },
    {
      "inputs": [
        {
          "internalType": "address",
          "name": "from",
          "type": "address"
        },
        {
          "internalType": "address",
          "name": "to",
          "type": "address"
        },
        {
          "internalType": "uint256",
          "name": "tokenId",
          "type": "uint256"
        },
        {
          "internalType": "bytes",
          "name": "_data",
          "type": "bytes"
        }
      ],
      "name": "safeTransferFrom",
      "outputs": [],
      "stateMutability": "nonpayable",
      "type": "function"
    },
    {
      "inputs": [
        {
          "internalType": "address",
          "name": "operator",
          "type": "address"
        },
        {
          "internalType": "bool",
          "name": "approved",
          "type": "bool"
        }
      ],
      "name": "setApprovalForAll",
      "outputs": [],
      "stateMutability": "nonpayable",
      "type": "function"
    },
    {
      "inputs": [
        {
          "internalType": "bytes4",
          "name": "interfaceId",
          "type": "bytes4"
        }
      ],
      "name": "supportsInterface",
      "outputs": [
        {
          "internalType": "bool",
          "name": "",
          "type": "bool"
        }
      ],
      "stateMutability": "view",
      "type": "function"
    },
    {
      "inputs": [],
      "name": "symbol",
      "outputs": [
        {
          "internalType": "string",
          "name": "",
          "type": "string"
        }
      ],
      "stateMutability": "view",
      "type": "function"
    },
    {
      "inputs": [
        {
          "internalType": "uint256",
          "name": "index",
          "type": "uint256"
        }
      ],
      "name": "tokenByIndex",
      "outputs": [
        {
          "internalType": "uint256",
          "name": "",
          "type": "uint256"
        }
      ],
      "stateMutability": "view",
      "type": "function"
    },
    {
      "inputs": [
        {
          "internalType": "uint256",
          "name": "tokenId",
          "type": "uint256"
        }
      ],
      "name": "tokenMetaData",
      "outputs": [
        {
          "components": [
            {
              "internalType": "uint64",
              "name": "specialty",
              "type": "uint64"
            },
            {
              "internalType": "uint64",
              "name": "comfort",
              "type": "uint64"
            },
            {
              "internalType": "uint64",
              "name": "aesthetic",
              "type": "uint64"
            },
            {
              "internalType": "uint32",
              "name": "durability",
              "type": "uint32"
            },
            {
              "internalType": "uint32",
              "name": "level",
              "type": "uint32"
            }
          ],
          "internalType": "struct RunbitCard.MetaData",
          "name": "",
          "type": "tuple"
        }
      ],
      "stateMutability": "view",
      "type": "function"
    },
    {
      "inputs": [
        {
          "internalType": "address",
          "name": "owner",
          "type": "address"
        },
        {
          "internalType": "uint256",
          "name": "index",
          "type": "uint256"
        }
      ],
      "name": "tokenOfOwnerByIndex",
      "outputs": [
        {
          "internalType": "uint256",
          "name": "",
          "type": "uint256"
        }
      ],
      "stateMutability": "view",
      "type": "function"
    },
    {
      "inputs": [
        {
          "internalType": "uint256",
          "name": "tokenId",
          "type": "uint256"
        }
      ],
      "name": "tokenURI",
      "outputs": [
        {
          "internalType": "string",
          "name": "",
          "type": "string"
        }
      ],
      "stateMutability": "view",
      "type": "function"
    },
    {
      "inputs": [],
      "name": "totalSupply",
      "outputs": [
        {
          "internalType": "uint256",
          "name": "",
          "type": "uint256"
        }
      ],
      "stateMutability": "view",
      "type": "function"
    },
    {
      "inputs": [
        {
          "internalType": "address",
          "name": "from",
          "type": "address"
        },
        {
          "internalType": "address",
          "name": "to",
          "type": "address"
        },
        {
          "internalType": "uint256",
          "name": "tokenId",
          "type": "uint256"
        }
      ],
      "name": "transferFrom",
      "outputs": [],
      "stateMutability": "nonpayable",
      "type": "function"
    },
    {
      "inputs": [],
      "name": "unpause",
      "outputs": [],
      "stateMutability": "nonpayable",
      "type": "function"
    }
  ],
  "bytecode": "0x60806040523480156200001157600080fd5b506040518060400160405280600b81526020016a149d5b989a5d0810d85c9960aa1b8152506040518060400160405280600381526020016252424360e81b815250816000908162000063919062000234565b50600162000072828262000234565b5050600b805460ff19169055506200008c600033620000ea565b620000b87f65d7a28e3265b37a6474929f336521b332c1681b933f6cb9f3376673440d862a33620000ea565b620000e47f9f2df0fed2c77648de5860a4cc508cd0818c85b8b8a1ab4ceeef8d981c8956a633620000ea565b62000300565b6000828152600c602090815260408083206001600160a01b038516845290915290205460ff166200018b576000828152600c602090815260408083206001600160a01b03851684529091529020805460ff191660011790556200014a3390565b6001600160a01b0316816001600160a01b0316837f2f8788117e7eff1d82e926ec794901d17c78024a50270940304540a733656f0d60405160405180910390a45b5050565b634e487b7160e01b600052604160045260246000fd5b600181811c90821680620001ba57607f821691505b602082108103620001db57634e487b7160e01b600052602260045260246000fd5b50919050565b601f8211156200022f57600081815260208120601f850160051c810160208610156200020a5750805b601f850160051c820191505b818110156200022b5782815560010162000216565b5050505b505050565b81516001600160401b038111156200025057620002506200018f565b6200026881620002618454620001a5565b84620001e1565b602080601f831160018114620002a05760008415620002875750858301515b600019600386901b1c1916600185901b1785556200022b565b600085815260208120601f198616915b82811015620002d157888601518255948401946001909101908401620002b0565b5085821015620002f05787850151600019600388901b60f8161c191681555b5050505050600190811b01905550565b6136a980620003106000396000f3fe608060405234801561001057600080fd5b50600436106101da5760003560e01c80636352211e11610104578063af6a3476116100a2578063d539139311610071578063d539139314610546578063d547741f1461056d578063e63ab1e914610580578063e985e9c5146105a757600080fd5b8063af6a3476146103cd578063b5e52e841461050d578063b88d4fde14610520578063c87b56dd1461053357600080fd5b806391d14854116100de57806391d148541461036457806395d89b41146103aa578063a217fddf146103b2578063a22cb465146103ba57600080fd5b80636352211e1461033657806370a08231146103495780638456cb591461035c57600080fd5b80632f2ff15d1161017c57806342842e0e1161014b57806342842e0e146102f257806342966c68146103055780634f6ccce7146103185780635c975abb1461032b57600080fd5b80632f2ff15d146102b15780632f745c59146102c457806336568abe146102d75780633f4ba83a146102ea57600080fd5b8063095ea7b3116101b8578063095ea7b31461025457806318160ddd1461026957806323b872dd1461027b578063248a9ca31461028e57600080fd5b806301ffc9a7146101df57806306fdde0314610207578063081812fc1461021c575b600080fd5b6101f26101ed366004612d82565b6105f0565b60405190151581526020015b60405180910390f35b61020f610601565b6040516101fe9190612e15565b61022f61022a366004612e28565b610693565b60405173ffffffffffffffffffffffffffffffffffffffff90911681526020016101fe565b610267610262366004612e6a565b610772565b005b6008545b6040519081526020016101fe565b610267610289366004612e94565b6108fe565b61026d61029c366004612e28565b6000908152600c602052604090206001015490565b6102676102bf366004612ed0565b6109a0565b61026d6102d2366004612e6a565b6109c6565b6102676102e5366004612ed0565b610a95565b610267610b48565b610267610300366004612e94565b610b7e565b610267610313366004612e28565b610b99565b61026d610326366004612e28565b610c37565b600b5460ff166101f2565b61022f610344366004612e28565b610cf5565b61026d610357366004612efc565b610da7565b610267610e75565b6101f2610372366004612ed0565b6000918252600c6020908152604080842073ffffffffffffffffffffffffffffffffffffffff93909316845291905290205460ff1690565b61020f610ea8565b61026d600081565b6102676103c8366004612f17565b610eb7565b6104b66103db366004612e28565b6040805160a081018252600080825260208201819052918101829052606081018290526080810191909152506000908152600d6020908152604091829020825160a081018452905467ffffffffffffffff808216835268010000000000000000820481169383019390935270010000000000000000000000000000000081049092169281019290925263ffffffff78010000000000000000000000000000000000000000000000008204811660608401527c010000000000000000000000000000000000000000000000000000000090910416608082015290565b60408051825167ffffffffffffffff908116825260208085015182169083015283830151169181019190915260608083015163ffffffff90811691830191909152608092830151169181019190915260a0016101fe565b61026761051b36600461306b565b610ec2565b61026761052e366004613168565b611040565b61020f610541366004612e28565b6110e8565b61026d7f9f2df0fed2c77648de5860a4cc508cd0818c85b8b8a1ab4ceeef8d981c8956a681565b61026761057b366004612ed0565b6110f3565b61026d7f65d7a28e3265b37a6474929f336521b332c1681b933f6cb9f3376673440d862a81565b6101f26105b53660046131e4565b73ffffffffffffffffffffffffffffffffffffffff918216600090815260056020908152604080832093909416825291909152205460ff1690565b60006105fb82611119565b92915050565b6060600080546106109061320e565b80601f016020809104026020016040519081016040528092919081815260200182805461063c9061320e565b80156106895780601f1061065e57610100808354040283529160200191610689565b820191906000526020600020905b81548152906001019060200180831161066c57829003601f168201915b5050505050905090565b60008181526002602052604081205473ffffffffffffffffffffffffffffffffffffffff16610749576040517f08c379a000000000000000000000000000000000000000000000000000000000815260206004820152602c60248201527f4552433732313a20617070726f76656420717565727920666f72206e6f6e657860448201527f697374656e7420746f6b656e000000000000000000000000000000000000000060648201526084015b60405180910390fd5b5060009081526004602052604090205473ffffffffffffffffffffffffffffffffffffffff1690565b600061077d82610cf5565b90508073ffffffffffffffffffffffffffffffffffffffff168373ffffffffffffffffffffffffffffffffffffffff160361083a576040517f08c379a000000000000000000000000000000000000000000000000000000000815260206004820152602160248201527f4552433732313a20617070726f76616c20746f2063757272656e74206f776e6560448201527f72000000000000000000000000000000000000000000000000000000000000006064820152608401610740565b3373ffffffffffffffffffffffffffffffffffffffff82161480610863575061086381336105b5565b6108ef576040517f08c379a000000000000000000000000000000000000000000000000000000000815260206004820152603860248201527f4552433732313a20617070726f76652063616c6c6572206973206e6f74206f7760448201527f6e6572206e6f7220617070726f76656420666f7220616c6c00000000000000006064820152608401610740565b6108f9838361116f565b505050565b610909335b8261120f565b610995576040517f08c379a000000000000000000000000000000000000000000000000000000000815260206004820152603160248201527f4552433732313a207472616e736665722063616c6c6572206973206e6f74206f60448201527f776e6572206e6f7220617070726f7665640000000000000000000000000000006064820152608401610740565b6108f983838361137f565b6000828152600c60205260409020600101546109bc81336115f1565b6108f983836116c3565b60006109d183610da7565b8210610a5f576040517f08c379a000000000000000000000000000000000000000000000000000000000815260206004820152602b60248201527f455243373231456e756d657261626c653a206f776e657220696e646578206f7560448201527f74206f6620626f756e64730000000000000000000000000000000000000000006064820152608401610740565b5073ffffffffffffffffffffffffffffffffffffffff919091166000908152600660209081526040808320938352929052205490565b73ffffffffffffffffffffffffffffffffffffffff81163314610b3a576040517f08c379a000000000000000000000000000000000000000000000000000000000815260206004820152602f60248201527f416363657373436f6e74726f6c3a2063616e206f6e6c792072656e6f756e636560448201527f20726f6c657320666f722073656c6600000000000000000000000000000000006064820152608401610740565b610b4482826117b7565b5050565b7f65d7a28e3265b37a6474929f336521b332c1681b933f6cb9f3376673440d862a610b7381336115f1565b610b7b611872565b50565b6108f983838360405180602001604052806000815250611040565b610ba233610903565b610c2e576040517f08c379a000000000000000000000000000000000000000000000000000000000815260206004820152603060248201527f4552433732314275726e61626c653a2063616c6c6572206973206e6f74206f7760448201527f6e6572206e6f7220617070726f766564000000000000000000000000000000006064820152608401610740565b610b7b81611953565b6000610c4260085490565b8210610cd0576040517f08c379a000000000000000000000000000000000000000000000000000000000815260206004820152602c60248201527f455243373231456e756d657261626c653a20676c6f62616c20696e646578206f60448201527f7574206f6620626f756e647300000000000000000000000000000000000000006064820152608401610740565b60088281548110610ce357610ce3613261565b90600052602060002001549050919050565b60008181526002602052604081205473ffffffffffffffffffffffffffffffffffffffff16806105fb576040517f08c379a000000000000000000000000000000000000000000000000000000000815260206004820152602960248201527f4552433732313a206f776e657220717565727920666f72206e6f6e657869737460448201527f656e7420746f6b656e00000000000000000000000000000000000000000000006064820152608401610740565b600073ffffffffffffffffffffffffffffffffffffffff8216610e4c576040517f08c379a000000000000000000000000000000000000000000000000000000000815260206004820152602a60248201527f4552433732313a2062616c616e636520717565727920666f7220746865207a6560448201527f726f2061646472657373000000000000000000000000000000000000000000006064820152608401610740565b5073ffffffffffffffffffffffffffffffffffffffff1660009081526003602052604090205490565b7f65d7a28e3265b37a6474929f336521b332c1681b933f6cb9f3376673440d862a610ea081336115f1565b610b7b61195c565b6060600180546106109061320e565b610b44338383611a1c565b7f9f2df0fed2c77648de5860a4cc508cd0818c85b8b8a1ab4ceeef8d981c8956a6610eed81336115f1565b610ef78585611b49565b610f018484611b63565b506000928352600d6020908152604093849020825181549284015195840151606085015160809095015163ffffffff9081167c0100000000000000000000000000000000000000000000000000000000027bffffffffffffffffffffffffffffffffffffffffffffffffffffffff919096167801000000000000000000000000000000000000000000000000027fffffffff00000000ffffffffffffffffffffffffffffffffffffffffffffffff67ffffffffffffffff93841670010000000000000000000000000000000002167fffffffff000000000000000000000000ffffffffffffffffffffffffffffffff99841668010000000000000000027fffffffffffffffffffffffffffffffff0000000000000000000000000000000090971693909416929092179490941796909616179490941716179091555050565b61104a338361120f565b6110d6576040517f08c379a000000000000000000000000000000000000000000000000000000000815260206004820152603160248201527f4552433732313a207472616e736665722063616c6c6572206973206e6f74206f60448201527f776e6572206e6f7220617070726f7665640000000000000000000000000000006064820152608401610740565b6110e284848484611c2c565b50505050565b60606105fb82611ccf565b6000828152600c602052604090206001015461110f81336115f1565b6108f983836117b7565b60007fffffffff0000000000000000000000000000000000000000000000000000000082167f7965db0b0000000000000000000000000000000000000000000000000000000014806105fb57506105fb82611e80565b600081815260046020526040902080547fffffffffffffffffffffffff00000000000000000000000000000000000000001673ffffffffffffffffffffffffffffffffffffffff841690811790915581906111c982610cf5565b73ffffffffffffffffffffffffffffffffffffffff167f8c5be1e5ebec7d5bd14f71427d1e84f3dd0314c0f7b2291e5b200ac8c7c3b92560405160405180910390a45050565b60008181526002602052604081205473ffffffffffffffffffffffffffffffffffffffff166112c0576040517f08c379a000000000000000000000000000000000000000000000000000000000815260206004820152602c60248201527f4552433732313a206f70657261746f7220717565727920666f72206e6f6e657860448201527f697374656e7420746f6b656e00000000000000000000000000000000000000006064820152608401610740565b60006112cb83610cf5565b90508073ffffffffffffffffffffffffffffffffffffffff168473ffffffffffffffffffffffffffffffffffffffff16148061133a57508373ffffffffffffffffffffffffffffffffffffffff1661132284610693565b73ffffffffffffffffffffffffffffffffffffffff16145b80611377575073ffffffffffffffffffffffffffffffffffffffff80821660009081526005602090815260408083209388168352929052205460ff165b949350505050565b8273ffffffffffffffffffffffffffffffffffffffff1661139f82610cf5565b73ffffffffffffffffffffffffffffffffffffffff1614611442576040517f08c379a000000000000000000000000000000000000000000000000000000000815260206004820152602560248201527f4552433732313a207472616e736665722066726f6d20696e636f72726563742060448201527f6f776e65720000000000000000000000000000000000000000000000000000006064820152608401610740565b73ffffffffffffffffffffffffffffffffffffffff82166114e4576040517f08c379a0000000000000000000000000000000000000000000000000000000008152602060048201526024808201527f4552433732313a207472616e7366657220746f20746865207a65726f2061646460448201527f72657373000000000000000000000000000000000000000000000000000000006064820152608401610740565b6114ef838383611ed6565b6114fa60008261116f565b73ffffffffffffffffffffffffffffffffffffffff831660009081526003602052604081208054600192906115309084906132bf565b909155505073ffffffffffffffffffffffffffffffffffffffff8216600090815260036020526040812080546001929061156b9084906132d6565b909155505060008181526002602052604080822080547fffffffffffffffffffffffff00000000000000000000000000000000000000001673ffffffffffffffffffffffffffffffffffffffff86811691821790925591518493918716917fddf252ad1be2c89b69c2b068fc378daa952ba7f163c4a11628f55a4df523b3ef91a4505050565b6000828152600c6020908152604080832073ffffffffffffffffffffffffffffffffffffffff8516845290915290205460ff16610b44576116498173ffffffffffffffffffffffffffffffffffffffff166014611f4e565b611654836020611f4e565b6040516020016116659291906132ee565b604080517fffffffffffffffffffffffffffffffffffffffffffffffffffffffffffffffe0818403018152908290527f08c379a000000000000000000000000000000000000000000000000000000000825261074091600401612e15565b6000828152600c6020908152604080832073ffffffffffffffffffffffffffffffffffffffff8516845290915290205460ff16610b44576000828152600c6020908152604080832073ffffffffffffffffffffffffffffffffffffffff85168452909152902080547fffffffffffffffffffffffffffffffffffffffffffffffffffffffffffffff001660011790556117593390565b73ffffffffffffffffffffffffffffffffffffffff168173ffffffffffffffffffffffffffffffffffffffff16837f2f8788117e7eff1d82e926ec794901d17c78024a50270940304540a733656f0d60405160405180910390a45050565b6000828152600c6020908152604080832073ffffffffffffffffffffffffffffffffffffffff8516845290915290205460ff1615610b44576000828152600c6020908152604080832073ffffffffffffffffffffffffffffffffffffffff8516808552925280832080547fffffffffffffffffffffffffffffffffffffffffffffffffffffffffffffff0016905551339285917ff6391f5c32d9c69d2a47ea670b442974b53935d1edc7fd64eb21e047a839171b9190a45050565b600b5460ff166118de576040517f08c379a000000000000000000000000000000000000000000000000000000000815260206004820152601460248201527f5061757361626c653a206e6f74207061757365640000000000000000000000006044820152606401610740565b600b80547fffffffffffffffffffffffffffffffffffffffffffffffffffffffffffffff001690557f5db9ee0a495bf2e6ff9c91a7834c1ba4fdd244a5e8aa4e537bd38aeae4b073aa335b60405173ffffffffffffffffffffffffffffffffffffffff909116815260200160405180910390a1565b610b7b81612198565b600b5460ff16156119c9576040517f08c379a000000000000000000000000000000000000000000000000000000000815260206004820152601060248201527f5061757361626c653a20706175736564000000000000000000000000000000006044820152606401610740565b600b80547fffffffffffffffffffffffffffffffffffffffffffffffffffffffffffffff001660011790557f62e78cea01bee320cd4e420270b5ea74000d11b0c9f74754ebdbfc544b05a2586119293390565b8173ffffffffffffffffffffffffffffffffffffffff168373ffffffffffffffffffffffffffffffffffffffff1603611ab1576040517f08c379a000000000000000000000000000000000000000000000000000000000815260206004820152601960248201527f4552433732313a20617070726f766520746f2063616c6c6572000000000000006044820152606401610740565b73ffffffffffffffffffffffffffffffffffffffff83811660008181526005602090815260408083209487168084529482529182902080547fffffffffffffffffffffffffffffffffffffffffffffffffffffffffffffff001686151590811790915591519182527f17307eab39ab6107e8899845ad3d59bd9653f200f220920489ca2b5937696c31910160405180910390a3505050565b610b448282604051806020016040528060008152506121d8565b60008281526002602052604090205473ffffffffffffffffffffffffffffffffffffffff16611c14576040517f08c379a000000000000000000000000000000000000000000000000000000000815260206004820152602e60248201527f45524337323155524953746f726167653a2055524920736574206f66206e6f6e60448201527f6578697374656e7420746f6b656e0000000000000000000000000000000000006064820152608401610740565b6000828152600a602052604090206108f982826133bd565b611c3784848461137f565b611c438484848461227b565b6110e2576040517f08c379a000000000000000000000000000000000000000000000000000000000815260206004820152603260248201527f4552433732313a207472616e7366657220746f206e6f6e20455243373231526560448201527f63656976657220696d706c656d656e74657200000000000000000000000000006064820152608401610740565b60008181526002602052604090205460609073ffffffffffffffffffffffffffffffffffffffff16611d83576040517f08c379a000000000000000000000000000000000000000000000000000000000815260206004820152603160248201527f45524337323155524953746f726167653a2055524920717565727920666f722060448201527f6e6f6e6578697374656e7420746f6b656e0000000000000000000000000000006064820152608401610740565b6000828152600a602052604081208054611d9c9061320e565b80601f0160208091040260200160405190810160405280929190818152602001828054611dc89061320e565b8015611e155780601f10611dea57610100808354040283529160200191611e15565b820191906000526020600020905b815481529060010190602001808311611df857829003601f168201915b505050505090506000611e3360408051602081019091526000815290565b90508051600003611e45575092915050565b815115611e77578082604051602001611e5f9291906134d7565b60405160208183030381529060405292505050919050565b6113778461246e565b60007fffffffff0000000000000000000000000000000000000000000000000000000082167f780e9d630000000000000000000000000000000000000000000000000000000014806105fb57506105fb8261258a565b600b5460ff1615611f43576040517f08c379a000000000000000000000000000000000000000000000000000000000815260206004820152601060248201527f5061757361626c653a20706175736564000000000000000000000000000000006044820152606401610740565b6108f983838361266d565b60606000611f5d836002613506565b611f689060026132d6565b67ffffffffffffffff811115611f8057611f80612f53565b6040519080825280601f01601f191660200182016040528015611faa576020820181803683370190505b5090507f300000000000000000000000000000000000000000000000000000000000000081600081518110611fe157611fe1613261565b60200101907effffffffffffffffffffffffffffffffffffffffffffffffffffffffffffff1916908160001a9053507f78000000000000000000000000000000000000000000000000000000000000008160018151811061204457612044613261565b60200101907effffffffffffffffffffffffffffffffffffffffffffffffffffffffffffff1916908160001a9053506000612080846002613506565b61208b9060016132d6565b90505b6001811115612128577f303132333435363738396162636465660000000000000000000000000000000085600f16601081106120cc576120cc613261565b1a60f81b8282815181106120e2576120e2613261565b60200101907effffffffffffffffffffffffffffffffffffffffffffffffffffffffffffff1916908160001a90535060049490941c9361212181613543565b905061208e565b508315612191576040517f08c379a000000000000000000000000000000000000000000000000000000000815260206004820181905260248201527f537472696e67733a20686578206c656e67746820696e73756666696369656e746044820152606401610740565b9392505050565b6121a181612773565b6000818152600a6020526040902080546121ba9061320e565b159050610b7b576000818152600a60205260408120610b7b91612d06565b6121e2838361284c565b6121ef600084848461227b565b6108f9576040517f08c379a000000000000000000000000000000000000000000000000000000000815260206004820152603260248201527f4552433732313a207472616e7366657220746f206e6f6e20455243373231526560448201527f63656976657220696d706c656d656e74657200000000000000000000000000006064820152608401610740565b600073ffffffffffffffffffffffffffffffffffffffff84163b15612463576040517f150b7a0200000000000000000000000000000000000000000000000000000000815273ffffffffffffffffffffffffffffffffffffffff85169063150b7a02906122f2903390899088908890600401613578565b6020604051808303816000875af192505050801561234b575060408051601f3d9081017fffffffffffffffffffffffffffffffffffffffffffffffffffffffffffffffe0168201909252612348918101906135c1565b60015b612418573d808015612379576040519150601f19603f3d011682016040523d82523d6000602084013e61237e565b606091505b508051600003612410576040517f08c379a000000000000000000000000000000000000000000000000000000000815260206004820152603260248201527f4552433732313a207472616e7366657220746f206e6f6e20455243373231526560448201527f63656976657220696d706c656d656e74657200000000000000000000000000006064820152608401610740565b805181602001fd5b7fffffffff00000000000000000000000000000000000000000000000000000000167f150b7a0200000000000000000000000000000000000000000000000000000000149050611377565b506001949350505050565b60008181526002602052604090205460609073ffffffffffffffffffffffffffffffffffffffff16612522576040517f08c379a000000000000000000000000000000000000000000000000000000000815260206004820152602f60248201527f4552433732314d657461646174613a2055524920717565727920666f72206e6f60448201527f6e6578697374656e7420746f6b656e00000000000000000000000000000000006064820152608401610740565b600061253960408051602081019091526000815290565b905060008151116125595760405180602001604052806000815250612191565b8061256384612a1a565b6040516020016125749291906134d7565b6040516020818303038152906040529392505050565b60007fffffffff0000000000000000000000000000000000000000000000000000000082167f80ac58cd00000000000000000000000000000000000000000000000000000000148061261d57507fffffffff0000000000000000000000000000000000000000000000000000000082167f5b5e139f00000000000000000000000000000000000000000000000000000000145b806105fb57507f01ffc9a7000000000000000000000000000000000000000000000000000000007fffffffff000000000000000000000000000000000000000000000000000000008316146105fb565b73ffffffffffffffffffffffffffffffffffffffff83166126d5576126d081600880546000838152600960205260408120829055600182018355919091527ff3f7a9fe364faab93b216da50a3214154f22a0a2b415b23a84c8169e8b636ee30155565b612712565b8173ffffffffffffffffffffffffffffffffffffffff168373ffffffffffffffffffffffffffffffffffffffff1614612712576127128382612b4f565b73ffffffffffffffffffffffffffffffffffffffff8216612736576108f981612c06565b8273ffffffffffffffffffffffffffffffffffffffff168273ffffffffffffffffffffffffffffffffffffffff16146108f9576108f98282612cb5565b600061277e82610cf5565b905061278c81600084611ed6565b61279760008361116f565b73ffffffffffffffffffffffffffffffffffffffff811660009081526003602052604081208054600192906127cd9084906132bf565b909155505060008281526002602052604080822080547fffffffffffffffffffffffff00000000000000000000000000000000000000001690555183919073ffffffffffffffffffffffffffffffffffffffff8416907fddf252ad1be2c89b69c2b068fc378daa952ba7f163c4a11628f55a4df523b3ef908390a45050565b73ffffffffffffffffffffffffffffffffffffffff82166128c9576040517f08c379a000000000000000000000000000000000000000000000000000000000815260206004820181905260248201527f4552433732313a206d696e7420746f20746865207a65726f20616464726573736044820152606401610740565b60008181526002602052604090205473ffffffffffffffffffffffffffffffffffffffff1615612955576040517f08c379a000000000000000000000000000000000000000000000000000000000815260206004820152601c60248201527f4552433732313a20746f6b656e20616c7265616479206d696e746564000000006044820152606401610740565b61296160008383611ed6565b73ffffffffffffffffffffffffffffffffffffffff821660009081526003602052604081208054600192906129979084906132d6565b909155505060008181526002602052604080822080547fffffffffffffffffffffffff00000000000000000000000000000000000000001673ffffffffffffffffffffffffffffffffffffffff861690811790915590518392907fddf252ad1be2c89b69c2b068fc378daa952ba7f163c4a11628f55a4df523b3ef908290a45050565b606081600003612a5d57505060408051808201909152600181527f3000000000000000000000000000000000000000000000000000000000000000602082015290565b8160005b8115612a875780612a71816135de565b9150612a809050600a83613645565b9150612a61565b60008167ffffffffffffffff811115612aa257612aa2612f53565b6040519080825280601f01601f191660200182016040528015612acc576020820181803683370190505b5090505b841561137757612ae16001836132bf565b9150612aee600a86613659565b612af99060306132d6565b60f81b818381518110612b0e57612b0e613261565b60200101907effffffffffffffffffffffffffffffffffffffffffffffffffffffffffffff1916908160001a905350612b48600a86613645565b9450612ad0565b60006001612b5c84610da7565b612b6691906132bf565b600083815260076020526040902054909150808214612bc65773ffffffffffffffffffffffffffffffffffffffff841660009081526006602090815260408083208584528252808320548484528184208190558352600790915290208190555b50600091825260076020908152604080842084905573ffffffffffffffffffffffffffffffffffffffff9094168352600681528383209183525290812055565b600854600090612c18906001906132bf565b60008381526009602052604081205460088054939450909284908110612c4057612c40613261565b906000526020600020015490508060088381548110612c6157612c61613261565b6000918252602080832090910192909255828152600990915260408082208490558582528120556008805480612c9957612c9961366d565b6001900381819060005260206000200160009055905550505050565b6000612cc083610da7565b73ffffffffffffffffffffffffffffffffffffffff9093166000908152600660209081526040808320868452825280832085905593825260079052919091209190915550565b508054612d129061320e565b6000825580601f10612d22575050565b601f016020900490600052602060002090810190610b7b91905b80821115612d505760008155600101612d3c565b5090565b7fffffffff0000000000000000000000000000000000000000000000000000000081168114610b7b57600080fd5b600060208284031215612d9457600080fd5b813561219181612d54565b60005b83811015612dba578181015183820152602001612da2565b838111156110e25750506000910152565b60008151808452612de3816020860160208601612d9f565b601f017fffffffffffffffffffffffffffffffffffffffffffffffffffffffffffffffe0169290920160200192915050565b6020815260006121916020830184612dcb565b600060208284031215612e3a57600080fd5b5035919050565b803573ffffffffffffffffffffffffffffffffffffffff81168114612e6557600080fd5b919050565b60008060408385031215612e7d57600080fd5b612e8683612e41565b946020939093013593505050565b600080600060608486031215612ea957600080fd5b612eb284612e41565b9250612ec060208501612e41565b9150604084013590509250925092565b60008060408385031215612ee357600080fd5b82359150612ef360208401612e41565b90509250929050565b600060208284031215612f0e57600080fd5b61219182612e41565b60008060408385031215612f2a57600080fd5b612f3383612e41565b915060208301358015158114612f4857600080fd5b809150509250929050565b7f4e487b7100000000000000000000000000000000000000000000000000000000600052604160045260246000fd5b60405160a0810167ffffffffffffffff81118282101715612fa557612fa5612f53565b60405290565b600067ffffffffffffffff80841115612fc657612fc6612f53565b604051601f85017fffffffffffffffffffffffffffffffffffffffffffffffffffffffffffffffe0908116603f0116810190828211818310171561300c5761300c612f53565b8160405280935085815286868601111561302557600080fd5b858560208301376000602087830101525050509392505050565b803567ffffffffffffffff81168114612e6557600080fd5b803563ffffffff81168114612e6557600080fd5b60008060008084860361010081121561308357600080fd5b61308c86612e41565b945060208601359350604086013567ffffffffffffffff8111156130af57600080fd5b8601601f810188136130c057600080fd5b6130cf88823560208401612fab565b93505060a07fffffffffffffffffffffffffffffffffffffffffffffffffffffffffffffffa08201121561310257600080fd5b5061310b612f82565b6131176060870161303f565b81526131256080870161303f565b602082015261313660a0870161303f565b604082015261314760c08701613057565b606082015261315860e08701613057565b6080820152939692955090935050565b6000806000806080858703121561317e57600080fd5b61318785612e41565b935061319560208601612e41565b925060408501359150606085013567ffffffffffffffff8111156131b857600080fd5b8501601f810187136131c957600080fd5b6131d887823560208401612fab565b91505092959194509250565b600080604083850312156131f757600080fd5b61320083612e41565b9150612ef360208401612e41565b600181811c9082168061322257607f821691505b60208210810361325b577f4e487b7100000000000000000000000000000000000000000000000000000000600052602260045260246000fd5b50919050565b7f4e487b7100000000000000000000000000000000000000000000000000000000600052603260045260246000fd5b7f4e487b7100000000000000000000000000000000000000000000000000000000600052601160045260246000fd5b6000828210156132d1576132d1613290565b500390565b600082198211156132e9576132e9613290565b500190565b7f416363657373436f6e74726f6c3a206163636f756e7420000000000000000000815260008351613326816017850160208801612d9f565b7f206973206d697373696e6720726f6c65200000000000000000000000000000006017918401918201528351613363816028840160208801612d9f565b01602801949350505050565b601f8211156108f957600081815260208120601f850160051c810160208610156133965750805b601f850160051c820191505b818110156133b5578281556001016133a2565b505050505050565b815167ffffffffffffffff8111156133d7576133d7612f53565b6133eb816133e5845461320e565b8461336f565b602080601f83116001811461343e57600084156134085750858301515b7fffffffffffffffffffffffffffffffffffffffffffffffffffffffffffffffff600386901b1c1916600185901b1785556133b5565b6000858152602081207fffffffffffffffffffffffffffffffffffffffffffffffffffffffffffffffe08616915b8281101561348b5788860151825594840194600190910190840161346c565b50858210156134c757878501517fffffffffffffffffffffffffffffffffffffffffffffffffffffffffffffffff600388901b60f8161c191681555b5050505050600190811b01905550565b600083516134e9818460208801612d9f565b8351908301906134fd818360208801612d9f565b01949350505050565b6000817fffffffffffffffffffffffffffffffffffffffffffffffffffffffffffffffff048311821515161561353e5761353e613290565b500290565b60008161355257613552613290565b507fffffffffffffffffffffffffffffffffffffffffffffffffffffffffffffffff0190565b600073ffffffffffffffffffffffffffffffffffffffff8087168352808616602084015250836040830152608060608301526135b76080830184612dcb565b9695505050505050565b6000602082840312156135d357600080fd5b815161219181612d54565b60007fffffffffffffffffffffffffffffffffffffffffffffffffffffffffffffffff820361360f5761360f613290565b5060010190565b7f4e487b7100000000000000000000000000000000000000000000000000000000600052601260045260246000fd5b60008261365457613654613616565b500490565b60008261366857613668613616565b500690565b7f4e487b7100000000000000000000000000000000000000000000000000000000600052603160045260246000fdfea164736f6c634300080f000a",
  "linkReferences": {},
  "deployedLinkReferences": {}
}