{
  "_format": "hh-sol-artifact-1",
  "contractName": "RunbitCardToken",
  "sourceName": "contracts/RunbitCardToken.sol",
  "abi": [
    {
      "inputs": [
        {
          "internalType": "address",
          "name": "admin",
          "type": "address"
        }
      ],
      "stateMutability": "nonpayable",
      "type": "constructor"
    },
    {
      "anonymous": false,
      "inputs": [
        {
          "indexed": true,
          "internalType": "address",
          "name": "owner",
          "type": "address"
        },
        {
          "indexed": true,
          "internalType": "address",
          "name": "spender",
          "type": "address"
        },
        {
          "indexed": false,
          "internalType": "uint256",
          "name": "value",
          "type": "uint256"
        }
      ],
      "name": "Approval",
      "type": "event"
    },
    {
      "anonymous": false,
      "inputs": [
        {
          "indexed": true,
          "internalType": "address",
          "name": "delegator",
          "type": "address"
        },
        {
          "indexed": true,
          "internalType": "address",
          "name": "fromDelegate",
          "type": "address"
        },
        {
          "indexed": true,
          "internalType": "address",
          "name": "toDelegate",
          "type": "address"
        }
      ],
      "name": "DelegateChanged",
      "type": "event"
    },
    {
      "anonymous": false,
      "inputs": [
        {
          "indexed": true,
          "internalType": "address",
          "name": "delegate",
          "type": "address"
        },
        {
          "indexed": false,
          "internalType": "uint256",
          "name": "previousBalance",
          "type": "uint256"
        },
        {
          "indexed": false,
          "internalType": "uint256",
          "name": "newBalance",
          "type": "uint256"
        }
      ],
      "name": "DelegateVotesChanged",
      "type": "event"
    },
    {
      "anonymous": false,
      "inputs": [
        {
          "indexed": false,
          "internalType": "address",
          "name": "account",
          "type": "address"
        }
      ],
      "name": "Paused",
      "type": "event"
    },
    {
      "anonymous": false,
      "inputs": [
        {
          "indexed": true,
          "internalType": "bytes32",
          "name": "role",
          "type": "bytes32"
        },
        {
          "indexed": true,
          "internalType": "bytes32",
          "name": "previousAdminRole",
          "type": "bytes32"
        },
        {
          "indexed": true,
          "internalType": "bytes32",
          "name": "newAdminRole",
          "type": "bytes32"
        }
      ],
      "name": "RoleAdminChanged",
      "type": "event"
    },
    {
      "anonymous": false,
      "inputs": [
        {
          "indexed": true,
          "internalType": "bytes32",
          "name": "role",
          "type": "bytes32"
        },
        {
          "indexed": true,
          "internalType": "address",
          "name": "account",
          "type": "address"
        },
        {
          "indexed": true,
          "internalType": "address",
          "name": "sender",
          "type": "address"
        }
      ],
      "name": "RoleGranted",
      "type": "event"
    },
    {
      "anonymous": false,
      "inputs": [
        {
          "indexed": true,
          "internalType": "bytes32",
          "name": "role",
          "type": "bytes32"
        },
        {
          "indexed": true,
          "internalType": "address",
          "name": "account",
          "type": "address"
        },
        {
          "indexed": true,
          "internalType": "address",
          "name": "sender",
          "type": "address"
        }
      ],
      "name": "RoleRevoked",
      "type": "event"
    },
    {
      "anonymous": false,
      "inputs": [
        {
          "indexed": false,
          "internalType": "uint256",
          "name": "id",
          "type": "uint256"
        }
      ],
      "name": "Snapshot",
      "type": "event"
    },
    {
      "anonymous": false,
      "inputs": [
        {
          "indexed": true,
          "internalType": "address",
          "name": "from",
          "type": "address"
        },
        {
          "indexed": true,
          "internalType": "address",
          "name": "to",
          "type": "address"
        },
        {
          "indexed": false,
          "internalType": "uint256",
          "name": "value",
          "type": "uint256"
        }
      ],
      "name": "Transfer",
      "type": "event"
    },
    {
      "anonymous": false,
      "inputs": [
        {
          "indexed": false,
          "internalType": "address",
          "name": "account",
          "type": "address"
        }
      ],
      "name": "Unpaused",
      "type": "event"
    },
    {
      "inputs": [],
      "name": "DEFAULT_ADMIN_ROLE",
      "outputs": [
        {
          "internalType": "bytes32",
          "name": "",
          "type": "bytes32"
        }
      ],
      "stateMutability": "view",
      "type": "function"
    },
    {
      "inputs": [],
      "name": "DOMAIN_SEPARATOR",
      "outputs": [
        {
          "internalType": "bytes32",
          "name": "",
          "type": "bytes32"
        }
      ],
      "stateMutability": "view",
      "type": "function"
    },
    {
      "inputs": [],
      "name": "MINTER_ROLE",
      "outputs": [
        {
          "internalType": "bytes32",
          "name": "",
          "type": "bytes32"
        }
      ],
      "stateMutability": "view",
      "type": "function"
    },
    {
      "inputs": [],
      "name": "PAUSER_ROLE",
      "outputs": [
        {
          "internalType": "bytes32",
          "name": "",
          "type": "bytes32"
        }
      ],
      "stateMutability": "view",
      "type": "function"
    },
    {
      "inputs": [],
      "name": "SNAPSHOT_ROLE",
      "outputs": [
        {
          "internalType": "bytes32",
          "name": "",
          "type": "bytes32"
        }
      ],
      "stateMutability": "view",
      "type": "function"
    },
    {
      "inputs": [
        {
          "internalType": "address",
          "name": "owner",
          "type": "address"
        },
        {
          "internalType": "address",
          "name": "spender",
          "type": "address"
        }
      ],
      "name": "allowance",
      "outputs": [
        {
          "internalType": "uint256",
          "name": "",
          "type": "uint256"
        }
      ],
      "stateMutability": "view",
      "type": "function"
    },
    {
      "inputs": [
        {
          "internalType": "address",
          "name": "spender",
          "type": "address"
        },
        {
          "internalType": "uint256",
          "name": "amount",
          "type": "uint256"
        }
      ],
      "name": "approve",
      "outputs": [
        {
          "internalType": "bool",
          "name": "",
          "type": "bool"
        }
      ],
      "stateMutability": "nonpayable",
      "type": "function"
    },
    {
      "inputs": [
        {
          "internalType": "address",
          "name": "account",
          "type": "address"
        }
      ],
      "name": "balanceOf",
      "outputs": [
        {
          "internalType": "uint256",
          "name": "",
          "type": "uint256"
        }
      ],
      "stateMutability": "view",
      "type": "function"
    },
    {
      "inputs": [
        {
          "internalType": "address",
          "name": "account",
          "type": "address"
        },
        {
          "internalType": "uint256",
          "name": "snapshotId",
          "type": "uint256"
        }
      ],
      "name": "balanceOfAt",
      "outputs": [
        {
          "internalType": "uint256",
          "name": "",
          "type": "uint256"
        }
      ],
      "stateMutability": "view",
      "type": "function"
    },
    {
      "inputs": [
        {
          "internalType": "uint256",
          "name": "amount",
          "type": "uint256"
        }
      ],
      "name": "burn",
      "outputs": [],
      "stateMutability": "nonpayable",
      "type": "function"
    },
    {
      "inputs": [
        {
          "internalType": "address",
          "name": "account",
          "type": "address"
        },
        {
          "internalType": "uint256",
          "name": "amount",
          "type": "uint256"
        }
      ],
      "name": "burnFrom",
      "outputs": [],
      "stateMutability": "nonpayable",
      "type": "function"
    },
    {
      "inputs": [
        {
          "internalType": "address",
          "name": "account",
          "type": "address"
        },
        {
          "internalType": "uint32",
          "name": "pos",
          "type": "uint32"
        }
      ],
      "name": "checkpoints",
      "outputs": [
        {
          "components": [
            {
              "internalType": "uint32",
              "name": "fromBlock",
              "type": "uint32"
            },
            {
              "internalType": "uint224",
              "name": "votes",
              "type": "uint224"
            }
          ],
          "internalType": "struct ERC20Votes.Checkpoint",
          "name": "",
          "type": "tuple"
        }
      ],
      "stateMutability": "view",
      "type": "function"
    },
    {
      "inputs": [],
      "name": "decimals",
      "outputs": [
        {
          "internalType": "uint8",
          "name": "",
          "type": "uint8"
        }
      ],
      "stateMutability": "view",
      "type": "function"
    },
    {
      "inputs": [
        {
          "internalType": "address",
          "name": "spender",
          "type": "address"
        },
        {
          "internalType": "uint256",
          "name": "subtractedValue",
          "type": "uint256"
        }
      ],
      "name": "decreaseAllowance",
      "outputs": [
        {
          "internalType": "bool",
          "name": "",
          "type": "bool"
        }
      ],
      "stateMutability": "nonpayable",
      "type": "function"
    },
    {
      "inputs": [
        {
          "internalType": "address",
          "name": "delegatee",
          "type": "address"
        }
      ],
      "name": "delegate",
      "outputs": [],
      "stateMutability": "nonpayable",
      "type": "function"
    },
    {
      "inputs": [
        {
          "internalType": "address",
          "name": "delegatee",
          "type": "address"
        },
        {
          "internalType": "uint256",
          "name": "nonce",
          "type": "uint256"
        },
        {
          "internalType": "uint256",
          "name": "expiry",
          "type": "uint256"
        },
        {
          "internalType": "uint8",
          "name": "v",
          "type": "uint8"
        },
        {
          "internalType": "bytes32",
          "name": "r",
          "type": "bytes32"
        },
        {
          "internalType": "bytes32",
          "name": "s",
          "type": "bytes32"
        }
      ],
      "name": "delegateBySig",
      "outputs": [],
      "stateMutability": "nonpayable",
      "type": "function"
    },
    {
      "inputs": [
        {
          "internalType": "address",
          "name": "account",
          "type": "address"
        }
      ],
      "name": "delegates",
      "outputs": [
        {
          "internalType": "address",
          "name": "",
          "type": "address"
        }
      ],
      "stateMutability": "view",
      "type": "function"
    },
    {
      "inputs": [
        {
          "internalType": "address",
          "name": "token",
          "type": "address"
        },
        {
          "internalType": "uint256",
          "name": "amount",
          "type": "uint256"
        }
      ],
      "name": "flashFee",
      "outputs": [
        {
          "internalType": "uint256",
          "name": "",
          "type": "uint256"
        }
      ],
      "stateMutability": "view",
      "type": "function"
    },
    {
      "inputs": [
        {
          "internalType": "contract IERC3156FlashBorrower",
          "name": "receiver",
          "type": "address"
        },
        {
          "internalType": "address",
          "name": "token",
          "type": "address"
        },
        {
          "internalType": "uint256",
          "name": "amount",
          "type": "uint256"
        },
        {
          "internalType": "bytes",
          "name": "data",
          "type": "bytes"
        }
      ],
      "name": "flashLoan",
      "outputs": [
        {
          "internalType": "bool",
          "name": "",
          "type": "bool"
        }
      ],
      "stateMutability": "nonpayable",
      "type": "function"
    },
    {
      "inputs": [
        {
          "internalType": "uint256",
          "name": "blockNumber",
          "type": "uint256"
        }
      ],
      "name": "getPastTotalSupply",
      "outputs": [
        {
          "internalType": "uint256",
          "name": "",
          "type": "uint256"
        }
      ],
      "stateMutability": "view",
      "type": "function"
    },
    {
      "inputs": [
        {
          "internalType": "address",
          "name": "account",
          "type": "address"
        },
        {
          "internalType": "uint256",
          "name": "blockNumber",
          "type": "uint256"
        }
      ],
      "name": "getPastVotes",
      "outputs": [
        {
          "internalType": "uint256",
          "name": "",
          "type": "uint256"
        }
      ],
      "stateMutability": "view",
      "type": "function"
    },
    {
      "inputs": [
        {
          "internalType": "bytes32",
          "name": "role",
          "type": "bytes32"
        }
      ],
      "name": "getRoleAdmin",
      "outputs": [
        {
          "internalType": "bytes32",
          "name": "",
          "type": "bytes32"
        }
      ],
      "stateMutability": "view",
      "type": "function"
    },
    {
      "inputs": [
        {
          "internalType": "address",
          "name": "account",
          "type": "address"
        }
      ],
      "name": "getVotes",
      "outputs": [
        {
          "internalType": "uint256",
          "name": "",
          "type": "uint256"
        }
      ],
      "stateMutability": "view",
      "type": "function"
    },
    {
      "inputs": [
        {
          "internalType": "bytes32",
          "name": "role",
          "type": "bytes32"
        },
        {
          "internalType": "address",
          "name": "account",
          "type": "address"
        }
      ],
      "name": "grantRole",
      "outputs": [],
      "stateMutability": "nonpayable",
      "type": "function"
    },
    {
      "inputs": [
        {
          "internalType": "bytes32",
          "name": "role",
          "type": "bytes32"
        },
        {
          "internalType": "address",
          "name": "account",
          "type": "address"
        }
      ],
      "name": "hasRole",
      "outputs": [
        {
          "internalType": "bool",
          "name": "",
          "type": "bool"
        }
      ],
      "stateMutability": "view",
      "type": "function"
    },
    {
      "inputs": [
        {
          "internalType": "address",
          "name": "spender",
          "type": "address"
        },
        {
          "internalType": "uint256",
          "name": "addedValue",
          "type": "uint256"
        }
      ],
      "name": "increaseAllowance",
      "outputs": [
        {
          "internalType": "bool",
          "name": "",
          "type": "bool"
        }
      ],
      "stateMutability": "nonpayable",
      "type": "function"
    },
    {
      "inputs": [],
      "name": "lockMinter",
      "outputs": [],
      "stateMutability": "nonpayable",
      "type": "function"
    },
    {
      "inputs": [
        {
          "internalType": "address",
          "name": "token",
          "type": "address"
        }
      ],
      "name": "maxFlashLoan",
      "outputs": [
        {
          "internalType": "uint256",
          "name": "",
          "type": "uint256"
        }
      ],
      "stateMutability": "view",
      "type": "function"
    },
    {
      "inputs": [
        {
          "internalType": "address",
          "name": "to",
          "type": "address"
        },
        {
          "internalType": "uint256",
          "name": "amount",
          "type": "uint256"
        }
      ],
      "name": "mint",
      "outputs": [],
      "stateMutability": "nonpayable",
      "type": "function"
    },
    {
      "inputs": [],
      "name": "name",
      "outputs": [
        {
          "internalType": "string",
          "name": "",
          "type": "string"
        }
      ],
      "stateMutability": "view",
      "type": "function"
    },
    {
      "inputs": [
        {
          "internalType": "address",
          "name": "owner",
          "type": "address"
        }
      ],
      "name": "nonces",
      "outputs": [
        {
          "internalType": "uint256",
          "name": "",
          "type": "uint256"
        }
      ],
      "stateMutability": "view",
      "type": "function"
    },
    {
      "inputs": [
        {
          "internalType": "address",
          "name": "account",
          "type": "address"
        }
      ],
      "name": "numCheckpoints",
      "outputs": [
        {
          "internalType": "uint32",
          "name": "",
          "type": "uint32"
        }
      ],
      "stateMutability": "view",
      "type": "function"
    },
    {
      "inputs": [],
      "name": "pause",
      "outputs": [],
      "stateMutability": "nonpayable",
      "type": "function"
    },
    {
      "inputs": [],
      "name": "paused",
      "outputs": [
        {
          "internalType": "bool",
          "name": "",
          "type": "bool"
        }
      ],
      "stateMutability": "view",
      "type": "function"
    },
    {
      "inputs": [
        {
          "internalType": "address",
          "name": "owner",
          "type": "address"
        },
        {
          "internalType": "address",
          "name": "spender",
          "type": "address"
        },
        {
          "internalType": "uint256",
          "name": "value",
          "type": "uint256"
        },
        {
          "internalType": "uint256",
          "name": "deadline",
          "type": "uint256"
        },
        {
          "internalType": "uint8",
          "name": "v",
          "type": "uint8"
        },
        {
          "internalType": "bytes32",
          "name": "r",
          "type": "bytes32"
        },
        {
          "internalType": "bytes32",
          "name": "s",
          "type": "bytes32"
        }
      ],
      "name": "permit",
      "outputs": [],
      "stateMutability": "nonpayable",
      "type": "function"
    },
    {
      "inputs": [
        {
          "internalType": "bytes32",
          "name": "role",
          "type": "bytes32"
        },
        {
          "internalType": "address",
          "name": "account",
          "type": "address"
        }
      ],
      "name": "renounceRole",
      "outputs": [],
      "stateMutability": "nonpayable",
      "type": "function"
    },
    {
      "inputs": [
        {
          "internalType": "bytes32",
          "name": "role",
          "type": "bytes32"
        },
        {
          "internalType": "address",
          "name": "account",
          "type": "address"
        }
      ],
      "name": "revokeRole",
      "outputs": [],
      "stateMutability": "nonpayable",
      "type": "function"
    },
    {
      "inputs": [],
      "name": "snapshot",
      "outputs": [],
      "stateMutability": "nonpayable",
      "type": "function"
    },
    {
      "inputs": [
        {
          "internalType": "bytes4",
          "name": "interfaceId",
          "type": "bytes4"
        }
      ],
      "name": "supportsInterface",
      "outputs": [
        {
          "internalType": "bool",
          "name": "",
          "type": "bool"
        }
      ],
      "stateMutability": "view",
      "type": "function"
    },
    {
      "inputs": [],
      "name": "symbol",
      "outputs": [
        {
          "internalType": "string",
          "name": "",
          "type": "string"
        }
      ],
      "stateMutability": "view",
      "type": "function"
    },
    {
      "inputs": [],
      "name": "totalSupply",
      "outputs": [
        {
          "internalType": "uint256",
          "name": "",
          "type": "uint256"
        }
      ],
      "stateMutability": "view",
      "type": "function"
    },
    {
      "inputs": [
        {
          "internalType": "uint256",
          "name": "snapshotId",
          "type": "uint256"
        }
      ],
      "name": "totalSupplyAt",
      "outputs": [
        {
          "internalType": "uint256",
          "name": "",
          "type": "uint256"
        }
      ],
      "stateMutability": "view",
      "type": "function"
    },
    {
      "inputs": [
        {
          "internalType": "address",
          "name": "to",
          "type": "address"
        },
        {
          "internalType": "uint256",
          "name": "amount",
          "type": "uint256"
        }
      ],
      "name": "transfer",
      "outputs": [
        {
          "internalType": "bool",
          "name": "",
          "type": "bool"
        }
      ],
      "stateMutability": "nonpayable",
      "type": "function"
    },
    {
      "inputs": [
        {
          "internalType": "address",
          "name": "from",
          "type": "address"
        },
        {
          "internalType": "address",
          "name": "to",
          "type": "address"
        },
        {
          "internalType": "uint256",
          "name": "amount",
          "type": "uint256"
        }
      ],
      "name": "transferFrom",
      "outputs": [
        {
          "internalType": "bool",
          "name": "",
          "type": "bool"
        }
      ],
      "stateMutability": "nonpayable",
      "type": "function"
    },
    {
      "inputs": [],
      "name": "unpause",
      "outputs": [],
      "stateMutability": "nonpayable",
      "type": "function"
    }
  ],
  "bytecode": "0x6101406040526010805460ff191690553480156200001c57600080fd5b50604051620042e3380380620042e38339810160408190526200003f916200032c565b6040518060400160405280600f81526020016e293ab73134ba21b0b9322a37b5b2b760891b81525080604051806040016040528060018152602001603160f81b8152506040518060400160405280600f81526020016e293ab73134ba21b0b9322a37b5b2b760891b81525060405180604001604052806004815260200163149090d560e21b8152508160039081620000d8919062000403565b506004620000e7828262000403565b5050600a805460ff1916905550815160209283012081519183019190912060e08290526101008190524660a0818152604080517f8b73c3c69bb8fe3d512ecc4cf759cc79239f7b179b0ffacaa9a75d522b39400f818801819052818301969096526060810194909452608080850193909352308483018190528151808603909301835260c0948501909152815191909501209052919091526101205250620001916000826200020b565b620001bd7f5fdbd35e8da83ee755d5e62a539e5ed7f47126abede0b8b10f9ea43dc6eed07f826200020b565b620001e97f65d7a28e3265b37a6474929f336521b332c1681b933f6cb9f3376673440d862a826200020b565b62000204600080516020620042c3833981519152826200020b565b50620004cf565b60105460ff1615806200022d5750600080516020620042c38339815191528214155b6200026d5760405162461bcd60e51b815260206004820152600c60248201526b6e6f7420616c6c6f7765642160a01b604482015260640160405180910390fd5b6200028482826200028860201b6200167b1760201c565b5050565b60008281526009602090815260408083206001600160a01b038516845290915290205460ff16620002845760008281526009602090815260408083206001600160a01b03851684529091529020805460ff19166001179055620002e83390565b6001600160a01b0316816001600160a01b0316837f2f8788117e7eff1d82e926ec794901d17c78024a50270940304540a733656f0d60405160405180910390a45050565b6000602082840312156200033f57600080fd5b81516001600160a01b03811681146200035757600080fd5b9392505050565b634e487b7160e01b600052604160045260246000fd5b600181811c908216806200038957607f821691505b602082108103620003aa57634e487b7160e01b600052602260045260246000fd5b50919050565b601f821115620003fe57600081815260208120601f850160051c81016020861015620003d95750805b601f850160051c820191505b81811015620003fa57828155600101620003e5565b5050505b505050565b81516001600160401b038111156200041f576200041f6200035e565b620004378162000430845462000374565b84620003b0565b602080601f8311600181146200046f5760008415620004565750858301515b600019600386901b1c1916600185901b178555620003fa565b600085815260208120601f198616915b82811015620004a0578886015182559484019460019091019084016200047f565b5085821015620004bf5787850151600019600388901b60f8161c191681555b5050505050600190811b01905550565b60805160a05160c05160e0516101005161012051613da46200051f6000396000611dbc01526000611e0b01526000611de601526000611d3f01526000611d6901526000611d930152613da46000f3fe608060405234801561001057600080fd5b50600436106102ff5760003560e01c80637028e2cd1161019c5780639ab24eb0116100ee578063d539139311610097578063dd62ed3e11610071578063dd62ed3e146106cf578063e63ab1e914610715578063f1127ed81461073c57600080fd5b8063d539139314610682578063d547741f146106a9578063d9d98ce4146106bc57600080fd5b8063a9059cbb116100c8578063a9059cbb14610649578063c3cda5201461065c578063d505accf1461066f57600080fd5b80639ab24eb01461061b578063a217fddf1461062e578063a457c2d71461063657600080fd5b80638456cb591161015057806395d89b411161012a57806395d89b41146105f85780639711715a14610600578063981b24d01461060857600080fd5b80638456cb59146105975780638e539e8c1461059f57806391d14854146105b257600080fd5b806376daebe11161018157806376daebe11461056957806379cc6790146105715780637ecebe001461058457600080fd5b80637028e2cd1461050c57806370a082311461053357600080fd5b80633a46b1a811610255578063587cde1e116102095780635cffe9de116101e35780635cffe9de146104be578063613255ab146104d15780636fcfff45146104e457600080fd5b8063587cde1e146104425780635c19a95c146104a05780635c975abb146104b357600080fd5b806340c10f191161023a57806340c10f191461040957806342966c681461041c5780634ee2cd7e1461042f57600080fd5b80633a46b1a8146103ee5780633f4ba83a1461040157600080fd5b8063248a9ca3116102b75780633644e515116102915780633644e515146103c057806336568abe146103c857806339509351146103db57600080fd5b8063248a9ca3146103795780632f2ff15d1461039c578063313ce567146103b157600080fd5b8063095ea7b3116102e8578063095ea7b31461034157806318160ddd1461035457806323b872dd1461036657600080fd5b806301ffc9a71461030457806306fdde031461032c575b600080fd5b610317610312366004613709565b61078e565b60405190151581526020015b60405180910390f35b610334610827565b604051610323919061376f565b61031761034f3660046137e2565b6108b9565b6002545b604051908152602001610323565b61031761037436600461380e565b6108d1565b61035861038736600461384f565b60009081526009602052604090206001015490565b6103af6103aa366004613868565b6108f5565b005b60405160008152602001610323565b61035861091f565b6103af6103d6366004613868565b61092e565b6103176103e93660046137e2565b6109e6565b6103586103fc3660046137e2565b610a32565b6103af610ad3565b6103af6104173660046137e2565b610b08565b6103af61042a36600461384f565b610b3c565b61035861043d3660046137e2565b610b46565b61047b610450366004613898565b73ffffffffffffffffffffffffffffffffffffffff9081166000908152600d60205260409020541690565b60405173ffffffffffffffffffffffffffffffffffffffff9091168152602001610323565b6103af6104ae366004613898565b610bb9565b600a5460ff16610317565b6103176104cc3660046138b5565b610bc3565b6103586104df366004613898565b610e39565b6104f76104f2366004613898565b610e8c565b60405163ffffffff9091168152602001610323565b6103587f5fdbd35e8da83ee755d5e62a539e5ed7f47126abede0b8b10f9ea43dc6eed07f81565b610358610541366004613898565b73ffffffffffffffffffffffffffffffffffffffff1660009081526020819052604090205490565b6103af610ebb565b6103af61057f3660046137e2565b610ef4565b610358610592366004613898565b610f09565b6103af610f34565b6103586105ad36600461384f565b610f66565b6103176105c0366004613868565b600091825260096020908152604080842073ffffffffffffffffffffffffffffffffffffffff93909316845291905290205460ff1690565b610334610fdc565b6103af610feb565b61035861061636600461384f565b61101d565b610358610629366004613898565b611048565b610358600081565b6103176106443660046137e2565b611113565b6103176106573660046137e2565b6111e4565b6103af61066a366004613965565b6111f2565b6103af61067d3660046139bf565b611369565b6103587f9f2df0fed2c77648de5860a4cc508cd0818c85b8b8a1ab4ceeef8d981c8956a681565b6103af6106b7366004613868565b611528565b6103586106ca3660046137e2565b61154d565b6103586106dd366004613a2d565b73ffffffffffffffffffffffffffffffffffffffff918216600090815260016020908152604080832093909416825291909152205490565b6103587f65d7a28e3265b37a6474929f336521b332c1681b933f6cb9f3376673440d862a81565b61074f61074a366004613a5b565b6115d5565b60408051825163ffffffff1681526020928301517bffffffffffffffffffffffffffffffffffffffffffffffffffffffff169281019290925201610323565b60007fffffffff0000000000000000000000000000000000000000000000000000000082167f7965db0b00000000000000000000000000000000000000000000000000000000148061082157507f01ffc9a7000000000000000000000000000000000000000000000000000000007fffffffff000000000000000000000000000000000000000000000000000000008316145b92915050565b60606003805461083690613a92565b80601f016020809104026020016040519081016040528092919081815260200182805461086290613a92565b80156108af5780601f10610884576101008083540402835291602001916108af565b820191906000526020600020905b81548152906001019060200180831161089257829003601f168201915b5050505050905090565b6000336108c781858561176f565b5060019392505050565b6000336108df858285611922565b6108ea8585856119f9565b506001949350505050565b60008281526009602052604090206001015461091081611c79565b61091a8383611c83565b505050565b6000610929611d25565b905090565b73ffffffffffffffffffffffffffffffffffffffff811633146109d8576040517f08c379a000000000000000000000000000000000000000000000000000000000815260206004820152602f60248201527f416363657373436f6e74726f6c3a2063616e206f6e6c792072656e6f756e636560448201527f20726f6c657320666f722073656c66000000000000000000000000000000000060648201526084015b60405180910390fd5b6109e28282611e59565b5050565b33600081815260016020908152604080832073ffffffffffffffffffffffffffffffffffffffff871684529091528120549091906108c79082908690610a2d908790613b0e565b61176f565b6000438210610a9d576040517f08c379a000000000000000000000000000000000000000000000000000000000815260206004820152601f60248201527f4552433230566f7465733a20626c6f636b206e6f7420796574206d696e65640060448201526064016109cf565b73ffffffffffffffffffffffffffffffffffffffff83166000908152600e60205260409020610acc9083611f14565b9392505050565b7f65d7a28e3265b37a6474929f336521b332c1681b933f6cb9f3376673440d862a610afd81611c79565b610b05612035565b50565b7f9f2df0fed2c77648de5860a4cc508cd0818c85b8b8a1ab4ceeef8d981c8956a6610b3281611c79565b61091a83836120b2565b610b0533826120bc565b73ffffffffffffffffffffffffffffffffffffffff8216600090815260056020526040812081908190610b7a9085906120c6565b9150915081610bae5773ffffffffffffffffffffffffffffffffffffffff8516600090815260208190526040902054610bb0565b805b95945050505050565b610b0533826121f7565b6000610bce85610e39565b841115610c5d576040517f08c379a000000000000000000000000000000000000000000000000000000000815260206004820152602b60248201527f4552433230466c6173684d696e743a20616d6f756e742065786365656473206d60448201527f6178466c6173684c6f616e00000000000000000000000000000000000000000060648201526084016109cf565b6000610c69868661154d565b9050610c7587866120b2565b6040517f23e30c8b0000000000000000000000000000000000000000000000000000000081527f439148f0bbc682ca079e46d6e2c2f0c1e3b820f1a291b069d8882abf8cf18dd99073ffffffffffffffffffffffffffffffffffffffff8916906323e30c8b90610cf39033908b908b9088908c908c90600401613b21565b6020604051808303816000875af1158015610d12573d6000803e3d6000fd5b505050506040513d601f19601f82011682018060405250810190610d369190613ba7565b14610dc2576040517f08c379a0000000000000000000000000000000000000000000000000000000008152602060048201526024808201527f4552433230466c6173684d696e743a20696e76616c69642072657475726e207660448201527f616c75650000000000000000000000000000000000000000000000000000000060648201526084016109cf565b6000610dd88830610dd3858a613b0e565b611922565b811580610df9575073ffffffffffffffffffffffffffffffffffffffff8116155b15610e1657610e1188610e0c8489613b0e565b6120bc565b610e2b565b610e2088876120bc565b610e2b8882846119f9565b506001979650505050505050565b600073ffffffffffffffffffffffffffffffffffffffff82163014610e5f576000610821565b600254610821907fffffffffffffffffffffffffffffffffffffffffffffffffffffffffffffffff613bc0565b73ffffffffffffffffffffffffffffffffffffffff81166000908152600e602052604081205461082190612295565b6000610ec681611c79565b50601080547fffffffffffffffffffffffffffffffffffffffffffffffffffffffffffffff00166001179055565b610eff823383611922565b6109e282826120bc565b73ffffffffffffffffffffffffffffffffffffffff81166000908152600b6020526040812054610821565b7f65d7a28e3265b37a6474929f336521b332c1681b933f6cb9f3376673440d862a610f5e81611c79565b610b0561232f565b6000438210610fd1576040517f08c379a000000000000000000000000000000000000000000000000000000000815260206004820152601f60248201527f4552433230566f7465733a20626c6f636b206e6f7420796574206d696e65640060448201526064016109cf565b610821600f83611f14565b60606004805461083690613a92565b7f5fdbd35e8da83ee755d5e62a539e5ed7f47126abede0b8b10f9ea43dc6eed07f61101581611c79565b6109e261238a565b600080600061102d8460066120c6565b915091508161103e57600254611040565b805b949350505050565b73ffffffffffffffffffffffffffffffffffffffff81166000908152600e602052604081205480156110eb5773ffffffffffffffffffffffffffffffffffffffff83166000908152600e602052604090206110a4600183613bc0565b815481106110b4576110b4613bd3565b60009182526020909120015464010000000090047bffffffffffffffffffffffffffffffffffffffffffffffffffffffff166110ee565b60005b7bffffffffffffffffffffffffffffffffffffffffffffffffffffffff169392505050565b33600081815260016020908152604080832073ffffffffffffffffffffffffffffffffffffffff87168452909152812054909190838110156111d7576040517f08c379a000000000000000000000000000000000000000000000000000000000815260206004820152602560248201527f45524332303a2064656372656173656420616c6c6f77616e63652062656c6f7760448201527f207a65726f00000000000000000000000000000000000000000000000000000060648201526084016109cf565b6108ea828686840361176f565b6000336108c78185856119f9565b8342111561125c576040517f08c379a000000000000000000000000000000000000000000000000000000000815260206004820152601d60248201527f4552433230566f7465733a207369676e6174757265206578706972656400000060448201526064016109cf565b604080517fe48329057bfd03d55e49b547132e39cffd9c1820ad7b9d4c5307691425d15adf602082015273ffffffffffffffffffffffffffffffffffffffff88169181019190915260608101869052608081018590526000906112e3906112db9060a001604051602081830303815290604052805190602001206123e4565b85858561244d565b90506112ee81612475565b8614611356576040517f08c379a000000000000000000000000000000000000000000000000000000000815260206004820152601960248201527f4552433230566f7465733a20696e76616c6964206e6f6e63650000000000000060448201526064016109cf565b61136081886121f7565b50505050505050565b834211156113d3576040517f08c379a000000000000000000000000000000000000000000000000000000000815260206004820152601d60248201527f45524332305065726d69743a206578706972656420646561646c696e6500000060448201526064016109cf565b60007f6e71edae12b1b97f4d1f60370fef10105fa2faae0126114a169c64845d6126c98888886114028c612475565b60408051602081019690965273ffffffffffffffffffffffffffffffffffffffff94851690860152929091166060840152608083015260a082015260c0810186905260e001604051602081830303815290604052805190602001209050600061146a826123e4565b9050600061147a8287878761244d565b90508973ffffffffffffffffffffffffffffffffffffffff168173ffffffffffffffffffffffffffffffffffffffff1614611511576040517f08c379a000000000000000000000000000000000000000000000000000000000815260206004820152601e60248201527f45524332305065726d69743a20696e76616c6964207369676e6174757265000060448201526064016109cf565b61151c8a8a8a61176f565b50505050505050505050565b60008281526009602052604090206001015461154381611c79565b61091a8383611e59565b600073ffffffffffffffffffffffffffffffffffffffff831630146115ce576040517f08c379a000000000000000000000000000000000000000000000000000000000815260206004820152601b60248201527f4552433230466c6173684d696e743a2077726f6e6720746f6b656e000000000060448201526064016109cf565b6000610acc565b604080518082019091526000808252602082015273ffffffffffffffffffffffffffffffffffffffff83166000908152600e60205260409020805463ffffffff841690811061162657611626613bd3565b60009182526020918290206040805180820190915291015463ffffffff8116825264010000000090047bffffffffffffffffffffffffffffffffffffffffffffffffffffffff16918101919091529392505050565b600082815260096020908152604080832073ffffffffffffffffffffffffffffffffffffffff8516845290915290205460ff166109e257600082815260096020908152604080832073ffffffffffffffffffffffffffffffffffffffff85168452909152902080547fffffffffffffffffffffffffffffffffffffffffffffffffffffffffffffff001660011790556117113390565b73ffffffffffffffffffffffffffffffffffffffff168173ffffffffffffffffffffffffffffffffffffffff16837f2f8788117e7eff1d82e926ec794901d17c78024a50270940304540a733656f0d60405160405180910390a45050565b73ffffffffffffffffffffffffffffffffffffffff8316611811576040517f08c379a0000000000000000000000000000000000000000000000000000000008152602060048201526024808201527f45524332303a20617070726f76652066726f6d20746865207a65726f2061646460448201527f726573730000000000000000000000000000000000000000000000000000000060648201526084016109cf565b73ffffffffffffffffffffffffffffffffffffffff82166118b4576040517f08c379a000000000000000000000000000000000000000000000000000000000815260206004820152602260248201527f45524332303a20617070726f766520746f20746865207a65726f20616464726560448201527f737300000000000000000000000000000000000000000000000000000000000060648201526084016109cf565b73ffffffffffffffffffffffffffffffffffffffff83811660008181526001602090815260408083209487168084529482529182902085905590518481527f8c5be1e5ebec7d5bd14f71427d1e84f3dd0314c0f7b2291e5b200ac8c7c3b925910160405180910390a3505050565b73ffffffffffffffffffffffffffffffffffffffff8381166000908152600160209081526040808320938616835292905220547fffffffffffffffffffffffffffffffffffffffffffffffffffffffffffffffff81146119f357818110156119e6576040517f08c379a000000000000000000000000000000000000000000000000000000000815260206004820152601d60248201527f45524332303a20696e73756666696369656e7420616c6c6f77616e636500000060448201526064016109cf565b6119f3848484840361176f565b50505050565b73ffffffffffffffffffffffffffffffffffffffff8316611a9c576040517f08c379a000000000000000000000000000000000000000000000000000000000815260206004820152602560248201527f45524332303a207472616e736665722066726f6d20746865207a65726f20616460448201527f647265737300000000000000000000000000000000000000000000000000000060648201526084016109cf565b73ffffffffffffffffffffffffffffffffffffffff8216611b3f576040517f08c379a000000000000000000000000000000000000000000000000000000000815260206004820152602360248201527f45524332303a207472616e7366657220746f20746865207a65726f206164647260448201527f657373000000000000000000000000000000000000000000000000000000000060648201526084016109cf565b611b4a8383836124aa565b73ffffffffffffffffffffffffffffffffffffffff831660009081526020819052604090205481811015611c00576040517f08c379a000000000000000000000000000000000000000000000000000000000815260206004820152602660248201527f45524332303a207472616e7366657220616d6f756e742065786365656473206260448201527f616c616e6365000000000000000000000000000000000000000000000000000060648201526084016109cf565b73ffffffffffffffffffffffffffffffffffffffff848116600081815260208181526040808320878703905593871680835291849020805487019055925185815290927fddf252ad1be2c89b69c2b068fc378daa952ba7f163c4a11628f55a4df523b3ef910160405180910390a36119f38484846124bd565b610b0581336124c8565b60105460ff161580611cb557507f9f2df0fed2c77648de5860a4cc508cd0818c85b8b8a1ab4ceeef8d981c8956a68214155b611d1b576040517f08c379a000000000000000000000000000000000000000000000000000000000815260206004820152600c60248201527f6e6f7420616c6c6f77656421000000000000000000000000000000000000000060448201526064016109cf565b6109e2828261167b565b60003073ffffffffffffffffffffffffffffffffffffffff7f000000000000000000000000000000000000000000000000000000000000000016148015611d8b57507f000000000000000000000000000000000000000000000000000000000000000046145b15611db557507f000000000000000000000000000000000000000000000000000000000000000090565b50604080517f00000000000000000000000000000000000000000000000000000000000000006020808301919091527f0000000000000000000000000000000000000000000000000000000000000000828401527f000000000000000000000000000000000000000000000000000000000000000060608301524660808301523060a0808401919091528351808403909101815260c0909201909252805191012090565b600082815260096020908152604080832073ffffffffffffffffffffffffffffffffffffffff8516845290915290205460ff16156109e257600082815260096020908152604080832073ffffffffffffffffffffffffffffffffffffffff8516808552925280832080547fffffffffffffffffffffffffffffffffffffffffffffffffffffffffffffff0016905551339285917ff6391f5c32d9c69d2a47ea670b442974b53935d1edc7fd64eb21e047a839171b9190a45050565b815460009081816005811115611f6e576000611f2f84612582565b611f399085613bc0565b600088815260209020909150869082015463ffffffff161115611f5e57809150611f6c565b611f69816001613b0e565b92505b505b80821015611fbb576000611f82838361266a565b600088815260209020909150869082015463ffffffff161115611fa757809150611fb5565b611fb2816001613b0e565b92505b50611f6e565b801561200a57611fde86611fd0600184613bc0565b600091825260209091200190565b5464010000000090047bffffffffffffffffffffffffffffffffffffffffffffffffffffffff1661200d565b60005b7bffffffffffffffffffffffffffffffffffffffffffffffffffffffff169695505050505050565b61203d612685565b600a80547fffffffffffffffffffffffffffffffffffffffffffffffffffffffffffffff001690557f5db9ee0a495bf2e6ff9c91a7834c1ba4fdd244a5e8aa4e537bd38aeae4b073aa335b60405173ffffffffffffffffffffffffffffffffffffffff909116815260200160405180910390a1565b6109e282826126f3565b6109e282826127b9565b60008060008411612133576040517f08c379a000000000000000000000000000000000000000000000000000000000815260206004820152601660248201527f4552433230536e617073686f743a20696420697320300000000000000000000060448201526064016109cf565b61213b6127d1565b8411156121a4576040517f08c379a000000000000000000000000000000000000000000000000000000000815260206004820152601d60248201527f4552433230536e617073686f743a206e6f6e6578697374656e7420696400000060448201526064016109cf565b60006121b084866127dc565b845490915081036121c85760008092509250506121f0565b60018460010182815481106121df576121df613bd3565b906000526020600020015492509250505b9250929050565b73ffffffffffffffffffffffffffffffffffffffff8281166000818152600d60208181526040808420805485845282862054949093528787167fffffffffffffffffffffffff00000000000000000000000000000000000000008416811790915590519190951694919391928592917f3134e8a2e6d97e929a7e54011ea5485d7d196dd5f0ba4d4ef95803e8e3fc257f9190a46119f382848361287b565b600063ffffffff82111561232b576040517f08c379a000000000000000000000000000000000000000000000000000000000815260206004820152602660248201527f53616665436173743a2076616c756520646f65736e27742066697420696e203360448201527f322062697473000000000000000000000000000000000000000000000000000060648201526084016109cf565b5090565b612337612a20565b600a80547fffffffffffffffffffffffffffffffffffffffffffffffffffffffffffffff001660011790557f62e78cea01bee320cd4e420270b5ea74000d11b0c9f74754ebdbfc544b05a2586120883390565b600061239a600880546001019055565b60006123a46127d1565b90507f8030e83b04d87bef53480e26263266d6ca66863aa8506aca6f2559d18aa1cb67816040516123d791815260200190565b60405180910390a1919050565b60006108216123f1611d25565b836040517f19010000000000000000000000000000000000000000000000000000000000006020820152602281018390526042810182905260009060620160405160208183030381529060405280519060200120905092915050565b600080600061245e87878787612a8d565b9150915061246b81612b7c565b5095945050505050565b73ffffffffffffffffffffffffffffffffffffffff81166000908152600b602052604090208054600181018255905b50919050565b6124b2612a20565b61091a838383612d2f565b61091a838383612d91565b600082815260096020908152604080832073ffffffffffffffffffffffffffffffffffffffff8516845290915290205460ff166109e25761250881612dd0565b612513836020612def565b604051602001612524929190613c02565b604080517fffffffffffffffffffffffffffffffffffffffffffffffffffffffffffffffe0818403018152908290527f08c379a00000000000000000000000000000000000000000000000000000000082526109cf9160040161376f565b60008160000361259457506000919050565b600060016125a184613032565b901c6001901b905060018184816125ba576125ba613c83565b048201901c905060018184816125d2576125d2613c83565b048201901c905060018184816125ea576125ea613c83565b048201901c9050600181848161260257612602613c83565b048201901c9050600181848161261a5761261a613c83565b048201901c9050600181848161263257612632613c83565b048201901c9050600181848161264a5761264a613c83565b048201901c9050610acc8182858161266457612664613c83565b046130c6565b60006126796002848418613cb2565b610acc90848416613b0e565b600a5460ff166126f1576040517f08c379a000000000000000000000000000000000000000000000000000000000815260206004820152601460248201527f5061757361626c653a206e6f742070617573656400000000000000000000000060448201526064016109cf565b565b6126fd82826130dc565b6002547bffffffffffffffffffffffffffffffffffffffffffffffffffffffff10156127ab576040517f08c379a000000000000000000000000000000000000000000000000000000000815260206004820152603060248201527f4552433230566f7465733a20746f74616c20737570706c79207269736b73206f60448201527f766572666c6f77696e6720766f7465730000000000000000000000000000000060648201526084016109cf565b6119f3600f6131e3836131ef565b6127c38282613397565b6119f3600f61356e836131ef565b600061092960085490565b815460009081036127ef57506000610821565b82546000905b8082101561283c576000612809838361266a565b6000878152602090209091508590820154111561282857809150612836565b612833816001613b0e565b92505b506127f5565b60008211801561285a57508361285786611fd0600186613bc0565b54145b156128735761286a600183613bc0565b92505050610821565b509050610821565b8173ffffffffffffffffffffffffffffffffffffffff168373ffffffffffffffffffffffffffffffffffffffff16141580156128b75750600081115b1561091a5773ffffffffffffffffffffffffffffffffffffffff83161561296c5773ffffffffffffffffffffffffffffffffffffffff83166000908152600e60205260408120819061290c9061356e856131ef565b915091508473ffffffffffffffffffffffffffffffffffffffff167fdec2bacdd2f05b59de34da9b523dff8be42e5e38e818c82fdb0bae774387a7248383604051612961929190918252602082015260400190565b60405180910390a250505b73ffffffffffffffffffffffffffffffffffffffff82161561091a5773ffffffffffffffffffffffffffffffffffffffff82166000908152600e6020526040812081906129bc906131e3856131ef565b915091508373ffffffffffffffffffffffffffffffffffffffff167fdec2bacdd2f05b59de34da9b523dff8be42e5e38e818c82fdb0bae774387a7248383604051612a11929190918252602082015260400190565b60405180910390a25050505050565b600a5460ff16156126f1576040517f08c379a000000000000000000000000000000000000000000000000000000000815260206004820152601060248201527f5061757361626c653a207061757365640000000000000000000000000000000060448201526064016109cf565b6000807f7fffffffffffffffffffffffffffffff5d576e7357a4501ddfe92f46681b20a0831115612ac45750600090506003612b73565b6040805160008082526020820180845289905260ff881692820192909252606081018690526080810185905260019060a0016020604051602081039080840390855afa158015612b18573d6000803e3d6000fd5b50506040517fffffffffffffffffffffffffffffffffffffffffffffffffffffffffffffffe0015191505073ffffffffffffffffffffffffffffffffffffffff8116612b6c57600060019250925050612b73565b9150600090505b94509492505050565b6000816004811115612b9057612b90613ced565b03612b985750565b6001816004811115612bac57612bac613ced565b03612c13576040517f08c379a000000000000000000000000000000000000000000000000000000000815260206004820152601860248201527f45434453413a20696e76616c6964207369676e6174757265000000000000000060448201526064016109cf565b6002816004811115612c2757612c27613ced565b03612c8e576040517f08c379a000000000000000000000000000000000000000000000000000000000815260206004820152601f60248201527f45434453413a20696e76616c6964207369676e6174757265206c656e6774680060448201526064016109cf565b6003816004811115612ca257612ca2613ced565b03610b05576040517f08c379a000000000000000000000000000000000000000000000000000000000815260206004820152602260248201527f45434453413a20696e76616c6964207369676e6174757265202773272076616c60448201527f756500000000000000000000000000000000000000000000000000000000000060648201526084016109cf565b73ffffffffffffffffffffffffffffffffffffffff8316612d5b57612d538261357a565b61091a6135b9565b73ffffffffffffffffffffffffffffffffffffffff8216612d7f57612d538361357a565b612d888361357a565b61091a8261357a565b73ffffffffffffffffffffffffffffffffffffffff8381166000908152600d602052604080822054858416835291205461091a9291821691168361287b565b606061082173ffffffffffffffffffffffffffffffffffffffff831660145b60606000612dfe836002613d1c565b612e09906002613b0e565b67ffffffffffffffff811115612e2157612e21613d33565b6040519080825280601f01601f191660200182016040528015612e4b576020820181803683370190505b5090507f300000000000000000000000000000000000000000000000000000000000000081600081518110612e8257612e82613bd3565b60200101907effffffffffffffffffffffffffffffffffffffffffffffffffffffffffffff1916908160001a9053507f780000000000000000000000000000000000000000000000000000000000000081600181518110612ee557612ee5613bd3565b60200101907effffffffffffffffffffffffffffffffffffffffffffffffffffffffffffff1916908160001a9053506000612f21846002613d1c565b612f2c906001613b0e565b90505b6001811115612fc9577f303132333435363738396162636465660000000000000000000000000000000085600f1660108110612f6d57612f6d613bd3565b1a60f81b828281518110612f8357612f83613bd3565b60200101907effffffffffffffffffffffffffffffffffffffffffffffffffffffffffffff1916908160001a90535060049490941c93612fc281613d62565b9050612f2f565b508315610acc576040517f08c379a000000000000000000000000000000000000000000000000000000000815260206004820181905260248201527f537472696e67733a20686578206c656e67746820696e73756666696369656e7460448201526064016109cf565b600080608083901c1561304757608092831c92015b604083901c1561305957604092831c92015b602083901c1561306b57602092831c92015b601083901c1561307d57601092831c92015b600883901c1561308f57600892831c92015b600483901c156130a157600492831c92015b600283901c156130b357600292831c92015b600183901c156108215760010192915050565b60008183106130d55781610acc565b5090919050565b73ffffffffffffffffffffffffffffffffffffffff8216613159576040517f08c379a000000000000000000000000000000000000000000000000000000000815260206004820152601f60248201527f45524332303a206d696e7420746f20746865207a65726f20616464726573730060448201526064016109cf565b613165600083836124aa565b80600260008282546131779190613b0e565b909155505073ffffffffffffffffffffffffffffffffffffffff8216600081815260208181526040808320805486019055518481527fddf252ad1be2c89b69c2b068fc378daa952ba7f163c4a11628f55a4df523b3ef910160405180910390a36109e2600083836124bd565b6000610acc8284613b0e565b825460009081908181156132515761320c87611fd0600185613bc0565b60408051808201909152905463ffffffff8116825264010000000090047bffffffffffffffffffffffffffffffffffffffffffffffffffffffff166020820152613266565b60408051808201909152600080825260208201525b905080602001517bffffffffffffffffffffffffffffffffffffffffffffffffffffffff16935061329b84868863ffffffff16565b92506000821180156132b35750805163ffffffff1643145b1561330d576132c1836135c7565b6132d088611fd0600186613bc0565b80547bffffffffffffffffffffffffffffffffffffffffffffffffffffffff929092166401000000000263ffffffff90921691909117905561338d565b86604051806040016040528061332243612295565b63ffffffff168152602001613336866135c7565b7bffffffffffffffffffffffffffffffffffffffffffffffffffffffff90811690915282546001810184556000938452602093849020835194909301519091166401000000000263ffffffff909316929092179101555b5050935093915050565b73ffffffffffffffffffffffffffffffffffffffff821661343a576040517f08c379a000000000000000000000000000000000000000000000000000000000815260206004820152602160248201527f45524332303a206275726e2066726f6d20746865207a65726f2061646472657360448201527f730000000000000000000000000000000000000000000000000000000000000060648201526084016109cf565b613446826000836124aa565b73ffffffffffffffffffffffffffffffffffffffff8216600090815260208190526040902054818110156134fc576040517f08c379a000000000000000000000000000000000000000000000000000000000815260206004820152602260248201527f45524332303a206275726e20616d6f756e7420657863656564732062616c616e60448201527f636500000000000000000000000000000000000000000000000000000000000060648201526084016109cf565b73ffffffffffffffffffffffffffffffffffffffff83166000818152602081815260408083208686039055600280548790039055518581529192917fddf252ad1be2c89b69c2b068fc378daa952ba7f163c4a11628f55a4df523b3ef910160405180910390a361091a836000846124bd565b6000610acc8284613bc0565b73ffffffffffffffffffffffffffffffffffffffff811660009081526005602090815260408083209183905290912054610b059190613675565b613675565b6126f160066135b460025490565b60007bffffffffffffffffffffffffffffffffffffffffffffffffffffffff82111561232b576040517f08c379a000000000000000000000000000000000000000000000000000000000815260206004820152602760248201527f53616665436173743a2076616c756520646f65736e27742066697420696e203260448201527f323420626974730000000000000000000000000000000000000000000000000060648201526084016109cf565b600061367f6127d1565b90508061368b846136bf565b101561091a578254600180820185556000858152602080822090930193909355938401805494850181558252902090910155565b805460009081036136d257506000919050565b815482906136e290600190613bc0565b815481106136f2576136f2613bd3565b90600052602060002001549050919050565b919050565b60006020828403121561371b57600080fd5b81357fffffffff0000000000000000000000000000000000000000000000000000000081168114610acc57600080fd5b60005b8381101561376657818101518382015260200161374e565b50506000910152565b602081526000825180602084015261378e81604085016020870161374b565b601f017fffffffffffffffffffffffffffffffffffffffffffffffffffffffffffffffe0169190910160400192915050565b73ffffffffffffffffffffffffffffffffffffffff81168114610b0557600080fd5b600080604083850312156137f557600080fd5b8235613800816137c0565b946020939093013593505050565b60008060006060848603121561382357600080fd5b833561382e816137c0565b9250602084013561383e816137c0565b929592945050506040919091013590565b60006020828403121561386157600080fd5b5035919050565b6000806040838503121561387b57600080fd5b82359150602083013561388d816137c0565b809150509250929050565b6000602082840312156138aa57600080fd5b8135610acc816137c0565b6000806000806000608086880312156138cd57600080fd5b85356138d8816137c0565b945060208601356138e8816137c0565b935060408601359250606086013567ffffffffffffffff8082111561390c57600080fd5b818801915088601f83011261392057600080fd5b81358181111561392f57600080fd5b89602082850101111561394157600080fd5b9699959850939650602001949392505050565b803560ff8116811461370457600080fd5b60008060008060008060c0878903121561397e57600080fd5b8635613989816137c0565b955060208701359450604087013593506139a560608801613954565b92506080870135915060a087013590509295509295509295565b600080600080600080600060e0888a0312156139da57600080fd5b87356139e5816137c0565b965060208801356139f5816137c0565b95506040880135945060608801359350613a1160808901613954565b925060a0880135915060c0880135905092959891949750929550565b60008060408385031215613a4057600080fd5b8235613a4b816137c0565b9150602083013561388d816137c0565b60008060408385031215613a6e57600080fd5b8235613a79816137c0565b9150602083013563ffffffff8116811461388d57600080fd5b600181811c90821680613aa657607f821691505b6020821081036124a4577f4e487b7100000000000000000000000000000000000000000000000000000000600052602260045260246000fd5b7f4e487b7100000000000000000000000000000000000000000000000000000000600052601160045260246000fd5b8082018082111561082157610821613adf565b600073ffffffffffffffffffffffffffffffffffffffff808916835280881660208401525085604083015284606083015260a060808301528260a0830152828460c0840137600060c0848401015260c07fffffffffffffffffffffffffffffffffffffffffffffffffffffffffffffffe0601f8501168301019050979650505050505050565b600060208284031215613bb957600080fd5b5051919050565b8181038181111561082157610821613adf565b7f4e487b7100000000000000000000000000000000000000000000000000000000600052603260045260246000fd5b7f416363657373436f6e74726f6c3a206163636f756e7420000000000000000000815260008351613c3a81601785016020880161374b565b7f206973206d697373696e6720726f6c65200000000000000000000000000000006017918401918201528351613c7781602884016020880161374b565b01602801949350505050565b7f4e487b7100000000000000000000000000000000000000000000000000000000600052601260045260246000fd5b600082613ce8577f4e487b7100000000000000000000000000000000000000000000000000000000600052601260045260246000fd5b500490565b7f4e487b7100000000000000000000000000000000000000000000000000000000600052602160045260246000fd5b808202811582820484141761082157610821613adf565b7f4e487b7100000000000000000000000000000000000000000000000000000000600052604160045260246000fd5b600081613d7157613d71613adf565b507fffffffffffffffffffffffffffffffffffffffffffffffffffffffffffffffff019056fea164736f6c6343000811000a9f2df0fed2c77648de5860a4cc508cd0818c85b8b8a1ab4ceeef8d981c8956a6",
  "linkReferences": {},
  "deployedLinkReferences": {}
}