{
  "_format": "hh-sol-artifact-1",
  "contractName": "StepCheck",
  "sourceName": "contracts/StepCheck.sol",
  "abi": [
    {
      "inputs": [
        {
          "internalType": "address",
          "name": "admin",
          "type": "address"
        }
      ],
      "stateMutability": "nonpayable",
      "type": "constructor"
    },
    {
      "anonymous": false,
      "inputs": [
        {
          "indexed": true,
          "internalType": "bytes32",
          "name": "role",
          "type": "bytes32"
        },
        {
          "indexed": true,
          "internalType": "bytes32",
          "name": "previousAdminRole",
          "type": "bytes32"
        },
        {
          "indexed": true,
          "internalType": "bytes32",
          "name": "newAdminRole",
          "type": "bytes32"
        }
      ],
      "name": "RoleAdminChanged",
      "type": "event"
    },
    {
      "anonymous": false,
      "inputs": [
        {
          "indexed": true,
          "internalType": "bytes32",
          "name": "role",
          "type": "bytes32"
        },
        {
          "indexed": true,
          "internalType": "address",
          "name": "account",
          "type": "address"
        },
        {
          "indexed": true,
          "internalType": "address",
          "name": "sender",
          "type": "address"
        }
      ],
      "name": "RoleGranted",
      "type": "event"
    },
    {
      "anonymous": false,
      "inputs": [
        {
          "indexed": true,
          "internalType": "bytes32",
          "name": "role",
          "type": "bytes32"
        },
        {
          "indexed": true,
          "internalType": "address",
          "name": "account",
          "type": "address"
        },
        {
          "indexed": true,
          "internalType": "address",
          "name": "sender",
          "type": "address"
        }
      ],
      "name": "RoleRevoked",
      "type": "event"
    },
    {
      "inputs": [],
      "name": "DEFAULT_ADMIN_ROLE",
      "outputs": [
        {
          "internalType": "bytes32",
          "name": "",
          "type": "bytes32"
        }
      ],
      "stateMutability": "view",
      "type": "function"
    },
    {
      "inputs": [
        {
          "internalType": "bytes32",
          "name": "role",
          "type": "bytes32"
        }
      ],
      "name": "getRoleAdmin",
      "outputs": [
        {
          "internalType": "bytes32",
          "name": "",
          "type": "bytes32"
        }
      ],
      "stateMutability": "view",
      "type": "function"
    },
    {
      "inputs": [
        {
          "internalType": "bytes32",
          "name": "role",
          "type": "bytes32"
        },
        {
          "internalType": "address",
          "name": "account",
          "type": "address"
        }
      ],
      "name": "grantRole",
      "outputs": [],
      "stateMutability": "nonpayable",
      "type": "function"
    },
    {
      "inputs": [
        {
          "internalType": "bytes32",
          "name": "role",
          "type": "bytes32"
        },
        {
          "internalType": "address",
          "name": "account",
          "type": "address"
        }
      ],
      "name": "hasRole",
      "outputs": [
        {
          "internalType": "bool",
          "name": "",
          "type": "bool"
        }
      ],
      "stateMutability": "view",
      "type": "function"
    },
    {
      "inputs": [
        {
          "internalType": "bytes32",
          "name": "role",
          "type": "bytes32"
        },
        {
          "internalType": "address",
          "name": "account",
          "type": "address"
        }
      ],
      "name": "renounceRole",
      "outputs": [],
      "stateMutability": "nonpayable",
      "type": "function"
    },
    {
      "inputs": [
        {
          "internalType": "bytes32",
          "name": "role",
          "type": "bytes32"
        },
        {
          "internalType": "address",
          "name": "account",
          "type": "address"
        }
      ],
      "name": "revokeRole",
      "outputs": [],
      "stateMutability": "nonpayable",
      "type": "function"
    },
    {
      "inputs": [
        {
          "internalType": "uint256",
          "name": "_epoch",
          "type": "uint256"
        }
      ],
      "name": "setEpoch",
      "outputs": [],
      "stateMutability": "nonpayable",
      "type": "function"
    },
    {
      "inputs": [
        {
          "internalType": "uint256",
          "name": "checkSum",
          "type": "uint256"
        },
        {
          "internalType": "address",
          "name": "user",
          "type": "address"
        }
      ],
      "name": "stepCheck",
      "outputs": [
        {
          "internalType": "uint256",
          "name": "",
          "type": "uint256"
        }
      ],
      "stateMutability": "view",
      "type": "function"
    },
    {
      "inputs": [
        {
          "internalType": "bytes4",
          "name": "interfaceId",
          "type": "bytes4"
        }
      ],
      "name": "supportsInterface",
      "outputs": [
        {
          "internalType": "bool",
          "name": "",
          "type": "bool"
        }
      ],
      "stateMutability": "view",
      "type": "function"
    },
    {
      "inputs": [
        {
          "internalType": "uint256",
          "name": "salt",
          "type": "uint256"
        }
      ],
      "name": "updateSalt",
      "outputs": [],
      "stateMutability": "nonpayable",
      "type": "function"
    }
  ],
  "bytecode": "0x608060405260006001556201518060025534801561001c57600080fd5b50604051610db6380380610db683398101604081905261003b916100eb565b61004660008261004c565b5061011b565b6000828152602081815260408083206001600160a01b038516845290915290205460ff166100e7576000828152602081815260408083206001600160a01b03851684529091529020805460ff191660011790556100a63390565b6001600160a01b0316816001600160a01b0316837f2f8788117e7eff1d82e926ec794901d17c78024a50270940304540a733656f0d60405160405180910390a45b5050565b6000602082840312156100fd57600080fd5b81516001600160a01b038116811461011457600080fd5b9392505050565b610c8c8061012a6000396000f3fe608060405234801561001057600080fd5b50600436106100be5760003560e01c80635bb7bb0e1161007657806391d148541161005b57806391d148541461017d578063a217fddf146101c1578063d547741f146101c957600080fd5b80635bb7bb0e146101575780635db7e2821461016a57600080fd5b8063248a9ca3116100a7578063248a9ca3146101005780632f2ff15d1461013157806336568abe1461014457600080fd5b806301ffc9a7146100c35780630ceb2cef146100eb575b600080fd5b6100d66100d13660046109b2565b6101dc565b60405190151581526020015b60405180910390f35b6100fe6100f93660046109f4565b610275565b005b61012361010e3660046109f4565b60009081526020819052604090206001015490565b6040519081526020016100e2565b6100fe61013f366004610a36565b610286565b6100fe610152366004610a36565b6102b0565b6100fe6101653660046109f4565b610368565b610123610178366004610a36565b610379565b6100d661018b366004610a36565b60009182526020828152604080842073ffffffffffffffffffffffffffffffffffffffff93909316845291905290205460ff1690565b610123600081565b6100fe6101d7366004610a36565b6104b8565b60007fffffffff0000000000000000000000000000000000000000000000000000000082167f7965db0b00000000000000000000000000000000000000000000000000000000148061026f57507f01ffc9a7000000000000000000000000000000000000000000000000000000007fffffffff000000000000000000000000000000000000000000000000000000008316145b92915050565b6000610280816104dd565b50600255565b6000828152602081905260409020600101546102a1816104dd565b6102ab83836104ea565b505050565b73ffffffffffffffffffffffffffffffffffffffff8116331461035a576040517f08c379a000000000000000000000000000000000000000000000000000000000815260206004820152602f60248201527f416363657373436f6e74726f6c3a2063616e206f6e6c792072656e6f756e636560448201527f20726f6c657320666f722073656c66000000000000000000000000000000000060648201526084015b60405180910390fd5b61036482826105da565b5050565b6000610373816104dd565b50600155565b6000806002544261708061038d9190610a91565b6103979190610aa4565b6001546040805160c088901c6020808301829052606089901b7fffffffffffffffffffffffffffffffffffffffff0000000000000000000000001683850152605483018690527f8d2f5a5fb59cea1d0292b88a820aa05b04b4d96fdcadd4f6b86f2938fb651484909418607480840182905284518085039091018152609490930190935281519190930120929350909177ffffffffffffffffffffffffffffffffffffffffffffffff808816908216146104ad576040517f08c379a000000000000000000000000000000000000000000000000000000000815260206004820152600d60248201527f696e76616c6964207374657021000000000000000000000000000000000000006044820152606401610351565b509095945050505050565b6000828152602081905260409020600101546104d3816104dd565b6102ab83836105da565b6104e78133610691565b50565b60008281526020818152604080832073ffffffffffffffffffffffffffffffffffffffff8516845290915290205460ff166103645760008281526020818152604080832073ffffffffffffffffffffffffffffffffffffffff85168452909152902080547fffffffffffffffffffffffffffffffffffffffffffffffffffffffffffffff0016600117905561057c3390565b73ffffffffffffffffffffffffffffffffffffffff168173ffffffffffffffffffffffffffffffffffffffff16837f2f8788117e7eff1d82e926ec794901d17c78024a50270940304540a733656f0d60405160405180910390a45050565b60008281526020818152604080832073ffffffffffffffffffffffffffffffffffffffff8516845290915290205460ff16156103645760008281526020818152604080832073ffffffffffffffffffffffffffffffffffffffff8516808552925280832080547fffffffffffffffffffffffffffffffffffffffffffffffffffffffffffffff0016905551339285917ff6391f5c32d9c69d2a47ea670b442974b53935d1edc7fd64eb21e047a839171b9190a45050565b60008281526020818152604080832073ffffffffffffffffffffffffffffffffffffffff8516845290915290205460ff16610364576106cf81610749565b6106da836020610768565b6040516020016106eb929190610b03565b604080517fffffffffffffffffffffffffffffffffffffffffffffffffffffffffffffffe0818403018152908290527f08c379a000000000000000000000000000000000000000000000000000000000825261035191600401610b84565b606061026f73ffffffffffffffffffffffffffffffffffffffff831660145b60606000610777836002610bd5565b610782906002610a91565b67ffffffffffffffff81111561079a5761079a610bec565b6040519080825280601f01601f1916602001820160405280156107c4576020820181803683370190505b5090507f3000000000000000000000000000000000000000000000000000000000000000816000815181106107fb576107fb610c1b565b60200101907effffffffffffffffffffffffffffffffffffffffffffffffffffffffffffff1916908160001a9053507f78000000000000000000000000000000000000000000000000000000000000008160018151811061085e5761085e610c1b565b60200101907effffffffffffffffffffffffffffffffffffffffffffffffffffffffffffff1916908160001a905350600061089a846002610bd5565b6108a5906001610a91565b90505b6001811115610942577f303132333435363738396162636465660000000000000000000000000000000085600f16601081106108e6576108e6610c1b565b1a60f81b8282815181106108fc576108fc610c1b565b60200101907effffffffffffffffffffffffffffffffffffffffffffffffffffffffffffff1916908160001a90535060049490941c9361093b81610c4a565b90506108a8565b5083156109ab576040517f08c379a000000000000000000000000000000000000000000000000000000000815260206004820181905260248201527f537472696e67733a20686578206c656e67746820696e73756666696369656e746044820152606401610351565b9392505050565b6000602082840312156109c457600080fd5b81357fffffffff00000000000000000000000000000000000000000000000000000000811681146109ab57600080fd5b600060208284031215610a0657600080fd5b5035919050565b803573ffffffffffffffffffffffffffffffffffffffff81168114610a3157600080fd5b919050565b60008060408385031215610a4957600080fd5b82359150610a5960208401610a0d565b90509250929050565b7f4e487b7100000000000000000000000000000000000000000000000000000000600052601160045260246000fd5b8082018082111561026f5761026f610a62565b600082610ada577f4e487b7100000000000000000000000000000000000000000000000000000000600052601260045260246000fd5b500490565b60005b83811015610afa578181015183820152602001610ae2565b50506000910152565b7f416363657373436f6e74726f6c3a206163636f756e7420000000000000000000815260008351610b3b816017850160208801610adf565b7f206973206d697373696e6720726f6c65200000000000000000000000000000006017918401918201528351610b78816028840160208801610adf565b01602801949350505050565b6020815260008251806020840152610ba3816040850160208701610adf565b601f017fffffffffffffffffffffffffffffffffffffffffffffffffffffffffffffffe0169190910160400192915050565b808202811582820484141761026f5761026f610a62565b7f4e487b7100000000000000000000000000000000000000000000000000000000600052604160045260246000fd5b7f4e487b7100000000000000000000000000000000000000000000000000000000600052603260045260246000fd5b600081610c5957610c59610a62565b507fffffffffffffffffffffffffffffffffffffffffffffffffffffffffffffffff019056fea164736f6c6343000811000a",
  "linkReferences": {},
  "deployedLinkReferences": {}
}