{
  "_format": "hh-sol-artifact-1",
  "contractName": "StepCheck",
  "sourceName": "contracts/StepCheck.sol",
  "abi": [
    {
      "inputs": [
        {
          "internalType": "address",
          "name": "admin",
          "type": "address"
        }
      ],
      "stateMutability": "nonpayable",
      "type": "constructor"
    },
    {
      "anonymous": false,
      "inputs": [
        {
          "indexed": true,
          "internalType": "bytes32",
          "name": "role",
          "type": "bytes32"
        },
        {
          "indexed": true,
          "internalType": "bytes32",
          "name": "previousAdminRole",
          "type": "bytes32"
        },
        {
          "indexed": true,
          "internalType": "bytes32",
          "name": "newAdminRole",
          "type": "bytes32"
        }
      ],
      "name": "RoleAdminChanged",
      "type": "event"
    },
    {
      "anonymous": false,
      "inputs": [
        {
          "indexed": true,
          "internalType": "bytes32",
          "name": "role",
          "type": "bytes32"
        },
        {
          "indexed": true,
          "internalType": "address",
          "name": "account",
          "type": "address"
        },
        {
          "indexed": true,
          "internalType": "address",
          "name": "sender",
          "type": "address"
        }
      ],
      "name": "RoleGranted",
      "type": "event"
    },
    {
      "anonymous": false,
      "inputs": [
        {
          "indexed": true,
          "internalType": "bytes32",
          "name": "role",
          "type": "bytes32"
        },
        {
          "indexed": true,
          "internalType": "address",
          "name": "account",
          "type": "address"
        },
        {
          "indexed": true,
          "internalType": "address",
          "name": "sender",
          "type": "address"
        }
      ],
      "name": "RoleRevoked",
      "type": "event"
    },
    {
      "inputs": [],
      "name": "DEFAULT_ADMIN_ROLE",
      "outputs": [
        {
          "internalType": "bytes32",
          "name": "",
          "type": "bytes32"
        }
      ],
      "stateMutability": "view",
      "type": "function"
    },
    {
      "inputs": [
        {
          "internalType": "bytes32",
          "name": "role",
          "type": "bytes32"
        }
      ],
      "name": "getRoleAdmin",
      "outputs": [
        {
          "internalType": "bytes32",
          "name": "",
          "type": "bytes32"
        }
      ],
      "stateMutability": "view",
      "type": "function"
    },
    {
      "inputs": [
        {
          "internalType": "bytes32",
          "name": "role",
          "type": "bytes32"
        },
        {
          "internalType": "address",
          "name": "account",
          "type": "address"
        }
      ],
      "name": "grantRole",
      "outputs": [],
      "stateMutability": "nonpayable",
      "type": "function"
    },
    {
      "inputs": [
        {
          "internalType": "bytes32",
          "name": "role",
          "type": "bytes32"
        },
        {
          "internalType": "address",
          "name": "account",
          "type": "address"
        }
      ],
      "name": "hasRole",
      "outputs": [
        {
          "internalType": "bool",
          "name": "",
          "type": "bool"
        }
      ],
      "stateMutability": "view",
      "type": "function"
    },
    {
      "inputs": [
        {
          "internalType": "bytes32",
          "name": "role",
          "type": "bytes32"
        },
        {
          "internalType": "address",
          "name": "account",
          "type": "address"
        }
      ],
      "name": "renounceRole",
      "outputs": [],
      "stateMutability": "nonpayable",
      "type": "function"
    },
    {
      "inputs": [
        {
          "internalType": "bytes32",
          "name": "role",
          "type": "bytes32"
        },
        {
          "internalType": "address",
          "name": "account",
          "type": "address"
        }
      ],
      "name": "revokeRole",
      "outputs": [],
      "stateMutability": "nonpayable",
      "type": "function"
    },
    {
      "inputs": [
        {
          "internalType": "uint256",
          "name": "_epoch",
          "type": "uint256"
        }
      ],
      "name": "setEpoch",
      "outputs": [],
      "stateMutability": "nonpayable",
      "type": "function"
    },
    {
      "inputs": [
        {
          "internalType": "uint256",
          "name": "checkSum",
          "type": "uint256"
        },
        {
          "internalType": "address",
          "name": "user",
          "type": "address"
        }
      ],
      "name": "stepCheck",
      "outputs": [
        {
          "internalType": "uint256",
          "name": "",
          "type": "uint256"
        }
      ],
      "stateMutability": "view",
      "type": "function"
    },
    {
      "inputs": [
        {
          "internalType": "bytes4",
          "name": "interfaceId",
          "type": "bytes4"
        }
      ],
      "name": "supportsInterface",
      "outputs": [
        {
          "internalType": "bool",
          "name": "",
          "type": "bool"
        }
      ],
      "stateMutability": "view",
      "type": "function"
    },
    {
      "inputs": [
        {
          "internalType": "uint256",
          "name": "salt",
          "type": "uint256"
        }
      ],
      "name": "updateSalt",
      "outputs": [],
      "stateMutability": "nonpayable",
      "type": "function"
    }
  ],
  "bytecode": "0x60806040526107e76001556201518060025534801561001d57600080fd5b50604051610e04380380610e0483398101604081905261003c916100ec565b61004760008261004d565b5061011c565b6000828152602081815260408083206001600160a01b038516845290915290205460ff166100e8576000828152602081815260408083206001600160a01b03851684529091529020805460ff191660011790556100a73390565b6001600160a01b0316816001600160a01b0316837f2f8788117e7eff1d82e926ec794901d17c78024a50270940304540a733656f0d60405160405180910390a45b5050565b6000602082840312156100fe57600080fd5b81516001600160a01b038116811461011557600080fd5b9392505050565b610cd98061012b6000396000f3fe608060405234801561001057600080fd5b50600436106100be5760003560e01c80635bb7bb0e1161007657806391d148541161005b57806391d148541461017d578063a217fddf146101c1578063d547741f146101c957600080fd5b80635bb7bb0e146101575780635db7e2821461016a57600080fd5b8063248a9ca3116100a7578063248a9ca3146101005780632f2ff15d1461013157806336568abe1461014457600080fd5b806301ffc9a7146100c35780630ceb2cef146100eb575b600080fd5b6100d66100d13660046109ff565b6101dc565b60405190151581526020015b60405180910390f35b6100fe6100f9366004610a41565b610275565b005b61012361010e366004610a41565b60009081526020819052604090206001015490565b6040519081526020016100e2565b6100fe61013f366004610a83565b610286565b6100fe610152366004610a83565b6102b0565b6100fe610165366004610a41565b610368565b610123610178366004610a83565b610379565b6100d661018b366004610a83565b60009182526020828152604080842073ffffffffffffffffffffffffffffffffffffffff93909316845291905290205460ff1690565b610123600081565b6100fe6101d7366004610a83565b610505565b60007fffffffff0000000000000000000000000000000000000000000000000000000082167f7965db0b00000000000000000000000000000000000000000000000000000000148061026f57507f01ffc9a7000000000000000000000000000000000000000000000000000000007fffffffff000000000000000000000000000000000000000000000000000000008316145b92915050565b60006102808161052a565b50600255565b6000828152602081905260409020600101546102a18161052a565b6102ab8383610537565b505050565b73ffffffffffffffffffffffffffffffffffffffff8116331461035a576040517f08c379a000000000000000000000000000000000000000000000000000000000815260206004820152602f60248201527f416363657373436f6e74726f6c3a2063616e206f6e6c792072656e6f756e636560448201527f20726f6c657320666f722073656c66000000000000000000000000000000000060648201526084015b60405180910390fd5b6103648282610627565b5050565b60006103738161052a565b50600155565b6000806002544261708061038d9190610ade565b6103979190610af1565b60015490915060c085901c907f8d2f5a5fb59cea1d0292b88a820aa05b04b4d96fdcadd4f6b86f2938fb6514841860006103d18380610b2c565b866103dc8680610b2c565b846103eb88604089901b610ade565b60405160200161044295949392919094855260609390931b7fffffffffffffffffffffffffffffffffffffffff00000000000000000000000016602085015260348401919091526054830152607482015260940190565b6040516020818303038152906040528051906020012060001c90508077ffffffffffffffffffffffffffffffffffffffffffffffff168777ffffffffffffffffffffffffffffffffffffffffffffffff16146104fa576040517f08c379a000000000000000000000000000000000000000000000000000000000815260206004820152600d60248201527f696e76616c6964207374657021000000000000000000000000000000000000006044820152606401610351565b509095945050505050565b6000828152602081905260409020600101546105208161052a565b6102ab8383610627565b61053481336106de565b50565b60008281526020818152604080832073ffffffffffffffffffffffffffffffffffffffff8516845290915290205460ff166103645760008281526020818152604080832073ffffffffffffffffffffffffffffffffffffffff85168452909152902080547fffffffffffffffffffffffffffffffffffffffffffffffffffffffffffffff001660011790556105c93390565b73ffffffffffffffffffffffffffffffffffffffff168173ffffffffffffffffffffffffffffffffffffffff16837f2f8788117e7eff1d82e926ec794901d17c78024a50270940304540a733656f0d60405160405180910390a45050565b60008281526020818152604080832073ffffffffffffffffffffffffffffffffffffffff8516845290915290205460ff16156103645760008281526020818152604080832073ffffffffffffffffffffffffffffffffffffffff8516808552925280832080547fffffffffffffffffffffffffffffffffffffffffffffffffffffffffffffff0016905551339285917ff6391f5c32d9c69d2a47ea670b442974b53935d1edc7fd64eb21e047a839171b9190a45050565b60008281526020818152604080832073ffffffffffffffffffffffffffffffffffffffff8516845290915290205460ff166103645761071c81610796565b6107278360206107b5565b604051602001610738929190610b67565b604080517fffffffffffffffffffffffffffffffffffffffffffffffffffffffffffffffe0818403018152908290527f08c379a000000000000000000000000000000000000000000000000000000000825261035191600401610be8565b606061026f73ffffffffffffffffffffffffffffffffffffffff831660145b606060006107c4836002610b2c565b6107cf906002610ade565b67ffffffffffffffff8111156107e7576107e7610c39565b6040519080825280601f01601f191660200182016040528015610811576020820181803683370190505b5090507f30000000000000000000000000000000000000000000000000000000000000008160008151811061084857610848610c68565b60200101907effffffffffffffffffffffffffffffffffffffffffffffffffffffffffffff1916908160001a9053507f7800000000000000000000000000000000000000000000000000000000000000816001815181106108ab576108ab610c68565b60200101907effffffffffffffffffffffffffffffffffffffffffffffffffffffffffffff1916908160001a90535060006108e7846002610b2c565b6108f2906001610ade565b90505b600181111561098f577f303132333435363738396162636465660000000000000000000000000000000085600f166010811061093357610933610c68565b1a60f81b82828151811061094957610949610c68565b60200101907effffffffffffffffffffffffffffffffffffffffffffffffffffffffffffff1916908160001a90535060049490941c9361098881610c97565b90506108f5565b5083156109f8576040517f08c379a000000000000000000000000000000000000000000000000000000000815260206004820181905260248201527f537472696e67733a20686578206c656e67746820696e73756666696369656e746044820152606401610351565b9392505050565b600060208284031215610a1157600080fd5b81357fffffffff00000000000000000000000000000000000000000000000000000000811681146109f857600080fd5b600060208284031215610a5357600080fd5b5035919050565b803573ffffffffffffffffffffffffffffffffffffffff81168114610a7e57600080fd5b919050565b60008060408385031215610a9657600080fd5b82359150610aa660208401610a5a565b90509250929050565b7f4e487b7100000000000000000000000000000000000000000000000000000000600052601160045260246000fd5b8082018082111561026f5761026f610aaf565b600082610b27577f4e487b7100000000000000000000000000000000000000000000000000000000600052601260045260246000fd5b500490565b808202811582820484141761026f5761026f610aaf565b60005b83811015610b5e578181015183820152602001610b46565b50506000910152565b7f416363657373436f6e74726f6c3a206163636f756e7420000000000000000000815260008351610b9f816017850160208801610b43565b7f206973206d697373696e6720726f6c65200000000000000000000000000000006017918401918201528351610bdc816028840160208801610b43565b01602801949350505050565b6020815260008251806020840152610c07816040850160208701610b43565b601f017fffffffffffffffffffffffffffffffffffffffffffffffffffffffffffffffe0169190910160400192915050565b7f4e487b7100000000000000000000000000000000000000000000000000000000600052604160045260246000fd5b7f4e487b7100000000000000000000000000000000000000000000000000000000600052603260045260246000fd5b600081610ca657610ca6610aaf565b507fffffffffffffffffffffffffffffffffffffffffffffffffffffffffffffffff019056fea164736f6c6343000811000a",
  "linkReferences": {},
  "deployedLinkReferences": {}
}